:100000000C942D0B0C948E0B0C94B90E0C948E0B3F
:100010000C948E0B0C948E0B0C948E0B0C948E0BFC
:100020000C948E0B0C948E0B0C94111C0C948E0B58
:100030000C94852A0C948E0B0C948E0B0C948E0BC6
:100040000C948E0B0C948E0B0C948E0B0C948E0BCC
:100050000C948E0B0C94EC2A0C948E0B0C948E0B3F
:100060000C948E0B0C948E0B0C948E0B0C948E0BAC
:100070000C948E0B0C948E0B0C948E0B0C948E0B9C
:100080000C948E0B0C948E0B0C948E0B0C948E0B8C
:100090000C948E0B0C948E0B0C948E0B0C948E0B7C
:1000A0000C948E0B0C948E0B0C948E0B751901E333
:1000B00001E10128022802E102E374FF7501012C2D
:1000C000022C01060206010F020F010802080104BA
:1000D00002040115021501330233750101060206FF
:1000E0000118021801150215010F020F012C022C34
:1000F000012D022D01160216012C022C01E1013402
:10010000023402E1010B020B01170217011702175B
:10011000011302130116021601E10133023302E159
:1001200001380238013802380106020601120212B3
:10013000011502150112021201110211010402043B
:10014000012D022D011602160117021701040204E7
:1001500001170217011602160137023701120212A7
:1001600001110211010F020F010C020C0111021109
:100170000108020801E10138023802E10117021703
:100180000112021201130213012E022E012002207D
:100190000127022701E10124022402E101160216CF
:1001A00001120212011802180115021501060206B9
:1001B00001080208012E022E011F021F01E1012485
:1001C000022402E101100210010C020C01110211C3
:1001D000010C020C0110021001040204010F020FB5
:1001E000012E022E0117021701150215011802181F
:1001F0000108020801E10134023402E1012C022C61
:1002000001E10131023102E1012C022C010B020B50
:10021000010802080104020401070207012C022C54
:10022000012D022D0111021101200220011F021FC8
:1002300001280228746400751901E301E101280214
:100240002802E102E374FF7501012C022C01060271
:1002500006010F020F010802080104020401150241
:100260001501330233750101060206011802180157
:10027000150215010F020F012C022C01E1013402BD
:100280003402E1011A021A011702170117021701BD
:1002900015021501370237010C020C011102110180
:1002A00038023801E1013802380104020401090270
:1002B0000902E101140214011F021F01E1012402DD
:1002C0002402E1010F020F010402040111021101D5
:1002D0000A020A012E022E01070207010802080184
:1002E000E10134023402E101280228746400751926
:1002F00001E301E10128022802E102E374FF750134
:10030000012C022C01060206010F020F010802084F
:1003100001040204011502150133023375010111B4
:100320000211010802080112021201090209010862
:1003300002080117021701060206010B020B012831
:100340000228746400751901E301E1012802280202
:10035000E102E374FF7501012C022C010602060183
:100360000F020F0108020801040204011502150121
:100370003302337501011702170108020801150243
:100380001501100210010C020C01110211010402EE
:1003900004010F020F01E1012D022D02E10106020D
:1003A0000601120212010F020F01120212011502C0
:1003B00015011602160137023701160216010B024B
:1003C0000B01280228746400751901E301E101287A
:1003D000022802E102E374FF7501012C022C0106E0
:1003E0000206010F020F01080208010402040115B0
:1003F0000215013302337501010F020F01160216B7
:1004000001050205010F020F010E020E0133023336
:10041000011902190108020801110211011702173E
:1004200001120212011C021C012C022C012D022DB2
:10043000010B020B01280228746401070207011254
:1004400002120104020401160216012C022C0119E9
:100450000219010802080111021101170217011205
:100460000212011C021C012C022C012D022D01186C
:100470000218012C022C013802380107020701087A
:100480000208011902190138023801160216010783
:10049000020701050205746400751901E3010B02EE
:1004A0000B02E30110021074FF00751901E301E172
:1004B0000128022802E102E374FF7501012C022CDD
:1004C00001060206010F020F0108020801040204DE
:1004D00001150215013302337501010702070112EC
:1004E00002120104020401160216012C022C01085A
:1004F000020801090209010C020C0116021601177B
:10050000021701180218010502050137023701160A
:100510000216010B020B012C022C012D022D0105EC
:10052000020501280228746400751901E101E30243
:10053000E302E174FF7501011502150108020801CB
:10054000050205011202120112021201170217011F
:10055000280228746400751901E001E1012E022EC1
:10056000012E022E012E022E012E022E012E022E0F
:10057000012E022E012E022E012E022E02E102E099
:1005800074FF00751901E301E10128022802E1026C
:10059000E374FF751901E001E1012E022E012E0224
:1005A0002E012E022E012E022E012E022E012E02CF
:1005B0002E012E022E012E022E02E102E074FF75A2
:1005C00001012C022C01060206010F020F01080294
:1005D00008010402040115021501330233750101FB
:1005E000060206010C020C011102110109020901A7
:1005F000120212012802287464751901E3011A021B
:100600001A02E374FF751901E3011F021F02E3746C
:10061000FF751901E30128022802E374FF75010147
:100620002C022C01060206010F020F01080208012C
:10063000040204011502150133023375010115028C
:10064000150104020401110211010A020A01080243
:10065000080115021501E1012D022D02E10106023A
:10066000060107020701280228746474FF74FF75ED
:1006700019013402340115021574FF751901E301E3
:1006800021022102E374FF751901E3011F021F0219
:10069000E374FF751901E30120022002E374FF00F7
:1006A000751901E101E302E302E174FF750101162E
:1006B00002160108020801170217011B021B010E96
:1006C000020E0105020501100210010402040113CB
:1006D0000213012C022C012D022D01100210011217
:1006E00002120107020701080208010F020F012C84
:1006F000022C0113021301060206011E021E01272D
:10070000022701220222012C022C012D022D010FB1
:10071000020F01040204011C021C01120212011842
:10072000021801170217012C022C011802180116D9
:100730000216013602360107020701080208012CE1
:10074000022C012D022D01120212011302130117B6
:100750000217010C020C0112021201110211012CEC
:10076000022C010A020A011502150113021301E10C
:100770000133023302E101060206010402040113FF
:1007800002130116021601E1012D022D02E10116EC
:100790000216011A021A010C020C011702170106B7
:1007A0000206010B020B01330233011B021B01166F
:1007B00002160108020801170217012C022C01156C
:1007C0000215012C022C0115021501040204011767
:1007D000021701080208012C022C011F021F012729
:1007E000022701270227012C022C012202220127C5
:1007F000022701280228746400007B460102037668
:100800003A687F6577482B353B6978796439141EDF
:100810003C6A7A1D16041A1F3D6B061B070821202F
:100820003E6C2C19091715223F6D11050B0A1C236C
:10083000406E7E100D182425416F360E0C122726AF
:10084000427037380F33132D43717534322F2E44D5
:10085000727C7D28303174457351504A524D492A7B
:100860005466594F5C5F4C4B4E62635A5D5E602923
:100870005367585B56576147554842403E3C3A3BA8
:10088000456843413F3D2B357E697A790078141ED7
:100890007C6A7B1D16041A1F7F6B061B070821202C
:1008A0004D6C2C19091715224A6D11050B0A1C23D2
:1008B0004C6E49100D182425516F360E0C12272648
:1008C0004F7037380F33132D52717534502F2E4E11
:1008D00072397D283065314B735464586776012A2C
:1008E000773259745C5F66020362635A5D5E602909
:1008F0005344575B565561474680291E1F202122CD
:1009000023242526272D2E2A2B141A0815171C18E8
:100910000C12132F302878041607090A0B0D0E0F3E
:1009200033343579311D1B06190511103637387DE2
:10093000557A2C393A3B3C3D3E3F40414243534778
:100940005F6061565C5D5E57595A5B626346483230
:100950004445677B7F650301025250514F68696AC5
:100960006B6C6D6E6F7071725800494C754A4D73A7
:100970004B4E767C777E7466547225303258200058
:10098000623A253034582000652530325820002145
:1009900046554C4C21200021464621200077253029
:1009A00032582000214353335F4630210A0021434F
:1009B00053335F5245414459210A00214353325F6A
:1009C00045305F4630210A00214353325F463021D3
:1009D0000A00214353325F4530210A00214353323C
:1009E0005F494E4954210A00214353315F45305F2E
:1009F00025303258210A000A5B4F56525D20004CC8
:100A00002575200053257520000A49443A253034C5
:100A1000582825732920004D6F7573653A206E6F35
:100A20007420737570706F727465640A0052257556
:100A30002000572575200057257520005725752063
:100A40000058257520004125752000492575200096
:100A50005B4348475D20000A5052543A25303258D3
:100A6000204953523A2530345820005B5253545D8C
:100A700020000A4552523A25303258204953523A02
:100A80002530345820000A4B6579626F617264200A
:100A900073746172742E0A000A55534220636F6E9C
:100AA000666967757265642E0A000A0A544D4B3AEE
:100AB000643739636631352B2F4C5546410A0A009D
:100AC00034035A0065006E0069007400680020005D
:100AD0006B006500790062006F00610072006400C5
:100AE000200063006F006E007600650072007400E5
:100AF0006500720000000E0374002E006D002E00D1
:100B00006B002E0000000403090409028D0005019A
:100B100000A03209040000010301010009211101B4
:100B200000012240000705810308000A09040100B2
:100B30000103010200092111010001224D000705F6
:100B4000820308000A0904020001030000000921D1
:100B5000110100012236000705830308000A090479
:100B600003000203000000092111010001222200FC
:100B70000705840320000107050403200001090480
:100B800004000103000000092111010001223900C5
:100B9000070585032000011201100100000008ED87
:100BA000FEEE1B01000102000105010906A101057D
:100BB0000719E029E715002501950875018102054F
:100BC0000819012905950575019102950175039193
:100BD000010507190029F71500250195F875018110
:100BE00002C00631FF0974A1010975150026FF0036
:100BF0009520750881020976150026FF009520755D
:100C0000089102C005010980A10185021601002694
:100C100037001A81002AB700751095018100C005C0
:100C20000C0901A1018503160100269C021A01008E
:100C30002A9C02751095018100C005010902A101DD
:100C40000901A100050919012905150025019505CE
:100C50007501810295017503810105010930093192
:100C60001581257F95027508810609381581257F34
:100C7000950175088106050C0A38021581257F95B6
:100C80000175088106C0C005010906A10105071903
:100C9000E029E71500250195087501810295017588
:100CA000088101050819012905950575019102952D
:100CB00001750391010507190029FF150026FF00A2
:100CC000950675088100C0636F6E73756D65723A25
:100CD00020253034580A0073797374656D3A2025E5
:100CE0003034580A000A002530325820006B6579EC
:100CF000626F6172643A20004C45443A20253032DC
:100D0000580A0025583A2530386225730A000A200F
:100D10002030313233343536370A0064656C5F6B0E
:100D200065795F6269743A2063616E277420646537
:100D30006C3A20253032580A006164645F6B657933
:100D40005F6269743A2063616E2774206164643A5B
:100D500020253032580A00290A002575002F002569
:100D600075005D2800256400200025640020002512
:100D7000640020002564007C0025303258006D6F2F
:100D80007573656B6579205B62746E7C7820792061
:100D90007620685D287265702F61636C293A205B4C
:100DA000006D6B5F776865656C5F74696D655F7416
:100DB0006F5F6D6178203D2025640A006D6B5F7761
:100DC0006865656C5F6D61785F7370656564203D13
:100DD0002025640A006D6B5F74696D655F746F5FD9
:100DE0006D6178203D2025640A006D6B5F6D617830
:100DF0005F7370656564203D2025640A006D6B5F3C
:100E0000696E74657276616C203D2025640A006D00
:100E10006B5F64656C6179203D2025640A006D6B11
:100E20005F776865656C5F74696D655F746F5F6D32
:100E30006178203D2025640A006D6B5F77686565E9
:100E40006C5F6D61785F7370656564203D2025641B
:100E50000A006D6B5F74696D655F746F5F6D6178BB
:100E6000203D2025640A006D6B5F6D61785F7370B3
:100E7000656564203D2025640A006D6B5F696E74B2
:100E8000657276616C203D2025640A006D6B5F649D
:100E9000656C6179203D2025640A000A00257500F3
:100EA000363A20776865656C5F74696D655F746F4D
:100EB0005F6D61783A20000A00257500353A207789
:100EC0006865656C5F6D61785F73706565643A2015
:100ED000000A00257500343A2074696D655F746FEF
:100EE0005F6D61783A20000A00257500333A206D65
:100EF00061785F73706565643A20000A00257500AB
:100F0000323A20696E74657276616C286D73293A85
:100F100020000A00257500313A2064656C6179284B
:100F20002A31306D73293A20000A092D2056616C50
:100F3000756573202D0A004D3E004D25643E20004E
:100F40003F007365742064656661756C740A0043C4
:100F50003E200077686572652064656C74613A2094
:100F6000637572736F723D25642C20776865656CBC
:100F70003D25640A53656520687474703A2F2F65A7
:100F80006E2E77696B6970656469612E6F72672F69
:100F900077696B692F4D6F7573655F6B6579730A40
:100FA000000A092D204D6F7573656B6579202D0A38
:100FB0004553432F713A09717569740A313A0964CE
:100FC000656C6179282A31306D73290A323A0969D2
:100FD0006E74657276616C286D73290A333A096DF7
:100FE00061785F73706565640A343A0974696D6588
:100FF0005F746F5F6D61780A353A09776865656C73
:101000005F6D61785F73706565640A363A09776869
:1010100065656C5F74696D655F746F5F6D61780A9B
:101020000A703A097072696E742076616C75657326
:101030000A643A097365742064656661756C74733B
:101040000A75703A092B310A646F776E3A092D31AF
:101050000A706775703A092B31300A7067646F77D0
:101060006E3A092D31300A0A7370656564203D209F
:1010700064656C7461202A206D61785F73706565AA
:1010800064202A2028726570656174202F2074699D
:101090006D655F746F5F6D6178290A003F004D3E9A
:1010A0002000433E20004C25640A000A092D2043FD
:1010B0006F6E736F6C65202D0A4553432F713A098B
:1010C000717569740A6D3A096D6F7573656B657931
:1010D0000A000A092D204D61676963202D0A643AD0
:1010E0000964656275670A783A0964656275672004
:1010F0006D61747269780A6B3A096465627567207C
:101100006B6579626F6172640A6D3A096465627534
:1011100067206D6F7573650A763A09766572736933
:101120006F6E0A733A097374617475730A633A09CE
:10113000636F6E736F6C65206D6F64650A302D345C
:101140003A096C61796572302D34284631302D466C
:1011500034290A506175733A09626F6F746C6F615C
:101160006465720A6E3A094E4B524F0A003F004EB8
:101170004B524F3A206F66660A004E4B524F3A2050
:101180006F6E0A0074696D65725F726561643332F7
:1011900028293A202530346C580A006B6579626F33
:1011A0006172645F6E6B726F3A2025580A006B653E
:1011B00079626F6172645F69646C653A2025580AD0
:1011C000006B6579626F6172645F70726F746F63D8
:1011D0006F6C3A2025580A00686F73745F6B6579ED
:1011E000626F6172645F6C65647328293A202558C8
:1011F0000A000A092D20537461747573202D0A00AA
:101200004743433A2031312E312E30204156522D62
:101210004C4942433A20322E302E30204156525F04
:10122000415243483A20617672350A004F50544982
:101230004F4E533A204C554641204D4F5553454B48
:1012400045592045585452414B455920434F4E5320
:101250004F4C4520434F4D4D414E44204E4B524F35
:10126000204B45594D41505F53454354494F4E2003
:10127000424F4F544C4F414445525F53495A450ADF
:10128000004255494C443A20643739636631352B66
:10129000202830383A35343A3530204A756C2031C0
:1012A000382032303231290A005649443A20307809
:1012B0004645454428742E6D2E6B2E2920504944F6
:1012C0003A20307831626565285A656E6974682005
:1012D0006B6579626F61726420636F6E766572749C
:1012E000657229205645523A203078303030310A24
:1012F00000444553433A20636F6E76657274205AFA
:10130000656E697468206B6579626F6172642074C0
:101310006F205553420A000A092D205665727369E1
:101320006F6E202D0A000A6D6F7573653A206F6627
:10133000660A000A6D6F7573653A206F6E0A000ABF
:101340006B6579626F6172643A206F66660A000AA3
:101350006B6579626F6172643A206F6E0A000A6D84
:1013600061747269783A206F66660A000A6D61746A
:101370007269783A206F6E0A000A64656275673A8E
:10138000206F6E0A000A64656275673A206F6666B0
:101390000A000A0A626F6F746C6F616465722E2EA8
:1013A0002E2000433E200000930C980C9D0CA20CB4
:1013B000A70CAC0CB10CB60CBB0CC00CC50C41108E
:1013C0003D1055105510551055105510551043101F
:1013D0003F105110551055103D1057105510551015
:1013E00015104110551055103F105510551055103F
:1013F00055105510551051104110371055103B1015
:1014000055105510551017104310551055104B100E
:10141000551055105510191045105510391055100C
:101420003D10551055104F104710551049103F10E2
:101430005510551055104D10581055105510551089
:101440005510551055105510581055101B105510AB
:101450005510431055105510451055105510551086
:101460005510551055105510551055101D1055108C
:10147000551055104B10551055105510551055104E
:10148000551055105510551055101F10551021109E
:1014900023105510551055102510271029105510E0
:1014A0002B102D1055105510551053102F1055108E
:1014B000331031103510551055105510551045107A
:1014C0007C108A10961096106E109610961096103A
:1014D00096109610961096109610961096109610DC
:1014E0009610961070109610721096109610961016
:1014F00096108E109610A3108C10961096109610C1
:1015000096109610961096109610961096109610AB
:101510009610961064108210741086109610761033
:1015200096107A1096108410781088107E10801013
:1015300096109610961096109610961096106810A9
:101540006A106C10901092109610961096109410CD
:10155000C311E511F2111912271232124C12621244
:101560008512A21237135C13DE131D1406143014F7
:10157000401448144C145114561494149A149C1486
:101580009E14A014A814A814A814A214A414A61499
:101590007F1481148314851487148F148F148F146F
:1015A00089148B148D146E1A961A7E1B961A7E1B44
:1015B000C91AEA1A7E1B401B4C1BAC1FAC1FEA1F4A
:1015C000EA1F7320AB209B1F9B1FC5209B1FE72199
:1015D000E721AA229B1FC222E422BD2BC32BC62BCC
:1015E000CC2BE12BE72BEB2BEF2BF32BCF2BD42B9F
:1015F000D82BDE2BF72BFD2B012C542C5A2C5E2CD8
:10160000622C662C132C132C132C132C6A2C702C8C
:10161000742C6D2F7F2F4B2F4B2F4B2F682F4B2F61
:101620004B2FA52F4B2FB52F1D304B2F4B2F4B2F53
:101630004B2FDC2F4B2F4B2FC52F4B2F952F4B2F85
:101640004B2F35303530353035303530353035305D
:101650003530353031304B2F313011241FBECFEFB4
:10166000DAE0DEBFCDBF04B603FE41C08091F403D3
:101670009091F503A091F603B091F7038730904B5A
:10168000A740B04BA1F51092F4031092F50310920D
:10169000F6031092F70314BE0FB6F894A895809144
:1016A0006000886180936000109260000FBE10920D
:1016B00001081092000889E0E3E0F0E08093570011
:1016C000E491E695E370E15080E090E1E33040F48E
:1016D000F0E0EE0FFF1FEB57FE4F8081918100C0BD
:1016E000E0E0F0E8E81BF90BF695E795099511E0C5
:1016F000A0E0B1E0E4EDF5E602C005900D92A63958
:10170000B107D9F723E0A6E9B1E001C01D92A43FDB
:10171000B207E1F70E948F170C94E8320C94000096
:10172000FF93EF93E0919601F0919701309709F0C4
:101730000995EF91FF910895FC018591803011F09A
:10174000EFDFFBCF0895FF27E0E230E247FF0CC058
:10175000419597FF09C0EDE2609570958095909551
:10176000611D711D811D911D27FF02C0219530E370
:1017700050E2AA27660F771F881F991FAA1FA41778
:1017800010F0A41B63955A95A9F7AA3008F0A95F39
:10179000A05DAF93F395611571058105910541F742
:1017A000ED3211F4EF93F395F21718F43F93F3959C
:1017B000FBCF8F91B5DFFA95E1F70895E991F991A3
:1017C0008591803021F0853219F0AADFF9CF089594
:1017D00020E0E89455915532C1F3503311F46894E8
:1017E00055915A3348F4505390F3220F022E220F92
:1017F000220F200D250FF4CF0EF421958991999198
:10180000533619F3533729F1533559F1BC01882761
:101810009927E8945C3621F48991999168945591BF
:10182000543639F446EF7EF077FF0DC08FEF9FEF0F
:101830000AC055374AE039F0583540E121F05236B8
:1018400042E009F00895FF93EF937DDFEF91FF9160
:10185000B7CFFF93EF93FC0181918030B9F360DF44
:10186000FBCFFF93EF9368DFF1CFDF93CF93CDB73B
:10187000DEB72596A3DFCF91DF910895282F8091C1
:10188000A301823079F18330B1F1813009F03CC09D
:1018900048E0749FF0011124E60FF11DE750F74F67
:1018A000E491E03889F18E2F90E034E095958795AA
:1018B0003A95E1F78770992748E0249F9001112419
:1018C000820F931F44E0880F991F4A95E1F7EF704C
:1018D000E80FF92FF11DEE0FFF1FE050F849859139
:1018E0009491089588E0789FF0011124E60FF11D8E
:1018F000E758F74FD5CF48E0749FF0011124E60F69
:10190000F11DE750F84FCCCF80E090E00895DC0166
:101910006B3008F03FC0E62FF0E0EC52F64F129625
:101920008C910C94CE328823A9F180EA96E0089538
:10193000882381F183E895E00895882359F186E5AD
:1019400095E00895882331F189E295E00895882390
:1019500009F18AEA94E008958823E1F089E994E0A6
:1019600008958823B9F088EC93E00895882391F0D6
:1019700085E493E00895882369F08EEE92E008955F
:10198000882341F087E392E00895882319F08CEAD8
:1019900090E0089590E080E008955998519A089554
:1019A0005198599A08955898509A08955098589A6D
:1019B00008955198599A85E08A95F1F7000089B108
:1019C0008695817008955098589A85E08A95F1F728
:1019D000000089B181700895CF93DF93EC010E94DC
:1019E000D90C882311F0209721F4CE01DF91CF91FB
:1019F000089585E08A95F1F700002197F0CFCF9305
:101A0000DF93C2E3D0E00E94D90C811102C020977D
:101A100021F4CE01DF91CF91089585E08A95F1F709
:101A200000002197F0CF2E9826982F9827980E9493
:101A3000CD0C0E94D60CE9E6F0E0808188608083BE
:101A4000E9980895E19AE99A0E94D00C0C94D60C7A
:101A5000E9980E94CD0C0C94D60C0F931F93CF9352
:101A6000DF932FB7F894C0910201D0910301CE010A
:101A7000882781159F4F01F180E09FEF8C2B9D2BD4
:101A800090930301809302012FBFCE0199278F3FCE
:101A90009105A1F5CD2FDD27C03FD10581F0CF3FC6
:101AA000D10549F18091E403C034D105B1F480FF40
:101AB00012C08FE899E009C08FEF90E0DFCF8091EE
:101AC000E40380FF08C087E999E09F938F930E9409
:101AD000350C0F900F90CFEF26C080FF0CC0DF9326
:101AE000CF9388E899E09F938F930E94350C0F90D5
:101AF0000F900F900F900FEF1FEF27C0CE018F6F49
:101B0000019689F08091E40380FF0CC0DF93CF93AE
:101B100080E899E09F938F930E94350C0F900F906F
:101B20000F900F90CD2F0C2F10E08091E40380FFD9
:101B30000CC01F92CF9389E799E09F938F930E94E7
:101B4000350C0F900F900F900F90C801DF91CF913F
:101B50001F910F910895CF93CAE1C15071F00E9477
:101B60002D0D8F3F980711F0CF9108958FE99FE0D9
:101B70000197F1F700C00000F0CF8FEF9FEFF4CF97
:101B800010929C0110929B0110929A01109299015F
:101B900080E090E890930101809300018FEF9FEF28
:101BA00090930301809302010895EF92FF920F93A7
:101BB0001F93CF93DF93C82F109299018091E40374
:101BC00080FF0CC01F92CF938DE999E09F938F9374
:101BD0000E94350C0F900F900F900F90E9980E9483
:101BE000CD0C0E94D60C8FE891E00197F1F700C070
:101BF00000000E94D30C8FE891E00197F1F700C03C
:101C000000000E94D00C80E197E20E94EC0C892B2E
:101C1000B9F481E08093990180919901806180936A
:101C200099010E94D00C0E94D60CE19AE99A8FEF9C
:101C30009FEFDF91CF911F910F91FF90EF9008954B
:101C400010E000E0FF24F394D0E0EE24E39490E56C
:101C50009A95F1F7CE01002E02C0959587950A94CA
:101C6000E2F780FF09C0FE240E94D60C0E94FF0C00
:101C7000892B29F482E0CECF0E94D30CF7CF82E3E8
:101C800090E00E94EC0C892B11F483E0C3CF0F5F2E
:101C90001F4F08301105D9F680E58A95F1F7FF202E
:101CA00041F00E94D60C0E94FF0C892B29F484E09D
:101CB000B1CF0E94D30CF7CF82E390E00E94EC0CEE
:101CC000892B11F485E0A6CF90E59A95F1F70E9453
:101CD000D60C0E94FF0C892B11F486E09BCF8091DB
:101CE0009A01813181F182E390E00E94EC0CC2E321
:101CF000D0E0892B39F487E08DCF85E08A95F1F724
:101D0000000021970E94E30C882321F02097A9F777
:101D100088E080CFCD2BE1F30E94FF0CC2E3D0E03E
:101D2000892B39F489E076CF95E09A95F1F7000098
:101D300021970E94E30C811104C02097A9F78AE043
:101D400069CFCD2BE1F38FEF9FEF90930301809349
:101D500002010E94C00D0E94D00C0E94D60CE19A94
:101D6000E99ADF91CF911F910F91FF90EF900C9422
:101D7000AB0D1F921FB61F9211242F933F934F93C9
:101D80008F939F9399B191708091E5032091000109
:101D90003091010121153048D9F5809398012091A7
:101DA0000001309101013695279530930101209370
:101DB0000001992349F08091000190910101906800
:101DC0009093010180930001209100013091010165
:101DD000C9019927203A09F4E5C0813A910508F034
:101DE00061C08034910509F49FC098F54097D9F1FE
:101DF0002F7D33272115310509F496C0809100010C
:101E00009091010190939C0180939B0180E80EC00A
:101E100020919801821B833010F2809100019091F3
:101E2000010190939C0180939B0180E28093990132
:101E30008091990190E0982F88278F6F90930301EC
:101E40008093020180E090E890930101809300016B
:101E50006BC08038910509F467C08039910519F08D
:101E60008035910559F68091000190910101909380
:101E70009C0180939B01809100019091010197FF4B
:101E80009CC080E180939A018091000190910101B2
:101E900046E0969587954A95E1F7909301018093E6
:101EA00000012FC0803D9105F1F2803E910509F4BB
:101EB00044C0803C910509F0A1CF84E605C095E0BF
:101EC0009A95F1F700008150499902C08111F7CF2E
:101ED000499B28C0811120C080910001909101018F
:101EE00090939C0180939B0180910001909101014E
:101EF000892F9927909301018093000182E28093BA
:101F00009A01809100019091010199278F3F9105DD
:101F100009F055C080EF8ACF45E04A95F1F70000FF
:101F20008150D6CF8823C1F29F918F914F913F91DD
:101F30002F911F901FBE1F901895809100019091C6
:101F4000010190939C0180939B01809100019091ED
:101F50000101892F9927909301018093000183E269
:101F6000CECF95E09A95F1F700008150499902C0D3
:101F70008111F7CF499B1EC0811116C080910001CD
:101F80009091010190939C0180939B0180910001AD
:101F900090910101892F992790930101809300016D
:101FA00081E2ADCF84E6E2CF45E04A95F1F700004B
:101FB0008150E0CF8111B8CFE1CF81E163CF809133
:101FC00003018F3F31F0809102018F3F11F080E4D7
:101FD0002DCF8091020190910301982F8827909333
:101FE0000301809302012091000130910101809151
:101FF000020190910301822B21CFCF93C82F8DEE48
:102000000E94D50D8A3F910521F48C2FCF910C941D
:10201000D50DCF910895EDEFE80FE13808F045C0F8
:10202000F0E0E152F64F0C94CE3287E108958FE153
:1020300008958CE5089580E6089582E6089587E284
:10204000089583E508958FE2089589E3089587E36D
:1020500008958FE3089587E408958FE4089586E551
:1020600008958EE508958FE7089580E0089585E648
:1020700008958EE608958FE6089588E0089580E13A
:10208000089588E1089580E2089588E2089580E344
:10209000089588E3089580E5089587E508958FE51C
:1020A000089589E108958DE608958F7708958FE06A
:1020B0000895CF93C82FE4EEE80FE834B8F5F0E0C8
:1020C000E05AF54F0C94CE32C5E58C2FCF91089590
:1020D000CAE5FBCFCBE5F9CFCCE5F7CFCDE5F5CF22
:1020E000CEE5F3CFCFE5F1CFC0E6EFCFC1E6EDCF40
:1020F000C2E6EBCFC3E6E9CFCFE6E7CFC1E7E5CF56
:10210000C2E7E3CFC4E7E1CFC5E7DFCFC7E7DDCF65
:10211000C8E7DBCFCAE7D9CFCCE7D7CFCFE7D5CF5A
:10212000C0E7D3CFC9E7D1CFCBE7CFCF1F92CF93B3
:1021300088EE99E09F938F930E94350C0F900F903B
:102140000F900F90C2CFC4E5C0CF0F931F93CF93D2
:10215000DF930E94B12A8C010E942D0DEC010196A3
:1021600031F4C8010E94DD2A843F9140A8F3CE01DA
:10217000DF91CF911F910F9108950E94130D0C9440
:10218000220D8091E40381608093E403E7EAF1E0AB
:1021900080E1DF011D928A95E9F70895E82FF0E0CC
:1021A000E955FE4F208130E081E090E002C0880FC9
:1021B000991F6A95E2F72823392381E0232B09F43C
:1021C00080E00895CF93DF93E82FD82FD770E6955E
:1021D000E695E695CE2FCF706D2F8C2F0E94CE10F6
:1021E00081110DC0EC2FF0E0E955FE4F21E030E009
:1021F00001C0220FDA95EAF78081822B8083DF917C
:10220000CF910895CF93DF93E82FD82FD770E6951D
:10221000E695E695CE2FCF706D2F8C2F0E94CE10B5
:10222000882371F0EC2FF0E0E955FE4F81E090E05B
:1022300001C0880FDA95EAF7809590818923808321
:10224000DF91CF910895E82FF0E0E955FE4F8081AE
:102250000895E7EAF1E080E1DF011D928A95E9F750
:102260000895982F8091A301823048F092FB88272F
:1022700080F990FD826091FD84600C94FD0F0895BB
:10228000CF93DF9380919901882371F180919B0115
:1022900090919C01209199019F938F931F922F936E
:1022A00082E79AE09F938F930E94350C8091990169
:1022B00080750F900F900F900F900F900F9071F40A
:1022C0008091A2018B3051F48BE69AE09F938F931B
:1022D0000E94350C1092A2010F900F90109299015C
:1022E00010929C0110929B0180919A01882309F41D
:1022F00040C090919A018091A6019817D1F18091E8
:102300009B0190919C0120919A019F938F931F9222
:102310002F9387E59AE09F938F930E94350C8091CD
:10232000A6010F900F900F900F900F900F9085FFC8
:1023300004C090919A0194FD06C084FF12C0809160
:102340009A0185FF0EC08091A2018B3051F480E587
:102350009AE09F938F930E94350C1092A2010F90E8
:102360000F9080919A018093A60110929C01109287
:102370009B01E091A201EC3008F055C0F0E0E85577
:10238000F54F0C94CE320E94280D0E94B12A9F93E3
:102390008F938BE49AE09F938F930E94350C109259
:1023A000A3011092A5011092A4011092A6010E940F
:1023B00029110E94681F0E94B12A9093A101809365
:1023C000A00181E08093A2012AC08091A001909198
:1023D000A1010E94DD2A893E934028F182E080938A
:1023E000A20121C00E94C00D0E94220D8FE99FE032
:1023F0000197F1F700C000008FEF0E94D50D8A3FD2
:102400009105A9F486E08093A2010E94B12A9F93CE
:102410008F9386E49AE09F938F930E94350C0F90E0
:102420000F900F900F9081E0DF91CF91089583E09E
:10243000EACF0E94280D2E98269A2F98279A0E945C
:10244000B12A9093A1018093A00184E0C8CF80912C
:10245000A0019091A1010E94DD2A853F914018F3CF
:1024600085E0BDCF2E9826982F9827980E94C00D02
:102470000E94220D0E94B12A9F938F9381E49AE0DB
:102480009F938F930E94350C0E94B12A9093A101D3
:102490008093A00186E096CF0E942D0D019619F23F
:1024A0000E94B12A9F938F938CE39AE09F938F931E
:1024B0000E94350C0E94B12A9093A1018093A00143
:1024C00087E080CF8091A0019091A1010E94DD2A38
:1024D000853F914018F089E08093A2010E942D0D64
:1024E000019609F4A0CF0E94B12A9F938F9387E3AE
:1024F0009AE09F938F930E94350C0E94B12A90938B
:10250000A1018093A00188E05DCF8091A00190910E
:10251000A1010E94DD2A853F914018F089E0809357
:10252000A2010E942D0D019609F47DCF0E94B12ACF
:102530009F938F9382E39AE09F938F930E94350C31
:1025400089E040CF80919A01CDEFDFEF8131C9F072
:1025500082EF0E94D50D9C01CFEFDFEF2F3F3207B6
:1025600081F0CEEFDFEF2A3F310559F40E94A5102C
:10257000EC01CF3FDC0711F1DC2FCC270E94A51026
:10258000C82BD093A501C093A4010E94B12A9F93A8
:102590008F938DE29AE09F938F930E94350C8091E8
:1025A000A4019091A5010F900F900F900F900097AC
:1025B00041F482E08093A301E2E012C0D0E0C0E0E9
:1025C000E0CF8F3F9807B1F18E3F2FEF920789F34D
:1025D0008D3F2FEF920789F484E08093A301E4E01C
:1025E000E2508EE191E0E33050F5F0E0EE0FFF1F96
:1025F000E65CFE4F8081918122C08F3F910561F49E
:1026000087E19AE09F938F930E94350C1092A3016B
:102610000F900F90E0E0E4CF803B2FEB920729F47E
:1026200083E08093A301E3E0DBCF882781159F4BF4
:10263000B9F3BFCF81E08093A30183E291E09F9340
:102640008F938091A5018F938091A4018F9389E04E
:102650009AE09F938F930E94350C8AE08093A201A9
:102660000F900F900F900F900F900F90DCCE0E9464
:10267000B12A9F938F9384E09AE09F938F930E9457
:10268000350C8091A3010F900F900F900F90823026
:1026900081F1833059F18BE08093A2010E94B12A2D
:1026A0009F938F938FEF99E09F938F930E94350CA8
:1026B0000F900F900F900F900E942D0D9C012F3FB7
:1026C000320709F4B0CE2115310519F02F3F31053D
:1026D000A9F40E9429110E94681F87EF99E09F9337
:1026E0008F930E94350C0F900F909DCE88EF0E9423
:1026F000D50D0E94FF1C0E943111CDCF9091A301F6
:10270000933009F4D8C078F4913081F0923009F018
:102710008ACEE0919E01E93008F07EC0F0E0EC54F2
:10272000F54F0C94CE329430A1F37DCE90919F0161
:102730009230A1F158F491111AC0803E71F0813E9F
:1027400081F087FD10C00E94E2106DCE933071F1D0
:10275000943081F110929F0166CE81E080939F01B9
:1027600062CE82E0FBCF8F770E9402115CCE8A3A64
:1027700089F358F48A3271F3863361F387FD08C018
:102780000E9459100E94E210E5CF863BB9F7E2CFD4
:102790008F770E9459100E940211DCCF8D3121F0F9
:1027A0008D39C1F684E0DACF83E0D8CF853491F655
:1027B00085E5E8CF853C71F685E5EDCF803ED1F02B
:1027C00098F48338E9F08438F9F087FFBCCF0E9491
:1027D00029118CED99E09F938F930E94350C0F90F7
:1027E0000F901092A2011FCE813E41F0803F69F709
:1027F00081E001C082E080939E0115CE84E0FBCF92
:1028000082E00E94E21008C08FE7FBCF893521F0FB
:10281000803F29F0823129F410929E0104CE83E09A
:10282000EACF10929E0187FD03C00E940B108BCF50
:102830000E94291182ED99E0CECF833859F0843877
:1028400069F010929E0187FF8FCF0E94291188ECBA
:1028500099E0C1CF82E00E940211DECF8FE7FBCF6B
:102860008231D1F28935C1F210929E0187FD03C0F9
:102870000E940B1079CF0E9429118BEB99E0ABCF0E
:10288000843121F0803F41F686E0B5CF85E0B3CFBB
:10289000873711F680E0B5CF843109F0BDCF87E0EE
:1028A000AACF803F09F0B8CF88E0A5CF873709F0DD
:1028B000B3CF80E0D0CF90919D01992369F0913002
:1028C00009F0B1CDEDE7E80FEB3008F041C0F0E0E2
:1028D000E354F54F0C94CE328E3858F48338F8F028
:1028E000EDE7E80FEB30D8F4F0E0E853F54F0C9447
:1028F000CE32803FA1F481E080939D0194CD82E0AF
:1029000022CF8FE720CF8BE01ECF86E01CCF80E068
:102910001ACF81E018CF89E016CF8AE014CF87FF65
:1029200012CF8EEA99E057CF82E00E9402111092F6
:102930009D0179CD8FE7F9CF8BE0F7CF86E0F5CF1A
:1029400080E0F3CF81E0F1CF89E0EFCF8AE0EDCFF7
:1029500010929D0187FF08CF84EA99E03CCF8091D7
:10296000DB020895CF93DF9300D00F92CDB7DEB78F
:102970002091E002243019F523E029838A839B8388
:102980002093E9008FEF9091E800815095FD06C0FB
:1029900095ED9A95F1F700008111F5CF8091E8004F
:1029A00085FF0DC050E040E063E070E0CE0101968D
:1029B0000E943F198091E8008E778093E8000F9085
:1029C0000F900F90DF91CF910895CF93DF9300D0B8
:1029D0000F92CDB7DEB79C018091E002843031F5D3
:1029E00082E08983205831093B832A8383E08093E6
:1029F000E9008FEF9091E800815095FD06C095EDBC
:102A00009A95F1F700008111F5CF8091E80085FFDC
:102A10000DC050E040E063E070E0CE0101960E94FE
:102A20003F198091E8008E778093E8000F900F9017
:102A30000F90DF91CF9108952091E0022430F1F4BE
:102A400022E02093E9002FEF3091E800215035FD7E
:102A500006C035ED3A95F1F700002111F5CF209130
:102A6000E80025FF0BC050E040E065E070E00E9408
:102A70003F198091E8008E778093E8000895CF9306
:102A8000DF93D82FC92F8091E0028430D1F4809158
:102A900014018823F1F0809115018823D1F085E09D
:102AA0008093E90081E8815021F09091E80095FF42
:102AB0000BC08091E80050E040E060E270E085FDEE
:102AC0001AC0DF91CF9108959AE29A95F1F700C06C
:102AD000EACF81E08093E90081E8815021F0909174
:102AE000E80095FF1BC08091E80085FFEACF50E029
:102AF00040E068E070E08D2F9C2F0E943F1980918C
:102B0000E8008E778093E80080E2ED2FFC2FABEB9E
:102B1000B2E001900D928A95E1F7D3CFEFE3F1E0B7
:102B20003197F1F700C00000D8CFCF93DF9300D0EA
:102B300000D00F92CDB7DEB72091B9012D832111BE
:102B40000CC00E94BD2A643C79408105910528F0A3
:102B500081E08093B901B1E0BD838D810F900F902A
:102B60000F900F900F90DF91CF910895FF920F93E8
:102B70001F93CF93DF93D82F0FB607FE47C08091E6
:102B8000E002843071F08091070190E0019620917D
:102B9000090130E0822393232091080128171906A8
:102BA000A9F50E94951581110FC02091070130E011
:102BB0002F5F3F4F8091090190E0282339238091B6
:102BC00008018217130611F50E94B12A8C01809129
:102BD000E900C091EC00C795CC27C7958F70C82B32
:102BE00084E08093E90085E0F82E8091EB0085FD7C
:102BF0000AC09091EB00892F817090FF04C09091E2
:102C0000EE0097FD42C0CF70C093E90080910701AC
:102C100090E09C012F5F3F4F4091090150E0242339
:102C20003523409108014217130609F47BC0E09157
:102C30000501F0910601E80FF91FD083809107018B
:102C40008F5F909109018923809307016BC0E09108
:102C50000501F0910601E90FF11D20819F5F309180
:102C600009019323909308012093F1009091E800CB
:102C700095FD0BC09091E80090FF07C09091E8008F
:102C80009E779093E800F0920401909108012091C2
:102C900007013091E800291731F135FDD8CF80E0E8
:102CA00026C01092F1002EC030E02F5F3F4F4091C0
:102CB000090150E0242335239217130609F0A3CF0E
:102CC00080910401882309F49ECF0E94B12A9C01BF
:102CD0008017910709F489CF809104018150809376
:102CE0000401890182CF35FFDACFD093F100309112
:102CF000F3004091F200532F452B79F03091E8001A
:102D000030FF0BC03091E80035FDCBCF3091E800AB
:102D10003E773093E800F0920401882329F2CF70C7
:102D2000C093E90080E0DF91CF911F910F91FF9058
:102D300008958091E902811104C00E94961B0C94B1
:102D4000F31B08951092E90208951092E902089584
:102D500042E061EC81E00E94BB1842E061EC82E05D
:102D60000E94BB1842E061EC83E00E94BB1842E283
:102D700061EC84E00E94BB1842E261EC85E00C94B7
:102D8000BB188091E202893081F148F4823009F465
:102D900092C0833009F44DC0813041F008958A30EB
:102DA00009F479C08B3009F45FC008958091E10285
:102DB000813AF1F58091E800877F8093E800809167
:102DC000E5029091E602892B61F460E28BEB92E0E0
:102DD00070E00E9490198091E8008B778093E80062
:102DE000089560E090E080E0F3CF8091E1028132CD
:102DF000F9F48091E5029091E6028B7F892BC1F472
:102E00008091E800877F8093E8008091E80082FF4E
:102E10000BC08091F1008093DB028091E8008B77FA
:102E20008093E8000C94EF188091E0028111EDCFBF
:102E300008958091E102813AD9F78091E50290915D
:102E4000E602892BA9F78091E800877F8093E8004C
:102E50008091E80080FFFCCF809114018093F10005
:102E60008091E8008E77DCCF8091E102813201F71A
:102E70008091E5029091E602892BD1F68091E800DD
:102E8000877F8093E8000E94EF188091E30280938F
:102E900014010C94681F8091E102813249F68091FF
:102EA000E800877F8093E8000E94EF188091E40299
:102EB0008093DC0208958091E102813A09F0B8CF55
:102EC0008091E800877F8093E8008091E80080FF90
:102ED000FCCF8091DC02C2CF08958091DB02809309
:102EE000BA011092DB020E9429110C94681F0C9405
:102EF0006D170E94602A8091DD02882329F00E94CC
:102F00006D2A81110C94A51808950E94812A809140
:102F1000BA018093DB0208950C948517089584B755
:102F2000877F84BF0FB6F894A89580916000886170
:102F300080936000109260000FBE80E890E00FB6B2
:102F4000F89480936100909361000FBE86EB95E149
:102F50000E94312A8AE091E00E94FA1C8AEA9AE0F3
:102F60000E949C0B0E94BD100E94B91D0E94961BDE
:102F70000E94F31B78940E94BB1D8091E002843074
:102F800009F044C088E99AE00E949C0B0E946C17EB
:102F900086E89AE00E949C0B8091E0028530D9F18E
:102FA0000E94BF1D2091E4003091E5008091B7019F
:102FB0009091B8012817390731F18091E400909180
:102FC000E5009093B8018093B7010E94951588237E
:102FD000D1F02091E0022430B1F49091E900809189
:102FE000EC008795882787959F70892B2093E900AF
:102FF0009091EB0090FF04C09091EE0097FD2AC0E5
:103000008F708093E9000E94E01CC6CF0E94E01CF4
:103010000E948E17B2CF0E947917BECFE0910501B2
:10302000F0910601E90FF11D20819F5F30910901A8
:103030009323909308012093F1009091E80095FD6F
:1030400009C09091E80090FF05C09091E8009E773C
:103050009093E8009091080120910701291721F031
:103060002091E80025FDDACF9091F3002091F20045
:10307000392F232B29F29091E80090FFC1CF909136
:10308000E80095FD06C09091E8009E779093E800D7
:10309000B7CF1092F100F3CFFC01CB01DA012F2F53
:1030A000332723303105D1F070F42130310509F494
:1030B00047C02230310569F48DE890E02AE03BE01A
:1030C0002D933C93089521323105E9F022323105E8
:1030D00039F190E080E030E020E0F2CFCF01992795
:1030E000E13059F08230910559F0E6E0FBE0892BA0
:1030F00081F7849190E09F01E3CFE6EFFAE0F9CF0A
:10310000E0ECFAE0F6CF6530710518F7880F991FEB
:10311000FC01E15BFE4F2081318189E090E0D0CF5E
:1031200065307105B0F6FB01EE0FFF1FEB5BFE4F44
:1031300020813181805C9E4FFC01808190E0C0CF76
:1031400082E190E027E93BE0BBCF80E189BD82E1ED
:1031500089BD09B400FEFDCF8091D8008F7D80939A
:10316000D8008091E00082608093E0008091E000D0
:1031700081FDFCCF0895982F973028F08F708093B1
:10318000E90081E008959093E900242F762F50E024
:10319000981731F07091EC002091ED005091F00003
:1031A00021FD02C09F5FE8CF3091EB003E7F30935E
:1031B000EB003091ED003D7F3093ED003091EB005E
:1031C00031603093EB007093EC002093ED0050934E
:1031D000F0002091EE0027FDE5CF80E0089580917A
:1031E000E10287FF13C08091E80082FF06C0809152
:1031F000E8008B778093E80004C08091E0028111A1
:10320000F2CF08958091E0028823D9F38091E800FD
:1032100080FFF8CF8091E8008E77ECCF2091E4001A
:103220003091E50095E6A9012091EC00822F817094
:1032300020FF06C08091E80080FF06C080E008956E
:103240002091E80022FD1AC08091E002882389F0D5
:10325000853089F08091EB0085FD0FC02091E4005E
:103260003091E50042175307F9F29150E1F684E0FE
:10327000089582E0089583E0089581E00895AF9273
:10328000BF92CF92DF92FF920F931F93CF93DF9362
:103290006C01EB018A010E940E19F82E811125C0E4
:1032A0000115110539F0F80180819181C81BD90BF6
:1032B000C80ED91EB12CA12C2097B9F08091E8003E
:1032C00085FD24C08091E8008E778093E8000E94FD
:1032D000E01C01151105A1F0F801808191818A0D92
:1032E0009B1D9183808385E0F82E8F2DDF91CF91F8
:1032F0001F910F91FF90DF90CF90BF90AF900895F6
:103300000E940E198823C1F2F82EEFCFF6018191A9
:103310006F018093F1002197FFEFAF1ABF0ACCCF66
:10332000FC01CB012091E7023091E8022617370714
:1033300090F0009729F42091E8002E772093E80080
:1033400040E0009751F4411108C08091E80082FFED
:1033500031C080E00895C901F3CF2091E00222231B
:10336000A9F12530A9F12091E80023FD2DC020917D
:10337000E80022FDEACF2091E80020FFE2CF309163
:10338000F3002091F200009719F02830310558F031
:1033900041E02830310509F040E02091E8002E7727
:1033A0002093E800CECF41914093F10001972F5F29
:1033B0003F4FE9CF8091E002882341F0853041F012
:1033C0008091E80083FFC1CF81E0089582E00895F5
:1033D00083E00895FC01CB012091E7023091E802DF
:1033E0002617370790F0009729F42091E8002E77F0
:1033F0002093E80040E0009751F4411108C080910B
:10340000E80082FF32C080E00895C901F3CF209127
:10341000E0022223B1F12530B1F12091E80023FD33
:103420002EC02091E80022FDEACF2091E80020FF85
:10343000E2CF3091F3002091F200009719F028308C
:10344000310558F041E02830310509F040E0209185
:10345000E8002E772093E800CECF44914093F1000E
:10346000319601972F5F3F4FE8CF8091E00288238C
:1034700041F0853041F08091E80083FFC0CF81E0CA
:10348000089582E0089583E008951F93CF93DF931A
:10349000CDB7DEB7AA970FB6F894DEBF0FBECDBF8B
:1034A00081EE92E0FC0101962091F100208322E060
:1034B000893E9207B9F70E94C1168091E80083FF08
:1034C0001DC18091E1029091E2029A3008F016C18C
:1034D000E92FF0E0ED52F54F0C94CE32803899F0A0
:1034E000823809F00BC18091E5028F70873008F0B7
:1034F00005C18093E9008091EB0085FB882780F966
:103500001092E90006C08091DE029091DD029111D7
:1035100082609091E800977F9093E8008093F1009B
:103520001092F1008091E8008E77E4C0882309F4BE
:10353000D2C0823009F0E2C08091E3028111D5C08F
:103540008091E5028F702FEF280F263008F0D6C04B
:103550008093E9002091EB0020FFC7C0933031F445
:103560008091EB0080628093EB00BFC09091EB00F4
:1035700090619093EB0021E030E001C0220F8A952A
:10358000EAF72093EA001092EA008091EB0088604D
:10359000EACF8111B3C01091E3021F778091E3005D
:1035A0008078812B8093E3008091E800877F80936F
:1035B000E8000E94EF188091E80080FFFCCF809126
:1035C000E30080688093E30082E0111183E0809340
:1035D000E00294C08058823008F090C08091E302ED
:1035E0009091E4028C3D23E0920799F583E08A8371
:1035F0008AE289834FB7F894DE01139620E03EE01B
:1036000051E2E32FF0E050935700849120FF03C074
:1036100082958F703F5F8F708A30C8F0895C90E030
:103620008D939D932F5F243161F74FBF8091E80008
:10363000877F8093E8006AE270E0CE0101960E94E5
:1036400090198091E8008B778093E80057C0805DE7
:10365000E6CF6091E5027091E602AE014F5F5F4FE9
:103660000E944C18BC01892B09F448C08091E800E5
:10367000877F8093E80089819A810E94EA19E1CFCF
:103680008038E1F58091E800877F8093E8008091A1
:10369000DF028093F10046CF811130C09091E302A8
:1036A000923060F58091E800877F8093E8009093E6
:1036B000DF020E94EF188091DF02882311F084E07E
:1036C00005C08091E30087FDFACF81E08093E0029E
:1036D0000E94A81613C08091E302813079F481E042
:1036E000933009F080E08093DD021092E900809130
:1036F000E800877F8093E8000E94EF188091E8003F
:1037000083FF0AC08091E800877F8093E800809162
:10371000EB0080628093EB00AA960FB6F894DEBFB0
:103720000FBECDBFDF91CF911F9108950E94041C61
:103730000E940C1CE0EEF0E0808181608083E8ED67
:10374000F0E080818F77808319BCA7EDB0E08C9189
:103750008E7F8C9380818F7E80831092E902089502
:103760000F931F93CF93DF930E94041C0E940C1CA5
:10377000C8EDD0E088818F778883888180688883CE
:1037800088818F7D888319BC1092E0021092DF023D
:103790001092DD021092DE0200EE10E0F80180814E
:1037A0008B7F808388818160888342E060E080E055
:1037B0000E94BB18E1EEF0E080818E7F8083E2EE14
:1037C000F0E0808181608083808188608083F8015F
:1037D00080818E7F8083888180618883DF91CF9113
:1037E0001F910F910895E8EDF0E080818F7E808336
:1037F000E7EDF0E080818160808384E082BF81E03A
:103800008093E9020C94B01BE8EDF0E080818E7F9C
:1038100080831092E20008951092DA001092E10085
:1038200008951F920F920FB60F9211242F933F937A
:103830004F935F936F937F938F939F93AF93BF93B8
:10384000EF93FF938091E10082FF0BC08091E20033
:1038500082FF07C08091E1008B7F8093E1000E948E
:10386000DF1C8091DA0080FF19C08091D80080FFB2
:1038700015C08091DA008E7F8093DA008091D900A4
:1038800080FF8FC080E189BD82E189BD09B400FE5F
:10389000FDCF81E08093E0020E9499168091E100C3
:1038A00080FF19C08091E20080FF15C08091E20086
:1038B0008E7F8093E2008091E20080618093E2003D
:1038C0008091D80080628093D80019BC85E08093F5
:1038D000E0020E9477178091E10084FF29C0809167
:1038E000E20084FF25C080E189BD82E189BD09B481
:1038F00000FEFDCF8091D8008F7D8093D80080910D
:10390000E1008F7E8093E1008091E2008F7E8093C2
:10391000E2008091E20081608093E2008091DF020A
:10392000882309F444C084E08093E0020E948C174D
:103930008091E10083FF24C08091E20083FF20C0DA
:103940008091E100877F8093E10082E08093E00234
:103950001092DF028091E1008E7F8093E1008091E0
:10396000E2008E7F8093E2008091E200806180938C
:10397000E20042E060E080E00E94BB180E94A516D1
:10398000FF91EF91BF91AF919F918F917F916F9137
:103990005F914F913F912F910F900FBE0F901F900D
:1039A000189519BC1092E0020E94A21677CF809160
:1039B000E30087FD02C081E0B7CF83E0B5CF089573
:1039C000CF938091E002882399F08091E900C09123
:1039D000EC00C795CC27C7958F70C82B1092E900D3
:1039E0008091E80083FD0E94451ACF70C093E900E2
:1039F000CF9108959093EF028093EE020895E091A5
:103A0000EE02F091EF02309721F00190F081E02D6D
:103A1000099480E00895EF92FF920F931F93CF9344
:103A2000DF938C01E091EE02F091EF023097A9F163
:103A30000280F381E02D09958091E40382FF2DC07F
:103A400080FF04C08DEE9CE00E949C0BE801C80141
:103A500080967C0107EE1CE08091E40380FF0BC0A0
:103A600088811F928F931F930F930E94350C0F90A4
:103A70000F900F900F902196CE15DF0569F780917A
:103A8000E40380FF0AC085EE9CE0DF91CF911F9197
:103A90000F91FF90EF900C949C0BDF91CF911F91B1
:103AA0000F91FF90EF900895E091EE02F091EF02F8
:103AB000309721F00480F581E02D09940895CF938B
:103AC000DF93EC018091EC029091ED028C179D0741
:103AD00001F1D093ED02C093EC02E091EE02F0917F
:103AE000EF023097B1F00680F781E02DCE01099505
:103AF0008091E4038570853061F4DF93CF9387ED87
:103B00009CE09F938F930E94350C0F900F900F9025
:103B10000F90DF91CF910895CF93DF93EC018091C7
:103B2000EA029091EB028C179D0701F1D093EB0212
:103B3000C093EA02E091EE02F091EF023097B1F00B
:103B40000084F185E02DCE0109958091E403857014
:103B5000853061F4DF93CF9387EC9CE09F938F9344
:103B60000E94350C0F900F900F900F90DF91CF9126
:103B700008950C946C1E0E94A82A0C94C1109F9268
:103B8000AF92BF92CF92DF92EF92FF920F931F936B
:103B9000CF93DF9300D000D00F92CDB7DEB70E9455
:103BA000401181EFC82E82E0D82E10E0812F0E94B4
:103BB0002311F82EF60191906F01981699F18091DA
:103BC000E40381FD0E946D1E9F24E12C01E056015B
:103BD000F1E0AF1AB108892D8023F9F0E9821A8348
:103BE00091E08F2D802309F490E09B830E94B12AFD
:103BF0008160782F9D838C8349815A816B81892FC5
:103C00000E94A31E49815A816B817C818D810E9413
:103C10004B2AF501808180278083E394000FF8E030
:103C2000EF12D9CF1F5F103109F0C0CF8FEF89831A
:103C30008A831B820E94B12A8160782F9D838C83A6
:103C400049815A816B81892F0E94A31E0E944A2AB2
:103C50000E94052D0E94FF1C9091F002891749F1E6
:103C60000E94FF1C8093F0029091E40395709530C0
:103C700061F41F928F9388EF9CE09F938F930E9433
:103C8000350C0F900F900F900F908091F0020F90D5
:103C90000F900F900F900F90DF91CF911F910F9188
:103CA000FF90EF90DF90CF90BF90AF909F900C94DB
:103CB0005C2A0F900F900F900F900F90DF91CF9193
:103CC0001F910F91FF90EF90DF90CF90BF90AF903A
:103CD0009F9008950C9431110895EF92FF920F93E5
:103CE0001F93CF93DF938EE09DE00E949C0BD0E06A
:103CF000C0E089E3E82E81E0F82E03E01DE08C2F80
:103D00000E9423110E94362AFF92EF921F928F93F6
:103D1000DF93CF931F930F930E94350C21968DB79D
:103D20009EB708960FB6F8949EBF0FBE8DBFC031E8
:103D3000D10529F7DF91CF911F910F91FF90EF905F
:103D4000089508950895CF93DF93CDB7DEB72B97ED
:103D50000FB6F894DEBF0FBECDBF4F83588769877B
:103D60007A878B878A859B85892B21F0842F8523F1
:103D70008F3FD1F41E8285E0FE013796DE01119659
:103D800001900D928A95E1F749815A816B817C817E
:103D90008D819E812B960FB6F894DEBF0FBECDBFEE
:103DA000DF91CF910C94792569857A858B850E9466
:103DB0004B2AE0CFCF93C82F882309F43FC08CEF64
:103DC0008C0F813A58F48C2F0E943D30811136C0FF
:103DD0008C2F0E942C29CF910C940B2A80E28C0FFF
:103DE000883048F4C77081E001C0880FCA95EAF7AF
:103DF0000E94D029F0CF8BE58C0F833068F481E8E6
:103E000090E0C53A31F083E890E0C63A11F482E8D8
:103E100090E0CF910C945F1DC85AC73178F480E7C9
:103E200090E0C63141F0EC2FF0E0EE0FFF1FE75AB3
:103E3000FE4F80819181CF910C948C1DCF9108957C
:103E4000882329F19CEF980F913A20F40E94792958
:103E50000C940B2A90E2980F983050F4877091E000
:103E600001C0990F8A95EAF7892F0E94D629F0CFD1
:103E70009BE5980F933020F490E080E00C945F1D58
:103E8000885A873120F490E080E00C948C1D0895CE
:103E9000882321F00E94D0290C940B2A08958823AE
:103EA00021F00E94D6290C940B2A08950E94F22931
:103EB0000E94BF290E940B2A0E94EB2D0E94782CA1
:103EC00090E080E00E945F1D90E080E00C948C1DEB
:103ED0000E94E1290C94561FAF92BF92CF92DF92BD
:103EE000EF92FF920F931F93CF93DF93CDB7DEB77F
:103EF00029970FB6F894DEBF0FBECDBF5C010E94BC
:103F00005E2A811118C085E0F501DE01119601904D
:103F10000D928A95E1F7F50180819181F280E5802B
:103F2000E2942FE0E22223813481232B21F08923A4
:103F30008F3F09F05FC329960FB6F894DEBF0FBE1E
:103F4000CDBFDF91CF911F910F91FF90EF90DF9048
:103F5000CF90BF90AF900895F12FFF70EF2E107F9C
:103F600019F0E29490EFE922FF20D1F0EE2029F041
:103F70008E2D0E94E4290E940B2A802F29960FB6CD
:103F8000F894DEBF0FBECDBFDF91CF911F910F918F
:103F9000FF90EF90DF90CF90BF90AF900C94DA1E1F
:103FA000802F0E94201FEE2031F28E2D0E94EA29E0
:103FB00029960FB6F894DEBF0FBECDBFDF91CF912B
:103FC0001F910F91FF90EF90DF90CF90BF90AF9037
:103FD0000C940B2A212F2F70D22E107F103219F043
:103FE000D29480EFD822002379F0013009F455C033
:103FF000FF2009F463C0EE2059F0F501858180FFB0
:1040000007C28F70858304C0FF2059F1E11013C0EF
:104010008D2D29960FB6F894DEBF0FBECDBFDF9170
:10402000CF911F910F91FF90EF90DF90CF90BF90B5
:10403000AF900C94481F31E08D2DE312EACF299602
:104040000FB6F894DEBF0FBECDBFDF91CF911F91A9
:104050000F91FF90EF90DF90CF90BF90AF900C94B6
:10406000F529E11015C00E94F8298D2D29960FB66B
:10407000F894DEBF0FBECDBFDF91CF911F910F919E
:10408000FF90EF90DF90CF90BF90AF900C944F1FB8
:1040900041E0E41609F44FCFE6CFFF2051F055E0A0
:1040A0005E1508F448CF0E94CD298D2109F4B0CFC8
:1040B000DCCF84E08E1508F43ECFD7CFEE20A9F2F6
:1040C000802F29960FB6F894DEBF0FBECDBFDF91CB
:1040D000CF911F910F91FF90EF90DF90CF90BF9005
:1040E000AF900C94201F812F869586958370D9F010
:1040F000813009F020CFC8019370F11002C090E028
:1041000080E029960FB6F894DEBF0FBECDBFDF91D9
:10411000CF911F910F91FF90EF90DF90CF90BF90C4
:10412000AF900C948C1DC8019370F11002C090E008
:1041300080E029960FB6F894DEBF0FBECDBFDF91A9
:10414000CF911F910F91FF90EF90DF90CF90BF9094
:10415000AF900C945F1D802FFF20A1F00E94B32B25
:1041600029960FB6F894DEBF0FBECDBFDF91CF9179
:104170001F910F91FF90EF90DF90CF90BF90AF9085
:104180000C94782C0E94052CEBCF812F837009F0C2
:104190008CC0F110D0CE202F229526952770220FAB
:1041A000220F802F8F7090E0B0E0A0E06C017D01C5
:1041B000022E04C0CC0CDD1CEE1CFF1C0A94D2F7AE
:1041C00060E070E0CB0104FF0FC06FE070E080E0C2
:1041D00090E004C0660F771F881F991F2A95D2F7B9
:1041E0006095709580959095169516951370123080
:1041F000C9F1133009F454C09B01AC012C293D29AD
:104200004E295F292E833F83488759871130A1F0BB
:10421000CA01B90129960FB6F894DEBF0FBECDBF13
:10422000DF91CF911F910F91FF90EF90DF90CF9092
:10423000BF90AF900C94F2266E817F81888599851E
:1042400029960FB6F894DEBF0FBECDBFDF91CF9198
:104250001F910F91FF90EF90DF90CF90BF90AF90A4
:104260000C94C2269B01AC012C293D294E295F29C3
:104270002E833F8348875987CA01B90129960FB613
:10428000F894DEBF0FBECDBFDF91CF911F910F918C
:10429000FF90EF90DF90CF90BF90AF900C942227CB
:1042A0000E94F226C701B601CBCFFF2009F453C00C
:1042B00010FF41CE202F229526952770220F220F26
:1042C000802F8F7090E0B0E0A0E06C017D01022EA5
:1042D00004C0CC0CDD1CEE1CFF1C0A94D2F760E07D
:1042E00070E0CB0104FF0FC06FE070E080E090E071
:1042F00004C0660F771F881F991F2A95D2F7609513
:104300007095809590951695169513701230E1F181
:10431000133009F457C09B01AC012C293D294E29CB
:104320005F292E833F83488759871130B9F0CA012E
:10433000B90129960FB6F894DEBF0FBECDBFDF914D
:10434000CF911F910F91FF90EF90DF90CF90BF9092
:10435000AF900C943B2811FFEECDACCF6E817F81E6
:104360008885998529960FB6F894DEBF0FBECDBF1C
:10437000DF91CF911F910F91FF90EF90DF90CF9041
:10438000BF90AF900C9413289B01AC012C293D29C0
:104390004E295F292E833F8348875987CA01B90177
:1043A00029960FB6F894DEBF0FBECDBFDF91CF9137
:1043B0001F910F91FF90EF90DF90CF90BF90AF9043
:1043C0000C9463280E943B28C701B601CBCF013F64
:1043D00009F473C068F5003E98F4003C98F0812F12
:1043E0008F71102F1071FF2009F43EC00E947C27AE
:1043F000802F8295807F11110CCE802F8F7009CE77
:10440000003FE1F1FF2009F4A0C0EE2009F49AC0BA
:10441000802F0E94DA1E093309F08DC0FFEF21EED4
:1044200034E0F15020403040E1F700C0000083CD7F
:10443000023F09F458C0033F29F7FF2009F469C07F
:10444000812F8F7129960FB6F894DEBF0FBECDBFB6
:10445000DF91CF911F910F91FF90EF90DF90CF9060
:10446000BF90AF900C9457270E94AD27802F829564
:10447000807F1111FBCD802F8F70F8CDFF20C1F010
:1044800034E03E1508F457CD812F8F7129960FB671
:10449000F894DEBF0FBECDBFDF91CF911F910F917A
:1044A000FF90EF90DF90CF90BF90AF900C94E227F9
:1044B00045E04E1508F43FCDE7CF812F8F71FF20E7
:1044C000B1F029960FB6F894DEBF0FBECDBFDF91D5
:1044D000CF911F910F91FF90EF90DF90CF90BF9001
:1044E000AF900C947C27812F8F71FF2051F3299678
:1044F0000FB6F894DEBF0FBECDBFDF91CF911F91F5
:104500000F91FF90EF90DF90CF90BF90AF900C9401
:10451000AD2729960FB6F894DEBF0FBECDBFDF9151
:10452000CF911F910F91FF90EF90DF90CF90BF90B0
:10453000AF900C945227033509F470CF073409F07B
:10454000FACC6CCF812F8F71BCCFE110B9CD812F08
:104550008F71CDCF412F4F70602FC5010E94870C06
:1045600029960FB6F894DEBF0FBECDBFDF91CF9175
:104570001F910F91FF90EF90DF90CF90BF90AF9081
:104580000C9413260111D7CCFF2009F4D4CC0E943F
:10459000681F5FEF80E792E0515080409040E1F764
:1045A00000C0000029960FB6F894DEBF0FBECDBF45
:1045B000DF91CF911F910F91FF90EF90DF90CF90FF
:1045C000BF90AF900C94102B412F4F70602FC501FE
:1045D00029960FB6F894DEBF0FBECDBFDF91CF9105
:1045E0001F910F91FF90EF90DF90CF90BF90AF9011
:1045F0000C942F2B49815A816B817C818D810E9483
:104600008C288C010E948B280E94B726E12FE2950E
:10461000EF70F0E0E352F54F0C94CE32CF93DF937E
:1046200000D000D00F92CDB7DEB76B837C838D8333
:104630008C819D81892B21F0842F85238F3FA1F4CC
:1046400080E005C0303E58F481E0303CC8F70F9060
:104650000F900F900F900F90DF91CF910895315FE1
:1046600081E03330A0F7ECCF6B817C818D810E949B
:104670008C28382F292F22952F70903C40F42A3017
:1046800008F7225F2F7081E0223008F3D9CF2C3059
:1046900011F02F30A9F693FB882780F9D8CFCF935C
:1046A000DF9300D000D00F92CDB7DEB70F900F9000
:1046B0000F900F900F90DF91CF910895CF93DF93DC
:1046C00000D000D000D0CDB7DEB726960FB6F89454
:1046D000DEBF0FBECDBFDF91CF9108951F93CF9363
:1046E000DF93E091010316E0809102038E1304C072
:1046F000DF91CF911F910895CE2FD0E01E9FF00142
:104700001124ED5FFC4F408151816281738184816E
:1047100095810E945E232196EC2FE770E5CF4091B2
:1047200033035091340360913503709136038091C7
:104730003703909138030C945E231F93CF93DF933C
:1047400080913803807FA9F480913503882389F014
:1047500080910103C091020370913303609134038F
:10476000A0913603B0913703D62FD72316E0C81394
:1047700004C0DF91CF911F91089590E0109711F040
:10478000DF3F19F401968770F2CF189F9001199FAF
:10479000300D1124F901ED5FFC4F41816413F2CF1C
:1047A00040814713EFCF42814111ECCF43815481C7
:1047B0004A1B5B0B483C510528F7809138038F70EA
:1047C000806180933803F901E85FFC4F80818F702E
:1047D0008061808383E393E00E946C1FDF91CF911F
:1047E0001F910C946E23AF92BF92CF92DF92EF9203
:1047F000FF920F931F93CF93DF93CDB7DEB72B9725
:104800000FB6F894DEBF0FBECDBF8C0185E0F80176
:10481000DE01179601900D928A95E1F7F801E2808A
:1048200030812181C380D48083E3A82E83E0B82E19
:1048300090913303409134036091360370913703B4
:104840006115710529F0892F84238F3F09F03EC13E
:10485000EE2009F44AC14F81588569857A858B8598
:104860000E940E23882309F440C1ECC080913803D4
:10487000582F507F683C710508F07DC05111BBC0B6
:10488000FE2C241324C0931322C0E11020C08F708B
:104890008061809338030E948F2383E393E00E941A
:1048A0006C1F80913803F80185838F2D2B960FB6EE
:1048B000F894DEBF0FBECDBFDF91CF911F910F9156
:1048C000FF90EF90DF90CF90BF90AF900895CD28EC
:1048D00029F0822F83238F3F09F08AC080E0F82FD0
:1048E000F170DF2EE09101034091020356E080FD5C
:1048F0001CC0EE20D1F28091380381608093380390
:10490000F12CD3CF8E2F90E05E9FF0011124ED5F4C
:10491000FC4F6181261306C06081361303C062819B
:104920006E11E7CF0196E82FE770E413EBCF4F81CC
:10493000588569857A858B850E948C28292F229538
:104940002F70903260F0225F2F70223078F49F70C9
:1049500051F0F8019581907F31F4D12C0AC09F70FD
:1049600011F08823D1F3805E8830B8F3C8010E942B
:104970006C1FFD2C9ACF511174C04F8158856985E9
:104980007A858B850E944F2383E393E00E946C1FFE
:1049900086E0F50111928A95E9F70E948F23B0CF46
:1049A00086E0F801A3E3B3E001900D928A95E1F768
:1049B0007CCF4F81588569857A858B850E940E232F
:1049C000811140C080913803816080933803C80111
:1049D0000E946C1F6ACF4F81588569857A858B85C7
:1049E0000E944F2386E0F50111928A95E9F76BC08A
:1049F00081E08E2574CF241306C0931304C0F80100
:104A0000EE2009F454C04F81588569857A858B85DD
:104A10000E940E23882309F468C0EE2009F465C0C3
:104A200080913803803270F0209133033091340349
:104A30003A8329831B82DD82CC828E83CE0101964C
:104A40000E946C1F86E0F801A3E3B3E001900D9291
:104A50008A95E1F70E949D230E948F23FF24F394FF
:104A600024CF2413D0CF9313CECFE110CCCFF801B5
:104A70008583C8010E946C1F86E0F50111928A951A
:104A8000E9F713CF241395CF931393CF8091380375
:104A900080FD86CF982F907F09F482CFF80185831F
:104AA000903F31F0982F907F905F8F70892B858396
:104AB000C8010E946C1F86E0F801A3E3B3E00190F7
:104AC0000D928A95E1F70E948F23EFCEF090350387
:104AD000F601E61BF70BBF01F110C8CE683C71056B
:104AE00008F079CFFE2CE110CDCFC8010E946C1FD9
:104AF000B5CF1F93CF93DF93CDB7DEB72C970FB60B
:104B0000F894DEBF0FBECDBF4F83588769877A8781
:104B10008B879C87CE0107960E94F323882369F038
:104B20008A859B85892B39F058854F81852F842371
:104B30008F3F09F071C016E05FC086E0FE01379636
:104B4000DE01119601900D928A95E1F78F8198858B
:104B500020910203409101036A857B85672B59F3FD
:104B600089238F3F41F330E0C9010196877099276F
:104B70004817190671F40E94681F109202031092E0
:104B8000010386E0E3E3F3E0DF011D928A95E9F794
:104B9000D2CF96E0929FD001939FB00D1124AD5FCC
:104BA000BC4FFE01319601900D929A95E1F78093EA
:104BB00002030E946E23BFCF819FC00111248D5F2D
:104BC0009C4F0E94F3238823E9F0E09101031E9F8C
:104BD000F0011124ED5FFC4F4081518162817381AE
:104BE000848195810E945E238091010390E001966B
:104BF00087709927809301038091010390910203AC
:104C00008913DACF2C960FB6F894DEBF0FBECDBF56
:104C1000DF91CF911F91089569857A858B859C8559
:104C20000E945E2388CFDF92EF92FF920F931F9333
:104C3000CF93DF939C01892BB9F0F12CE12CDD247B
:104C4000D394E9012196F9018491853709F46EC066
:104C500098F4843709F45AC0843008F073C0813066
:104C600011F1823009F43CC0DF91CF911F910F9177
:104C7000FF90EF90DF900895883709F460C058F4F2
:104C8000863709F458C0873779F78F2D0E94DE29BF
:104C90000E940B2A20C09CE7980F903728F78F7747
:104CA0000E94201F18C089010E5F1F4FFE018491D2
:104CB00090E2980F983060F48770FD2D01C0FF0FCF
:104CC0008A95EAF78F2F0E94E4290E940B2A02C0DE
:104CD0000E94DA1EE8018E2D811137C09E01B1CFEE
:104CE00089010E5F1F4FFE01849190E2980F98306A
:104CF00050F48770FD2D01C0FF0F8A95EAF78F2FC2
:104D00000E94EA29E2CF0E94201FE4CF2E5F3F4F8E
:104D1000FE01C491C11102C0E901DDCF8FE99FE01E
:104D20000197F1F700C00000C150F4CF2E5F3F4F54
:104D3000FE01E490F1CF0E94CD29F82ECCCF0E9445
:104D4000E129A6CF0E94DA1EC6CFEFE9FFE0319736
:104D5000F1F700C000008150BFCF6093B90370939A
:104D6000BA038093BB039093BC030C945B2A089511
:104D70006093BD037093BE038093BF039093C00301
:104D80000C945A2ACF93DF9300D000D0CDB7DEB772
:104D900069837A838B839C838091BD039091BE034A
:104DA000A091BF03B091C00329813A814B815C81FE
:104DB000282B392B4A2B5B2B29833A834B835C832B
:104DC0002093BD033093BE034093BF035093C003B1
:104DD000CA01B9010F900F900F900F90DF91CF9102
:104DE0000C945A2ACF93DF9300D000D0CDB7DEB712
:104DF00069837A838B839C838091BD039091BE03EA
:104E0000A091BF03B091C00329813A814B815C819D
:104E1000282339234A235B2329833A834B835C83EA
:104E20002093BD033093BE034093BF035093C00350
:104E3000CA01B9010F900F900F900F90DF91CF91A1
:104E40000C945A2ACF93DF9300D000D0CDB7DEB7B1
:104E500069837A838B839C838091BD039091BE0389
:104E6000A091BF03B091C00329813A814B815C813D
:104E7000282739274A275B2729833A834B835C837A
:104E80002093BD033093BE034093BF035093C003F0
:104E9000CA01B9010F900F900F900F90DF91CF9141
:104EA0000C945A2A60E070E0CB010C94AD260F936D
:104EB0001F93CF93DF9300D000D0CDB7DEB741E092
:104EC00050E060E070E08A019B0104C0000F111FF8
:104ED000221F331F8A95D2F709831A832B833C83C1
:104EE000C901B8010F900F900F900F90DF91CF91F3
:104EF0001F910F910C94AD260F931F93CF93DF93C7
:104F000000D000D0CDB7DEB741E050E060E070E007
:104F100004C0440F551F661F771F8A95D2F78091F2
:104F2000B9039091BA03A091BB03B091BC038A016D
:104F30009B01082B192B2A2B3B2B09831A832B83CC
:104F40003C83C901B8010F900F900F900F90DF9133
:104F5000CF911F910F910C94AD260F931F93CF9378
:104F6000DF9300D000D0CDB7DEB741E050E060E085
:104F700070E004C0440F551F661F771F8A95D2F753
:104F800040955095609570958091B9039091BA03C2
:104F9000A091BB03B091BC038A019B010823192394
:104FA0002A233B2309831A832B833C83C901B8013D
:104FB0000F900F900F900F90DF91CF911F910F9155
:104FC0000C94AD260F931F93CF93DF9300D000D0A6
:104FD000CDB7DEB741E050E060E070E004C0440FC0
:104FE000551F661F771F8A95D2F78091B90390915C
:104FF000BA03A091BB03B091BC038A019B010827AF
:1050000019272A273B2709831A832B833C83C9014D
:10501000B8010F900F900F900F90DF91CF911F91DB
:105020000F910C94AD26CF93DF9300D000D0CDB775
:10503000DEB769837A838B839C838091B9039091D7
:10504000BA03A091BB03B091BC0329813A814B8183
:105050005C81282B392B4A2B5B2B29833A834B838A
:105060005C83CA01B9010F900F900F900F90DF91F0
:10507000CF910C94AD26CF93DF9300D000D0CDB765
:10508000DEB769837A838B839C838091B903909187
:10509000BA03A091BB03B091BC0329813A814B8133
:1050A0005C81282339234A235B2329833A834B835A
:1050B0005C83CA01B9010F900F900F900F90DF91A0
:1050C000CF910C94AD26CF93DF9300D000D0CDB715
:1050D000DEB769837A838B839C838091B903909137
:1050E000BA03A091BB03B091BC0329813A814B81E3
:1050F0005C81282739274A275B2729833A834B83FA
:105100005C83CA01B9010F900F900F900F90DF914F
:10511000CF910C94AD2608954F925F926F927F923B
:105120009F92AF92BF92CF92DF92EF92FF920F9336
:105130001F93CF93DF9300D000D00F92CDB7DEB78F
:10514000F42E4983E52E5A837C838D838C819D8147
:10515000892B21F0842F85238F3F59F590E080E043
:105160000F900F900F900F900F90DF91CF911F91A4
:105170000F91FF90EF90DF90CF90BF90AF909F90F6
:105180007F906F905F904F9008956F2D7E2D8A2DA8
:105190000E943E0C0197B9F13BC0F80183E0EE0F8D
:1051A000FF1F8A95E1F7E75CFC4FEC0DFD1D908039
:1051B0003AC0052F10E0C42ED12C662371F3409025
:1051C000B9035090BA036090BB037090BC03809108
:1051D000BD039091BE03A091BF03B091C003482AC4
:1051E000592A6A2A7B2A2FE1A22EB12C9A2CD301AC
:1051F000C2010A2C04C0B695A795979587950A9485
:10520000D2F780FDC2CF81E0A81AB10878F7912CBF
:10521000F80193E0EE0FFF1F9A95E1F7E75CFC4F72
:10522000EC0DFD1D908269817A81892D0F900F9080
:105230000F900F900F90DF91CF911F910F91FF90E2
:10524000EF90DF90CF90BF90AF909F907F906F9046
:105250005F904F900C943E0C90911401992361F152
:1052600090911501992341F1982F969596959695D1
:105270009F3189F0E0911601F0911701E90FF11DBE
:10528000877021E030E001C0220F8A95EAF7818122
:10529000822B818308959091E40390FF22C01F9296
:1052A0008F9389E39DE09F938F930E94350C0F901D
:1052B0000F900F900F9008952091160130911701D3
:1052C000F90132969FEF40E05191851751F09F3FD1
:1052D00019F4511101C0942F4F5F4E31A9F79F3F30
:1052E00009F40895290F311D97FD3A95F90182833C
:1052F000089590911401992381F1909115019923BA
:1053000061F1982F9695969596959F31A9F0E09129
:105310001601F0911701E90FF11D877021E030E0CF
:10532000A90102C0440F551F8A95E2F7CA01809572
:1053300091818923818308959091E40390FF1EC099
:105340001F928F938BE19DE09F938F930E94350C6A
:105350000F900F900F900F900895209116013091AB
:105360001701F9013296205E3F4F9191891303C0D6
:10537000DF0111971C92E217F307B9F7089581E056
:1053800090E0E0911601F0911701E80FF91F1082EB
:10539000019680329105A9F708958091E30308955D
:1053A0009091E303982B9093E3030895982F9095A1
:1053B0008091E30389238093E30308958093E303BB
:1053C00008951092E30308959091E203982B90932F
:1053D000E2030895982F90958091E20389238093AA
:1053E000E20308951092E20308958093C1030895A3
:1053F0001092C10308952091160130911701F9010F
:105400003196205E3F4F80E0919191118F5FE217BE
:10541000F307D1F70895E0911601F09117018091FB
:10542000E3038083E0911601F09117018081909150
:10543000E203892B80839091C103992361F0E0916D
:105440001601F09117018081892B80830E94FB292E
:1054500081111092C10380911601909117010C9453
:105460000B1D90939701809396010895829594E087
:10547000899F900111242C7C869586958373282B17
:1054800030E0C901880F991F8A7A359527952575CF
:10549000822B08950895CF93DF9300D000D00F9210
:1054A000CDB7DEB70F900F900F900F900F90DF9158
:1054B000CF910895089508950C946A1E80E0089590
:1054C00083B7817F8C6083BF83B7816083BF78940B
:1054D000889583B78E7F83BF0895CF930E94A11EC6
:1054E0000E9440110E94A21EC0E08C2F0E94231136
:1054F000811105C0CF5FC031C1F7CF91089581E020
:10550000FCCF0E9429110C94681F1F921FB61F9296
:1055100011248F939F93AF93BF938091E503909154
:10552000E603A091E703B091E8034196A11DB11DE8
:105530008093E5039093E603A093E703B093E80319
:10554000BF91AF919F918F911F901FBE1F90189593
:1055500082E084BD93E095BD9AEF97BD80936E0085
:1055600008952FB7F8948091E5039091E603A091F8
:10557000E703B091E8032FBF0895CF93DF9300D0E6
:1055800000D0CDB7DEB78FB7F8942091E503309106
:10559000E6034091E7035091E80329833A834B8364
:1055A0005C838FBF69817A818B819C810F900F9082
:1055B0000F900F90DF91CF9108959C014FB7F89411
:1055C0008091E5039091E603A091E703B091E80391
:1055D0004FBF821B930B089578941F921FB61F92A2
:1055E00011248F939F93AF93BF938091E503909184
:1055F000E603A091E703B091E8030196A11DB11D58
:105600008093E5039093E603A093E703B093E80348
:10561000BF91AF919F918F911F901FBE1F901895C2
:105620000E94961BF89487E797E790930108809370
:10563000000887E090EBDC018093F4039093F5037E
:10564000A093F603B093F70388E19CE00FB6F894BB
:10565000A895809360000FBE90936000FFCF0895DF
:105660008091EB0380FF12C060911B0185E0689F71
:10567000B00111247595679575956795603871052A
:10568000A8F561157105A1F1862F089581FF09C064
:1056900060911B0185E0689FB001112475956795A5
:1056A000EDCF60911B0182FD0AC02091EC03222303
:1056B000D1F090911A0160911B01291728F085E023
:1056C000689FB0011124DACF269F9001112485E054
:1056D000829FA001839F500D1124692F70E0CA01A1
:1056E0000E94BA32CBCF65E070E0CECF8FE708954D
:1056F00081E008958091EB0380FF0CC06091190157
:1057000070E075956795759567956115710549F117
:10571000862F089581FF06C06091190170E075958C
:105720006795F3CF6091190182FD0BC09091EC0356
:105730009923A1F06091180180911901961738F012
:10574000682F70E06038710500F38FE70895899F36
:10575000C001112470E00E94BA32F4CF61E070E021
:10576000D7CF81E00895805F803108F045C0E82FF1
:10577000F0E0E351F54F0C94CE320E94302B81952E
:105780008093EF0308950E94302BFACF0E94302BB4
:1057900081958093EE0308950E94302BFACF0E94EA
:1057A0007A2B8093F00308950E947A2B8195F9CF8C
:1057B0000E947A2B81958093F10308950E947A2BA1
:1057C000FACF8091ED0381608093ED03089580917D
:1057D000ED038260F9CF8091ED038460F5CF809175
:1057E000ED038860F1CF8091ED038061EDCF809172
:1057F000EB0381608093EB0308958091EB0382605B
:10580000F9CF8091EB038460F5CFE82F3091EF035F
:105810002091EE039091F0038091F103E03F91F429
:1058200037FD1092EF038091EE039091EF03892BE7
:105830009091F003892B9091F103892B11F4109230
:10584000EC030895E13F19F413165CF3ECCFE23F4B
:1058500029F427FFE8CF1092EE03E5CFE33F19F4D8
:105860001216CCF3E0CFE93F29F41916E4F61092B2
:10587000F003D9CFEA3F19F497FFD5CFF8CFEB3F2C
:1058800029F487FFD0CF1092F103CDCFEC3F19F46C
:105890001816CCF3C8CFE45FEC3008F0C4CFF0E0CA
:1058A000E350F54F0C94CE328091ED038E7F8093C0
:1058B000ED03B9CF8091ED038D7FF9CF8091ED039A
:1058C0008B7FF5CF8091ED03877FF1CF8091ED0342
:1058D0008F7EEDCF8091EB038E7F8093EB03A3CF80
:1058E0008091EB038D7FF9CF8091EB038B7FF5CF18
:1058F0008091E40383FF7EC08EE79DE00E949C0BB5
:105900008091ED031F928F9389E79DE09F938F9382
:105910000E94350C87E79DE00E949C0B8091EE036E
:10592000282F082E000C330B3F938F9384E79DE0C4
:105930009F938F930E94350C82E79DE00E949C0B01
:105940008091EF03282F082E000C330B3F938F9389
:105950008FE69DE09F938F930E94350C8DE69DE02E
:105960000E949C0B8091F003282F082E000C330B13
:105970003F938F938AE69DE09F938F930E94350C0F
:1059800088E69DE00E949C0B8091F103282F082E51
:10599000000C330B3F938F9385E69DE09F938F938D
:1059A0000E94350C82E69DE00E949C0B8091EC03E6
:1059B0001F928F938FE59DE09F938F930E94350CEC
:1059C0008DE59DE00E949C0B8091EB031F928F93CD
:1059D0008AE59DE09F938F930E94350C87E59DE0BB
:1059E0000E949C0B8DB79EB74C960FB6F8949EBF45
:1059F0000FBE8DBF8DEE93E00E94541D0E94B12A10
:105A00009093EA038093E90308951F93CF93DF9364
:105A100000D000D000D0CDB7DEB78091E9039091DF
:105A2000EA030E94DD2AAC018091EC0320911C0165
:105A300030E0811106C020911D019AE0299F90015C
:105A400011244217530788F02091EE03A091EF0331
:105A5000A9831091F003B091F103BE8321110FC00F
:105A60009A2F912B9B2B09F0B2C026960FB6F89473
:105A7000DEBF0FBECDBFDF91CF911F9108958F3F45
:105A800019F08F5F8093EC03121624F40E94302BE0
:105A90008093EE038091EE0387FF05C00E94302BB8
:105AA00081958093EE032981121624F40E94302BF5
:105AB0008093EF038091EF0387FF05C00E94302B96
:105AC00081958093EF038091EE03882309F455C0FC
:105AD0003091EF033D83332309F44FC0282F880F03
