:100000000C94A8070C9409080C94020B0C94090892
:100010000C9409080C9409080C9409080C9409081C
:100020000C9409080C9409080C945A180C940908AB
:100030000C94CE260C9409080C9409080C94090819
:100040000C9409080C9409080C9409080C940908EC
:100050000C9409080C9435270C9409080C94090891
:100060000C9409080C9409080C9409080C940908CC
:100070000C9409080C9409080C9409080C940908BC
:100080000C9409080C9409080C9409080C940908AC
:100090000C9409080C9409080C9409080C9409089C
:1000A0000C9409080C9409080C940908750F01E0D8
:1000B00001E1012E022E012E022E012E022E012E12
:1000C000022E012E022E012E022E012E022E012EB4
:1000D000022E02E102E074FF00750F01E101E3026C
:1000E000E302E174FF750101150215010802080120
:1000F0000502050112021201120212011702170174
:10010000280228746400007B46010203763A687F67
:100110006577482B353B6978796439141E3C6A7AD7
:100120001D16041A1F3D6B061B070821203E6C2C70
:1001300019091715223F6D11050B0A1C23406E7E0D
:10014000100D182425416F360E0C122726427037E9
:10015000380F33132D43717534322F2E44727C7D4A
:1001600028303174457351504A524D492A546659CA
:100170004F5C5F4C4B4E62635A5D5E60295367581B
:100180005B56576147554842403E3C3A3B456843C1
:10019000413F3D2B357E697A790078141E7C6A7B5D
:1001A0001D16041A1F7F6B061B070821204D6C2C9F
:1001B00019091715224A6D11050B0A1C234C6E49AB
:1001C000100D182425516F360E0C1227264F70374C
:1001D000380F33132D52717534502F2E4E72397DD6
:1001E000283065314B735464586776012A77325949
:1001F000745C5F66020362635A5D5E602953445714
:100200005B565561474680291E1F20212223242545
:1002100026272D2E2A2B141A0815171C180C12131A
:100220002F302878041607090A0B0D0E0F333435CA
:1002300079311D1B06190511103637387D557A2C7A
:10024000393A3B3C3D3E3F4041424353475F60614A
:10025000565C5D5E57595A5B626346483244456757
:100260007B7F650301025250514F68696A6B6C6D68
:100270006E6F7071725800494C754A4D734B4E76D3
:100280007C777E74665472253032582000623A259D
:100290003034582000652530325820002146554C16
:1002A0004C2120002146462120007725303258205D
:1002B00000214353335F4630210A00214353335F0B
:1002C0005245414459210A00214353325F45305F72
:1002D0004630210A00214353325F4630210A002173
:1002E0004353325F4530210A00214353325F494E68
:1002F0004954210A00214353315F45305F25303294
:1003000058210A000A5B4F56525D20004C2575208B
:100310000053257520000A49443A253034582825D1
:10032000732920004D6F7573653A206E6F742073CA
:100330007570706F727465640A00522575200057DD
:100340002575200057257520005725752000582554
:10035000752000412575200049257520005B434824
:10036000475D20000A5052543A25303258204953F4
:10037000523A2530345820005B5253545D20000A15
:100380004552523A25303258204953523A2530349A
:100390005820000A4B6579626F6172642073746142
:1003A00072742E0A000A55534220636F6E666967A5
:1003B000757265642E0A000A0A544D4B3A32643352
:1003C000636564352B2F4C5546410A0A0034035AA5
:1003D0000065006E0069007400680020006B006515
:1003E00000790062006F0061007200640020006309
:1003F000006F006E00760065007200740065007288
:100400000000000E0374002E006D002E006B002E05
:100410000000000403090409028D00050100A03258
:10042000090400000103010100092111010001225A
:1004300040000705810308000A09040100010301C7
:100440000200092111010001224D00070582030865
:10045000000A090402000103000000092111010043
:10046000012236000705830308000A09040300027D
:100470000300000009211101000122220007058468
:100480000320000107050403200001090404000102
:100490000300000009211101000122390007058530
:1004A000032000011201100100000008EDFEEE1B08
:1004B00001000102000105010906A101050719E07B
:1004C00029E7150025019508750181020508190124
:1004D000290595057501910295017503910105079F
:1004E000190029F71500250195F875018102C0064C
:1004F00031FF0974A1010975150026FF00952075CB
:100500000881020976150026FF00952075089102E2
:10051000C005010980A10185021601002637001AD5
:1005200081002AB700751095018100C0050C0901F2
:10053000A1018503160100269C021A01002A9C02D3
:10054000751095018100C005010902A1010901A1F1
:100550000005091901290515002501950575018179
:1005600002950175038101050109300931158125C5
:100570007F95027508810609381581257F950175DB
:10058000088106050C0A38021581257F950175083A
:100590008106C0C005010906A101050719E029E788
:1005A00015002501950875018102950175088101E5
:1005B0000508190129059505750191029501750335
:1005C00091010507190029FF150026FF0095067502
:1005D000088100C0636F6E73756D65723A202530B7
:1005E00034580A0073797374656D3A202530345895
:1005F0000A000A002530325820006B6579626F616D
:1006000072643A20004C45443A20253032580A00A2
:1006100025583A2530386225730A000A20203031E7
:100620003233343536370A0064656C5F6B65795F49
:100630006269743A2063616E27742064656C3A20A5
:10064000253032580A006164645F6B65795F6269C6
:10065000743A2063616E2774206164643A20253007
:1006600032580A00290A002575002F002575005D03
:100670002800256400200025640020002564002057
:10068000002564007C0025303258006D6F7573655D
:100690006B6579205B62746E7C78207920762068A7
:1006A0005D287265702F61636C293A205B006D6B69
:1006B0005F776865656C5F74696D655F746F5F6DAA
:1006C0006178203D2025640A006D6B5F7768656561
:1006D0006C5F6D61785F7370656564203D20256493
:1006E0000A006D6B5F74696D655F746F5F6D617833
:1006F000203D2025640A006D6B5F6D61785F73702B
:10070000656564203D2025640A006D6B5F696E7429
:10071000657276616C203D2025640A006D6B5F6414
:10072000656C6179203D2025640A006D6B5F7768F8
:1007300065656C5F74696D655F746F5F6D6178206E
:100740003D2025640A006D6B5F776865656C5F6DA1
:1007500061785F7370656564203D2025640A006DD3
:100760006B5F74696D655F746F5F6D6178203D20AC
:1007700025640A006D6B5F6D61785F7370656564F9
:10078000203D2025640A006D6B5F696E746572768A
:10079000616C203D2025640A006D6B5F64656C61AF
:1007A00079203D2025640A000A00257500363A208C
:1007B000776865656C5F74696D655F746F5F6D61A7
:1007C000783A20000A00257500353A20776865657B
:1007D0006C5F6D61785F73706565643A20000A0034
:1007E000257500343A2074696D655F746F5F6D61C3
:1007F000783A20000A00257500333A206D61785F51
:1008000073706565643A20000A00257500323A204D
:10081000696E74657276616C286D73293A20000ADE
:1008200000257500313A2064656C6179282A3130E1
:100830006D73293A20000A092D2056616C75657385
:10084000202D0A004D3E004D25643E20003F0073E0
:1008500065742064656661756C740A00433E20000F
:1008600077686572652064656C74613A206375729F
:10087000736F723D25642C20776865656C3D256437
:100880000A53656520687474703A2F2F656E2E7751
:10089000696B6970656469612E6F72672F77696B28
:1008A000692F4D6F7573655F6B6579730A000A096F
:1008B0002D204D6F7573656B6579202D0A45534367
:1008C0002F713A09717569740A313A0964656C616E
:1008D00079282A31306D73290A323A09696E7465B4
:1008E0007276616C286D73290A333A096D61785FFD
:1008F00073706565640A343A0974696D655F746F75
:100900005F6D61780A353A09776865656C5F6D617E
:10091000785F73706565640A363A09776865656C57
:100920005F74696D655F746F5F6D61780A0A703A14
:10093000097072696E742076616C7565730A643A29
:10094000097365742064656661756C74730A7570EB
:100950003A092B310A646F776E3A092D310A7067B4
:1009600075703A092B31300A7067646F776E3A09F7
:100970002D31300A0A7370656564203D2064656C12
:100980007461202A206D61785F7370656564202A28
:100990002028726570656174202F2074696D655F11
:1009A000746F5F6D6178290A003F004D3E2000435F
:1009B0003E20004C25640A000A092D20436F6E7307
:1009C0006F6C65202D0A4553432F713A0971756983
:1009D000740A6D3A096D6F7573656B65790A000A63
:1009E000092D204D61676963202D0A643A09646509
:1009F0006275670A783A096465627567206D61748B
:100A00007269780A6B3A096465627567206B65796B
:100A1000626F6172640A6D3A096465627567206D80
:100A20006F7573650A763A0976657273696F6E0A37
:100A3000733A097374617475730A633A09636F6E6C
:100A4000736F6C65206D6F64650A302D343A096CE4
:100A500061796572302D34284631302D4634290AAB
:100A6000506175733A09626F6F746C6F616465727F
:100A70000A6E3A094E4B524F0A003F004E4B524FFE
:100A80003A206F66660A004E4B524F3A206F6E0A4C
:100A90000074696D65725F72656164333228293A4A
:100AA000202530346C580A006B6579626F6172647E
:100AB0005F6E6B726F3A2025580A006B6579626F22
:100AC0006172645F69646C653A2025580A006B6541
:100AD00079626F6172645F70726F746F636F6C3A8A
:100AE0002025580A00686F73745F6B6579626F61C7
:100AF00072645F6C65647328293A2025580A000ADD
:100B0000092D20537461747573202D0A00474343E7
:100B10003A2031312E322E30204156522D4C49424E
:100B2000433A20322E302E30204156525F415243FC
:100B3000483A20617672350A004F5054494F4E535F
:100B40003A204C554641204D4F5553454B45592071
:100B500045585452414B455920434F4E534F4C45F5
:100B600020434F4D4D414E44204E4B524F204B455C
:100B7000594D41505F53454354494F4E20424F4FCA
:100B8000544C4F414445525F53495A450A0042551F
:100B9000494C443A20326433636564352B20283154
:100BA000393A30373A3031204465632032312032CF
:100BB000303231290A005649443A203078464545BA
:100BC0004428742E6D2E6B2E29205049443A203033
:100BD0007831626565285A656E697468206B65793D
:100BE000626F61726420636F6E76657274657229DC
:100BF000205645523A203078303030310A00444592
:100C000053433A20636F6E76657274205A656E693D
:100C10007468206B6579626F61726420746F20550F
:100C200053420A000A092D2056657273696F6E20BF
:100C30002D0A000A6D6F7573653A206F66660A00AB
:100C40000A6D6F7573653A206F6E0A000A6B6579DD
:100C5000626F6172643A206F66660A000A6B65799A
:100C6000626F6172643A206F6E0A000A6D6174727D
:100C700069783A206F66660A000A6D617472697855
:100C80003A206F6E0A000A64656275673A206F6EDB
:100C90000A000A64656275673A206F66660A000A90
:100CA0000A626F6F746C6F616465722E2E2E200065
:100CB000433E20008A0C860C9E0C9E0C9E0C9E0CC3
:100CC0009E0C9E0C8C0C880C9A0C9E0C9E0C860C18
:100CD000A00C9E0C9E0C5E0C8A0C9E0C9E0C880C2C
:100CE0009E0C9E0C9E0C9E0C9E0C9E0C9A0C8A0CCC
:100CF000800C9E0C840C9E0C9E0C9E0C600C8C0C2C
:100D00009E0C9E0C940C9E0C9E0C9E0C620C8E0CE9
:100D10009E0C820C9E0C860C9E0C9E0C980C900CCB
:100D20009E0C920C880C9E0C9E0C9E0C960CA10C9A
:100D30009E0C9E0C9E0C9E0C9E0C9E0C9E0CA10C60
:100D40009E0C640C9E0C9E0C8C0C9E0C9E0C8E0CAF
:100D50009E0C9E0C9E0C9E0C9E0C9E0C9E0C9E0C43
:100D60009E0C660C9E0C9E0C9E0C940C9E0C9E0C75
:100D70009E0C9E0C9E0C9E0C9E0C9E0C9E0C9E0C23
:100D8000680C9E0C6A0C6C0C9E0C9E0C9E0C6E0CDF
:100D9000700C720C9E0C740C760C9E0C9E0C9E0CAF
:100DA0009C0C780C9E0C7C0C7A0C7E0C9E0C9E0C81
:100DB0009E0C9E0C8E0CC50CD30CDF0CDF0CB70CFC
:100DC000DF0CDF0CDF0CDF0CDF0CDF0CDF0CDF0CCB
:100DD000DF0CDF0CDF0CDF0CDF0CB90CDF0CBB0C05
:100DE000DF0CDF0CDF0CDF0CD70CDF0CEC0CD50CB0
:100DF000DF0CDF0CDF0CDF0CDF0CDF0CDF0CDF0C9B
:100E0000DF0CDF0CDF0CDF0CDF0CAD0CCB0CBD0CF2
:100E1000CF0CDF0CBF0CDF0CC30CDF0CCD0CC10CF6
:100E2000D10CC70CC90CDF0CDF0CDF0CDF0CDF0CA6
:100E3000DF0CDF0CB10CB30CB50CD90CDB0CDF0CE8
:100E4000DF0CDF0CDD0C0C0E2E0E3B0E620E700E56
:100E50007B0E950EAB0ECE0EEB0E800FA50F27105E
:100E600066104F1079108910911095109A109F10EC
:100E7000DD10E310E510E710E910F110F110F110AA
:100E8000EB10ED10EF10C810CA10CC10CE10D0101F
:100E9000D810D810D810D210D410D610B716DF162C
:100EA000C717DF16C71712173317C71789179517F4
:100EB000F51BF51B331C331CBC1CF41CE41BE41B8E
:100EC0000E1DE41B301E301EF31EE41B0B1F2D1FD6
:100ED00006280C280F2815282A28302834283828D6
:100EE0003C2818281D2821282728402846284A2839
:100EF0009D28A328A728AB28AF285C285C285C285D
:100F00005C28B328B928BD28B62BC82B942B942B6A
:100F1000942BB12B942B942BEE2B942BFE2B662C25
:100F2000942B942B942B942B252C942B942B0E2CBC
:100F3000942BDE2B942B942B7E2C7E2C7E2C7E2CC3
:100F40007E2C7E2C7E2C7E2C7E2C7A2C942B7A2C44
:100F500011241FBECFEFDAE0DEBFCDBF04B603FE23
:100F600041C08091F4039091F503A091F603B091F4
:100F7000F7038730904BA740B04BA1F51092F403D4
:100F80001092F5031092F6031092F70314BE0FB6F9
:100F9000F894A89580916000886180936000109219
:100FA00060000FBE109201081092000889E0E3E093
:100FB000F0E080935700E491E695E370E15080E023
:100FC00090E1E33040F4F0E0EE0FFF1FEB57FE4FEF
:100FD0008081918100C0E0E0F0E8E81BF90BF69514
:100FE000E795099511E0A0E0B1E0E6E6FEE502C074
:100FF00005900D92A639B107D9F723E0A6E9B1E033
:1010000001C01D92A43FB207E1F70E94D8130C94CF
:10101000312F0C940000FF93EF93E0919601F09133
:101020009701309709F00995EF91FF910895FC0120
:101030008591803011F0EFDFFBCF0895FF27E0E2CC
:1010400030E247FF0CC0419597FF09C0EDE2609583
:10105000709580959095611D711D811D911D27FFD3
:1010600002C0219530E350E2AA27660F771F881F40
:10107000991FAA1FA41710F0A41B63955A95A9F7EE
:10108000AA3008F0A95FA05DAF93F39561157105D3
:101090008105910541F7ED3211F4EF93F395F217C5
:1010A00018F43F93F395FBCF8F91B5DFFA95E1F7F5
:1010B0000895E991F9918591803021F0853219F0F8
:1010C000AADFF9CF089520E0E89455915532C1F395
:1010D000503311F4689455915A3348F4505390F3B7
:1010E000220F022E220F220F200D250FF4CF0EF417
:1010F000219589919991533619F3533729F1533535
:1011000059F1BC0188279927E8945C3621F489912C
:10111000999168945591543639F446EF7EF077FFF3
:101120000DC08FEF9FEF0AC055374AE039F05835B0
:1011300040E121F0523642E009F00895FF93EF9329
:101140007DDFEF91FF91B7CFFF93EF93FC0181918A
:101150008030B9F360DFFBCFFF93EF9368DFF1CF0F
:10116000DF93CF93CDB7DEB72596A3DFCF91DF9185
:101170000895282F8091A301823079F18330B1F155
:10118000813009F03CC048E0749FF0011124E60F63
:10119000F11DEA5FFD4FE491E03889F18E2F90E078
:1011A00034E0959587953A95E1F78770992748E05F
:1011B000249F90011124820F931F44E0880F991FF0
:1011C0004A95E1F7EF70E80FF92FF11DEE0FFF1FC1
:1011D000E050F84985919491089588E0789FF00156
:1011E0001124E60FF11DEA57FE4FD5CF48E0749F5A
:1011F000F0011124E60FF11DEA5FFE4FCCCF80E035
:1012000090E00895FC01662329F0613049F090E0F8
:1012100080E0089582818823D1F389ED90E00895DC
:1012200082818823A1F38CEA90E008955998519A1D
:1012300008955198599A08955898509A0895509839
:10124000589A08955198599A85E08A95F1F70000C7
:1012500089B18695817008955098589A85E08A954D
:10126000F1F7000089B181700895CF93DF93EC010D
:101270000E942209882311F0209721F4CE01DF91EA
:10128000CF91089585E08A95F1F700002197F0CF7E
:10129000CF93DF93C2E3D0E00E942209811102C004
:1012A000209721F4CE01DF91CF91089585E08A95B2
:1012B000F1F700002197F0CF2E9826982F982798C5
:1012C0000E9416090E941F09E9E6F0E0808188600B
:1012D0008083E9980895E19AE99A0E9419090C948B
:1012E0001F09E9980E9416090C941F090F931F9378
:1012F000CF93DF932FB7F894C0910201D0910301EF
:10130000CE01882781159F4F01F180E09FEF8C2B44
:101310009D2B90930301809302012FBFCE0199274B
:101320008F3F9105A1F5CD2FDD27C03FD10581F07D
:10133000CF3FD10549F18091E403C034D105B1F428
:1013400080FF12C08CE992E009C08FEF90E0DFCF00
:101350008091E40380FF08C084EA92E09F938F931A
:101360000E94B0080F900F90CFEF26C080FF0CC0F6
:10137000DF93CF9385E992E09F938F930E94B0080B
:101380000F900F900F900F900FEF1FEF27C0CE011F
:101390008F6F019689F08091E40380FF0CC0DF938A
:1013A000CF938DE892E09F938F930E94B0080F90A7
:1013B0000F900F900F90CD2F0C2F10E08091E40331
:1013C00080FF0CC01F92CF9386E892E09F938F938B
:1013D0000E94B0080F900F900F900F90C801DF91FE
:1013E000CF911F910F910895CF93CAE1C15071F031
:1013F0000E9476098F3F980711F0CF9108958FE9E9
:101400009FE00197F1F700C00000F0CF8FEF9FEF52
:10141000F4CF10929C0110929B0110929A011092AD
:10142000990180E090E890930101809300018FEF93
:101430009FEF90930301809302010895EF92FF9232
:101440000F931F93CF93DF93C82F10929901809130
:10145000E40380FF0CC01F92CF938AEA92E09F932F
:101460008F930E94B0080F900F900F900F90E99803
:101470000E9416090E941F098FE891E00197F1F779
:1014800000C000000E941C098FE891E00197F1F76D
:1014900000C000000E94190980E197E20E9435090E
:1014A000892BB9F481E08093990180919901806141
:1014B000809399010E9419090E941F09E19AE99AF3
:1014C0008FEF9FEFDF91CF911F910F91FF90EF90E2
:1014D000089510E000E0FF24F394D0E0EE24E394BC
:1014E00090E59A95F1F7CE01002E02C0959587956B
:1014F0000A94E2F780FF09C0FE240E941F090E949F
:101500004809892B29F482E0CECF0E941C09F7CF2D
:1015100082E390E00E943509892B11F483E0C3CF68
:101520000F5F1F4F08301105D9F680E58A95F1F756
:10153000FF2041F00E941F090E944809892B29F4CD
:1015400084E0B1CF0E941C09F7CF82E390E00E94B3
:101550003509892B11F485E0A6CF90E59A95F1F72E
:101560000E941F090E944809892B11F486E09BCF35
:1015700080919A01813181F182E390E00E943509E6
:10158000C2E3D0E0892B39F487E08DCF85E08A95DE
:10159000F1F7000021970E942C09882321F0209761
:1015A000A9F788E080CFCD2BE1F30E944809C2E380
:1015B000D0E0892B39F489E076CF95E09A95F1F760
:1015C000000021970E942C09811104C02097A9F7DF
:1015D0008AE069CFCD2BE1F38FEF9FEF909303016A
:1015E000809302010E94090A0E9419090E941F09A2
:1015F000E19AE99ADF91CF911F910F91FF90EF90BF
:101600000C94F4091F921FB61F9211242F933F933D
:101610004F938F939F9399B191708091E50320919F
:1016200000013091010121153048D9F580939801CE
:1016300020910001309101013695279530930101E9
:1016400020930001992349F08091000190910101BC
:1016500090689093010180930001209100013091E6
:101660000101C9019927203A09F4E5C0813A9105A1
:1016700008F061C08034910509F49FC098F5409747
:10168000D9F12F7D33272115310509F496C08091BA
:1016900000019091010190939C0180939B0180E84F
:1016A0000EC020919801821B833010F280910001BE
:1016B0009091010190939C0180939B0180E2809323
:1016C00099018091990190E0982F88278F6F9093CE
:1016D00003018093020180E090E8909301018093E0
:1016E00000016BC08038910509F467C0803991050D
:1016F00019F08035910559F6809100019091010112
:1017000090939C0180939B01809100019091010135
:1017100097FF9CC080E180939A0180910001909195
:10172000010146E0969587954A95E1F7909301016E
:10173000809300012FC0803D9105F1F2803E91051C
:1017400009F444C0803C910509F0A1CF84E605C0AE
:1017500095E09A95F1F700008150499902C08111F6
:10176000F7CF499B28C0811120C080910001909142
:10177000010190939C0180939B01809100019091C5
:101780000101892F9927909301018093000182E242
:1017900080939A01809100019091010199278F3FD8
:1017A000910509F055C080EF8ACF45E04A95F1F7E1
:1017B00000008150D6CF8823C1F29F918F914F9125
:1017C0003F912F911F901FBE1F901895809100018F
:1017D0009091010190939C0180939B018091000165
:1017E00090910101892F9927909301018093000125
:1017F00083E2CECF95E09A95F1F7000081504999A8
:1018000002C08111F7CF499B1EC0811116C0809183
:1018100000019091010190939C0180939B01809124
:10182000000190910101892F9927909301018093E4
:10183000000181E2ADCF84E6E2CF45E04A95F1F7C1
:1018400000008150E0CF8111B8CFE1CF81E163CFBB
:10185000809103018F3F31F0809102018F3F11F0A1
:1018600080E42DCF8091020190910301982F882769
:1018700090930301809302012091000130910101B6
:101880008091020190910301822B21CFCF93C82F29
:101890008DEE0E941E0A8A3F910521F48C2FCF9174
:1018A0000C941E0ACF910895EDEFE80FE13808F08F
:1018B00045C0F0E0E65AF94F0C94172F87E10895E0
:1018C0008FE108958CE5089580E6089582E60895F5
:1018D00087E2089583E508958FE2089589E30895E6
:1018E00087E308958FE3089587E408958FE40895CA
:1018F00086E508958EE508958FE7089580E00895C0
:1019000085E608958EE608958FE6089588E00895A7
:1019100080E1089588E1089580E2089588E20895BD
:1019200080E3089588E3089580E5089587E50895A4
:101930008FE5089589E108958DE608958F770895DC
:101940008FE00895CF93C82FE4EEE80FE834B8F5A0
:10195000F0E0E552F94F0C94172FC5E58C2FCF918D
:101960000895CAE5FBCFCBE5F9CFCCE5F7CFCDE5C0
:10197000F5CFCEE5F3CFCFE5F1CFC0E6EFCFC1E6AF
:10198000EDCFC2E6EBCFC3E6E9CFCFE6E7CFC1E7C5
:10199000E5CFC2E7E3CFC4E7E1CFC5E7DFCFC7E7D5
:1019A000DDCFC8E7DBCFCAE7D9CFCCE7D7CFCFE7CA
:1019B000D5CFC0E7D3CFC9E7D1CFCBE7CFCF1F92E9
:1019C000CF9385EF92E09F938F930E94B0080F9082
:1019D0000F900F900F90C2CFC4E5C0CF0F931F930D
:1019E000CF93DF930E94FA268C010E947609EC01C6
:1019F000019631F4C8010E942627843F9140A8F344
:101A0000CE01DF91CF911F910F9108950E945C0943
:101A10000C946B098091E40381608093E403E7EA0E
:101A2000F1E080E1DF011D928A95E9F70895E82F42
:101A3000F0E0E955FE4F208130E081E090E002C007
:101A4000880F991F6A95E2F72823392381E0232B19
:101A500009F480E00895CF93DF93E82FD82FD77053
:101A6000E695E695E695CE2FCF706D2F8C2F0E94D0
:101A7000170D81110DC0EC2FF0E0E955FE4F21E06C
:101A800030E001C0220FDA95EAF78081822B808353
:101A9000DF91CF910895CF93DF93E82FD82FD770A0
:101AA000E695E695E695CE2FCF706D2F8C2F0E9490
:101AB000170D882371F0EC2FF0E0E955FE4F81E01F
:101AC00090E001C0880FDA95EAF78095908189232C
:101AD0008083DF91CF910895E82FF0E0E955FE4F24
:101AE00080810895E7EAF1E080E1DF011D928A95A7
:101AF000E9F70895982F8091A301823048F092FB76
:101B0000882780F990FD826091FD84600C94460CDA
:101B10000895CF93DF9380919901882371F180918B
:101B20009B0190919C01209199019F938F931F920B
:101B30002F938FE793E09F938F930E94B00880913B
:101B4000990180750F900F900F900F900F900F904C
:101B500071F48091A2018B3051F488E793E09F9358
:101B60008F930E94B0081092A2010F900F901092D4
:101B7000990110929C0110929B0180919A018823F7
:101B800009F440C090919A018091A6019817D1F173
:101B900080919B0190919C0120919A019F938F933A
:101BA0001F922F9384E693E09F938F930E94B00837
:101BB0008091A6010F900F900F900F900F900F90B3
:101BC00085FF04C090919A0194FD06C084FF12C065
:101BD00080919A0185FF0EC08091A2018B3051F453
:101BE0008DE593E09F938F930E94B0081092A2011D
:101BF0000F900F9080919A018093A60110929C0102
:101C000010929B01E091A201EC3008F055C0F0E089
:101C1000ED5DF84F0C94172F0E9471090E94FA266F
:101C20009F938F9388E593E09F938F930E94B008D2
:101C30001092A3011092A5011092A4011092A60186
:101C40000E94720D0E94B11B0E94FA269093A1017E
:101C50008093A00181E08093A2012AC08091A0011D
:101C60009091A1010E942627893E934028F182E0AD
:101C70008093A20121C00E94090A0E946B098FE98A
:101C80009FE00197F1F700C000008FEF0E941E0A4D
:101C90008A3F9105A9F486E08093A2010E94FA266A
:101CA0009F938F9383E593E09F938F930E94B00857
:101CB0000F900F900F900F9081E0DF91CF910895DA
:101CC00083E0EACF0E9471092E98269A2F98279ACE
:101CD0000E94FA269093A1018093A00184E0C8CFCE
:101CE0008091A0019091A1010E942627853F9140FB
:101CF00018F385E0BDCF2E9826982F9827980E943C
:101D0000090A0E946B090E94FA269F938F938EE422
:101D100093E09F938F930E94B0080E94FA269093BD
:101D2000A1018093A00186E096CF0E9476090196DA
:101D300019F20E94FA269F938F9389E493E09F9370
:101D40008F930E94B0080E94FA269093A10180937D
:101D5000A00187E080CF8091A0019091A1010E9415
:101D60002627853F914018F089E08093A2010E94C8
:101D70007609019609F4A0CF0E94FA269F938F93CB
:101D800084E493E09F938F930E94B0080E94FA2608
:101D90009093A1018093A00188E05DCF8091A00184
:101DA0009091A1010E942627853F914018F089E07B
:101DB0008093A2010E947609019609F47DCF0E94CA
:101DC000FA269F938F938FE393E09F938F930E94C4
:101DD000B00889E040CF80919A01CDEFDFEF8131EB
:101DE000C9F082EF0E941E0A9C01CFEFDFEF2F3F68
:101DF000320781F0CEEFDFEF2A3F310559F40E9420
:101E0000EE0CEC01CF3FDC0711F1DC2FCC270E9458
:101E1000EE0CC82BD093A501C093A4010E94FA2612
:101E20009F938F938AE393E09F938F930E94B008D0
:101E30008091A4019091A5010F900F900F900F90A9
:101E4000009741F482E08093A301E2E012C0D0E069
:101E5000C0E0E0CF8F3F9807B1F18E3F2FEF9207A0
:101E600089F38D3F2FEF920789F484E08093A301DB
:101E7000E4E0E2508EE191E0E33050F5F0E0EE0F67
:101E8000FF1FE65CFE4F8081918122C08F3F91054C
:101E900061F484E293E09F938F930E94B0081092C4
:101EA000A3010F900F90E0E0E4CF803B2FEB92076F
:101EB00029F483E08093A301E3E0DBCF8827811539
:101EC0009F4BB9F3BFCF81E08093A30183E291E000
:101ED0009F938F938091A5018F938091A4018F93FD
:101EE00086E193E09F938F930E94B0088AE08093ED
:101EF000A2010F900F900F900F900F900F90DCCEDB
:101F00000E94FA269F938F9381E193E09F938F9392
:101F10000E94B0088091A3010F900F900F900F9036
:101F2000823081F1833059F18BE08093A2010E94CD
:101F3000FA269F938F938CE093E09F938F930E9458
:101F4000B0080F900F900F900F900E9476099C019F
:101F50002F3F320709F4B0CE2115310519F02F3F7C
:101F60003105A9F40E94720D0E94B11B84E093E038
:101F70009F938F930E94B0080F900F909DCE88EF93
:101F80000E941E0A0E9448190E947A0DCDCF90919E
:101F9000A301933009F4D8C078F4913081F09230E5
:101FA00009F08ACEE0919E01E93008F07EC0F0E0B1
:101FB000E15DF84F0C94172F9430A1F37DCE9091F2
:101FC0009F019230A1F158F491111AC0803E71F036
:101FD000813E81F087FD10C00E942B0D6DCE9330A5
:101FE00071F1943081F110929F0166CE81E080936F
:101FF0009F0162CE82E0FBCF8F770E944B0D5CCEBB
:102000008A3A89F358F48A3271F3863361F387FD93
:1020100008C00E94A20C0E942B0DE5CF863BB9F7A9
:10202000E2CF8F770E94A20C0E944B0DDCCF8D3146
:1020300021F08D39C1F684E0DACF83E0D8CF853442
:1020400091F685E5E8CF853C71F685E5EDCF803EDC
:10205000D1F098F48338E9F08438F9F087FFBCCFE9
:102060000E94720D89EE92E09F938F930E94B008B8
:102070000F900F901092A2011FCE813E41F0803F41
:1020800069F781E001C082E080939E0115CE84E073
:10209000FBCF82E00E942B0D08C08FE7FBCF893574
:1020A00021F0803F29F0823129F410929E0104CE64
:1020B00083E0EACF10929E0187FD03C00E94540C7A
:1020C0008BCF0E94720D8FED92E0CECF833859F006
:1020D000843869F010929E0187FF8FCF0E94720DA5
:1020E00085ED92E0C1CF82E00E944B0DDECF8FE7FD
:1020F000FBCF8231D1F28935C1F210929E0187FD6A
:1021000003C00E94540C79CF0E94720D88EC92E0BB
:10211000ABCF843121F0803F41F686E0B5CF85E03A
:10212000B3CF873711F680E0B5CF843109F0BDCF4A
:1021300087E0AACF803F09F0B8CF88E0A5CF8737E6
:1021400009F0B3CF80E0D0CF90919D01992369F041
:10215000913009F0B1CDEDE7E80FEB3008F041C068
:10216000F0E0E85CF84F0C94172F8E3858F4833861
:10217000F8F0EDE7E80FEB30D8F4F0E0ED5BF84F66
:102180000C94172F803FA1F481E080939D0194CDA2
:1021900082E022CF8FE720CF8BE01ECF86E01CCFDE
:1021A00080E01ACF81E018CF89E016CF8AE014CF03
:1021B00087FF12CF8BEB92E057CF82E00E944B0D4E
:1021C00010929D0179CD8FE7F9CF8BE0F7CF86E0B4
:1021D000F5CF80E0F3CF81E0F1CF89E0EFCF8AE067
:1021E000EDCF10929D0187FF08CF81EB92E03CCFAD
:1021F0008091DB020895CF93DF9300D00F92CDB78B
:10220000DEB72091E002243019F523E029838A8388
:102210009B832093E9008FEF9091E800815095FD1A
:1022200006C095ED9A95F1F700008111F5CF8091E8
:10223000E80085FF0DC050E040E063E070E0CE01B3
:1022400001960E9488158091E8008E778093E800BF
:102250000F900F900F90DF91CF910895CF93DF9360
:1022600000D00F92CDB7DEB79C018091E0028430A0
:1022700031F582E08983205831093B832A8383E04A
:102280008093E9008FEF9091E800815095FD06C0A2
:1022900095ED9A95F1F700008111F5CF8091E80056
:1022A00085FF0DC050E040E063E070E0CE01019694
:1022B0000E9488158091E8008E778093E8000F9047
:1022C0000F900F90DF91CF9108952091E00224307C
:1022D000F1F422E02093E9002FEF3091E800215043
:1022E00035FD06C035ED3A95F1F700002111F5CF27
:1022F0002091E80025FF0BC050E040E065E070E071
:102300000E9488158091E8008E778093E8000895F8
:10231000CF93DF93D82FC92F8091E0028430D1F47E
:10232000809114018823F1F0809115018823D1F068
:1023300085E08093E90081E8815021F09091E800E8
:1023400095FF0BC08091E80050E040E060E270E053
:1023500085FD1AC0DF91CF9108959AE29A95F1F721
:1023600000C0EACF81E08093E90081E8815021F04C
:102370009091E80095FF1BC08091E80085FFEACFAF
:1023800050E040E068E070E08D2F9C2F0E9488159F
:102390008091E8008E778093E80080E2ED2FFC2F9B
:1023A000ABEBB2E001900D928A95E1F7D3CFEFE36A
:1023B000F1E03197F1F700C00000D8CFCF93DF9361
:1023C00000D000D00F92CDB7DEB72091B9012D8398
:1023D00021110CC00E940627643C794081059105BB
:1023E00028F081E08093B901B1E0BD838D810F9029
:1023F0000F900F900F900F90DF91CF910895FF9263
:102400000F931F93CF93DF93D82F0FB607FE47C0CC
:102410008091E002843071F08091070190E0019694
:102420002091090130E0822393232091080128178D
:102430001906A9F50E94DE1181110FC02091070134
:1024400030E02F5F3F4F8091090190E0282339232E
:10245000809108018217130611F50E94FA268C015B
:102460008091E900C091EC00C795CC27C7958F708B
:10247000C82B84E08093E90085E0F82E8091EB0082
:1024800085FD0AC09091EB00892F817090FF04C0F8
:102490009091EE0097FD42C0CF70C093E90080910B
:1024A000070190E09C012F5F3F4F4091090150E0F0
:1024B00024233523409108014217130609F47BC0F9
:1024C000E0910501F0910601E80FF91FD08380919A
:1024D00007018F5F909109018923809307016BC0E9
:1024E000E0910501F0910601E90FF11D20819F5F48
:1024F000309109019323909308012093F10090916A
:10250000E80095FD0BC09091E80090FF07C0909106
:10251000E8009E779093E800F09204019091080102
:10252000209107013091E800291731F135FDD8CF0E
:1025300080E026C01092F1002EC030E02F5F3F4FA8
:102540004091090150E0242335239217130609F026
:10255000A3CF80910401882309F49ECF0E94FA261C
:102560009C018017910709F489CF80910401815063
:1025700080930401890182CF35FFDACFD093F10037
:102580003091F3004091F200532F452B79F03091B8
:10259000E80030FF0BC03091E80035FDCBCF309123
:1025A000E8003E773093E800F0920401882329F296
:1025B000CF70C093E90080E0DF91CF911F910F9120
:1025C000FF9008958091E902811104C00E94DF17F5
:1025D0000C943C1808951092E90208951092E902B3
:1025E000089542E061EC81E00E94041542E061EC54
:1025F00082E00E94041542E061EC83E00E94041531
:1026000042E261EC84E00E94041542E261EC85E064
:102610000C9404158091E202893081F148F48230F3
:1026200009F492C0833009F44DC0813041F008951F
:102630008A3009F479C08B3009F45FC00895809125
:10264000E102813AF1F58091E800877F8093E8000C
:102650008091E5029091E602892B61F460E28BEBB8
:1026600092E070E00E94D9158091E8008B7780930A
:10267000E800089560E090E080E0F3CF8091E1020F
:102680008132F9F48091E5029091E6028B7F892BEB
:10269000C1F48091E800877F8093E8008091E80092
:1026A00082FF0BC08091F1008093DB028091E800F3
:1026B0008B778093E8000C9438158091E0028111AB
:1026C000EDCF08958091E102813AD9F78091E5023A
:1026D0009091E602892BA9F78091E800877F80938B
:1026E000E8008091E80080FFFCCF80911401809386
:1026F000F1008091E8008E77DCCF8091E102813299
:1027000001F78091E5029091E602892BD1F6809144
:10271000E800877F8093E8000E9438158091E302EB
:10272000809314010C94B11B8091E102813249F62F
:102730008091E800877F8093E8000E94381580919F
:10274000E4028093DC0208958091E102813A09F06D
:10275000B8CF8091E800877F8093E8008091E800FF
:1027600080FFFCCF8091DC02C2CF08958091DB0214
:102770008093BA011092DB020E94720D0C94B11B7F
:102780000C94B6130E94A9268091DD02882329F0BB
:102790000E94B62681110C94EE1408950E94CA2658
:1027A0008091BA018093DB0208950C94CE130895B2
:1027B00084B7877F84BF0FB6F894A8958091600096
:1027C000886180936000109260000FBE80E890E006
:1027D0000FB6F89480936100909361000FBE8FEF65
:1027E00091E10E947A268AE091E00E94431987EBEA
:1027F00093E00E9417080E94060D0E94021A0E9490
:10280000DF170E943C1878940E94041A8091E0021D
:10281000843009F044C085EA93E00E9417080E94C2
:10282000B51383E993E00E9417088091E002853098
:10283000D9F10E94081A2091E4003091E5008091BE
:10284000B7019091B8012817390731F18091E40060
:102850009091E5009093B8018093B7010E94DE113A
:102860008823D1F02091E0022430B1F49091E90066
:102870008091EC008795882787959F70892B2093FE
:10288000E9009091EB0090FF04C09091EE0097FD5D
:102890002AC08F708093E9000E942919C6CF0E9438
:1028A00029190E94D713B2CF0E94C213BECFE09164
:1028B0000501F0910601E90FF11D20819F5F309124
:1028C00009019323909308012093F1009091E8006F
:1028D00095FD09C09091E80090FF05C09091E80037
:1028E0009E779093E80090910801209107012917A5
:1028F00021F02091E80025FDDACF9091F30020919E
:10290000F200392F232B29F29091E80090FFC1CFDC
:102910009091E80095FD06C09091E8009E77909315
:10292000E800B7CF1092F100F3CFFC01CB01DA0140
:102930002F2F332723303105D1F070F421303105AA
:1029400009F447C02230310569F48DE890E027E1B1
:1029500034E02D933C93089521323105E9F0223281
:10296000310539F190E080E030E020E0F2CFCF0196
:102970009927E13059F08230910559F0E3E1F4E014
:10298000892B81F7849190E09F01E3CFE3E0F4E0AD
:10299000F9CFEDECF3E0F6CF6530710518F7880F4D
:1029A000991FFC01E15BFE4F2081318189E090E0BD
:1029B000D0CF65307105B0F6FB01EE0FFF1FEB5B6A
:1029C000FE4F20813181805C9E4FFC01808190E030
:1029D000C0CF82E190E024EA34E0BBCF80E189BD42
:1029E00082E189BD09B400FEFDCF8091D8008F7DC2
:1029F0008093D8008091E00082608093E000809115
:102A0000E00081FDFCCF0895982F973028F08F705B
:102A10008093E90081E008959093E900242F762FB8
:102A200050E0981731F07091EC002091ED0050913A
:102A3000F00021FD02C09F5FE8CF3091EB003E7FA8
:102A40003093EB003091ED003D7F3093ED003091FD
:102A5000EB0031603093EB007093EC002093ED00BD
:102A60005093F0002091EE0027FDE5CF80E008951F
:102A70008091E10287FF13C08091E80082FF06C0C9
:102A80008091E8008B778093E80004C08091E00299
:102A90008111F2CF08958091E0028823D9F38091CB
:102AA000E80080FFF8CF8091E8008E77ECCF20918E
:102AB000E4003091E50095E6A9012091EC00822F19
:102AC000817020FF06C08091E80080FF06C080E092
:102AD00008952091E80022FD1AC08091E002882329
:102AE00089F0853089F08091EB0085FD0FC0209141
:102AF000E4003091E50042175307F9F29150E1F6F6
:102B000084E0089582E0089583E0089581E00895C7
:102B1000AF92BF92CF92DF92FF920F931F93CF930A
:102B2000DF936C01EB018A010E945715F82E811189
:102B300025C00115110539F0F80180819181C81B6C
:102B4000D90BC80ED91EB12CA12C2097B9F08091B9
:102B5000E80085FD24C08091E8008E778093E8002E
:102B60000E94291901151105A1F0F80180819181B8
:102B70008A0D9B1D9183808385E0F82E8F2DDF9138
:102B8000CF911F910F91FF90DF90CF90BF90AF90AA
:102B900008950E9457158823C1F2F82EEFCFF60151
:102BA00081916F018093F1002197FFEFAF1ABF0A67
:102BB000CCCFFC01CB012091E7023091E80226172F
:102BC000370790F0009729F42091E8002E772093A2
:102BD000E80040E0009751F4411108C08091E800FE
:102BE00082FF31C080E00895C901F3CF2091E00257
:102BF0002223A9F12530A9F12091E80023FD2DC061
:102C00002091E80022FDEACF2091E80020FFE2CFEA
:102C10003091F3002091F200009719F0283031052F
:102C200058F041E02830310509F040E02091E800FB
:102C30002E772093E800CECF41914093F100019789
:102C40002F5F3F4FE9CF8091E002882341F085302C
:102C500041F08091E80083FFC1CF81E0089582E0D8
:102C6000089583E00895FC01CB012091E7023091A3
:102C7000E8022617370790F0009729F42091E80022
:102C80002E772093E80040E0009751F4411108C0EE
:102C90008091E80082FF32C080E00895C901F3CF3F
:102CA0002091E0022223B1F12530B1F12091E8001A
:102CB00023FD2EC02091E80022FDEACF2091E800FC
:102CC00020FFE2CF3091F3002091F200009719F03D
:102CD0002830310558F041E02830310509F040E056
:102CE0002091E8002E772093E800CECF44914093C6
:102CF000F100319601972F5F3F4FE8CF8091E002BE
:102D0000882341F0853041F08091E80083FFC0CFF7
:102D100081E0089582E0089583E008951F93CF93A2
:102D2000DF93CDB7DEB7AA970FB6F894DEBF0FBE1C
:102D3000CDBF81EE92E0FC0101962091F10020834D
:102D400022E0893E9207B9F70E940A138091E800B9
:102D500083FF1DC18091E1029091E2029A3008F058
:102D600016C1E92FF0E0E25BF84F0C94172F803882
:102D700099F0823809F00BC18091E5028F7087309D
:102D800008F005C18093E9008091EB0085FB88275E
:102D900080F91092E90006C08091DE029091DD0278
:102DA000911182609091E800977F9093E800809362
:102DB000F1001092F1008091E8008E77E4C0882342
:102DC00009F4D2C0823009F0E2C08091E30281119F
:102DD000D5C08091E5028F702FEF280F263008F0C4
:102DE000D6C08093E9002091EB0020FFC7C093304C
:102DF00031F48091EB0080628093EB00BFC0909132
:102E0000EB0090619093EB0021E030E001C0220FD5
:102E10008A95EAF72093EA001092EA008091EB008D
:102E20008860EACF8111B3C01091E3021F778091CF
:102E3000E3008078812B8093E3008091E800877F16
:102E40008093E8000E9438158091E80080FFFCCF55
:102E50008091E30080688093E30082E0111183E0B9
:102E60008093E00294C08058823008F090C0809136
:102E7000E3029091E4028C3D23E0920799F583E010
:102E80008A838AE289834FB7F894DE01139620E0A3
:102E90003EE051E2E32FF0E050935700849120FF91
:102EA00003C082958F703F5F8F708A30C8F0895C55
:102EB00090E08D939D932F5F243161F74FBF8091F8
:102EC000E800877F8093E8006AE270E0CE01019617
:102ED0000E94D9158091E8008B778093E80057C055
:102EE000805DE6CF6091E5027091E602AE014F5F32
:102EF0005F4F0E949514BC01892B09F448C0809152
:102F0000E800877F8093E80089819A810E943316C8
:102F1000E1CF8038E1F58091E800877F8093E80079
:102F20008091DF028093F10046CF811130C09091F3
:102F3000E302923060F58091E800877F8093E8009B
:102F40009093DF020E9438158091DF02882311F0F0
:102F500084E005C08091E30087FDFACF81E0809393
:102F6000E0020E94F11213C08091E302813079F4F3
:102F700081E0933009F080E08093DD021092E90057
:102F80008091E800877F8093E8000E943815809147
:102F9000E80083FF0AC08091E800877F8093E80003
:102FA0008091EB0080628093EB00AA960FB6F894B4
:102FB000DEBF0FBECDBFDF91CF911F9108950E945C
:102FC0004D180E945518E0EEF0E08081816080830A
:102FD000E8EDF0E080818F77808319BCA7EDB0E049
:102FE0008C918E7F8C9380818F7E80831092E902FA
:102FF00008950F931F93CF93DF930E944D180E9463
:103000005518C8EDD0E088818F77888388818068E3
:10301000888388818F7D888319BC1092E00210928A
:10302000DF021092DD021092DE0200EE10E0F801E5
:1030300080818B7F808388818160888342E060E02B
:1030400080E00E940415E1EEF0E080818E7F8083B5
:10305000E2EEF0E0808181608083808188608083FF
:10306000F80180818E7F8083888180618883DF91F1
:10307000CF911F910F910895E8EDF0E080818F7E50
:103080008083E7EDF0E080818160808384E082BF0F
:1030900081E08093E9020C94F917E8EDF0E080817B
:1030A0008E7F80831092E20008951092DA001092D1
:1030B000E10008951F920F920FB60F9211242F93E3
:1030C0003F934F935F936F937F938F939F93AF93B0
:1030D000BF93EF93FF938091E10082FF0BC080913B
:1030E000E20082FF07C08091E1008B7F8093E100C6
:1030F0000E9428198091DA0080FF19C08091D800C1
:1031000080FF15C08091DA008E7F8093DA00809175
:10311000D90080FF8FC080E189BD82E189BD09B4FB
:1031200000FEFDCF81E08093E0020E94E2128091D8
:10313000E10080FF19C08091E20080FF15C08091FE
:10314000E2008E7F8093E2008091E20080618093B4
:10315000E2008091D80080628093D80019BC85E09D
:103160008093E0020E94C0138091E10084FF29C097
:103170008091E20084FF25C080E189BD82E189BDA4
:1031800009B400FEFDCF8091D8008F7D8093D800D8
:103190008091E1008F7E8093E1008091E2008F7E3C
:1031A0008093E2008091E20081608093E200809150
:1031B000DF02882309F444C084E08093E0020E9487
:1031C000D5138091E10083FF24C08091E20083FF4A
:1031D00020C08091E100877F8093E10082E08093AE
:1031E000E0021092DF028091E1008E7F8093E10087
:1031F0008091E2008E7F8093E2008091E200806106
:103200008093E20042E060E080E00E9404150E94AA
:10321000EE12FF91EF91BF91AF919F918F917F91AE
:103220006F915F914F913F912F910F900FBE0F9033
:103230001F90189519BC1092E0020E94EB1277CFF4
:103240008091E30087FD02C081E0B7CF83E0B5CF76
:103250000895CF938091E002882399F08091E9004E
:10326000C091EC00C795CC27C7958F70C82B1092E2
:10327000E9008091E80083FD0E948E16CF70C09314
:10328000E900CF9108959093EF028093EE020895A4
:10329000E091EE02F091EF02309721F00190F08181
:1032A000E02D099480E00895EF92FF920F931F9311
:1032B000CF93DF938C01E091EE02F091EF02309713
:1032C000A9F10280F381E02D09958091E40382FF4A
:1032D0002DC080FF04C08AEF95E00E941708E80126
:1032E000C80180967C0104EF15E08091E40380FF23
:1032F0000BC088811F928F931F930F930E94B00879
:103300000F900F900F900F902196CE15DF0569F763
:103310008091E40380FF0AC082EF95E0DF91CF91B6
:103320001F910F91FF90EF900C941708DF91CF91B0
:103330001F910F91FF90EF900895E091EE02F091B0
:10334000EF02309721F00480F581E02D0994089573
:10335000CF93DF93EC018091EC029091ED028C17FA
:103360009D0701F1D093ED02C093EC02E091EE02D3
:10337000F091EF023097B1F00680F781E02DCE0199
:1033800009958091E4038570853061F4DF93CF93D4
:1033900084EE95E09F938F930E94B0080F900F905A
:1033A0000F900F90DF91CF910895CF93DF93EC01B1
:1033B0008091EA029091EB028C179D0701F1D09366
:1033C000EB02C093EA02E091EE02F091EF02309737
:1033D000B1F00084F185E02DCE0109958091E403E0
:1033E0008570853061F4DF93CF9384ED95E09F93F2
:1033F0008F930E94B0080F900F900F900F90DF9165
:10340000CF9108950C94B51A0E94F1260C940A0DE0
:103410009F92AF92BF92CF92DF92EF92FF920F9363
:103420001F93CF93DF9300D000D00F92CDB7DEB7BC
:103430000E94890D81EFC82E82E0D82E10E0812FE6
:103440000E946C0DF82EF60191906F01981699F17B
:103450008091E40381FD0E94B61A9F24E12C01E0D3
:103460005601F1E0AF1AB108892D8023F9F0E98205
:103470001A8391E08F2D802309F490E09B830E94B2
:10348000FA268160782F9D838C8349815A816B81D4
:10349000892F0E94EC1A49815A816B817C818D8130
:1034A0000E949426F501808180278083E394000F99
:1034B000F8E0EF12D9CF1F5F103109F0C0CF8FEFC6
:1034C00089838A831B820E94FA268160782F9D83DC
:1034D0008C8349815A816B81892F0E94EC1A0E944A
:1034E00093260E944E290E9448199091F002891754
:1034F00049F10E9448198093F0029091E40395707D
:10350000953061F41F928F9385E096E09F938F939F
:103510000E94B0080F900F900F900F908091F002D2
:103520000F900F900F900F900F90DF91CF911F9100
:103530000F91FF90EF90DF90CF90BF90AF909F9052
:103540000C94A5260F900F900F900F900F90DF9185
:10355000CF911F910F91FF90EF90DF90CF90BF9090
:10356000AF909F9008950C947A0D0895EF92FF927A
:103570000F931F93CF93DF938BE196E00E94170880
:10358000D0E0C0E089E3E82E81E0F82E00E116E00B
:103590008C2F0E946C0D0E947F26FF92EF921F924B
:1035A0008F93DF93CF931F930F930E94B0082196C0
:1035B0008DB79EB708960FB6F8949EBF0FBE8DBF0D
:1035C000C031D10529F7DF91CF911F910F91FF9065
:1035D000EF90089508950895CF93DF93CDB7DEB7A8
:1035E0002B970FB6F894DEBF0FBECDBF4F83588721
:1035F00069877A878B878A859B85892B21F0842F21
:1036000085238F3FD1F41E8285E0FE013796DE01CF
:10361000119601900D928A95E1F749815A816B814B
:103620007C818D819E812B960FB6F894DEBF0FBEF4
:10363000CDBFDF91CF910C94C22169857A858B85AE
:103640000E949426E0CFCF93C82F882309F43FC06F
:103650008CEF8C0F813A58F48C2F0E94862C8111AC
:1036600036C08C2F0E947525CF910C94542680E291
:103670008C0F883048F4C77081E001C0880FCA956C
:10368000EAF70E941926F0CF8BE58C0F833068F49F
:1036900081E890E0C53A31F083E890E0C63A11F451
:1036A00082E890E0CF910C94A819C85AC73178F4F9
:1036B00080E790E0C63141F0EC2FF0E0EE0FFF1F05
:1036C000E75AFE4F80819181CF910C94D519CF910B
:1036D0000895882329F19CEF980F913A20F40E94D5
:1036E000C2250C94542690E2980F983050F48770BD
:1036F00091E001C0990F8A95EAF7892F0E941F2651
:10370000F0CF9BE5980F933020F490E080E00C948C
:10371000A819885A873120F490E080E00C94D519DC
:103720000895882321F00E9419260C9454260895A8
:10373000882321F00E941F260C94542608950E948D
:103740003B260E9408260E9454260E94342A0E948A
:10375000C12890E080E00E94A81990E080E00C94DD
:10376000D5190E942A260C949F1BAF92BF92CF922C
:10377000DF92EF92FF920F931F93CF93DF93CDB71A
:10378000DEB729970FB6F894DEBF0FBECDBF5C0140
:103790000E94A726811118C085E0F501DE0111966F
:1037A00001900D928A95E1F7F50180819181F28077
:1037B000E580E2942FE0E22223813481232B21F063
:1037C00089238F3F09F05FC329960FB6F894DEBFB7
:1037D0000FBECDBFDF91CF911F910F91FF90EF9062
:1037E000DF90CF90BF90AF900895F12FFF70EF2E34
:1037F000107F19F0E29490EFE922FF20D1F0EE2043
:1038000029F08E2D0E942D260E945426802F299665
:103810000FB6F894DEBF0FBECDBFDF91CF911F91E1
:103820000F91FF90EF90DF90CF90BF90AF900C94EE
:10383000231B802F0E94691BEE2031F28E2D0E94E7
:10384000332629960FB6F894DEBF0FBECDBFDF91A9
:10385000CF911F910F91FF90EF90DF90CF90BF908D
:10386000AF900C945426212F2F70D22E107F10323F
:1038700019F0D29480EFD822002379F0013009F4B6
:1038800055C0FF2009F463C0EE2059F0F501858191
:1038900080FF07C28F70858304C0FF2059F1E110BB
:1038A00013C08D2D29960FB6F894DEBF0FBECDBF85
:1038B000DF91CF911F910F91FF90EF90DF90CF900C
:1038C000BF90AF900C94911B31E08D2DE312EACFA5
:1038D00029960FB6F894DEBF0FBECDBFDF91CF9112
:1038E0001F910F91FF90EF90DF90CF90BF90AF901E
:1038F0000C943E26E11015C00E9441268D2D29967C
:103900000FB6F894DEBF0FBECDBFDF91CF911F91F0
:103910000F91FF90EF90DF90CF90BF90AF900C94FD
:10392000981B41E0E41609F44FCFE6CFFF2051F099
:1039300055E05E1508F448CF0E9416268D2109F443
:10394000B0CFDCCF84E08E1508F43ECFD7CFEE2089
:10395000A9F2802F29960FB6F894DEBF0FBECDBF17
:10396000DF91CF911F910F91FF90EF90DF90CF905B
:10397000BF90AF900C94691B812F869586958370BC
:10398000D9F0813009F020CFC8019370F11002C046
:1039900090E080E029960FB6F894DEBF0FBECDBF51
:1039A000DF91CF911F910F91FF90EF90DF90CF901B
:1039B000BF90AF900C94D519C8019370F11002C05C
:1039C00090E080E029960FB6F894DEBF0FBECDBF21
:1039D000DF91CF911F910F91FF90EF90DF90CF90EB
:1039E000BF90AF900C94A819802FFF20A1F00E94E7
:1039F000FC2729960FB6F894DEBF0FBECDBFDF912E
:103A0000CF911F910F91FF90EF90DF90CF90BF90DB
:103A1000AF900C94C1280E944E28EBCF812F837069
:103A200009F08CC0F110D0CE202F2295269527705A
:103A3000220F220F802F8F7090E0B0E0A0E06C0189
:103A40007D01022E04C0CC0CDD1CEE1CFF1C0A9470
:103A5000D2F760E070E0CB0104FF0FC06FE070E0D0
:103A600080E090E004C0660F771F881F991F2A9599
:103A7000D2F7609570958095909516951695137070
:103A80001230C9F1133009F454C09B01AC012C2948
:103A90003D294E295F292E833F834887598711305E
:103AA000A1F0CA01B90129960FB6F894DEBF0FBE86
:103AB000CDBFDF91CF911F910F91FF90EF90DF90DD
:103AC000CF90BF90AF900C943B236E817F8188850F
:103AD000998529960FB6F894DEBF0FBECDBFDF9152
:103AE000CF911F910F91FF90EF90DF90CF90BF90FB
:103AF000AF900C940B239B01AC012C293D294E293E
:103B00005F292E833F8348875987CA01B9012996C7
:103B10000FB6F894DEBF0FBECDBFDF91CF911F91DE
:103B20000F91FF90EF90DF90CF90BF90AF900C94EB
:103B30006B230E943B23C701B601CBCFFF2009F4C2
:103B400053C010FF41CE202F229526952770220FBB
:103B5000220F802F8F7090E0B0E0A0E06C017D011B
:103B6000022E04C0CC0CDD1CEE1CFF1C0A94D2F704
:103B700060E070E0CB0104FF0FC06FE070E080E018
:103B800090E004C0660F771F881F991F2A95D2F70F
:103B900060957095809590951695169513701230D6
:103BA000E1F1133009F457C09B01AC012C293D29E8
:103BB0004E295F292E833F83488759871130B9F0FA
:103BC000CA01B90129960FB6F894DEBF0FBECDBF6A
:103BD000DF91CF911F910F91FF90EF90DF90CF90E9
:103BE000BF90AF900C94842411FFEECDACCF6E81CA
:103BF0007F818885998529960FB6F894DEBF0FBE20
:103C0000CDBFDF91CF911F910F91FF90EF90DF908B
:103C1000CF90BF90AF900C945C249B01AC012C29F9
:103C20003D294E295F292E833F8348875987CA0142
:103C3000B90129960FB6F894DEBF0FBECDBFDF9154
:103C4000CF911F910F91FF90EF90DF90CF90BF9099
:103C5000AF900C94AC240E948424C701B601CBCF52
:103C6000013F09F473C068F5003E98F4003C98F0F9
:103C7000812F8F71102F1071FF2009F43EC00E9418
:103C8000C523802F8295807F11110CCE802F8F70DD
:103C900009CE003FE1F1FF2009F4A0C0EE2009F4B5
:103CA0009AC0802F0E94231B093309F08DC0FFEFBB
:103CB00021EE34E0F15020403040E1F700C0000038
:103CC00083CD023F09F458C0033F29F7FF2009F4D0
:103CD00069C0812F8F7129960FB6F894DEBF0FBE91
:103CE000CDBFDF91CF911F910F91FF90EF90DF90AB
:103CF000CF90BF90AF900C94A0230E94F623802F0A
:103D00008295807F1111FBCD802F8F70F8CDFF2021
:103D1000C1F034E03E1508F457CD812F8F712996FC
:103D20000FB6F894DEBF0FBECDBFDF91CF911F91CC
:103D30000F91FF90EF90DF90CF90BF90AF900C94D9
:103D40002B2445E04E1508F43FCDE7CF812F8F712E
:103D5000FF20B1F029960FB6F894DEBF0FBECDBF9D
:103D6000DF91CF911F910F91FF90EF90DF90CF9057
:103D7000BF90AF900C94C523812F8F71FF2051F31A
:103D800029960FB6F894DEBF0FBECDBFDF91CF915D
:103D90001F910F91FF90EF90DF90CF90BF90AF9069
:103DA0000C94F62329960FB6F894DEBF0FBECDBF54
:103DB000DF91CF911F910F91FF90EF90DF90CF9007
:103DC000BF90AF900C949B23033509F470CF073458
:103DD00009F0FACC6CCF812F8F71BCCFE110B9CD37
:103DE000812F8F71CDCF412F4F70602FC5010E9461
:103DF000020929960FB6F894DEBF0FBECDBFDF9142
:103E0000CF911F910F91FF90EF90DF90CF90BF90D7
:103E1000AF900C945C220111D7CCFF2009F4D4CCD4
:103E20000E94B11B5FEF80E792E0515080409040CC
:103E3000E1F700C0000029960FB6F894DEBF0FBE70
:103E4000CDBFDF91CF911F910F91FF90EF90DF9049
:103E5000CF90BF90AF900C945927412F4F70602F97
:103E6000C50129960FB6F894DEBF0FBECDBFDF9116
:103E7000CF911F910F91FF90EF90DF90CF90BF9067
:103E8000AF900C94782749815A816B817C818D8118
:103E90000E94D5248C010E94D4240E940023E12F8B
:103EA000E295EF70F0E0E85AF84F0C94172FCF939B
:103EB000DF9300D000D00F92CDB7DEB76B837C8349
:103EC0008D838C819D81892B21F0842F85238F3FC9
:103ED000A1F480E005C0303E58F481E0303CC8F7E2
:103EE0000F900F900F900F900F90DF91CF9108954A
:103EF000315F81E03330A0F7ECCF6B817C818D8125
:103F00000E94D524382F292F22952F70903C40F401
:103F10002A3008F7225F2F7081E0223008F3D9CFD2
:103F20002C3011F02F30A9F693FB882780F9D8CFD9
:103F3000CF93DF9300D000D00F92CDB7DEB70F90B4
:103F40000F900F900F900F90DF91CF910895CF9326
:103F5000DF9300D000D000D0CDB7DEB726960FB6E5
:103F6000F894DEBF0FBECDBFDF91CF9108951F93B0
:103F7000CF93DF93E091010316E0809102038E134B
:103F800004C0DF91CF911F910895CE2FD0E01E9FE6
:103F9000F0011124ED5FFC4F4081518162817381FA
:103FA000848195810E94A71F2196EC2FE770E5CFB1
:103FB000409133035091340360913503709136037F
:103FC00080913703909138030C94A71F1F93CF93D0
:103FD000DF9380913803807FA9F480913503882393
:103FE00089F080910103C0910203709133036091C5
:103FF0003403A0913603B0913703D62FD72316E0B0
:10400000C81304C0DF91CF911F91089590E01097DD
:1040100011F0DF3F19F401968770F2CF189F9001DD
:10402000199F300D1124F901ED5FFC4F418164139C
:10403000F2CF40814713EFCF42814111ECCF438152
:1040400054814A1B5B0B483C510528F7809138038B
:104050008F70806180933803F901E85FFC4F8081A5
:104060008F708061808383E393E00E94B51BDF91B2
:10407000CF911F910C94B71FAF92BF92CF92DF9256
:10408000EF92FF920F931F93CF93DF93CDB7DEB7DD
:104090002B970FB6F894DEBF0FBECDBF8C0185E025
:1040A000F801DE01179601900D928A95E1F7F8016B
:1040B000E28030812181C380D48083E3A82E83E015
:1040C000B82E909133034091340360913603709180
:1040D00037036115710529F0892F84238F3F09F07B
:1040E0003EC1EE2009F44AC14F81588569857A8521
:1040F0008B850E94571F882309F440C1ECC0809132
:104100003803582F507F683C710508F07DC051116D
:10411000BBC0FE2C241324C0931322C0E11020C086
:104120008F708061809338030E94D81F83E393E0EF
:104130000E94B51B80913803F80185838F2D2B9643
:104140000FB6F894DEBF0FBECDBFDF91CF911F91A8
:104150000F91FF90EF90DF90CF90BF90AF900895B8
:10416000CD2829F0822F83238F3F09F08AC080E079
:10417000F82FF170DF2EE09101034091020356E029
:1041800080FD1CC0EE20D1F28091380381608093C5
:104190003803F12CD3CF8E2F90E05E9FF0011124D5
:1041A000ED5FFC4F6181261306C06081361303C0AA
:1041B00062816E11E7CF0196E82FE770E413EBCF31
:1041C0004F81588569857A858B850E94D524292F52
:1041D00022952F70903260F0225F2F70223078F499
:1041E0009F7051F0F8019581907F31F4D12C0AC075
:1041F0009F7011F08823D1F3805E8830B8F3C80136
:104200000E94B51BFD2C9ACF511174C04F81588567
:1042100069857A858B850E94981F83E393E00E94CD
:10422000B51B86E0F50111928A95E9F70E94D81F27
:10423000B0CF86E0F801A3E3B3E001900D928A9538
:10424000E1F77CCF4F81588569857A858B850E94FF
:10425000571F811140C080913803816080933803DB
:10426000C8010E94B51B6ACF4F81588569857A8540
:104270008B850E94981F86E0F50111928A95E9F7D7
:104280006BC081E08E2574CF241306C0931304C045
:10429000F801EE2009F454C04F81588569857A856C
:1042A0008B850E94571F882309F468C0EE2009F40B
:1042B00065C080913803803270F0209133033091D3
:1042C00034033A8329831B82DD82CC828E83CE0124
:1042D00001960E94B51B86E0F801A3E3B3E00190CC
:1042E0000D928A95E1F70E94E61F0E94D81FFF24D5
:1042F000F39424CF2413D0CF9313CECFE110CCCF9F
:10430000F8018583C8010E94B51B86E0F501119272
:104310008A95E9F713CF241395CF931393CF809108
:10432000380380FD86CF982F907F09F482CFF80163
:104330008583903F31F0982F907F905F8F70892B0D
:104340008583C8010E94B51B86E0F801A3E3B3E0B2
:1043500001900D928A95E1F70E94D81FEFCEF09060
:104360003503F601E61BF70BBF01F110C8CE683C20
:10437000710508F079CFFE2CE110CDCFC8010E9465
:10438000B51BB5CF1F93CF93DF93CDB7DEB72C9777
:104390000FB6F894DEBF0FBECDBF4F835887698735
:1043A0007A878B879C87CE0107960E943C208823C2
:1043B00069F08A859B85892B39F058854F81852F37
:1043C00084238F3F09F071C016E05FC086E0FE01D4
:1043D0003796DE01119601900D928A95E1F78F8153
:1043E000988520910203409101036A857B85672BA4
:1043F00059F389238F3F41F330E0C901019687705B
:1044000099274817190671F40E94B11B10920203F4
:104410001092010386E0E3E3F3E0DF011D928A9549
:10442000E9F7D2CF96E0929FD001939FB00D11246F
:10443000AD5FBC4FFE01319601900D929A95E1F768
:10444000809302030E94B71FBFCF819FC001112438
:104450008D5F9C4F0E943C208823E9F0E09101038E
:104460001E9FF0011124ED5FFC4F4081518162815C
:104470007381848195810E94A71F8091010390E040
:104480000196877099278093010380910103909191
:1044900002038913DACF2C960FB6F894DEBF0FBE55
:1044A000CDBFDF91CF911F91089569857A858B8566
:1044B0009C850E94A71F88CFDF92EF92FF920F93F7
:1044C0001F93CF93DF939C01892BB9F0F12CE12C42
:1044D000DD24D394E9012196F9018491853709F40B
:1044E0006EC098F4843709F45AC0843008F073C061
:1044F000813011F1823009F43CC0DF91CF911F91DE
:104500000F91FF90EF90DF900895883709F460C015
:1045100058F4863709F458C0873779F78F2D0E94F1
:1045200027260E94542620C09CE7980F903728F732
:104530008F770E94691B18C089010E5F1F4FFE0113
:10454000849190E2980F983060F48770FD2D01C03F
:10455000FF0F8A95EAF78F2F0E942D260E9454267E
:1045600002C00E94231BE8018E2D811137C09E01DD
:10457000B1CF89010E5F1F4FFE01849190E2980F29
:10458000983050F48770FD2D01C0FF0F8A95EAF72F
:104590008F2F0E943326E2CF0E94691BE4CF2E5F4B
:1045A0003F4FFE01C491C11102C0E901DDCF8FE987
:1045B0009FE00197F1F700C00000C150F4CF2E5FDB
:1045C0003F4FFE01E490F1CF0E941626F82ECCCF8B
:1045D0000E942A26A6CF0E94231BC6CFEFE9FFE048
:1045E0003197F1F700C000008150BFCF6093B9034D
:1045F0007093BA038093BB039093BC030C94A426DE
:1046000008956093BD037093BE038093BF0390939E
:10461000C0030C94A326CF93DF9300D000D0CDB776
:10462000DEB769837A838B839C838091BD039091ED
:10463000BE03A091BF03B091C00329813A814B8191
:104640005C81282B392B4A2B5B2B29833A834B83A4
:104650005C832093BD033093BE034093BF0350930C
:10466000C003CA01B9010F900F900F900F90DF9116
:10467000CF910C94A326CF93DF9300D000D0CDB779
:10468000DEB769837A838B839C838091BD0390918D
:10469000BE03A091BF03B091C00329813A814B8131
:1046A0005C81282339234A235B2329833A834B8364
:1046B0005C832093BD033093BE034093BF035093AC
:1046C000C003CA01B9010F900F900F900F90DF91B6
:1046D000CF910C94A326CF93DF9300D000D0CDB719
:1046E000DEB769837A838B839C838091BD0390912D
:1046F000BE03A091BF03B091C00329813A814B81D1
:104700005C81282739274A275B2729833A834B83F3
:104710005C832093BD033093BE034093BF0350934B
:10472000C003CA01B9010F900F900F900F90DF9155
:10473000CF910C94A32660E070E0CB010C94F6229C
:104740000F931F93CF93DF9300D000D0CDB7DEB788
:1047500041E050E060E070E08A019B0104C0000F7E
:10476000111F221F331F8A95D2F709831A832B83C7
:104770003C83C901B8010F900F900F900F90DF910B
:10478000CF911F910F910C94F6220F931F93CF930B
:10479000DF9300D000D0CDB7DEB741E050E060E05D
:1047A00070E004C0440F551F661F771F8A95D2F72B
:1047B0008091B9039091BA03A091BB03B091BC035F
:1047C0008A019B01082B192B2A2B3B2B09831A8367
:1047D0002B833C83C901B8010F900F900F900F906D
:1047E000DF91CF911F910F910C94F6220F931F939D
:1047F000CF93DF9300D000D0CDB7DEB741E050E0DB
:1048000060E070E004C0440F551F661F771F8A9553
:10481000D2F740955095609570958091B90390912D
:10482000BA03A091BB03B091BC038A019B0108238A
:1048300019232A233B2309831A832B833C83C90131
:10484000B8010F900F900F900F90DF91CF911F91B3
:104850000F910C94F6220F931F93CF93DF9300D008
:1048600000D0CDB7DEB741E050E060E070E004C0BA
:10487000440F551F661F771F8A95D2F78091B903A1
:104880009091BA03A091BB03B091BC038A019B0134
:10489000082719272A273B2709831A832B833C8360
:1048A000C901B8010F900F900F900F90DF91CF9139
:1048B0001F910F910C94F622CF93DF9300D000D07C
:1048C000CDB7DEB769837A838B839C838091B903EC
:1048D0009091BA03A091BB03B091BC0329813A81A6
:1048E0004B815C81282B392B4A2B5B2B29833A8304
:1048F0004B835C83CA01B9010F900F900F900F900A
:10490000DF91CF910C94F622CF93DF9300D000D0AB
:10491000CDB7DEB769837A838B839C838091B9039B
:104920009091BA03A091BB03B091BC0329813A8155
:104930004B815C81282339234A235B2329833A83D3
:104940004B835C83CA01B9010F900F900F900F90B9
:10495000DF91CF910C94F622CF93DF9300D000D05B
:10496000CDB7DEB769837A838B839C838091B9034B
:104970009091BA03A091BB03B091BC0329813A8105
:104980004B815C81282739274A275B2729833A8373
:104990004B835C83CA01B9010F900F900F900F9069
:1049A000DF91CF910C94F62208954F925F926F920F
:1049B0007F929F92AF92BF92CF92DF92EF92FF923F
:1049C0000F931F93CF93DF9300D000D00F92CDB7FA
:1049D000DEB7F42E4983E52E5A837C838D838C8148
:1049E0009D81892B21F0842F85238F3F59F590E0FD
:1049F00080E00F900F900F900F900F90DF91CF916C
:104A00001F910F91FF90EF90DF90CF90BF90AF90EC
:104A10009F907F906F905F904F9008956F2D7E2DA7
:104A20008A2D0E94B9080197B9F13BC0F80183E0D3
:104A3000EE0FFF1F8A95E1F7E75CFC4FEC0DFD1DC3
:104A400090803AC0052F10E0C42ED12C662371F35C
:104A50004090B9035090BA036090BB037090BC03C0
:104A60008091BD039091BE03A091BF03B091C0039C
:104A7000482A592A6A2A7B2A2FE1A22EB12C9A2C85
:104A8000D301C2010A2C04C0B695A79597958795C6
:104A90000A94D2F780FDC2CF81E0A81AB10878F756
:104AA000912CF80193E0EE0FFF1F9A95E1F7E75C78
:104AB000FC4FEC0DFD1D908269817A81892D0F904C
:104AC0000F900F900F900F90DF91CF911F910F914A
:104AD000FF90EF90DF90CF90BF90AF909F907F902E
:104AE0006F905F904F900C94B908909114019923A6
:104AF00061F190911501992341F1982F9695969522
:104B000096959F3189F0E0911601F0911701E90F18
:104B1000F11D877021E030E001C0220F8A95EAF78D
:104B20008181822B818308959091E40390FF22C0BC
:104B30001F928F9386E496E09F938F930E94B00814
:104B40000F900F900F900F900895209116013091C3
:104B50001701F90132969FEF40E05191851751F00E
:104B60009F3F19F4511101C0942F4F5F4E31A9F7A7
:104B70009F3F09F40895290F311D97FD3A95F901DA
:104B80008283089590911401992381F190911501E8
:104B9000992361F1982F9695969596959F31A9F056
:104BA000E0911601F0911701E90FF11D877021E0E6
:104BB00030E0A90102C0440F551F8A95E2F7CA01EF
:104BC000809591818923818308959091E40390FFDA
:104BD0001EC01F928F9388E296E09F938F930E944E
:104BE000B0080F900F900F900F900895209116012C
:104BF00030911701F9013296205E3F4F9191891350
:104C000003C0DF0111971C92E217F307B9F708956B
:104C100081E090E0E0911601F0911701E80FF91F93
:104C20001082019680329105A9F708958091E303DF
:104C300008959091E303982B9093E3030895982FA0
:104C400090958091E30389238093E30308958093F3
:104C5000E30308951092E30308959091E203982BE3
:104C60009093E2030895982F90958091E203892311
:104C70008093E20308951092E20308958093C103A4
:104C800008951092C10308952091160130911701E3
:104C9000F9013196205E3F4F80E0919191118F5F35
:104CA000E217F307D1F70895E0911601F09117018B
:104CB0008091E3038083E0911601F09117018081D8
:104CC0009091E203892B80839091C103992361F035
:104CD000E0911601F09117018081892B80830E9459
:104CE000442681111092C103809116019091170101
:104CF0000C9454199093970180939601089582958E
:104D000094E0899F900111242C7C8695869583736D
:104D1000282B30E0C901880F991F8A7A359527958D
:104D20002575822B08950895CF93DF9300D000D08E
:104D30000F92CDB7DEB70F900F900F900F900F909E
:104D4000DF91CF910895089508950C94B31A80E0EF
:104D5000089583B7817F8C6083BF83B7816083BFF1
:104D60007894889583B78E7F83BF0895CF930E94F0
:104D7000EA1A0E94890D0E94EB1AC0E08C2F0E9453
:104D80006C0D811105C0CF5FC031C1F7CF9108957F
:104D900081E0FCCF0E94720D0C94B11B1F921FB6D4
:104DA0001F9211248F939F93AF93BF938091E5033C
:104DB0009091E603A091E703B091E8034196A11D0D
:104DC000B11D8093E5039093E603A093E703B093AE
:104DD000E803BF91AF919F918F911F901FBE1F90CD
:104DE000189582E084BD93E095BD9AEF97BD8093BE
:104DF0006E0008952FB7F8948091E5039091E60333
:104E0000A091E703B091E8032FBF0895CF93DF93FC
:104E100000D000D0CDB7DEB78FB7F8942091E5036E
:104E20003091E6034091E7035091E80329833A83E8
:104E30004B835C838FBF69817A818B819C810F90CA
:104E40000F900F900F90DF91CF9108959C014FB775
:104E5000F8948091E5039091E603A091E703B09167
:104E6000E8034FBF821B930B089578941F921FB6DF
:104E70001F9211248F939F93AF93BF938091E5036B
:104E80009091E603A091E703B091E8030196A11D7C
:104E9000B11D8093E5039093E603A093E703B093DD
:104EA000E803BF91AF919F918F911F901FBE1F90FC
:104EB00018950E94DF17F89487E797E79093010809
:104EC0008093000887E090EBDC018093F4039093DB
:104ED000F503A093F603B093F70388E19CE00FB6C7
:104EE000F894A895809360000FBE90936000FFCF68
:104EF00008958091EB0380FF12C060911B0185E053
:104F0000689FB00111247595679575956795603810
:104F10007105A8F561157105A1F1862F089581FF2E
:104F200009C060911B0185E0689FB001112475954F
:104F30006795EDCF60911B0182FD0AC02091EC03C3
:104F40002223D1F090911A0160911B01291728F0BA
:104F500085E0689FB0011124DACF269F90011124CB
:104F600085E0829FA001839F500D1124692F70E07E
:104F7000CA010E94032FCBCF65E070E0CECF8FE750
:104F8000089581E008958091EB0380FF0CC060914B
:104F9000190170E0759567957595679561157105AF
:104FA00049F1862F089581FF06C06091190170E0D4
:104FB00075956795F3CF6091190182FD0BC09091B3
:104FC000EC039923A1F060911801809119019617C3
:104FD00038F0682F70E06038710500F38FE70895AE
:104FE000899FC001112470E00E94032FF4CF61E07B
:104FF00070E0D7CF81E00895805F803108F045C030
:10500000E82FF0E0E859F84F0C94172F0E94792709
:1050100081958093EF0308950E947927FACF0E942B
:10502000792781958093EE0308950E947927FACF1E
:105030000E94C3278093F00308950E94C32781959F
:10504000F9CF0E94C32781958093F10308950E94B0
:10505000C327FACF8091ED0381608093ED0308951B
:105060008091ED038260F9CF8091ED038460F5CFEC
:105070008091ED038860F1CF8091ED038061EDCFE9
:105080008091EB0381608093EB0308958091EB03A3
:105090008260F9CF8091EB038460F5CFE82F3091E7
:1050A000EF032091EE039091F0038091F103E03F34
:1050B00091F437FD1092EF038091EE039091EF038E
:1050C000892B9091F003892B9091F103892B11F496
:1050D0001092EC030895E13F19F413165CF3ECCF42
:1050E000E23F29F427FFE8CF1092EE03E5CFE33F3C
:1050F00019F41216CCF3E0CFE93F29F41916E4F6BF
:105100001092F003D9CFEA3F19F497FFD5CFF8CF2B
:10511000EB3F29F487FFD0CF1092F103CDCFEC3FC6
:1051200019F41816CCF3C8CFE45FEC3008F0C4CF04
:10513000F0E0E858F84F0C94172F8091ED038E7F24
:105140008093ED03B9CF8091ED038D7FF9CF8091EE
:10515000ED038B7FF5CF8091ED03877FF1CF8091B9
:10516000ED038F7EEDCF8091EB038E7F8093EB0379
:10517000A3CF8091EB038D7FF9CF8091EB038B7FE1
:10518000F5CF8091E40383FF7EC08BE896E00E9418
:1051900017088091ED031F928F9386E896E09F9306
:1051A0008F930E94B00884E896E00E9417088091CF
:1051B000EE03282F082E000C330B3F938F9381E8CA
:1051C00096E09F938F930E94B0088FE796E00E942D
:1051D00017088091EF03282F082E000C330B3F9304
:1051E0008F938CE796E09F938F930E94B0088AE795
:1051F00096E00E9417088091F003282F082E000CDB
:10520000330B3F938F9387E796E09F938F930E9492
:10521000B00885E796E00E9417088091F103282FD7
:10522000082E000C330B3F938F9382E796E09F93F9
:105230008F930E94B0088FE696E00E941708809135
:10524000EC031F928F938CE696E09F938F930E94BE
:10525000B0088AE696E00E9417088091EB031F923F
:105260008F9387E696E09F938F930E94B00884E621
:1052700096E00E9417088DB79EB74C960FB6F8942B
:105280009EBF0FBE8DBF8DEE93E00E949D190E94C0
:10529000FA269093EA038093E90308951F93CF932E
:1052A000DF9300D000D000D0CDB7DEB78091E90306
:1052B0009091EA030E942627AC018091EC03209193
:1052C0001C0130E0811106C020911D019AE0299F48
:1052D000900111244217530788F02091EE03A0910A
:1052E000EF03A9831091F003B091F103BE83211164
:1052F0000FC09A2F912B9B2B09F0B2C026960FB6A8
:10530000F894DEBF0FBECDBFDF91CF911F910895FE
:105310008F3F19F08F5F8093EC03121624F40E94E4
:1053200079278093EE038091EE0387FF05C00E94EA
:10533000792781958093EE032981121624F40E9427
:1053400079278093EF038091EF0387FF05C00E94C8
:10535000792781958093EF038091EE03882309F4E8
:1053600055C03091EF033D83332309F44FC0282FFC
:10537000880F330B440B550B29833A834B835C8393
:10538000CA01B9010E940A2E23E333E343E35FE33A
:1053900069837A838B839C8369817A818B819C81E9
:1053A0000E946E2E69837A838B839C8369817A81C4
:1053B0008B819C810E94D22D6093EE038D81082EFB
:1053C000000C990BAA0BBB0B89839A83AB83BC831C
:1053D000BC01CD010E940A2E23E333E343E35FE3E4
:1053E00069837A838B839C8369817A818B819C8199
:1053F0000E946E2E69837A838B839C8369817A8174
:105400008B819C810E94D22D6093EF03111624F4AE
:105410000E94C3278093F0038091F00387FF05C0AB
:105420000E94C32781958093F0039E81191624F46E
:105430000E94C3278093F1038091F10387FF05C089
:105440000E94C32781958093F10326960FB6F894A6
:10545000DEBF0FBECDBFDF91CF911F910C94C1284D
:105460008F3F09F057CF68CF85E0EDEEF3E0DF0125
:105470001D928A95E9F71092EC031092EB030895C0
:105480008EEA98E00E9417081F9281E08F931F9286
:1054900085E08F9380E698E09F938F930E94B008F9
:1054A0000F900F900F900F900F900F9008958430F1
:1054B00009F44DC038F4823031F18330B1F18130DC
:1054C00041F00895853009F454C0863009F463C072
:1054D000089580911D01482F460F5527551F860FAF
:1054E0004F3F51050CF08FEF80931D011F928F935A
:1054F00089E997E09F938F930E94B0080F900F90D7
:105500000F900F90089580911C01482F460F55274A
:10551000551F860F4F3F51050CF08FEF80931C01F4
:105520001F928F9387E897E0E5CF80911B01482F6A
:10553000460F5527551F860F4F3F51050CF08FEF33
:1055400080931B011F928F9384E797E0D3CF8091C4
:105550001A01482F460F5527551F860F4F3F5105FB
:105560000CF08FEF80931A011F928F938FE597E0D5
:10557000C1CF80911901482F460F5527551F860F1F
:105580004F3F51050CF08FEF809319011F928F93BD
:1055900086E497E0AFCF80911801482F460F55273A
:1055A000551F860F4F3F51050CF08FEF8093180168
:1055B0001F928F938BE297E09DCF843009F441C016
:1055C00038F4823011F1833071F1813041F0089567
:1055D000853009F444C0863009F44FC008958091A5
:1055E0001D01681780F4861B80931D011F928F9305
:1055F0008CE197E09F938F930E94B0080F900F90DB
:105600000F900F90089580E0EFCF80911C016817F4
:1056100040F4861B80931C011F928F938AE097E0D1
:10562000E9CF80E0F7CF80911B01681740F4861B1B
:1056300080931B011F928F9387EF96E0DBCF80E072
:10564000F7CF80911A01681740F4861B80931A01E6
:105650001F928F9382EE96E0CDCF80E0F7CF8091BE
:105660001901681740F4861B809319011F928F93CC
:1056700089EC96E0BFCF80E0F7CF809118016817E2
:1056800040F4861B809318011F928F938EEA96E058
:10569000B1CF80E0F7CFCF93DF9300D000D0CDB76C
:1056A000DEB789831F928F9383EB99E09F938F934B
:1056B0000E94B00881E090E0A0E0B0E09C01AD0164
:1056C000098004C0220F331F441F551F0A94D2F7CC
:1056D00029833A834B835C83CA01B9010E94012369
:1056E0000F900F900F900F900F900F900F900F90C2
:1056F000DF91CF910C94B11BCF938A3258F486304E
:1057000098F0EAEFE80FE43278F4F0E0EC57F84F65
:105710000C94172F833470F48A3308F0F1C085336A
:1057200009F4E8C08833E9F08AE79AE00E94170894
:10573000C0E0DAC0833409F4DDC08834A9F70E94E0
:10574000B11B8FE99CE00E9417082FEF83ED90E3D7
:10575000215080409040E1F700C000000E9459278E
:1057600015C08FED99E00E94170810C08091E403E6
:10577000807F8093E40388EB99E00E94170880EB18
:105780009CE00E94170881E08093F303C1E0ACC065
:105790008091E40380FF0AC082E99CE00E94170820
:1057A0008091E403807F8093E403F0CF86E89CE05F
:1057B0000E9417088091E4038160F5CF9091E40383
:1057C000892F8D7F91FF82608093E40381FF03C066
:1057D00089E79CE0EDCF8BE69CE0C5CF9091E40398
:1057E000892F8B7F92FF84608093E40382FF03C044
:1057F0008CE59CE0DDCF8CE49CE0B5CF9091E40398
:10580000892F877F93FF88608093E40383FF03C021
:1058100080E49CE0CDCF83E39CE0A5CF84E29CE0D4
:105820000E9417088EEF9BE00E94170886EB9BE012
:105830000E9417088EE89BE00E94170889E39BE00E
:105840000E9417088DE09BE08ECF8FEF9AE00E94B8
:1058500017080E9448191F928F9385EE9AE09F9334
:105860008F930E94B008809114011F928F938EEC49
:105870009AE09F938F930E94B0088091DC021F9260
:105880008F938BEB9AE09F938F930E94B008809147
:1058900015011F928F9388EA9AE09F938F930E943D
:1058A000B0080E9406279F938F937F936F9381E99F
:1058B0009AE09F938F930E94B0088DB79EB746964B
:1058C0000FB6F8949EBF0FBE8DBF60CF0E94B11B74
:1058D000C091150181E0C827C0931501CC2339F090
:1058E00087E89AE00E9417088C2FCF9108958CE7E3
:1058F0009AE039CF80E00E944B2B48CF8D51FBCFEF
:105900008953F9CF80E008950C94822CCF93C82F4F
:105910008091F3038130C1F0823009F44CC08111D1
:105920003DC1E0911601F09117018081823209F0AA
:1059300037C18C2F0E94822C81111EC08C2F0E9497
:105940007C2B8170CF910895E0911601F0911701A1
:105950008081823271F38C2F0E94842C81111BC0B4
:10596000C431D9F060F4CB3071F0C031D1F089EAA4
:1059700099E00E94170813C081E090E0E2CFC9329D
:1059800061F0C833A1F788EB99E00E9417088FEA0D
:1059900099E00E94170881E0D4CF1092F30380E0D1
:1059A000D0CF0E94402A8BEA99E00E94170882E03B
:1059B0008093F303F0CFC93209F446C068F5C331D0
:1059C00009F451C050F4C73009F4CEC0CB30C9F14E
:1059D0008DE498E00E9417081DC0C431A9F1CE5192
:1059E000C630B0F7EC2FF0E0E557FE4F8081809392
:1059F000F2038091F203882309F4CDC01F928F93A4
:105A000087E498E09F938F930E94B0080F900F90C7
:105A10000F900F9081E096CFCE3409F4A3C050F4DC
:105A2000C83379F06AE0CB3499F68091F2030E9492
:105A3000572ADFCFC13509F48FC061E0C235A9F321
:105A4000C7CF0E94402AD5CF8091F203882319F056
:105A50001092F203CECF8CE598E00E94170881E007
:105A60008093F3036FCF86E398E00E94170884E2E7
:105A700098E00E94170880911D011F928F9381E288
:105A800098E09F938F930E94B0088FE198E00E9466
:105A900017088DE098E00E94170880911C011F9262
:105AA0008F938AE098E09F938F930E94B00888E0DC
:105AB00098E00E94170889EF97E00E9417088091EC
:105AC0001B011F928F9386EF97E09F938F930E9405
:105AD000B00884EF97E00E94170883EE97E00E94D9
