:100000000C941D080C947E080C946E0B0C947E08C6
:100010000C947E080C947E080C947E080C947E0848
:100020000C947E080C947E080C9415190C947E0890
:100030000C94E9270C947E080C947E080C947E089E
:100040000C947E080C947E080C947E080C947E0818
:100050000C947E080C9450280C947E080C947E0816
:100060000C947E080C947E080C947E080C947E08F8
:100070000C947E080C947E080C947E080C947E08E8
:100080000C947E080C947E080C947E080C947E08D8
:100090000C947E080C947E080C947E080C947E08C8
:1000A0000C947E080C947E080C947E0801E70128CD
:1000B000022802E774FF7501012C022C011B021BB0
:1000C000011602160108020801170217012C022C62
:1000D00001150215012C022C011502150104020460
:1000E0000117021701080208012C022C011F021F30
:1000F0000127022701270227012C022C01220222BC
:100100000127022701330233012C022C01160216AB
:100110000108020801170217011B021B010E020E43
:10012000010502050110021001040204011302136B
:10013000012C022C012D022D0110021001120212BD
:100140000107020701080208010F020F012C022C0F
:100150000113021301060206011E021E01270227D7
:1001600001220222012C022C012D022D010F020F6F
:1001700001040204011C021C0112021201180218DF
:1001800001170217012C022C011802180116021681
:10019000013602360107020701080208012C022C71
:1001A000012D022D01120212011302130117021771
:1001B000010C020C0112021201110211012C022C7D
:1001C000010A020A011502150113021301E10133AC
:1001D000023302E1010602060104020401130213C4
:1001E0000116021601E1012D022D02E1011602168F
:1001F000011A021A010C020C01170217010602066D
:10020000010B020B01330233012C022C01080208FE
:10021000011B021B010C020C011702170128022806
:1002200000007B46010203763A687F6577482B35EC
:100230003B6978796439141E3C6A7A1D16041A1FCA
:100240003D6B061B070821203E6C2C19091715224F
:100250003F6D11050B0A1C23406E7E100D182425DE
:10026000416F360E0C122726427037380F33132D8C
:1002700043717534322F2E44727C7D2830317445A1
:100280007351504A524D492A5466594F5C5F4C4B4A
:100290004E62635A5D5E60295367585B56576147EB
:1002A000554842403E3C3A3B456843413F3D2B3533
:1002B0007E697A790078141E7C6A7B1D16041A1FE9
:1002C0007F6B061B070821204D6C2C19091715227E
:1002D0004A6D11050B0A1C234C6E49100D1824257C
:1002E000516F360E0C1227264F7037380F33132DEF
:1002F00052717534502F2E4E72397D283065314B36
:10030000735464586776012A773259745C5F6602C9
:100310000362635A5D5E60295344575B56556147DB
:100320004680291E1F20212223242526272D2E2A00
:100330002B141A0815171C180C12132F30287804C8
:100340001607090A0B0D0E0F33343579311D1B06C4
:10035000190511103637387D557A2C393A3B3C3D1A
:100360003E3F4041424353475F6061565C5D5E578C
:10037000595A5B62634648324445677B7F65030197
:10038000025250514F68696A6B6C6D6E6F7071727A
:100390005800494C754A4D734B4E767C777E746697
:1003A0005472253032582000623A253034582000EB
:1003B000652530325820002146554C4C2120002123
:1003C0004646212000772530325820002143533300
:1003D0005F4630210A00214353335F52454144595F
:1003E000210A00214353325F45305F4630210A0025
:1003F000214353325F4630210A00214353325F4587
:1004000030210A00214353325F494E4954210A00EA
:10041000214353315F45305F25303258210A000AAD
:100420005B4F56525D20004C2575200053257520EA
:10043000000A49443A253034582825732920004DB4
:100440006F7573653A206E6F7420737570706F727C
:100450007465640A005225752000572575200057E1
:100460002575200057257520005825752000412549
:1004700075200049257520005B4348475D20000A30
:100480005052543A25303258204953523A2530348C
:100490005820005B5253545D20000A4552523A25C1
:1004A000303258204953523A2530345820000A4BF4
:1004B0006579626F6172642073746172742E0A00D0
:1004C0000A55534220636F6E666967757265642EC4
:1004D0000A000A0A544D4B3A373362636362322B87
:1004E0002F4C5546410A0A0034035A0065006E003D
:1004F00069007400680020006B00650079006200EC
:100500006F00610072006400200063006F006E00E5
:1005100076006500720074006500720000000E0332
:1005200074002E006D002E006B002E0000000403EE
:10053000090409028D00050100A032090400000130
:10054000030101000921110100012240000705817A
:100550000308000A09040100010301020009211136
:10056000010001224D000705820308000A09040268
:1005700000010300000009211101000122360007DB
:1005800005830308000A09040300020300000009B0
:100590002111010001222200070584032000010728
:1005A0000504032000010904040001030000000900
:1005B00021110100012239000705850320000112E5
:1005C00001100100000008EDFEEE1B010001020019
:1005D0000105010906A101050719E029E715002514
:1005E0000195087501810205081901290595057510
:1005F0000191029501750391010507190029F7156D
:1006000000250195F875018102C00631FF0974A12A
:10061000010975150026FF009520750881020976ED
:10062000150026FF00952075089102C0050109807C
:10063000A10185021601002637001A81002AB700A1
:10064000751095018100C0050C0901A101850316F3
:100650000100269C021A01002A9C02751095018156
:1006600000C005010902A1010901A1000509190144
:100670002905150025019505750181029501750370
:1006800081010501093009311581257F9502750821
:10069000810609381581257F950175088106050CAD
:1006A0000A38021581257F950175088106C0C005AD
:1006B000010906A101050719E029E71500250195A3
:1006C0000875018102950175088101050819012944
:1006D00005950575019102950175039101050719AD
:1006E0000029FF150026FF00950675088100C063EC
:1006F0006F6E73756D65723A20253034580A007339
:10070000797374656D3A20253034580A000A002543
:1007100030325820006B6579626F6172643A200054
:100720004C45443A20253032580A0025583A2530A5
:10073000386225730A000A202030313233343536CE
:10074000370A0064656C5F6B65795F6269743A2093
:1007500063616E27742064656C3A20253032580A34
:10076000006164645F6B65795F6269743A206361FC
:100770006E2774206164643A20253032580A0029BB
:100780000A002575002F002575005D2800256400EE
:100790002000256400200025640020002564007CE2
:1007A0000025303258006D6F7573656B6579205B7D
:1007B00062746E7C782079207620685D287265707E
:1007C0002F61636C293A205B006D6B5F776865650C
:1007D0006C5F74696D655F746F5F6D6178203D203B
:1007E00025640A006D6B5F776865656C5F6D617885
:1007F0005F7370656564203D2025640A006D6B5F42
:1008000074696D655F746F5F6D6178203D2025644C
:100810000A006D6B5F6D61785F7370656564203D84
:100820002025640A006D6B5F696E74657276616C79
:10083000203D2025640A006D6B5F64656C61792042
:100840003D2025640A006D6B5F776865656C5F7499
:10085000696D655F746F5F6D6178203D2025640A66
:10086000006D6B5F776865656C5F6D61785F737055
:10087000656564203D2025640A006D6B5F74696DB9
:10088000655F746F5F6D6178203D2025640A006D9F
:100890006B5F6D61785F7370656564203D202564D2
:1008A0000A006D6B5F696E74657276616C203D2025
:1008B00025640A006D6B5F64656C6179203D2025BD
:1008C000640A000A00257500363A20776865656C71
:1008D0005F74696D655F746F5F6D61783A20000ABF
:1008E00000257500353A20776865656C5F6D617825
:1008F0005F73706565643A20000A00257500343A1C
:100900002074696D655F746F5F6D61783A20000ACD
:1009100000257500333A206D61785F7370656564FA
:100920003A20000A00257500323A20696E7465721B
:1009300076616C286D73293A20000A002575003114
:100940003A2064656C6179282A31306D73293A2028
:10095000000A092D2056616C756573202D0A004D23
:100960003E004D25643E20003F00736574206465A1
:100970006661756C740A00433E2000776865726595
:100980002064656C74613A20637572736F723D25E3
:10099000642C20776865656C3D25640A5365652085
:1009A000687474703A2F2F656E2E77696B69706565
:1009B0006469612E6F72672F77696B692F4D6F7550
:1009C00073655F6B6579730A000A092D204D6F7599
:1009D00073656B6579202D0A4553432F713A097170
:1009E0007569740A313A0964656C6179282A313075
:1009F0006D73290A323A09696E74657276616C28E2
:100A00006D73290A333A096D61785F7370656564A7
:100A10000A343A0974696D655F746F5F6D61780AB5
:100A2000353A09776865656C5F6D61785F737065ED
:100A300065640A363A09776865656C5F74696D6547
:100A40005F746F5F6D61780A0A703A097072696E3F
:100A5000742076616C7565730A643A097365742055
:100A600064656661756C74730A75703A092B310A96
:100A7000646F776E3A092D310A706775703A092BE9
:100A800031300A7067646F776E3A092D31300A0A87
:100A90007370656564203D2064656C7461202A2054
:100AA0006D61785F7370656564202A2028726570B7
:100AB000656174202F2074696D655F746F5F6D616F
:100AC00078290A003F004D3E2000433E20004C257F
:100AD000640A000A092D20436F6E736F6C65202D28
:100AE0000A4553432F713A09717569740A6D3A09C1
:100AF0006D6F7573656B65790A000A092D204D616C
:100B0000676963202D0A643A0964656275670A782B
:100B10003A096465627567206D61747269780A6B61
:100B20003A096465627567206B6579626F6172640A
:100B30000A6D3A096465627567206D6F7573650AA1
:100B4000763A0976657273696F6E0A733A0973743F
:100B5000617475730A633A09636F6E736F6C652015
:100B60006D6F64650A302D343A096C6179657230B5
:100B70002D34284631302D4634290A506175733A98
:100B800009626F6F746C6F616465720A6E3A094E28
:100B90004B524F0A003F004E4B524F3A206F666651
:100BA0000A004E4B524F3A206F6E0A0074696D6511
:100BB000725F72656164333228293A202530346CC3
:100BC000580A006B6579626F6172645F6E6B726F59
:100BD0003A2025580A006B6579626F6172645F691B
:100BE000646C653A2025580A006B6579626F617202
:100BF000645F70726F746F636F6C3A2025580A00DF
:100C0000686F73745F6B6579626F6172645F6C6546
:100C1000647328293A2025580A000A092D205374A4
:100C200061747573202D0A004743433A2031302EFA
:100C3000322E30204156522D4C4942433A20322E1A
:100C4000302E30204156525F415243483A2061765F
:100C500072350A004F5054494F4E533A204C554676
:100C600041204D4F5553454B45592045585452410D
:100C70004B455920434F4E534F4C4520434F4D4D0C
:100C8000414E44204E4B524F204B45594D41505FF1
:100C900053454354494F4E20424F4F544C4F4144CB
:100CA00045525F53495A450A004255494C443A203F
:100CB000373362636362322B202831313A35363A5A
:100CC0003237204665622032382032303231290AEC
:100CD000005649443A2030784645454428742E6DE4
:100CE0002E6B2E29205049443A20307831626565B8
:100CF000285A656E697468206B6579626F617264E9
:100D000020636F6E76657274657229205645523A7B
:100D1000203078303030310A00444553433A206364
:100D20006F6E76657274205A656E697468206B65A3
:100D300079626F61726420746F205553420A000A11
:100D4000092D2056657273696F6E202D0A000A6D99
:100D50006F7573653A206F66660A000A6D6F75736A
:100D6000653A206F6E0A000A6B6579626F61726482
:100D70003A206F66660A000A6B6579626F61726479
:100D80003A206F6E0A000A6D61747269783A206FBA
:100D900066660A000A6D61747269783A206F6E0A9D
:100DA000000A64656275673A206F6E0A000A64651E
:100DB0006275673A206F66660A000A0A626F6F748E
:100DC0006C6F616465722E2E2E2000433E20000061
:100DD000F60CF20C0A0D0A0D0A0D0A0D0A0D0A0D89
:100DE000F80CF40C060D0A0D0A0DF20C0C0D0A0D90
:100DF0000A0DCA0CF60C0A0D0A0DF40C0A0D0A0DA8
:100E00000A0D0A0D0A0D0A0D060DF60CEC0C0A0D62
:100E1000F00C0A0D0A0D0A0DCC0CF80C0A0D0A0D87
:100E2000000D0A0D0A0D0A0DCE0CFA0C0A0DEE0C7F
:100E30000A0DF20C0A0D0A0D040DFC0C0A0DFE0C35
:100E4000F40C0A0D0A0D0A0D020D0D0D0A0D0A0D06
:100E50000A0D0A0D0A0D0A0D0A0D0D0D0A0DD00C12
:100E60000A0D0A0DF80C0A0D0A0DFA0C0A0D0A0DEE
:100E70000A0D0A0D0A0D0A0D0A0D0A0D0A0DD20CF3
:100E80000A0D0A0D0A0D000D0A0D0A0D0A0D0A0DB4
:100E90000A0D0A0D0A0D0A0D0A0D0A0DD40C0A0DD1
:100EA000D60CD80C0A0D0A0D0A0DDA0CDC0CDE0C7F
:100EB0000A0DE00CE20C0A0D0A0D0A0D080DE40CF7
:100EC0000A0DE80CE60CEA0C0A0D0A0D0A0D0A0DD3
:100ED000FA0C310D3F0D4B0D4B0D230D4B0D4B0DF2
:100EE0004B0D4B0D4B0D4B0D4B0D4B0D4B0D4B0D42
:100EF0004B0D4B0D4B0D250D4B0D270D4B0D4B0D7C
:100F00004B0D4B0D430D4B0D580D410D4B0D4B0D26
:100F10004B0D4B0D4B0D4B0D4B0D4B0D4B0D4B0D11
:100F20004B0D4B0D4B0D190D370D290D3B0D4B0D79
:100F30002B0D4B0D2F0D4B0D390D2D0D3D0D330D83
:100F4000350D4B0D4B0D4B0D4B0D4B0D4B0D4B0DF7
:100F50001D0D1F0D210D450D470D4B0D4B0D4B0D5F
:100F6000490D780E9A0EA70ECE0EDC0EE70E010F7D
:100F7000170F3A0F570F04102910AB10EA10D310B7
:100F8000FD100D11151119111E1123116311651199
:100F9000651153115511571159115B1165116511E7
:100FA00065115D115F1161117311771179117B1159
:100FB0004B118311831183117D117F1181117217E0
:100FC0009A1782189A178218CD17EE1782184418AC
:100FD0005018091D091D471D471DD01D081EF81C6E
:100FE000F81C221EF81C441F441F0720F81C1F2059
:100FF0004120242D362D022D022D022D1F2D022DD4
:10100000022D5C2D022D6C2DD42D022D022D022DD2
:10101000022D932D022D022D7C2D022D4C2D022D03
:10102000022DEC2DEC2DEC2DEC2DEC2DEC2DEC2DE2
:10103000EC2DEC2DE82D022DE82D11241FBECFEF55
:10104000DAE0DEBFCDBF04B603FE41C08091C2032B
:101050009091C303A091C403B091C5038730904B16
:10106000A740B04BA1F51092C2031092C303109297
:10107000C4031092C50314BE0FB6F894A8958091CE
:101080006000886180936000109260000FBE109233
:1010900001081092000889E0E3E0F0E08093570037
:1010A000E491E695E370E15080E090E1E33040F4B4
:1010B000F0E0EE0FFF1FED5AFE4F8081918100C0DE
:1010C000E0E0F0E8E81BF90BF695E795099511E0EB
:1010D000A0E0B1E0EAE4F1E602C005900D92A4368A
:1010E000B107D9F723E0A4E6B1E001C01D92A23C0C
:1010F000B207E1F70E9491140C94A3300C94000005
:10110000FF93EF93E0916401F0916501309709F04E
:101110000995EF91FF910895FC018591803011F0C0
:10112000EFDFFBCF0895FF27E0E230E247FF0CC07E
:10113000419597FF09C0EDE2609570958095909577
:10114000611D711D811D911D27FF02C0219530E396
:1011500050E2AA27660F771F881F991FAA1FA4179E
:1011600010F0A41B63955A95A9F7AA3008F0A95F5F
:10117000A05DAF93F395611571058105910541F768
:10118000ED3211F4EF93F395F21718F43F93F395C2
:10119000FBCF8F91B5DFFA95E1F70895E991F991C9
:1011A0008591803021F0853219F0AADFF9CF0895BA
:1011B00020E0E89455915532C1F3503311F468940E
:1011C00055915A3348F4505390F3220F022E220FB8
:1011D000220F200D250FF4CF0EF4219589919991BE
:1011E000533619F3533729F1533559F1BC01882788
:1011F0009927E8945C3621F48991999168945591E6
:10120000543639F446EF7EF077FF0DC08FEF9FEF35
:101210000AC055374AE039F0583540E121F05236DE
:1012200042E009F00895FF93EF937DDFEF91FF9186
:10123000B7CFFF93EF93FC0181918030B9F360DF6A
:10124000FBCFFF93EF9368DFF1CFDF93CF93CDB761
:10125000DEB72596A3DFCF91DF910895282F8091E7
:101260007101823091F08330C9F0813059F448E047
:10127000749FF0011124E60FF11DEF5DFC4FE49126
:10128000E038A9F480E090E0089588E0789FF001CC
:101290001124E60FF11DEF55FD4FF1CF48E0749F8B
:1012A000F0011124E60FF11DEF5DFD4FE8CF8E2F09
:1012B00090E034E0959587953A95E1F78770992706
:1012C00048E0249F90011124820F931F44E0880F6F
:1012D000991F4A95E1F7EF70E80FF92FF11DEE0F16
:1012E000FF1FE050F849859194910895FC01611128
:1012F00006C08281882319F08CEA90E0089590E07E
:1013000080E008955998519A08955198599A0895EE
:101310005898509A08955098589A08955198599A03
:1013200085E08A95F1F7000089B18695817008956E
:101330005098589A85E08A95F1F7000089B181703C
:101340000895CF93DF93EC010E948E09882311F05A
:10135000209721F4CE01DF91CF91089585E08A9501
:10136000F1F700002197F0CFCF93DF93C2E3D0E0F5
:101370000E948E09811102C0209721F4CE01DF91D5
:10138000CF91089585E08A95F1F700002197F0CF7D
:101390002E9826982F9827980E9482090E948B09E0
:1013A000E9E6F0E0808188608083E9980895E19A19
:1013B000E99A0E9485090C948B09E9980E94820998
:1013C0000C948B090F931F93CF93DF932FB7F8944F
:1013D000C0910201D0910301CE01882781159F4F52
:1013E00001F180E09FEF8C2B9D2B90930301809364
:1013F00002012FBFCE0199278F3F9105A1F5CD2F77
:10140000DD27C03FD10581F0CF3FD10549F1809163
:10141000B203C034D105B1F480FF12C087EB93E072
:1014200009C08FEF90E0DFCF8091B20380FF08C04A
:101430008FEB93E09F938F930E9425090F900F905D
:10144000CFEF26C080FF0CC0DF93CF9380EB93E0FB
:101450009F938F930E9425090F900F900F900F90EC
:101460000FEF1FEF27C0CE018F6F019689F080919B
:10147000B20380FF0CC0DF93CF9388EA93E09F9381
:101480008F930E9425090F900F900F900F90CD2FF2
:101490000C2F10E08091B20380FF0CC01F92CF93FD
:1014A00081EA93E09F938F930E9425090F900F90FC
:1014B0000F900F90C801DF91CF911F910F91089568
:1014C000CF93CAE1C15071F00E94E2098F3F9807A3
:1014D00011F0CF9108958FE99FE00197F1F700C0D7
:1014E0000000F0CF8FEF9FEFF4CF10926A011092BF
:1014F0006901109268011092670180E090E8909372
:101500000101809300018FEF9FEF9093030180937F
:1015100002010895EF92FF920F931F93CF93DF93F1
:10152000C82F109267018091B20380FF0CC01F92F8
:10153000CF9385EC93E09F938F930E9425090F90A2
:101540000F900F900F90E9980E9482090E948B09DA
:101550008FE891E00197F1F700C000000E94880930
:101560008FE891E00197F1F700C000000E94850923
:1015700080E197E20E94A109892BB9F481E0809370
:101580006701809167018061809367010E948509EE
:101590000E948B09E19AE99A8FEF9FEFDF91CF913B
:1015A0001F910F91FF90EF90089510E000E0FF244D
:1015B000F394D0E0EE24E39490E59A95F1F7CE0110
:1015C000002E02C0959587950A94E2F780FF09C026
:1015D000FE240E948B090E94B409892B29F482E021
:1015E000CECF0E948809F7CF82E390E00E94A10944
:1015F000892B11F483E0C3CF0F5F1F4F0830110513
:10160000D9F680E58A95F1F7FF2041F00E948B0919
:101610000E94B409892B29F484E0B1CF0E94880983
:10162000F7CF82E390E00E94A109892B11F485E0B5
:10163000A6CF90E59A95F1F70E948B090E94B40914
:10164000892B11F486E09BCF80916801813181F173
:1016500082E390E00E94A109C2E3D0E0892B39F433
:1016600087E08DCF85E08A95F1F7000021970E94F1
:101670009809882321F02097A9F788E080CFCD2B07
:10168000E1F30E94B409C2E3D0E0892B39F489E088
:1016900076CF95E09A95F1F7000021970E9498097E
:1016A000811104C02097A9F78AE069CFCD2BE1F31F
:1016B0008FEF9FEF90930301809302010E94750AC0
:1016C0000E9485090E948B09E19AE99ADF91CF91E6
:1016D0001F910F91FF90EF900C94600A1F921FB61C
:1016E0001F9211242F933F934F938F939F9399B100
:1016F00091708091B3032091000130910101211577
:101700003048D9F5809366012091000130910101A4
:10171000369527953093010120930001992349F0D4
:101720008091000190910101906890930101809354
:1017300000012091000130910101C9019927203A4F
:1017400009F4E5C0813A910508F061C08034910543
:1017500009F49FC098F54097D9F12F7D33272115C3
:10176000310509F496C08091000190910101909398
:101770006A018093690180E80EC020916601821B96
:10178000833010F2809100019091010190936A01E1
:101790008093690180E2809367018091670190E006
:1017A000982F88278F6F909303018093020180E028
:1017B00090E890930101809300016BC080389105FF
:1017C00009F467C08039910519F08035910559F603
:1017D000809100019091010190936A0180936901C9
:1017E000809100019091010197FF9CC080E180935E
:1017F0006801809100019091010146E096958795DE
:101800004A95E1F790930101809300012FC0803D3C
:101810009105F1F2803E910509F444C0803C9105A8
:1018200009F0A1CF84E605C095E09A95F1F7000094
:101830008150499902C08111F7CF499B28C081117D
:1018400020C0809100019091010190936A018093E2
:1018500069018091000190910101892F992790934E
:1018600001018093000182E2809368018091000170
:101870009091010199278F3F910509F055C080EFA4
:101880008ACF45E04A95F1F700008150D6CF8823F2
:10189000C1F29F918F914F913F912F911F901FBE49
:1018A0001F901895809100019091010190936A0119
:1018B000809369018091000190910101892F9927FE
:1018C000909301018093000183E2CECF95E09A9539
:1018D000F1F700008150499902C08111F7CF499B6F
:1018E0001EC0811116C0809100019091010190935A
:1018F0006A01809369018091000190910101892F13
:101900009927909301018093000181E2ADCF84E695
:10191000E2CF45E04A95F1F700008150E0CF811118
:10192000B8CFE1CF81E163CF809103018F3F31F0E8
:10193000809102018F3F11F080E42DCF8091020150
:1019400090910301982F88279093030180930201BF
:1019500020910001309101018091020190910301D9
:10196000822B21CFCF93C82F8DEE0E948A0A8A3F07
:10197000910521F48C2FCF910C948A0ACF91089570
:10198000EDEFE80FE13808F045C0F0E0E851F94F1D
:101990000C94893087E108958FE108958CE50895CE
:1019A00080E6089582E6089587E2089583E5089524
:1019B0008FE2089589E3089587E308958FE30895FA
:1019C00087E408958FE4089586E508958EE50895E7
:1019D0008FE7089580E0089585E608958EE60895DE
:1019E0008FE6089588E0089580E1089588E10895DC
:1019F00080E2089588E2089580E3089588E30895D9
:101A000080E5089587E508958FE5089589E10895B3
:101A10008DE608958F7708958FE00895CF93C82FAE
:101A2000E4EEE80FE834B8F5F0E0E759F84F0C942D
:101A30008930C5E58C2FCF910895CAE5FBCFCBE562
:101A4000F9CFCCE5F7CFCDE5F5CFCEE5F3CFCFE5B8
:101A5000F1CFC0E6EFCFC1E6EDCFC2E6EBCFC3E6F4
:101A6000E9CFCFE6E7CFC1E7E5CFC2E7E3CFC4E7F1
:101A7000E1CFC5E7DFCFC7E7DDCFC8E7DBCFCAE7F8
:101A8000D9CFCCE7D7CFCFE7D5CFC0E7D3CFC9E702
:101A9000D1CFCBE7CFCF1F92CF9380E194E09F933C
:101AA0008F930E9425090F900F900F900F90C2CF37
:101AB000C4E5C0CF0F931F93CF93DF930E941528E7
:101AC0008C010E94E209EC01019631F4C8010E94E8
:101AD0004128843F9140A8F3CE01DF91CF911F911F
:101AE0000F9108950E94C8090C94D7098091B20300
:101AF00081608093B203E5E7F1E080E1DF011D92B0
:101B00008A95E9F70895E82FF0E0EB58FE4F208121
:101B100030E081E090E002C0880F991F6A95E2F7FB
:101B20002823392381E0232B09F480E00895CF9303
:101B3000DF93E82FD82FD770E695E695E695CE2F60
:101B4000CF706D2F8C2F0E94830D81110DC0EC2F53
:101B5000F0E0EB58FE4F21E030E001C0220FDA95B3
:101B6000EAF78081822B8083DF91CF910895CF9314
:101B7000DF93E82FD82FD770E695E695E695CE2F20
:101B8000CF706D2F8C2F0E94830D882371F0EC2F66
:101B9000F0E0EB58FE4F81E090E001C0880FDA954D
:101BA000EAF78095908189238083DF91CF91089512
:101BB000E82FF0E0EB58FE4F80810895E5E7F1E073
:101BC00080E1DF011D928A95E9F70895982F8091B1
:101BD0007101823048F092FB882780F990FD826085
:101BE00091FD84600C94B20C0895CF93DF938091A3
:101BF0006701882371F18091690190916A012091B8
:101C000067019F938F931F922F938AE994E09F938C
:101C10008F930E9425098091670180750F900F9026
:101C20000F900F900F900F9071F4809170018B3096
:101C300051F483E994E09F938F930E9425091092B9
:101C400070010F900F901092670110926A0110922C
:101C5000690180916801882309F440C0909168016E
:101C6000809174019817D1F18091690190916A0176
:101C7000209168019F938F931F922F938FE794E099
:101C80009F938F930E942509809174010F900F906C
:101C90000F900F900F900F9085FF04C090916801F6
:101CA00094FD06C084FF12C08091680185FF0EC0BC
:101CB000809170018B3051F488E794E09F938F936B
:101CC0000E942509109270010F900F908091680179
:101CD0008093740110926A0110926901E091700181
:101CE000EC3008F055C0F0E0EF54F84F0C94893018
:101CF0000E94DD090E9415289F938F9383E794E04B
:101D00009F938F930E942509109271011092730185
:101D100010927201109274010E94DE0D0E94C91C83
:101D20000E94152890936F0180936E0181E080934B
:101D300070012AC080916E0190916F010E9441282C
:101D4000893E934028F182E08093700121C00E9477
:101D5000750A0E94D7098FE99FE00197F1F700C04B
:101D600000008FEF0E948A0A8A3F9105A9F486E05D
:101D7000809370010E9415289F938F938EE694E0C4
:101D80009F938F930E9425090F900F900F900F90B3
:101D900081E0DF91CF91089583E0EACF0E94DD09D1
:101DA0002E98269A2F98279A0E94152890936F01B3
:101DB00080936E0184E0C8CF80916E0190916F0195
:101DC0000E944128853F914018F385E0BDCF2E98B1
:101DD00026982F9827980E94750A0E94D7090E947A
:101DE00015289F938F9389E694E09F938F930E9489
:101DF00025090E94152890936F0180936E0186E05B
:101E000096CF0E94E209019619F20E9415289F932D
:101E10008F9384E694E09F938F930E9425090E94FC
:101E2000152890936F0180936E0187E080CF809199
:101E30006E0190916F010E944128853F914018F0FA
:101E400089E0809370010E94E209019609F4A0CF15
:101E50000E9415289F938F938FE594E09F938F9313
:101E60000E9425090E94152890936F0180936E01AE
:101E700088E05DCF80916E0190916F010E944128B2
:101E8000853F914018F089E0809370010E94E2093B
:101E9000019609F47DCF0E9415289F938F938AE5C0
:101EA00094E09F938F930E94250989E040CF809111
:101EB0006801CDEFDFEF8131C9F082EF0E948A0A1D
:101EC0009C01CFEFDFEF2F3F320781F0CEEFDFEF46
:101ED0002A3F310559F40E945A0DEC01CF3FDC072F
:101EE00009F1DC2FCC270E945A0DC82BD093730127
:101EF000C09372010E9415289F938F9385E594E00B
:101F00009F938F930E942509809172019091730194
:101F10000F900F900F900F90009739F482E080930C
:101F200071011FC0D0E0C0E0E1CF8F3F980711F4EE
:101F300081E0F5CF8E3F2FEF920781F38D3F2FEF9A
:101F4000920711F484E0EBCF8F3F910591F58FE379
:101F500094E09F938F930E942509109271010F9036
:101F60000F9080917101813009F442C0823009F4F0
:101F700042C0833009F442C0843009F442C085E392
:101F800091E09F938F93809173018F938091720161
:101F90008F9381E394E09F938F930E9425098AE0B9
:101FA000809370010F900F900F900F900F900F90F3
:101FB000EFCE9C0125583B4A2230310580F480EF5A
:101FC0000E948A0A8A3F910509F0A8CF83E00E9407
:101FD0008A0A8A3F910509F0A1CF83E0A0CF803B18
:101FE0002FEB9207D1F3882781159F4BB1F396CF42
:101FF00089E291E0C6CF86E291E0C3CF8CE291E026
:10200000C0CF8EE191E0BDCF0E9415289F938F93A2
:102010008CE294E09F938F930E9425098091710137
:102020000F900F900F900F90823081F1833059F113
:102030008BE0809370010E9415289F938F9387E215
:1020400094E09F938F930E9425090F900F900F901B
:102050000F900E94E2099C012F3F320709F498CEAD
:102060002115310519F02F3F3105A9F40E94DE0D2D
:102070000E94C91C8FE194E09F938F930E942509D1
:102080000F900F9085CE88EF0E948A0A0E94041A52
:102090000E94E60DCDCF90917101933009F4D8C024
:1020A00078F4913081F0923009F072CEE0916C01B9
:1020B000E93008F07EC0F0E0E354F84F0C9489302A
:1020C0009430A1F365CE90916D019230A1F158F456
:1020D00091111AC0803E71F0813E81F087FD10C0E1
:1020E0000E94970D55CE933071F1943081F110928A
:1020F0006D014ECE81E080936D014ACE82E0FBCF30
:102100008F770E94B70D44CE8A3A89F358F48A3209
:1021100071F3863361F387FD08C00E940E0D0E94A3
:10212000970DE5CF863BB9F7E2CF8F770E940E0D72
:102130000E94B70DDCCF8D3121F08D39C1F684E0DE
:10214000DACF83E0D8CF853491F685E5E8CF853CBA
:1021500071F685E5EDCF803ED1F098F48338E9F053
:102160008438F9F087FFBCCF0E94DE0D84E094E054
:102170009F938F930E9425090F900F9010927001EA
:1021800007CE813E41F0803F69F781E001C082E0E7
:1021900080936C01FDCD84E0FBCF82E00E94970D1F
:1021A00008C08FE7FBCF893521F0803F29F08231CD
:1021B00029F410926C01ECCD83E0EACF10926C010F
:1021C00087FD03C00E94C00C8BCF0E94DE0D8AEFFA
:1021D00093E0CECF833859F0843869F010926C01C7
:1021E00087FF8FCF0E94DE0D80EF93E0C1CF82E0AA
:1021F0000E94B70DDECF8FE7FBCF8231D1F2893558
:10220000C1F210926C0187FD03C00E94C00C79CF0F
:102210000E94DE0D83EE93E0ABCF843121F0803F4E
:1022200041F686E0B5CF85E0B3CF873711F680E081
:10223000B5CF843109F0BDCF87E0AACF803F09F048
:10224000B8CF88E0A5CF873709F0B3CF80E0D0CFF3
:1022500020916B01223009F45DC078F421113AC05D
:102260008E38D8F487FF31C0E0E8E80FEE3068F52B
:10227000F0E0EA53F84F0C948930233009F088CD10
:10228000853209F468C008F062C0863109F465C07F
:102290008E3109F046C080E027C0803FB1F481E074
:1022A00080936B0175CD82E01BCF8FE719CF8BE058
:1022B00017CF86E015CF80E013CF81E011CF89E002
:1022C0000FCF8AE00DCF82E0EBCF87FF09CF86EDFD
:1022D00093E04ECFEDE7E80FEB30A8F4F0E0EC52DE
:1022E000F84F0C94893082E00E94B70D27C08FE729
:1022F000FBCF8BE0F9CF86E0F7CF81E0F5CF89E027
:10230000F3CF8AE0F1CF10926B0187FFFACE8CEC0D
:1023100093E02ECF8532A9F038F48631A1F08E31CA
:10232000A1F00E94DE0D0AC0863229F0803FC9F775
:1023300090936B012DCD8DE50E94970D10926B014E
:1023400027CD83E5F9CF81E5F7CF80E0F5CF863261
:1023500041F78DE5C9CF83E5C7CF81E5C5CF809132
:10236000A9020895CF93DF9300D00F92CDB7DEB7C7
:102370002091AE02243019F523E029838A839B83C0
:102380002093E9008FEF9091E800815095FD06C001
:1023900095ED9A95F1F700008111F5CF8091E80055
:1023A00085FF0DC050E040E063E070E0CE01019693
:1023B0000E9443168091E8008E778093E8000F908A
:1023C0000F900F90DF91CF910895CF93DF9300D0BE
:1023D0000F92CDB7DEB79C018091AE02843031F50B
:1023E00082E08983205831093B832A8383E08093EC
:1023F000E9008FEF9091E800815095FD06C095EDC2
:102400009A95F1F700008111F5CF8091E80085FFE2
:102410000DC050E040E063E070E0CE0101960E9404
:1024200043168091E8008E778093E8000F900F901C
:102430000F90DF91CF9108952091AE022430F1F4F6
:1024400022E02093E9002FEF3091E800215035FD84
:1024500006C035ED3A95F1F700002111F5CF209136
:10246000E80025FF0BC050E040E065E070E00E940E
:1024700043168091E8008E778093E8000895CF930B
:10248000DF93D82FC92F8091AE028430D1F4809190
:1024900014018823F1F0809115018823D1F085E0A3
:1024A0008093E90081E8815021F09091E80095FF48
:1024B0000BC08091E80050E040E060E270E085FDF4
:1024C0001AC0DF91CF9108959AE29A95F1F700C072
:1024D000EACF81E08093E90081E8815021F090917A
:1024E000E80095FF1BC08091E80085FFEACF50E02F
:1024F00040E068E070E08D2F9C2F0E944316809191
:10250000E8008E778093E80080E2ED2FFC2FA9E8A9
:10251000B2E001900D928A95E1F7D3CFEFE3F1E0BD
:102520003197F1F700C00000D8CFCF93DF9300D0F0
:1025300000D00F92CDB7DEB7209187012D832111F6
:102540000CC00E942128643C79408105910528F047
:1025500081E080938701B1E0BD838D810F900F9062
:102560000F900F900F90DF91CF910895FF920F93EE
:102570001F93CF93DF93D82F0FB607FE48C08091EB
:10258000AE02843071F08091070190E001962091B5
:10259000090130E0822393232091080128171906AE
:1025A000B1F50E94951281110FC02091070130E012
:1025B0002F5F3F4F8091090190E0282339238091BC
:1025C00008018217130619F50E9415288C01C09185
:1025D000E900CF709091EC00892F817090FD80E828
:1025E000C82B84E08093E90085E0F82E8091EB0011
:1025F00085FD0AC09091EB00892F817090FF04C087
:102600009091EE0097FD43C0CF70C093E900809198
:10261000070190E09C012F5F3F4F4091090150E07E
:1026200024233523409108014217130609F47CC086
:102630002091050130910601820F931FFC01D08388
:10264000809107018F5F9091090189238093070191
:102650006BC0E0910501F0910601E90FF11D2081A9
:102660009F5F309109019323909308012093F1001B
:102670009091E80095FD0BC09091E80090FF07C095
:102680009091E8009E779093E800F0920401909179
:102690000801209107013091E800291731F135FD3B
:1026A000D8CF80E026C01092F1002EC030E02F5F1E
:1026B0003F4F4091090150E0242335239217130620
:1026C00009F0A2CF80910401882309F49DCF0E94D4
:1026D00015289C018017910709F488CF8091040187
:1026E000815080930401890181CF35FFDACFD093E7
:1026F000F1003091F3004091F200532F452B79F017
:102700003091E80030FF0BC03091E80035FDCBCFB1
:102710003091E8003E773093E800F092040188237E
:1027200029F2CF70C093E90080E0DF91CF911F9133
:102730000F91FF9008958091B702811104C00E940B
:102740009A180C94F71808951092B70208951092F1
:10275000B702089542E061EC81E00E94BF1542E0BB
:1027600061EC82E00E94BF1542E061EC83E00E94D0
:10277000BF1542E261EC84E00E94BF1542E261ECC9
:1027800085E00C94BF158091B002893081F148F446
:10279000823009F492C0833009F44DC0813041F099
:1027A00008958A3009F479C08B3009F45FC0089528
:1027B0008091AF02813AF1F58091E800877F8093A4
:1027C000E8008091B3029091B402892B61F460E239
:1027D00089E892E070E00E9494168091E8008B777F
:1027E0008093E800089560E090E080E0F3CF80916E
:1027F000AF028132F9F48091B3029091B4028B7FE1
:10280000892BC1F48091E800877F8093E800809154
:10281000E80082FF0BC08091F1008093A9028091B3
:10282000E8008B778093E8000C94F3158091AE025A
:102830008111EDCF08958091AF02813AD9F780914F
:10284000B3029091B402892BA9F78091E800877FA9
:102850008093E8008091E80080FFFCCF8091140114
:102860008093F1008091E8008E77DCCF8091AF02F9
:10287000813201F78091B3029091B402892BD1F695
:102880008091E800877F8093E8000E94F315809193
:10289000B102809314010C94C91C8091AF02813263
:1028A00049F68091E800877F8093E8000E94F31545
:1028B0008091B2028093AA0208958091AF02813A7A
:1028C00009F0B8CF8091E800877F8093E80080917D
:1028D000E80080FFFCCF8091AA02C2CF08958091CA
:1028E000A902809388011092A9020E94DE0D0C9427
:1028F000C91C0C946F140E94C4278091AB028823DA
:1029000029F00E94D12781110C94A91508950E94E5
:10291000E527809188018093A90208950C9487147B
:10292000089584B7877F84BF0FB6F894A8958091E7
:102930006000886180936000109260000FBE80E8A4
:1029400090E00FB6F89480936100909361000FBE01
:1029500086EB92E10E9495278AE091E00E94FF19A0
:1029600082ED94E00E948C080E94720D0E94BF1AB2
:102970000E949A180E94F71878940E94C11A8091B8
:10298000AE02843009F046C080EC94E00E948C08CE
:102990000E946E148EEA94E00E948C08C4E080913C
:1029A000AE028530E1F10E94C51A2091E400309119
:1029B000E50080918501909186012817390739F14A
:1029C0008091E4009091E5009093860180938501C9
:1029D0000E9495128823D9F08091AE028430B9F418
:1029E0009091E9009F702091EC00822F817020FD72
:1029F00080E8892BC093E9009091EB0090FF04C020
:102A00009091EE0097FD2AC08F708093E9000E949C
:102A1000E419C5CF0E94E4190E949014B0CF0E941F
:102A20007B14BDCFE0910501F0910601E90FF11D86
:102A300020819F5F30910901932390930801209397
:102A4000F1009091E80095FD09C09091E80090FF99
:102A500005C09091E8009E779093E800909108015E
:102A600020910701291721F02091E80025FDDACFF8
:102A70009091F3002091F200392F232B29F29091AD
:102A8000E80090FFC1CF9091E80095FD06C09091BD
:102A9000E8009E779093E800B7CF1092F100F3CF53
:102AA000FC01CB01DA012F2F332723303105D1F080
:102AB00070F42130310509F447C02230310569F442
:102AC0008DE890E022E335E02D933C930895213288
:102AD0003105E9F02232310539F190E080E030E053
:102AE00020E0F2CFCF019927E13059F082309105F3
:102AF00059F0EEE2F5E0892B81F7849190E09F0197
:102B0000E3CFEEE1F5E0F9CFE8EEF4E0F6CF6530A3
:102B1000710518F7880F991FFC01E75BFE4F2081B4
:102B2000318189E090E0D0CF65307105B0F6FB01CE
:102B3000EE0FFF1FE15CFE4F20813181865C9E4FCE
:102B4000FC01808190E0C0CF82E190E02FEB35E086
:102B5000BBCF80E189BD82E189BD09B400FEFDCF14
:102B60008091D8008F7D8093D8008091E0008260B2
:102B70008093E0008091E00081FDFCCF0895982FC4
:102B8000973028F08F708093E90081E0089590934A
:102B9000E900242F762F50E0981731F07091EC0067
:102BA0002091ED005091F00021FD02C09F5FE8CF21
:102BB0003091EB003E7F3093EB003091ED003D7F94
:102BC0003093ED003091EB0031603093EB00709367
:102BD000EC002093ED005093F0002091EE0027FDD3
:102BE000E5CF80E008958091AF0287FF13C0809108
:102BF000E80082FF06C08091E8008B778093E800B0
:102C000004C08091AE028111F2CF08958091AE028E
:102C10008823D9F38091E80080FFF8CF8091E80005
:102C20008E77ECCF2091E4003091E50095E6A90184
:102C30002091EC00822F817020FF06C08091E80077
:102C400080FF06C080E008952091E80022FD1AC0B0
:102C50008091AE02882389F0853089F08091EB0065
:102C600085FD0FC02091E4003091E5004217530725
:102C7000F9F29150E1F684E0089582E0089583E04E
:102C8000089581E00895AF92BF92CF92DF92FF92B4
:102C90000F931F93CF93DF936C01EB018A010E9486
:102CA0001216F82E811125C00115110539F0F80111
:102CB00080819181C81BD90BC80ED91EB12CA12CC3
:102CC0002097B9F08091E80085FD24C08091E8004C
:102CD0008E778093E8000E94E41901151105A1F098
:102CE000F80180819181A80EB91EB182A08285E091
:102CF000F82E8F2DDF91CF911F910F91FF90DF90D4
:102D0000CF90BF90AF9008950E9412168823C1F211
:102D1000F82EEFCFF60181916F018093F10021979A
:102D2000FFEFAF1ABF0ACCCFFC01CB012091B50257
:102D30003091B6022617370790F0009729F42091BA
:102D4000E8002E772093E80040E0009751F441110D
:102D500008C08091E80082FF31C080E00895C90179
:102D6000F3CF2091AE022223A9F12530A9F12091C1
:102D7000E80023FD2DC02091E80022FDEACF20913C
:102D8000E80020FFE2CF3091F3002091F20000979D
:102D900019F02830310558F041E02830310509F0AC
:102DA00040E02091E8002E772093E800CECF4191BB
:102DB0004093F10001972F5F3F4FE9CF8091AE0222
:102DC000882341F0853041F08091E80083FFC1CF36
:102DD00081E0089582E0089583E00895FC01CB012D
:102DE0002091B5023091B6022617370790F0009770
:102DF00029F42091E8002E772093E80040E0009726
:102E000051F4411108C08091E80082FF32C080E097
:102E10000895C901F3CF2091AE022223B1F12530EC
:102E2000B1F12091E80023FD2EC02091E80022FDA1
:102E3000EACF2091E80020FFE2CF3091F30020910B
:102E4000F200009719F02830310558F041E02830A1
:102E5000310509F040E02091E8002E772093E8004A
:102E6000CECF44914093F100319601972F5F3F4FB1
:102E7000E8CF8091AE02882341F0853041F0809107
:102E8000E80083FFC0CF81E0089582E0089583E0E9
:102E900008951F93CF93DF93CDB7DEB7AA970FB6F0
:102EA000F894DEBF0FBECDBF8FEA92E0FC01019621
:102EB0002091F100208322E0873B9207B9F70E941E
:102EC000C3138091E80083FF1DC18091AF029091F0
:102ED000B0029A3008F016C1E92FF0E0E152F84F45
:102EE0000C948930803899F0823809F00BC18091B8
:102EF000B3028F70873008F005C18093E90080919C
:102F0000EB0085FB882780F91092E90006C08091CC
:102F1000AC029091AB02911182609091E800977F92
:102F20009093E8008093F1001092F1008091E80006
:102F30008E77E4C0882309F4D2C0823009F0E2C061
:102F40008091B1028111D5C08091B3028F702FEFB3
:102F5000280F263008F0D6C08093E9002091EB00BE
:102F600020FFC7C0933031F48091EB0080628093E2
:102F7000EB00BFC09091EB0090619093EB0021E0DB
:102F800030E001C0220F8A95EAF72093EA00109200
:102F9000EA008091EB008860EACF8111B3C0109104
:102FA000B1021F778091E3008078812B8093E3004A
:102FB0008091E800877F8093E8000E94F31580915C
:102FC000E80080FFFCCF8091E30080688093E300FD
:102FD00082E0111183E08093AE0294C08058823069
:102FE00008F090C08091B1029091B2028C3D23E034
:102FF000920799F583E08A838AE289834FB7F89430
:10300000DE01139620E03EE051E2E32FF0E0509322
:103010005700849120FF03C082958F703F5F8F70AF
:103020008A30C8F0895C90E08D939D932F5F2431A6
:1030300061F74FBF8091E800877F8093E8006AE2E4
:1030400070E0CE0101960E9494168091E8008B7783
:103050008093E80057C0805DE6CF6091B302709125
:10306000B402AE014F5F5F4F0E945015BC01892B27
:1030700009F448C08091E800877F8093E800898147
:103080009A810E94EE16E1CF8038E1F58091E80048
:10309000877F8093E8008091AD028093F10046CF56
:1030A000811130C09091B102923060F58091E800BA
:1030B000877F8093E8009093AD020E94F315809182
:1030C000AD02882311F084E005C08091E30087FD04
:1030D000FACF81E08093AE020E94AA1313C08091C0
:1030E000B102813079F481E0933009F080E080937F
:1030F000AB021092E9008091E800877F8093E8009E
:103100000E94F3158091E80083FF0AC08091E800D7
:10311000877F8093E8008091EB0080628093EB00D2
:10312000AA960FB6F894DEBF0FBECDBFDF91CF9148
:103130001F9108950E9408190E941019E0EEF0E016
:10314000808181608083E8EDF0E080818F778083EB
:1031500019BCA7EDB0E08C918E7F8C9380818F7E1F
:1031600080831092B70208950F931F93CF93DF933C
:103170000E9408190E941019C8EDD0E088818F774D
:10318000888388818068888388818F7D888319BC43
:103190001092AE021092AD021092AB021092AC02ED
:1031A00000EE10E0F80180818B7F80838881816050
:1031B000888342E060E080E00E94BF15E1EEF0E02D
:1031C00080818E7F8083E2EEF0E080818160808369
:1031D000808188608083F80180818E7F80838881F0
:1031E00080618883DF91CF911F910F910895E8ED61
:1031F000F0E080818F7E8083E7EDF0E08081816068
:10320000808384E082BF81E08093B7020C94B4187D
:10321000E8EDF0E080818E7F80831092E2000895D7
:103220001092DA001092E10008951F920F920FB6EB
:103230000F9211242F933F934F935F936F937F933C
:103240008F939F93AF93BF93EF93FF938091E10090
:1032500082FF0BC08091E20082FF07C08091E100F5
:103260008B7F8093E1000E94E3198091DA0080FF58
:1032700019C08091D80080FF15C08091DA008E7F40
:103280008093DA008091D90080FF8FC080E189BDF2
:1032900082E189BD09B400FEFDCF81E08093AE02DA
:1032A0000E949B138091E10080FF19C08091E20091
:1032B00080FF15C08091E2008E7F8093E2008091B4
:1032C000E20080618093E2008091D8008062809368
:1032D000D80019BC85E08093AE020E9479148091D9
:1032E000E10084FF29C08091E20084FF25C080E1D5
:1032F00089BD82E189BD09B400FEFDCF8091D8006F
:103300008F7D8093D8008091E1008F7E8093E100D3
:103310008091E2008F7E8093E2008091E2008160E4
:103320008093E2008091AD02882309F444C084E0D8
:103330008093AE020E948E148091E10083FF24C02E
:103340008091E20083FF20C08091E100877F80931D
:10335000E10082E08093AE021092AD028091E10024
:103360008E7F8093E1008091E2008E7F8093E20067
:103370008091E20080618093E20042E060E080E0C2
:103380000E94BF150E94A713FF91EF91BF91AF91CB
:103390009F918F917F916F915F914F913F912F916D
:1033A0000F900FBE0F901F90189519BC1092AE028F
:1033B0000E94A41377CF8091E30087FD02C081E0D3
:1033C000B7CF83E0B5CF0895CF938091AE02882325
:1033D000A1F0C091E900CF709091EC00892F81702D
:1033E00090FD80E8C82B1092E9008091E80083FDF1
:1033F0000E944917CF70C093E900CF910895909330
:10340000BD028093BC020895E091BC02F091BD0220
:10341000309721F00190F081E02D099480E008952B
:10342000EF92FF920F931F93CF93DF938C01E09164
:10343000BC02F091BD023097B1F10280F381E02D22
:1034400009958091B20382FF2EC080FF04C085E100
:1034500097E00E948C08E801780180E2E80EF11CF8
:103460000FE017E08091B20380FF0BC088811F92AC
:103470008F931F930F930E9425090F900F900F9029
:103480000F902196CE15DF0569F78091B20380FF7A
:103490000AC08DE097E0DF91CF911F910F91FF90CF
:1034A000EF900C948C08DF91CF911F910F91FF90BA
:1034B000EF900895E091BC02F091BD02309721F0A9
:1034C0000480F581E02D09940895CF93DF93EC01FA
:1034D0008091BA029091BB028C179D0701F1D093A5
:1034E000BB02C093BA02E091BC02F091BD023097DA
:1034F000B1F00680F781E02DCE0109958091B203ED
:103500008570853061F4DF93CF938FEF96E09F93C2
:103510008F930E9425090F900F900F900F90DF91CD
:10352000CF910895CF93DF93EC018091B8029091F1
:10353000B9028C179D0701F1D093B902C093B8026C
:10354000E091BC02F091BD023097B1F00084F185AA
:10355000E02DCE0109958091B2038570853061F42C
:10356000DF93CF938FEE96E09F938F930E94250970
:103570000F900F900F900F90DF91CF9108950C94C2
:10358000721B0E940C280C94760D8F929F92AF9222
:10359000BF92DF92EF92FF920F931F93CF93DF932F
:1035A00000D000D00F92CDB7DEB70E94F50D8FEBA3
:1035B000A82E82E0B82E10E0812F0E94D80DF82EA0
:1035C000F501D1905F01D81699F18091B20381FD88
:1035D0000E94731BDF24E12C01E04501F1E08F1A0A
:1035E00091088D2D8023F9F0E9821A8391E08F2DC7
:1035F000802309F490E09B830E9415288160782F36
:103600009D838C8349815A816B818D810E94A91B86
:1036100049815A816B817C818D810E94AF27F401A1
:10362000808180278083E394000FF8E0EF12D9CFE8
:103630001F5F103109F0C0CF8FEF89838A831B820F
:103640000E9415288160782F9D838C8349815A813F
:103650006B818D810E94A91B0E94AE270E948B2A3C
:103660000E94041A9091BE02891749F10E94041A1F
:103670008093BE029091B2039570953061F41F92D1
:103680008F9380E297E09F938F930E9425090F907C
:103690000F900F900F908091BE020F900F900F909F
:1036A0000F900F90DF91CF911F910F91FF90EF90AE
:1036B000DF90BF90AF909F908F900C94C0270F9099
:1036C0000F900F900F900F90DF91CF911F910F915E
:1036D000FF90EF90DF90BF90AF909F908F900895F4
:1036E0000C94E60D0895EF92FF920F931F93CF93E2
:1036F000DF9386E397E00E948C08D0E0C0E085E28B
:10370000E82E81E0F82E0BE217E08C2F0E94D80DF6
:103710000E949A27FF92EF921F928F93DF93CF938D
:103720001F930F930E94250921968DB79EB7089687
:103730000FB6F8949EBF0FBE8DBFC031D10529F7DB
:10374000DF91CF911F910F91FF90EF900895089511
:103750000895CF93DF93CDB7DEB72B970FB6F894CC
:10376000DEBF0FBECDBF4F83588769877A878B87AF
:103770008A859B85892B21F0842F85238F3FD1F467
:103780001E8285E0FE013796DE01119601900D92B2
:103790008A95E1F749815A816B817C818D819E8177
:1037A0002B960FB6F894DEBF0FBECDBFDF91CF9141
:1037B0000C94DB2269857A858B850E94AF27E0CF48
:1037C000CF93C82F882309F49AC08CEF8C0F813ACD
:1037D00058F48C2F0E94F42D811191C08C2F0E94DF
:1037E0009026CF910C946F2780E28C0F883048F49C
:1037F000C77081E001C0880FCA95EAF70E9434279C
:10380000F0CF8BE58C0F833068F481E890E0C53A07
:1038100031F083E890E0C63A11F482E890E0CF916D
:103820000C94651A88E58C0F873108F068C082EE29
:1038300090E0C83A09F460C089EE90E0C93A09F412
:103840005BC08AEE90E0CA3A09F456C085EB90E07E
:10385000CB3A09F451C086EB90E0CC3A09F44CC065
:1038600083EB90E0CD3A09F447C084EB90E0CE3A88
:1038700009F442C087EB90E0CF3AF1F18CEC90E094
:10388000C13BD1F18DEC90E0C03BB1F183E891E018
:10389000C23B91F18AE891E0C33B71F182E991E08A
:1038A000C43B51F184E991E0C53B31F181E292E002
:1038B000C63B11F183E292E0C73BF1F084E292E073
:1038C000C83BD1F085E292E0C93BB1F086E292E0DC
:1038D000CA3B91F087E292E0CB3B71F08AE292E042
:1038E000CC3B51F08FE690E0CD3B31F090E080E0B2
:1038F000CE3B11F480E790E0CF910C94921ACF91D7
:103900000895882329F19CEF980F913A20F40E94A2
:10391000DD260C946F2790E2980F983050F4877052
:1039200091E001C0990F8A95EAF7892F0E943A2702
:10393000F0CF9BE5980F933020F490E080E00C945A
:10394000651A885A873120F490E080E00C94921A2E
:103950000895882321F00E9434270C946F2708953E
:10396000882321F00E943A270C946F2708950E9423
:1039700056270E9423270E946F270E94712B0E94C6
:10398000FE2990E080E00E94651A90E080E00C94AF
:10399000921A0E9445270C94B71CAF92BF92CF9207
:1039A000DF92EF92FF920F931F93CF93DF93CDB7E8
:1039B000DEB729970FB6F894DEBF0FBECDBF5C010E
:1039C0000E94C227811114C085E0F501DE01119625
:1039D00001900D928A95E1F7F5018381948100971A
:1039E00039F040815181242F25232F3F09F05FC3F7
:1039F00029960FB6F894DEBF0FBECDBFDF91CF91F1
:103A00001F910F91FF90EF90DF90CF90BF90AF90FC
:103A10000895F12FFF70EF2E107F19F0E29440EF20
:103A2000E422FF20D1F0EE2029F08E2D0E944827BD
:103A30000E946F27802F29960FB6F894DEBF0FBE25
:103A4000CDBFDF91CF911F910F91FF90EF90DF904D
:103A5000CF90BF90AF900C94E01B802F0E94811CF0
:103A6000EE2031F28E2D0E944E2729960FB6F89443
:103A7000DEBF0FBECDBFDF91CF911F910F91FF90A1
:103A8000EF90DF90CF90BF90AF900C946F27212FD5
:103A90002F70D22E107F103219F0D29430EFD32233
:103AA000002379F0013009F455C0FF2009F463C008
:103AB000EE2059F0F501858180FF07C28F70858364
:103AC00004C0FF2059F1E11013C08D2D29960FB6C7
:103AD000F894DEBF0FBECDBFDF91CF911F910F9144
:103AE000FF90EF90DF90CF90BF90AF900C94A91C07
:103AF00031E08D2DE312EACF29960FB6F894DEBFA0
:103B00000FBECDBFDF91CF911F910F91FF90EF902E
:103B1000DF90CF90BF90AF900C945927E11015C063
:103B20000E945C278D2D29960FB6F894DEBF0FBE3C
:103B3000CDBFDF91CF911F910F91FF90EF90DF905C
:103B4000CF90BF90AF900C94B01C41E0E41609F404
:103B50004FCFE6CFFF2051F055E05E1508F448CF77
:103B60000E9431278D2109F4B0CFDCCF84E08E157F
:103B700008F43ECFD7CFEE20A9F2802F29960FB6BA
:103B8000F894DEBF0FBECDBFDF91CF911F910F9193
:103B9000FF90EF90DF90CF90BF90AF900C94811C7E
:103BA000812F869586958370D9F0813009F020CFDA
:103BB000C8019370F11002C090E080E029960FB622
:103BC000F894DEBF0FBECDBFDF91CF911F910F9153
:103BD000FF90EF90DF90CF90BF90AF900C94921A2F
:103BE000C8019370F11002C090E080E029960FB6F2
:103BF000F894DEBF0FBECDBFDF91CF911F910F9123
:103C0000FF90EF90DF90CF90BF90AF900C94651A2B
:103C1000802FFF20A1F00E94172929960FB6F89453
:103C2000DEBF0FBECDBFDF91CF911F910F91FF90EF
:103C3000EF90DF90CF90BF90AF900C94FE290E9440
:103C40007F29EBCF812F837009F08CC0F110D0CE8B
:103C5000202F229526952770220F220F802F8F70FC
:103C600090E0B0E0A0E06C017D01022E04C0CC0C1D
:103C7000DD1CEE1CFF1C0A94D2F760E070E0CB0163
:103C800004FF0FC06FE070E080E090E004C0660FBA
:103C9000771F881F991F2A95D2F760957095809598
:103CA00090951695169513701230C9F1133009F4DA
:103CB00054C09B01AC012C293D294E295F292E833C
:103CC0003F83488759871130A1F0CA01B90129966D
:103CD0000FB6F894DEBF0FBECDBFDF91CF911F911D
:103CE0000F91FF90EF90DF90CF90BF90AF900C942A
:103CF00054246E817F818885998529960FB6F89422
:103D0000DEBF0FBECDBFDF91CF911F910F91FF900E
:103D1000EF90DF90CF90BF90AF900C9424249B0144
:103D2000AC012C293D294E295F292E833F834887EA
:103D30005987CA01B90129960FB6F894DEBF0FBEA4
:103D4000CDBFDF91CF911F910F91FF90EF90DF904A
:103D5000CF90BF90AF900C9484240E945424C7014C
:103D6000B601CBCFFF2009F453C010FF41CE202F66
:103D7000229526952770220F220F802F8F7090E0BA
:103D8000B0E0A0E06C017D01022E04C0CC0CDD1C73
:103D9000EE1CFF1C0A94D2F760E070E0CB0104FF38
:103DA0000FC06FE070E080E090E004C0660F771F06
:103DB000881F991F2A95D2F76095709580959095E8
:103DC0001695169513701230E1F1133009F457C0AF
:103DD0009B01AC012C293D294E295F292E833F836D
:103DE000488759871130B9F0CA01B90129960FB631
:103DF000F894DEBF0FBECDBFDF91CF911F910F9121
:103E0000FF90EF90DF90CF90BF90AF900C949D25E6
:103E100011FFEECDACCF6E817F8188859985299683
:103E20000FB6F894DEBF0FBECDBFDF91CF911F91CB
:103E30000F91FF90EF90DF90CF90BF90AF900C94D8
:103E400075259B01AC012C293D294E295F292E8324
:103E50003F8348875987CA01B90129960FB6F8945C
:103E6000DEBF0FBECDBFDF91CF911F910F91FF90AD
:103E7000EF90DF90CF90BF90AF900C94C5250E943B
:103E80009D25C701B601CBCF013F09F473C068F58A
:103E9000003E98F4003C98F0812F8F71102F107124
:103EA000FF2009F43EC00E94DE24802F8295807F8F
:103EB00011110CCE802F8F7009CE003FE1F1FF2051
:103EC00009F4A0C0EE2009F49AC0802F0E94E01BE4
:103ED000093309F08DC0FFEF21EE34E0F1502040AE
:103EE0003040E1F700C0000083CD023F09F458C024
:103EF000033F29F7FF2009F469C0812F8F712996AC
:103F00000FB6F894DEBF0FBECDBFDF91CF911F91EA
:103F10000F91FF90EF90DF90CF90BF90AF900C94F7
:103F2000B9240E940F25802F8295807F1111FBCD2F
:103F3000802F8F70F8CDFF20C1F034E03E1508F4DB
:103F400057CD812F8F7129960FB6F894DEBF0FBE23
:103F5000CDBFDF91CF911F910F91FF90EF90DF9038
:103F6000CF90BF90AF900C94442545E04E1508F4D7
:103F70003FCDE7CF812F8F71FF20B1F029960FB68B
:103F8000F894DEBF0FBECDBFDF91CF911F910F918F
:103F9000FF90EF90DF90CF90BF90AF900C94DE2415
:103FA000812F8F71FF2051F329960FB6F894DEBF51
:103FB0000FBECDBFDF91CF911F910F91FF90EF907A
:103FC000DF90CF90BF90AF900C940F2529960FB63D
:103FD000F894DEBF0FBECDBFDF91CF911F910F913F
:103FE000FF90EF90DF90CF90BF90AF900C94B424EF
:103FF000033509F470CF073409F0FACC6CCF812F68
:104000008F71BCCFE110B9CD812F8F71CDCF412FF2
:104010004F70602FC5010E94760929960FB6F8945B
:10402000DEBF0FBECDBFDF91CF911F910F91FF90EB
:10403000EF90DF90CF90BF90AF900C94752301115B
:10404000D7CCFF2009F4D4CC0E94C91C5FEF80E7D5
:1040500092E0515080409040E1F700C00000299666
:104060000FB6F894DEBF0FBECDBFDF91CF911F9189
:104070000F91FF90EF90DF90CF90BF90AF900C9496
:104080007428412F4F70602FC50129960FB6F89400
:10409000DEBF0FBECDBFDF91CF911F910F91FF907B
:1040A000EF90DF90CF90BF90AF900C949328F28068
:1040B000E580E2942FE0E22249835A83FB82782F45
:1040C0009D838C836F2D8D810E94EE258C010E9433
:1040D000ED250E941924E12FE295EF70F0E0E75101
:1040E000F84F0C948930CF93DF9300D000D00F921B
:1040F000CDB7DEB76B837C838D838C819D81892BCB
:1041000021F0842F85238F3FA1F480E005C0303E4D
:1041100058F481E0303CC8F70F900F900F900F904B
:104120000F90DF91CF910895315F81E03330A0F798
:10413000ECCF6B817C818D810E94EE25382F292F59
:1041400022952F70903C40F42A3008F7225F2F70A0
:1041500081E0223008F3D9CF2C3011F02F30A9F6AE
:1041600093FB882780F9D8CFCF93DF9300D000D07E
:104170000F92CDB7DEB70F900F900F900F900F906A
:10418000DF91CF910895CF93DF9300D000D000D07E
:10419000CDB7DEB726960FB6F894DEBF0FBECDBF03
:1041A000DF91CF9108951F93CF93DF93E091CF02DA
:1041B00016E08091D0028E1304C0DF91CF911F9141
:1041C0000895CE2FD0E01E9FF0011124EF52FD4F35
:1041D0004081518162817381848195810E94C320D5
:1041E000FE013196E770E5CF409101035091020343
:1041F000609103037091040380910503909106037D
:104200000C94C3201F93CF93DF9380910603807F8C
:10421000A9F480910303882389F08091CF02C09193
:10422000D0027091010360910203A0910403B09148
:104230000503D62FD72316E0C81304C0DF91CF9112
:104240001F91089590E0109711F0DF3F19F4019647
:104250008770F2CF189F9001199F300D1124F9013A
:10426000EF52FD4F41816413F2CF40814713EFCFEE
:1042700042814111ECCF438154814A1B5B0B483C86
:10428000510528F7809106038F70806180930603A3
:10429000F901EA52FD4F80818F708061808381E057
:1042A00093E00E94CD1CDF91CF911F910C94D320FD
:1042B000AF92BF92CF92DF92EF92FF920F931F9334
:1042C000CF93DF93CDB7DEB72B970FB6F894DEBF51
:1042D0000FBECDBF8C0185E0F801DE01179601907D
:1042E0000D928A95E1F7F80140815181F28081E0D9
:1042F000A82E83E0B82E6091040370910503611528
:10430000710549F09091010320910203892F8223C6
:104310008F3F09F03BC1FF2009F449C14F83588703
:10432000F9866F2D7A858B850E947320882309F486
:104330003EC1E8C080910603382F307F683C71058C
:1043400008F07BC03111B6C0EF2C251324C09413A4
:1043500022C0F11020C08F708061809306030E94FC
:10436000F42081E093E00E94CD1C80910603F801C7
:1043700085838E2D2B960FB6F894DEBF0FBECDBF72
:10438000DF91CF911F910F91FF90EF90DF90CF9031
:10439000BF90AF900895CD2829F0842F85238F3FBB
:1043A00009F085C080E0F82FF170DF2EE091CF0298
:1043B0002091D00236E080FD1CC0FF20D1F2809118
:1043C0000603816080930603E12CD3CF8E2F90E00B
:1043D0003E9FF0011124EF52FD4F6181651306C02D
:1043E0006081641303C06281F612E7CFFC0131964D
:1043F000E770E213EBCF6F2D7A858B850E94EE2557
:10440000292F22952F70903260F0225F2F7022307A
:1044100078F49F7051F0F8019581907F31F4D12CA0
:104420000AC09F7011F08823D1F3805E8830B8F302
:10443000C8010E94CD1CED2C9CCF311172C06F2D94
:104440007A858B850E94B42081E093E00E94CD1C88
:1044500086E0F50111928A95E9F70E94F420B4CF25
:1044600086E0F801A1E0B3E001900D928A95E1F7B2
:1044700080CF4F835887F9866F2D7A858B850E9470
:10448000732081113FC080910603816080930603F1
:10449000C8010E94CD1C6DCF6F2D7A858B850E943F
:1044A000B42086E0F50111928A95E9F76CC081E0AD
:1044B0008F2579CF251306C0941304C0F801FF207F
:1044C00009F455C04F835887F9866F2D7A858B85FF
:1044D0000E947320882309F46AC0FF2009F467C092
:1044E00080910603803270F0209101033091020325
:1044F0003A8329831B82DD82CC828E83CE01019692
:104500000E94CD1C86E0F801A1E0B3E001900D927D
:104510008A95E1F70E9402210E94F420EE24E394A0
:1045200028CF2513CFCF9413CDCFF110CBCFF801E7
:104530008583C8010E94CD1C86E0F50111928A9501
:10454000E9F717CF251395CF941393CF80910603E6
:1045500080FD86CF982F907F09F482CFF801858364
:10456000903F31F0982F907F905F8F70892B8583DB
:10457000C8010E94CD1C86E0F801A1E0B3E00190E3
:104580000D928A95E1F70E94F420F3CEC380D48087
:10459000E0900303F601E61BF70BBF01E110CACE62
:1045A000683C710508F078CFEF2CF110CBCFC80133
:1045B0000E94CD1CB3CF1F93CF93DF93CDB7DEB74F
:1045C0002C970FB6F894DEBF0FBECDBF4F83588730
:1045D00069877A878B879C87CE0107960E9458212E
:1045E000882369F08A859B85892B39F058854F810E
:1045F000852F84238F3F09F071C016E05FC086E0ED
:10460000FE013796DE01119601900D928A95E1F731
:104610008A859B85892B89F38F81988589238F3F94
:1046200061F32091D00230E0C9010196877099278B
:104630004091CF024817190671F40E94C91C1092CC
:10464000D0021092CF0286E0E1E0F3E0DF011D929C
:104650008A95E9F7D2CF96E0929FD001939FB00D53
:104660001124AF52BD4FFE01319601900D929A95E3
:10467000E1F78093D0020E94D320BFCF819FC00179
:1046800011248F529D4F0E9458218823E9F0E09118
:10469000CF021E9FF0011124EF52FD4F4081518146
:1046A00062817381848195810E94C3208091CF02B1
:1046B00090E00196877099278093CF028091CF0276
:1046C0009091D0028913DACF2C960FB6F894DEBF02
:1046D0000FBECDBFDF91CF911F91089569857A8577
:1046E0008B859C850E94C32088CFDF92EF92FF923A
:1046F0000F931F93CF93DF939C01892BB9F0F12C7B
:10470000E12CDD24D394E9012196F90184918537C8
:1047100009F46EC098F4843709F45AC0843008F064
:1047200073C0813011F1823009F43CC0DF91CF9128
:104730001F910F91FF90EF90DF900895883709F453
:1047400060C058F4863709F458C0873779F78F2D41
:104750000E9442270E946F2720C09CE7980F903745
:1047600028F78F770E94811C18C089010E5F1F4FA8
:10477000FE01849190E2980F983060F48770FD2DCF
:1047800001C0FF0F8A95EAF78F2F0E9448270E94E9
:104790006F2702C00E94E01BE8018E2D811137C0F7
:1047A0009E01B1CF89010E5F1F4FFE01849190E2FF
:1047B000980F983050F48770FD2D01C0FF0F8A9537
:1047C000EAF78F2F0E944E27E2CF0E94811CE4CF90
:1047D0002E5F3F4FFE01C491C11102C0E901DDCF40
:1047E0008FE99FE00197F1F700C00000C150F4CFBE
:1047F0002E5F3F4FFE01E490F1CF0E943127F82E4B
:10480000CCCF0E944527A6CF0E94E01BC6CFEFE980
:10481000FFE03197F1F700C000008150BFCF6093F7
:104820008703709388038093890390938A030C9481
:10483000BF27089560938B0370938C0380938D033F
:1048400090938E030C94BE27CF93DF9300D000D0BB
:10485000CDB7DEB769837A838B839C8380918B038A
:1048600090918C03A0918D03B0918E0329813A81A0
:104870004B815C81282B392B4A2B5B2B29833A8374
:104880004B835C8320938B0330938C0340938D0385
:1048900050938E03CA01B9010F900F900F900F90A3
:1048A000DF91CF910C94BE27CF93DF9300D000D03F
:1048B000CDB7DEB769837A838B839C8380918B032A
:1048C00090918C03A0918D03B0918E0329813A8140
:1048D0004B815C81282339234A235B2329833A8334
:1048E0004B835C8320938B0330938C0340938D0325
:1048F00050938E03CA01B9010F900F900F900F9043
:10490000DF91CF910C94BE27CF93DF9300D000D0DE
:10491000CDB7DEB769837A838B839C8380918B03C9
:1049200090918C03A0918D03B0918E0329813A81DF
:104930004B815C81282739274A275B2729833A83C3
:104940004B835C8320938B0330938C0340938D03C4
:1049500050938E03CA01B9010F900F900F900F90E2
:10496000DF91CF910C94BE2760E070E0CB010C94F6
:104970000F240F931F93CF93DF9300D000D0CDB7B8
:10498000DEB741E050E060E070E08A019B0104C0C6
:10499000000F111F221F331F8A95D2F709831A8334
:1049A0002B833C83C901B8010F900F900F900F909B
:1049B000DF91CF911F910F910C940F240F931F93B0
:1049C000CF93DF9300D000D0CDB7DEB741E050E009
:1049D00060E070E004C0440F551F661F771F8A9582
:1049E000D2F78091870390918803A0918903B091B9
:1049F0008A038A019B01082B192B2A2B3B2B098345
:104A00001A832B833C83C901B8010F900F900F903C
:104A10000F90DF91CF911F910F910C940F240F9362
:104A20001F93CF93DF9300D000D0CDB7DEB741E026
:104A300050E060E070E004C0440F551F661F771F10
:104A40008A95D2F74095509560957095809187032F
:104A500090918803A0918903B0918A038A019B01F8
:104A6000082319232A233B2309831A832B833C839E
:104A7000C901B8010F900F900F900F90DF91CF9167
:104A80001F910F910C940F240F931F93CF93DF93DB
:104A900000D000D0CDB7DEB741E050E060E070E07C
:104AA00004C0440F551F661F771F8A95D2F7809167
:104AB000870390918803A0918903B0918A038A01AA
:104AC0009B01082719272A273B2709831A832B8351
:104AD0003C83C901B8010F900F900F900F90DF91A8
:104AE000CF911F910F910C940F24CF93DF9300D09F
:104AF00000D0CDB7DEB769837A838B839C838091A6
:104B0000870390918803A0918903B0918A0329813A
:104B10003A814B815C81282B392B4A2B5B2B2983D3
:104B20003A834B835C83CA01B9010F900F900F90B9
:104B30000F90DF91CF910C940F24CF93DF9300D08F
:104B400000D0CDB7DEB769837A838B839C83809155
:104B5000870390918803A0918903B0918A032981EA
:104B60003A814B815C81282339234A235B232983A3
:104B70003A834B835C83CA01B9010F900F900F9069
:104B80000F90DF91CF910C940F24CF93DF9300D03F
:104B900000D0CDB7DEB769837A838B839C83809105
:104BA000870390918803A0918903B0918A0329819A
:104BB0003A814B815C81282739274A275B27298343
:104BC0003A834B835C83CA01B9010F900F900F9019
:104BD0000F90DF91CF910C940F2408954F925F9224
:104BE0006F927F929F92AF92BF92CF92DF92EF929D
:104BF000FF920F931F93CF93DF9300D000D00F92BB
:104C0000CDB7DEB749835A836B837C838D838C81D8
:104C10009D81892B31F0A42E952E842F85238F3FE3
:104C200059F590E080E00F900F900F900F900F904B
:104C3000DF91CF911F910F91FF90EF90DF90CF9078
:104C4000BF90AF909F907F906F905F904F9008952E
:104C50006A2D792D8C2D0E942E090197C1F13CC03F
:104C6000F80183E0EE0FFF1F8A95E1F7E95FFC4F43
:104C7000EE0DFF1DB0803BC0052F10E0E42EF12C9F
:104C80008B81882369F3409087035090880360905C
:104C9000890370908A0380918B0390918C03A0917B
:104CA0008D03B0918E03482A592A6A2A7B2A2FE164
:104CB000C22ED12CBC2CD301C2010C2C04C0B69541
:104CC000A795979587950A94D2F780FDC1CF81E08B
:104CD000C81AD10878F7B12CF80193E0EE0FFF1F46
:104CE0009A95E1F7E95FFC4FEE0DFF1DB0826981F7
:104CF0007A818B2D0F900F900F900F900F90DF9176
:104D0000CF911F910F91FF90EF90DF90CF90BF90C8
:104D1000AF909F907F906F905F904F900C942E0972
:104D200090911401992361F190911501992341F11A
:104D3000982F9695969596959F3189F0E09116015A
:104D4000F0911701E90FF11D877021E030E001C0FB
:104D5000220F8A95EAF78181822B818308959091B1
:104D6000B20390FF22C01F928F9381E697E09F933A
:104D70008F930E9425090F900F900F900F90089528
:104D80002091160130911701F90132969FEF40E012
:104D90005191851751F09F3F19F4511101C0942F83
:104DA0004F5F4E31A9F79F3F09F40895290F311D38
:104DB00097FD3A95F9018283089590911401992302
:104DC00081F190911501992361F1982F969596950F
:104DD00096959F31A9F0E0911601F0911701E90F26
:104DE000F11D877021E030E0A90102C0440F551F7A
:104DF0008A95E2F7CA01809591818923818308957C
:104E00009091B20390FF1EC01F928F9383E497E0AE
:104E10009F938F930E9425090F900F900F900F90F2
:104E200008952091160130911701F9013296205E04
:104E30003F4F9191891303C0DF0111971C92E21734
:104E4000F307B9F7089581E090E0E0911601F09141
:104E50001701E80FF91F1082019680329105A9F71A
:104E600008958091B10308959091B103982B909388
:104E7000B1030895982F90958091B1038923809371
:104E8000B10308958093B10308951092B10308957A
:104E90009091B003982B9093B0030895982F90951C
:104EA0008091B00389238093B00308951092B003DA
:104EB000089580938F03089510928F030895209191
:104EC000160130911701F9013196205E3F4F80E0C5
:104ED000919191118F5FE217F307D1F70895E09157
:104EE0001601F09117018091B1038083E0911601C2
:104EF000F091170180819091B003892B808390916C
:104F00008F03992361F0E0911601F09117018081E0
:104F1000892B80830E945F27811110928F038091DB
:104F20001601909117010C94101A909365018093CB
:104F300064010895829594E0899F900111242C7C4E
:104F4000869586958373282B30E0C901880F991FB9
:104F50008A7A359527952575822B08950895CF93E4
:104F6000DF9300D000D00F92CDB7DEB70F900F9037
:104F70000F900F900F90DF91CF91089508950895AD
:104F80000C94701B80E0089583B7817F8C6083BF91
:104F900083B7816083BF7894889583B78E7F83BF02
:104FA0000895CF930E94A71B0E94F50D0E94A81B95
:104FB000C0E08C2F0E94D80D811105C0CF5FC03199
:104FC000C1F7CF91089581E0FCCF0E94DE0D0C94D3
:104FD000C91C1F921FB61F9211248F939F93AF93EA
:104FE000BF938091B3039091B403A091B503B091A6
:104FF000B6034196A11DB11D8093B3039093B403F2
:10500000A093B503B093B603BF91AF919F918F91D9
:105010001F901FBE1F90189582E084BD93E095BD40
:105020009AEF97BD80936E0008952FB7F894809102
:10503000B3039091B403A091B503B091B6032FBF11
:105040000895CF93DF9300D000D0CDB7DEB78FB7F0
:10505000F8942091B3033091B4034091B50350917B
:10506000B60329833A834B835C838FBF69817A813E
:105070008B819C810F900F900F900F90DF91CF91BB
:1050800008959C014FB7F8948091B3039091B403B5
:10509000A091B503B091B6034FBF821B930B089547
:1050A00078941F921FB61F9211248F939F93AF93F2
:1050B000BF938091B3039091B403A091B503B091D5
:1050C000B6030196A11DB11D8093B3039093B40361
:1050D000A093B503B093B603BF91AF919F918F9109
:1050E0001F901FBE1F9018950E949A18F89487E78A
:1050F00097E7909301088093000887E090EBDC012C
:105100008093C2039093C303A093C403B093C503D9
:1051100088E19CE00FB6F894A895809360000FBEDC
:1051200090936000FFCF08958091B90380FF12C073
:1051300060911B0185E0689FB0011124759567950A
:105140007595679560387105A8F561157105A1F130
:10515000862F089581FF09C060911B0185E0689F3B
:10516000B001112475956795EDCF60911B0182FD0B
:105170000AC08091BA038823D1F090911A016091FE
:105180001B01891728F085E0689FB0011124DACF50
:10519000869FB001112485E0869F9001879F300D86
:1051A0001124692F70E0C9010E947530CBCF65E0F2
:1051B00070E0CECF8FE7089581E008958091B90324
:1051C00080FF0CC06091190170E075956795759529
:1051D00067956115710549F1862F089581FF06C015
:1051E0006091190170E075956795F3CF6091190191
:1051F00082FD0BC09091BA039923A1F06091180130
:1052000080911901961738F0682F70E060387105A9
:1052100000F38FE70895899FC001112470E00E9478
:105220007530F4CF61E070E0D7CF81E00895803F22
:1052300031F40E94942881958093BD030895813FA5
:1052400019F40E949428F8CF823F31F40E949428E8
:1052500081958093BC030895833F19F40E9494289C
:10526000F8CF893F29F40E94DE288093BE03089579
:105270008A3F21F40E94DE288195F7CF8B3F31F4DD
:105280000E94DE2881958093BF0308958C3F19F416
:105290000E94DE28F8CF843F31F48091BB03816007
:1052A0008093BB030895853F21F48091BB03826006
:1052B000F7CF863F21F48091BB038460F1CF873F15
:1052C00021F48091BB038860EBCF883F21F480916B
:1052D000BB038061E5CF8D3F31F48091B9038160DC
:1052E0008093B90308958E3F21F48091B9038260C1
:1052F000F7CF8F3FB9F78091B9038460F1CF9091D8
:10530000BC03803F41F48091BD0387FD1092BD0333
:10531000992371F00895813F29F48091BD031816F7
:10532000ACF3F6CF823F81F497FFF2CF1092BC032B
:105330008091BD039091BE03892B9091BF03892B6F
:1053400049F71092BA030895833F19F4191674F3BC
:10535000DFCF893F39F48091BE031816CCF6109246
:10536000BE03D6CF8A3F29F48091BE0387FFD0CFFA
:10537000F6CF8B3F39F48091BF0387FFC9CF1092DE
:10538000BF03C6CF8C3F29F48091BF031816BCF32E
:10539000BFCF843F31F48091BB038E7F8093BB03EA
:1053A000B7CF853F21F48091BB038D7FF7CF863F38
:1053B00021F48091BB038B7FF1CF873F21F4809153
:1053C000BB03877FEBCF883F21F48091BB038F7EA7
:1053D000E5CF8D3F31F48091B9038E7F8093B9037F
:1053E00097CF8E3F21F48091B9038D7FF7CF8F3F08
:1053F00009F08ECF8091B9038B7FF0CF8091B203FB
:1054000083FF7EC086EA97E00E948C088091BB03F0
:105410001F928F9381EA97E09F938F930E942509B3
:105420008FE997E00E948C088091BC03282F082EFA
:10543000000C330B3F938F938CE997E09F938F93EE
:105440000E9425098AE997E00E948C088091BD039B
:10545000282F082E000C330B3F938F9387E997E09A
:105460009F938F930E94250985E997E00E948C08FD
:105470008091BE03282F082E000C330B3F938F938F
:1054800082E997E09F938F930E94250980E997E036
:105490000E948C088091BF03282F082E000C330B2C
:1054A0003F938F938DE897E09F938F930E942509F8
:1054B0008AE897E00E948C088091BA031F928F932C
:1054C00087E897E09F938F930E94250985E897E0EE
:1054D0000E948C088091B9031F928F9382E897E015
:1054E0009F938F930E9425098FE797E00E948C0875
:1054F0008DB79EB74C960FB6F8949EBF0FBE8DBF6A
:105500008BEB93E00E945A1A0E9415289093B803DF
:105510008093B70308951F93CF93DF9300D000D0FB
:1055200000D0CDB7DEB78091B7039091B8030E9449
:105530004128AC018091BA0320911C0130E0811117
:1055400006C020911D019AE0299F90011124421765
:10555000530788F02091BC03A091BD03A98310914B
:10556000BE03B091BF03BE8321110FC09A2F912BB0
:105570009B2B09F0B2C026960FB6F894DEBF0FBE83
:10558000CDBFDF91CF911F9108958F3F19F08F5FAD
:105590008093BA03121624F40E9494288093BC03CB
:1055A0008091BC0387FF05C00E9494288195809359
:1055B000BC032981121624F40E9494288093BD0311
:1055C0008091BD0387FF05C00E9494288195809338
:1055D000BD038091BC03882309F455C03091BD03FD
:1055E0003D83332309F44FC0282F880F330B440B1E
:1055F000550B29833A834B835C83CA01B9010E940E
:105600007C2F23E333E343E35FE369837A838B8374
:105610009C8369817A818B819C810E94E02F6983C0
:105620007A838B839C8369817A818B819C810E94A0
:10563000442F6093BC038D81082E000C990BAA0B9C
:10564000BB0B89839A83AB83BC83BC01CD010E94D1
:105650007C2F23E333E343E35FE369837A838B8324
:105660009C8369817A818B819C810E94E02F698370
:105670007A838B839C8369817A818B819C810E9450
:10568000442F6093BD03111624F40E94DE288093FA
:10569000BE038091BE0387FF05C00E94DE2881956E
:1056A0008093BE039E81191624F40E94DE28809305
:1056B000BF038091BF0387FF05C00E94DE2881954C
:1056C0008093BF0326960FB6F894DEBF0FBECDBF02
:1056D000DF91CF911F910C94FE298F3F09F057CF96
:1056E00068CF85E0EBEBF3E0DF011D928A95E9F7E7
:1056F0001092BA031092B903089589EC99E00E94C0
:105700008C081F9281E08F931F9285E08F938BE727
:1057100099E09F938F930E9425090F900F900F900F
:105720000F900F900F900895843009F45DC040F4FD
:10573000823061F1833009F440C0813041F0089536
:10574000853009F468C0863009F47CC008958091E2
:105750001D01482F460F5527551F4F3F510594F403
:10576000680F60931D0180911D011F928F9384EB40
:1057700098E09F938F930E9425090F900F900F90B0
:105780000F9008958FEF80931D01EDCF80911C0144
:10579000482F460F5527551F4F3F510554F4680FAA
:1057A00060931C0180911C011F928F9382EA98E004
:1057B000E0CF8FEF80931C01F5CF80911B01482F24
:1057C000460F5527551F4F3F510554F4680F6093FE
:1057D0001B0180911B011F928F938FE898E0C9CF26
:1057E0008FEF80931B01F5CF80911A01482F460F50
:1057F0005527551F4F3F510554F4680F60931A0108
:1058000080911A011F928F938AE798E0B2CF8FEFB1
:1058100080931A01F5CF80911901482F460F552723
:10582000551F4F3F510554F4680F60931901809143
:1058300019011F928F9381E698E09BCF8FEF8093A1
:105840001901F5CF80911801482F460F5527551F94
:105850004F3F510554F4680F60931801809118016F
:105860001F928F9386E498E084CF8FEF8093180186
:10587000F5CF843009F44AC038F4823029F18330FE
:10588000A1F1813041F00895853009F450C086308F
:1058900009F45EC0089580911D01681790F4861B7D
:1058A00080931D0180911D011F928F9387E398E0E3
:1058B0009F938F930E9425090F900F900F900F9048
:1058C000089510921D01EECF80911C01681750F4CD
:1058D000861B80931C0180911C011F928F9385E28F
:1058E00098E0E6CF10921C01F6CF80911B0168175B
:1058F00050F4861B80931B0180911B011F928F9394
:1059000082E198E0D5CF10921B01F6CF80911A0169
:10591000681750F4861B80931A0180911A011F9218
:105920008F938DEF97E0C4CF10921A01F6CF80913C
:105930001901681750F4861B809319018091190191
:105940001F928F9384EE97E0B3CF10921901F6CF98
:1059500080911801681750F4861B8093180180917C
:1059600018011F928F9389EC97E0A2CF1092180133
:10597000F6CFCF93DF9300D000D0CDB7DEB78983C9
:105980001F928F938EEC9AE09F938F930E9425092C
:1059900081E090E0A0E0B0E09C01AD01098004C08E
:1059A000220F331F441F551F0A94D2F729833A83CD
:1059B0004B835C83CA01B9010E941A240F900F9097
:1059C0000F900F900F900F900F900F90DF91CF914D
:1059D0000C94C91CCF938A3258F4863098F0EAEFC1
:1059E000E80FE43278F4F0E0E750F84F0C94893097
:1059F000833470F48A3308F0F1C0853309F4E8C0C9
:105A00008833E9F085E99BE00E948C08C0E0DAC0A9
:105A1000833409F4DDC08834A9F70E94C91C8AEBDD
:105A20009DE00E948C082FEF83ED90E32150804091
:105A30009040E1F700C000000E94742815C08AEF72
:105A40009AE00E948C0810C08091B203807F8093FE
:105A5000B20383ED9AE00E948C088BEC9DE00E94DB
:105A60008C0881E08093C103C1E0ACC08091B20397
:105A700080FF0AC08DEA9DE00E948C088091B203ED
:105A8000807F8093B203F0CF81EA9DE00E948C0872
:105A90008091B2038160F5CF9091B203892F8D7F01
:105AA00091FF82608093B20381FF03C084E99DE08F
:105AB000EDCF86E89DE0C5CF9091B203892F8B7F13
:105AC00092FF84608093B20382FF03C087E79DE06A
:105AD000DDCF87E69DE0B5CF9091B203892F877F18
