:100000000C9491070C94F2070C94E10A0C94F207FB
:100010000C94F2070C94F2070C94F2070C94F2077C
:100020000C94F2070C94F2070C944D180C94F20700
:100030000C94AF260C94F2070C94F2070C94F20780
:100040000C94F2070C94F2070C94F2070C94F2074C
:100050000C94F2070C9416270C94F2070C94F207F8
:100060000C94F2070C94F2070C94F2070C94F2072C
:100070000C94F2070C94F2070C94F2070C94F2071C
:100080000C94F2070C94F2070C94F2070C94F2070C
:100090000C94F2070C94F2070C94F2070C94F207FC
:1000A0000C94F2070C94F2070C94F207750F01E020
:1000B00001E1012E022E012E022E012E022E012E12
:1000C000022E012E022E012E022E012E022E012EB4
:1000D000022E02E102E074FF00007B46010203767B
:1000E0003A687F6577482B353B6978796439141E07
:1000F0003C6A7A1D16041A1F3D6B061B0708212057
:100100003E6C2C19091715223F6D11050B0A1C2393
:10011000406E7E100D182425416F360E0C122726D6
:10012000427037380F33132D43717534322F2E44FC
:10013000727C7D28303174457351504A524D492AA2
:100140005466594F5C5F4C4B4E62635A5D5E60294A
:100150005367585B56576147554842403E3C3A3BCF
:10016000456843413F3D2B357E697A790078141EFE
:100170007C6A7B1D16041A1F7F6B061B0708212053
:100180004D6C2C19091715224A6D11050B0A1C23F9
:100190004C6E49100D182425516F360E0C1227266F
:1001A0004F7037380F33132D52717534502F2E4E38
:1001B00072397D283065314B735464586776012A53
:1001C000773259745C5F66020362635A5D5E602930
:1001D0005344575B565561474680291E1F202122F4
:1001E00023242526272D2E2A2B141A0815171C1810
:1001F0000C12132F302878041607090A0B0D0E0F66
:1002000033343579311D1B06190511103637387D09
:10021000557A2C393A3B3C3D3E3F4041424353479F
:100220005F6061565C5D5E57595A5B626346483257
:100230004445677B7F650301025250514F68696AEC
:100240006B6C6D6E6F7071725800494C754A4D73CE
:100250004B4E767C777E746654722530325820007F
:10026000623A25303458200065253032582000216C
:1002700046554C4C21200021464621200077253050
:1002800032582000214353335F4630210A00214376
:1002900053335F5245414459210A00214353325F91
:1002A00045305F4630210A00214353325F463021FA
:1002B0000A00214353325F4530210A002143533263
:1002C0005F494E4954210A00214353315F45305F55
:1002D00025303258210A000A5B4F56525D20004CEF
:1002E0002575200053257520000A49443A253034ED
:1002F000582825732920004D6F7573653A206E6F5D
:100300007420737570706F727465640A005225757D
:10031000200057257520005725752000572575208A
:1003200000582575200041257520004925752000BD
:100330005B4348475D20000A5052543A25303258FA
:10034000204953523A2530345820005B5253545DB3
:1003500020000A4552523A25303258204953523A29
:100360002530345820000A4B6579626F6172642031
:1003700073746172742E0A000A55534220636F6EC3
:10038000666967757265642E0A000A0A544D4B3A15
:10039000756E6B6E6F776E2F4C5546410A0A0034AE
:1003A000035A0065006E0069007400680020006B4D
:1003B000006500790062006F006100720064002037
:1003C0000063006F006E00760065007200740065C7
:1003D00000720000000E0374002E006D002E006BF2
:1003E000002E0000000403090409028D000501002D
:1003F000A0320904000001030101000921110100DC
:10040000012240000705810308000A0904010001D8
:1004100003010200092111010001224D000705829C
:100420000308000A09040200010300000009211169
:100430000100012236000705830308000A090403AE
:10044000000203000000092111010001222200071F
:1004500005840320000107050403200001090404AA
:1004600000010300000009211101000122390007E9
:100470000585032000011201100100000008EDFEB7
:10048000EE1B01000102000105010906A10105079B
:1004900019E029E715002501950875018102050875
:1004A00019012905950575019102950175039101C1
:1004B0000507190029F71500250195F87501810236
:1004C000C00631FF0974A1010975150026FF0095CA
:1004D00020750881020976150026FF009520750811
:1004E0009102C005010980A101850216010026378D
:1004F000001A81002AB700751095018100C0050C13
:100500000901A1018503160100269C021A01002A97
:100510009C02751095018100C005010902A1010925
:1005200001A1000509190129051500250195057589
:100530000181029501750381010501093009311519
:1005400081257F95027508810609381581257F95DB
:100550000175088106050C0A38021581257F950171
:1005600075088106C0C005010906A101050719E04B
:1005700029E7150025019508750181029501750887
:10058000810105081901290595057501910295015B
:10059000750391010507190029FF150026FF009535
:1005A0000675088100C0636F6E73756D65723A20C1
:1005B000253034580A0073797374656D3A202530FC
:1005C00034580A000A002530325820006B657962E1
:1005D0006F6172643A20004C45443A20253032580D
:1005E0000A0025583A2530386225730A000A20206F
:1005F00030313233343536370A0064656C5F6B65F1
:10060000795F6269743A2063616E27742064656C57
:100610003A20253032580A006164645F6B65795F67
:100620006269743A2063616E2774206164643A20C1
:10063000253032580A00290A002575002F0025753B
:10064000005D28002564002000256400200025644A
:100650000020002564007C0025303258006D6F7545
:1006600073656B6579205B62746E7C782079207687
:1006700020685D287265702F61636C293A205B00E9
:100680006D6B5F776865656C5F74696D655F746FCE
:100690005F6D6178203D2025640A006D6B5F77688F
:1006A00065656C5F6D61785F7370656564203D2082
:1006B00025640A006D6B5F74696D655F746F5F6DB3
:1006C0006178203D2025640A006D6B5F6D61785F65
:1006D0007370656564203D2025640A006D6B5F6959
:1006E0006E74657276616C203D2025640A006D6B26
:1006F0005F64656C6179203D2025640A006D6B5F45
:10070000776865656C5F74696D655F746F5F6D6157
:1007100078203D2025640A006D6B5F776865656C05
:100720005F6D61785F7370656564203D2025640AA4
:10073000006D6B5F74696D655F746F5F6D617820CC
:100740003D2025640A006D6B5F6D61785F73706595
:100750006564203D2025640A006D6B5F696E7465D9
:100760007276616C203D2025640A006D6B5F6465C4
:100770006C6179203D2025640A000A002575003649
:100780003A20776865656C5F74696D655F746F5F4B
:100790006D61783A20000A00257500353A207768A7
:1007A00065656C5F6D61785F73706565643A2000A4
:1007B0000A00257500343A2074696D655F746F5FB7
:1007C0006D61783A20000A00257500333A206D618A
:1007D000785F73706565643A20000A002575003201
:1007E0003A20696E74657276616C286D73293A20BF
:1007F000000A00257500313A2064656C6179282A69
:1008000031306D73293A20000A092D2056616C752C
:100810006573202D0A004D3E004D25643E20003FAB
:10082000007365742064656661756C740A00433EEC
:10083000200077686572652064656C74613A206396
:100840007572736F723D25642C20776865656C3D09
:1008500025640A53656520687474703A2F2F656E9D
:100860002E77696B6970656469612E6F72672F7787
:10087000696B692F4D6F7573655F6B6579730A00DE
:100880000A092D204D6F7573656B6579202D0A451A
:1008900053432F713A09717569740A313A096465D5
:1008A0006C6179282A31306D73290A323A09696EF0
:1008B00074657276616C286D73290A333A096D612B
:1008C000785F73706565640A343A0974696D655FB1
:1008D000746F5F6D61780A353A09776865656C5F9A
:1008E0006D61785F73706565640A363A097768658B
:1008F000656C5F74696D655F746F5F6D61780A0A1E
:10090000703A097072696E742076616C7565730A4D
:10091000643A097365742064656661756C74730A62
:1009200075703A092B310A646F776E3A092D310AD6
:10093000706775703A092B31300A7067646F776E93
:100940003A092D31300A0A7370656564203D2064D0
:10095000656C7461202A206D61785F7370656564D1
:10096000202A2028726570656174202F2074696DBB
:10097000655F746F5F6D6178290A003F004D3E200E
:1009800000433E20004C25640A000A092D20436FD5
:100990006E736F6C65202D0A4553432F713A0971B0
:1009A0007569740A6D3A096D6F7573656B65790ABF
:1009B000000A092D204D61676963202D0A643A09F8
:1009C00064656275670A783A096465627567206DC7
:1009D00061747269780A6B3A096465627567206BA5
:1009E0006579626F6172640A6D3A09646562756760
:1009F000206D6F7573650A763A0976657273696F53
:100A00006E0A733A097374617475730A633A096301
:100A10006F6E736F6C65206D6F64650A302D343AAC
:100A2000096C61796572302D34284631302D463499
:100A3000290A506175733A09626F6F746C6F616453
:100A400065720A6E3A094E4B524F0A003F004E4BF8
:100A5000524F3A206F66660A004E4B524F3A206F53
:100A60006E0A0074696D65725F7265616433322865
:100A7000293A202530346C580A006B6579626F6121
:100A800072645F6E6B726F3A2025580A006B65794D
:100A9000626F6172645F69646C653A2025580A0070
:100AA0006B6579626F6172645F70726F746F636F90
:100AB0006C3A2025580A00686F73745F6B65796221
:100AC0006F6172645F6C65647328293A2025580A47
:100AD000000A092D20537461747573202D0A004794
:100AE00043433A2031322E312E30204156522D4C84
:100AF0004942433A20322E312E30204156525F4136
:100B00005243483A20617672350A004F5054494F9B
:100B10004E533A204C554641204D4F5553454B4579
:100B2000592045585452414B455920434F4E534F3D
:100B30004C4520434F4D4D414E44204E4B524F208B
:100B40004B45594D41505F53454354494F4E204208
:100B50004F4F544C4F414445525F53495A450A0048
:100B60004255494C443A20756E6B6E6F776E202863
:100B700031303A32353A3131204D617920313620E9
:100B800032303232290A005649443A2030784645FC
:100B9000454428742E6D2E6B2E29205049443A204E
:100BA000307831626565285A656E697468206B65B6
:100BB00079626F61726420636F6E766572746572BC
:100BC00029205645523A203078303030310A0044DE
:100BD0004553433A20636F6E76657274205A656E92
:100BE000697468206B6579626F61726420746F202C
:100BF0005553420A000A092D2056657273696F6EBB
:100C0000202D0A000A6D6F7573653A206F66660ABB
:100C1000000A6D6F7573653A206F6E0A000A6B6586
:100C200079626F6172643A206F66660A000A6B65CA
:100C300079626F6172643A206F6E0A000A6D6174A6
:100C40007269783A206F66660A000A6D617472698B
:100C5000783A206F6E0A000A64656275673A206F01
:100C60006E0A000A64656275673A206F66660A005C
:100C70000A0A626F6F746C6F616465722E2E2E208B
:100C800000433E2000006B0C670C7D0C7D0C7D0C3E
:100C90007D0C7D0C7D0C6D0C690C3F0C7D0C7D0C6E
:100CA000670C3D0C7D0C7D0C7F0C6B0C7D0C7D0C62
:100CB000690C7D0C7D0C7D0C7D0C7D0C7D0C3F0C3E
:100CC0006B0C610C7D0C650C7D0C7D0C7D0C410C5E
:100CD0006D0C7D0C7D0C750C7D0C7D0C7D0C430C1E
:100CE0006F0C7D0C630C7D0C670C7D0C7D0C790CFE
:100CF000710C7D0C730C690C7D0C7D0C7D0C770CDC
:100D0000800C7D0C7D0C7D0C7D0C7D0C7D0C7D0C98
:100D1000800C7D0C450C7D0C7D0C6D0C7D0C7D0CD0
:100D20006F0C7D0C7D0C7D0C7D0C7D0C7D0C7D0C89
:100D30007D0C7D0C470C7D0C7D0C7D0C750C7D0CA9
:100D40007D0C7D0C7D0C7D0C7D0C7D0C7D0C7D0C5B
:100D50007D0C490C7D0C4B0C4D0C7D0C7D0C7D0CE1
:100D60004F0C510C530C7D0C550C570C7D0C7D0C0D
:100D70007D0C7B0C590C7D0C5D0C5B0C5F0C7D0CB1
:100D80007D0C7D0C7D0C6F0CA40CB20CBE0CBE0C4B
:100D9000960CBE0CBE0CBE0CBE0CBE0CBE0CBE0C2B
:100DA000BE0CBE0CBE0CBE0CBE0CBE0C980CBE0C19
:100DB0009A0CBE0CBE0CBE0CBE0CB60CBE0CCB0C02
:100DC000B40CBE0CBE0CBE0CBE0CBE0CBE0CBE0CDD
:100DD000BE0CBE0CBE0CBE0CBE0CBE0C8C0CAA0C09
:100DE0009C0CAE0CBE0C9E0CBE0CA20CBE0CAC0C33
:100DF000A00CB00CA60CA80CBE0CBE0CBE0CBE0CFD
:100E0000BE0CBE0CBE0C900C920C940CB80CBA0C20
:100E1000BE0CBE0CBE0CBC0CEA0D0C0E190E400E26
:100E20004E0E590E730E890EAC0EC90E5C0F810F5B
:100E3000011040102910531063106B106F107410C4
:100E40007910B710BD10BF10C110C310CB10CB105C
:100E5000CB10C510C710C910A210A410A610A8105E
:100E6000AA10B210B210B210AC10AE10B010A8168A
:100E7000CE16D416CE16D4162D174F17D416A51786
:100E8000B217EA1BEA1B271C271CB91CEF1C851C88
:100E9000851C081D851C2F1E2F1EF31E851C0A1F76
:100EA0002B1FF227F827FB27012816281C282028AB
:100EB00024282828042809280D2813282C2832281B
:100EC00036288A289028942898289C28472847283C
:100ED00047284728A028A628AA28B62BC72B932B3B
:100EE000932B932BB02B932B932BED2B932BFD2B31
:100EF000652C932B932B932B932B242C932B932B9D
:100F00000D2C932BDD2B932B932B792C792C792C77
:100F1000792C792C792C792C792C792C752C932B94
:100F2000752C11241FBECFEFDAE0DEBFCDBF04B6B3
:100F300003FE41C08091EA039091EB03A091EC0382
:100F4000B091ED038730904BA740B04BA1F51092C4
:100F5000EA031092EB031092EC031092ED0314BE1F
:100F60000FB6F894A8958091600088618093600026
:100F7000109260000FBE109201081092000889E0E4
:100F8000E3E0F0E080935700E491E695E370E150F0
:100F900080E090E1E33040F4F0E0EE0FFF1FEB570C
:100FA000FE4F8081918100C0E0E0F0E8E81BF90B82
:100FB000F695E795099511E0A0E0B1E0E6E5FEE5DC
:100FC00002C005900D92AC38B107D9F723E0ACE828
:100FD000B1E001C01D92AA3EB207E1F70E94C91319
:100FE0000C94292F0C940000FF93EF93E0918C0157
:100FF000F0918D01309709F00995EF91FF910895D7
:10100000FC018591803011F0EFDFFBCF0895FF27C1
:10101000E0E230E247FF0CC0419597FF09C0EDE2E6
:101020006095709580959095611D711D811D911D34
:1010300027FF02C0219530E350E2AA27660F771FF1
:10104000881F991FAA1FA41710F0A41B63955A9517
:10105000A9F7AA3008F0A95FA05DAF93F3956115D9
:1010600071058105910541F7ED3211F4EF93F39588
:10107000F21718F43F93F395FBCF8F91B5DFFA95F4
:10108000E1F70895E991F9918591803021F0853259
:1010900019F0AADFF9CF089520E0E8945591553270
:1010A000C1F3503311F4689455915A3348F45053B6
:1010B00090F3220F022E220F220F200D250FF4CFC6
:1010C0000EF4219589919991533619F3533729F1EB
:1010D000533559F1BC0188279927E8945C3621F4EF
:1010E0008991999168945591543639F446EF7EF080
:1010F00077FF0DC08FEF9FEF0AC055374AE039F0F8
:10110000583540E121F0523642E009F00895FF934E
:10111000EF937DDFEF91FF91B7CFFF93EF93FC014A
:1011200081918030B9F360DFFBCFFF93EF9368DFED
:10113000F1CFDF93CF93CDB7DEB72596A3DFCF9165
:10114000DF910895982F80919901823079F1833051
:10115000B1F1813009F03CC048E0749FF0011124E6
:10116000E60FF11DE752FE4FE491E03889F12E2F92
:1011700030E084E0359527958A95E1F7277033278D
:1011800048E0949FC0011124820F931F24E0880F30
:10119000991F2A95E1F7EF70E80FF92FF11DEE0F77
:1011A000FF1FE050F84985919491089588E0789F59
:1011B000F0011124E60FF11DE75AFE4FD5CF48E0AC
:1011C000749FF0011124E60FF11DE752FF4FCCCFC1
:1011D00080E090E00895FC01611106C082818823BF
:1011E00019F08CEA90E0089580E090E00895599815
:1011F000519A08955198599A08955898509A089577
:101200005098589A08955198599A85E08A95F1F71F
:10121000000089B18695817008955098589A85E0AC
:101220008A95F1F7000089B181700895CF93DF931B
:10123000EC010E940309882311F0209721F4CE01CC
:10124000DF91CF91089585E08A95F1F7000021970D
:10125000F0CFCF93DF93C2E3D0E00E940309811166
:1012600002C0209721F4CE01DF91CF91089585E04F
:101270008A95F1F700002197F0CF2E9826982F98A5
:1012800027980E94F7080E940009E9E6F0E08081B3
:1012900088608083E9980895E19AE99A0E94FA08A3
:1012A0000C940009E9980E94F7080C9400090F9328
:1012B0001F93CF93DF932FB7F894C0910201D09181
:1012C0000301CE01882781159F4F09F180E09FEF30
:1012D0008C2B9D2B90930301809302012FBFCE0195
:1012E00099278F3F910509F04BC0CD2FDD27C03FD7
:1012F000D10581F0CF3FD105D9F18091DA03C03417
:10130000D10541F580FF12C08FE692E009C08FEF52
:1013100090E0DECF8091DA0380FF08C087E792E09B
:101320009F938F930E9499080F900F90CFEF0C2FEF
:1013300010E08091DA0380FF1DC01F92CF9389E5F2
:1013400092E09F938F930E9499080F900F900F90B7
:101350000F9010C080FF0CC0DF93CF9388E692E01F
:101360009F938F930E9499080F900F900F900F906A
:101370000FEF1FEFC801DF91CF911F910F910895DB
:10138000CE018F6F019699F28091DA0380FF0CC035
:10139000DF93CF9380E692E09F938F930E9499080A
:1013A0000F900F900F900F90CD2FC1CFCF93C9E129
:1013B0000E9457098F3F980749F4EFE9FFE0319702
:1013C000F1F700C00000C150C111F2CFCF910895D4
:1013D00010929201109291011092900110928F013F
:1013E00080E090E890930101809300018FEF9FEFE0
:1013F00090930301809302010895EF92FF920F935F
:101400001F93CF93DF93C82F10928F018091DA033F
:1014100080FF0CC01F92CF938DE792E09F938F9334
:101420000E9499080F900F900F900F90E9980E94DA
:10143000F7080E9400098FE891E00197F1F700C0DA
:1014400000000E94FD088FE891E00197F1F700C0CD
:1014500000000E94FA0880E197E20E941609892B99
:10146000B9F481E080938F0180918F018061809336
:101470008F010E94FA080E940009E19AE99A8FEF11
:101480009FEFDF91CF911F910F91FF90EF90089503
:1014900000E010E0FF24F394D0E0EE24E39490E524
:1014A0009A95F1F7CE01002E02C0959587950A9482
:1014B000E2F780FF09C0FE240E9400090E9429096A
:1014C000892B29F482E0CECF0E94FD08F7CF82E37A
:1014D00090E00E941609892B11F483E0C3CF0F5FBF
:1014E0001F4F08301105D9F680E58A95F1F7FF20E6
:1014F00041F00E9400090E942909892B29F484E007
:10150000B1CF0E94FD08F7CF82E390E00E94160958
:10151000892B11F485E0A6CF90E59A95F1F70E940A
:1015200000090E942909892B11F486E09BCF809144
:101530009001813181F182E390E00E941609C2E3BB
:10154000D0E0892B39F487E08DCF85E08A95F1F7DB
:10155000000021970E940D09882321F02097A9F708
:1015600088E080CFCD2BE1F30E942909C2E3D0E0CF
:10157000892B39F489E076CF95E09A95F1F7000050
:1015800021970E940D09811104C02097A9F78AE0D4
:1015900069CFCD2BE1F38FEF9FEF90930301809301
:1015A00002010E94E8090E94FA080E940009E19ADB
:1015B000E99ADF91CF911F910F91FF90EF900C94DA
:1015C000D6091F921FB61F9211242F933F934F935A
:1015D0008F939F9399B191708091DB0320910001CB
:1015E0003091010121153048D9F580938E01209169
:1015F0000001309101013695279530930101209328
:101600000001992349F080910001909101019068B7
:10161000909301018093000120910001309101011C
:10162000C9019927203A09F4E5C0813A910508F0EB
:1016300061C08034910509F49FC098F54097D9F1B5
:101640002F7D33272115310509F496C080910001C3
:1016500090910101909392018093910180E80EC0D6
:1016600020918E01821B833010F2809100019091B5
:101670000101909392018093910180E280938F0108
:1016800080918F0190E0982F88278F6F90930301AE
:101690008093020180E090E8909301018093000123
:1016A0006BC08038910509F467C08039910519F045
:1016B0008035910559F68091000190910101909338
:1016C000920180939101809100019091010197FF17
:1016D0009CC080E180939001809100019091010174
:1016E00046E0969587954A95E1F79093010180939E
:1016F00000012FC0803D9105F1F2803E910509F473
:1017000044C0803C910509F0A1CF84E605C095E076
:101710009A95F1F700008150499902C08111F7CFE5
:10172000499B28C0811120C0809100019091010146
:101730009093920180939101809100019091010119
:10174000892F9927909301018093000182E2809371
:101750009001809100019091010199278F3F91059F
:1017600009F055C080EF8ACF45E04A95F1F70000B7
:101770008150D6CF8823C1F29F918F914F913F9195
:101780002F911F901FBE1F9018958091000190917E
:1017900001019093920180939101809100019091B9
:1017A0000101892F9927909301018093000183E221
:1017B000CECF95E09A95F1F700008150499902C08B
:1017C0008111F7CF499B1EC0811116C08091000185
:1017D0009091010190939201809391018091000179
:1017E00090910101892F9927909301018093000125
:1017F00081E2ADCF84E6E2CF45E04A95F1F7000003
:101800008150E0CF8111B8CFE1CF81E163CF8091EA
:1018100003018F3F31F0809102018F3F11F080E48E
:101820002DCF8091020190910301982F88279093EA
:101830000301809302012091000130910101809108
:10184000020190910301822B21CFCF93C82F8DEEFF
:101850000E94FD098A3F910521F48C2FCF910C94B1
:10186000FD09CF910895EDEFE80FE13808F045C08C
:10187000F0E0ED5BF94F0C940F2F8FE0089589E1B4
:1018800008958FE108958CE5089580E6089582E635
:10189000089587E2089583E508958FE2089589E326
:1018A000089587E308958FE3089587E408958FE40A
:1018B000089586E508958EE508958FE7089580E000
:1018C000089585E608958EE608958FE6089588E0E8
:1018D000089580E1089588E1089580E2089588E2FE
:1018E000089580E3089588E3089580E5089587E5E5
:1018F00008958FE508958DE608958F77089587E11F
:101900000895CF93C82FE4EEE80FE834B8F5F0E07F
:10191000EC53F94F0C940F2FC5E58C2FCF91089500
:10192000CAE5FBCFCBE5F9CFCCE5F7CFCDE5F5CFD9
:10193000CEE5F3CFCFE5F1CFC0E6EFCFC1E6EDCFF7
:10194000C2E6EBCFC3E6E9CFCFE6E7CFC1E7E5CF0D
:10195000C2E7E3CFC4E7E1CFC5E7DFCFC7E7DDCF1D
:10196000C8E7DBCFCAE7D9CFCCE7D7CFCFE7D5CF12
:10197000C0E7D3CFC9E7D1CFCBE7CFCF1F92CF936B
:1019800088EC92E09F938F930E9499080F900F909C
:101990000F900F90C2CFC4E5C0CF0F931F93CF938A
:1019A000DF930E94DB268C010E945709EC0101960F
:1019B00031F4C8010E940727843F9140A8F3CE016B
:1019C000DF91CF911F910F9108950E943D090C94D2
:1019D0004C098091DA0381608093DA03EDE9F1E04C
:1019E00080E1DF011D928A95E9F70895E82FF0E084
:1019F000E356FE4F808190E021E030E002C0220FEC
:101A0000331F6A95E2F72823392381E0232B09F459
:101A100080E00895CF93DF93D82FD770C82FC69555
:101A2000C695C695CF706D2F8C2F0E94F60C811134
:101A30000DC0EC2FF0E0E356FE4F81E090E001C0D6
:101A4000880FDA95EAF76081682B6083DF91CF9188
:101A50000895CF93DF93D82FD770C82FC695C6951A
:101A6000C695CF706D2F8C2F0E94F60C882371F0D5
:101A7000EC2FF0E0E356FE4F61E070E001C0660F2E
:101A8000DA95EAF76095808168236083DF91CF91D2
:101A90000895E82FF0E0E356FE4F80810895EDE9C8
:101AA000F1E080E1DF011D928A95E9F70895982F12
:101AB00080919901823048F092FB882780F990FD4F
:101AC000826091FD84600C94250C0895CF93DF9380
:101AD00080918F01882379F18091910190919201F9
:101AE00020918F019F938F931F922F9382E593E014
:101AF0009F938F930E94990880918F0180750F901A
:101B00000F900F900F900F900F9081110EC0809149
:101B100098018B3051F48BE493E09F938F930E9454
:101B20009908109298010F900F9010928F011092C7
:101B300092011092910180919001882309F440C094
:101B40009091900180919C019817D1F18091910121
:101B500090919201209190019F938F931F922F93C8
:101B600087E393E09F938F930E94990880919C0153
:101B70000F900F900F900F900F900F9085FF04C063
:101B80009091900194FD06C084FF12C08091900155
:101B900085FF0EC0809198018B3051F480E393E073
:101BA0009F938F930E949908109298010F900F9025
:101BB0008091900180939C0110929201109291016A
:101BC000E0919801EC3008F055C0F0E0E45FF84F88
:101BD0000C940F2F0E9452090E94DB269F938F9333
:101BE0008BE293E09F938F930E9499081092990142
:101BF00010929B0110929A0110929C010E944F0D2D
:101C00000E94A31B0E94DB2690939701809396016C
:101C100081E0809398012AC080919601909197016C
:101C20000E940727893E934028F182E08093980123
:101C300021C00E94E8090E944C098FE99FE00197AA
:101C4000F1F700C000008FEF0E94FD098A3F910567
:101C5000A9F083E0809398010E94DB269F938F93E5
:101C600086E293E09F938F930E9499080F900F90C4
:101C70000F900F9081E0DF91CF91089586E0EACF39
:101C80000E9452092E98269A2F98279A0E94DB26A6
:101C9000909397018093960184E0C8CF809196013C
:101CA000909197010E940727853F914018F385E0A6
:101CB000BDCF2E9826982F9827980E94E8090E9459
:101CC0004C090E94DB269F938F9381E293E09F93C0
:101CD0008F930E9499080E94DB269093970180932E
:101CE000960186E096CF0E945709019619F20E944C
:101CF000DB269F938F938CE193E09F938F930E94B9
:101D000099080E94DB26909397018093960187E0C3
:101D100080CF80919601909197010E940727853F7F
:101D2000914018F089E0809398010E94570901962C
:101D300009F4A0CF0E94DB269F938F9387E193E065
:101D40009F938F930E9499080E94DB26909397019E
:101D50008093960188E05DCF8091960190919701E4
:101D60000E940727853F914018F089E080939801F1
:101D70000E945709019609F47DCF0E94DB269F93AC
:101D80008F9382E193E09F938F930E94990889E05B
:101D900040CF80919001CDEFDFEF8131C9F082EF2C
:101DA0000E94FD099C01CFEFDFEF2F3F320781F04A
:101DB000CEEFDFEF2A3F310559F40E94CD0CEC0144
:101DC000CF3FDC07B9F1DC2FCC270E94CD0CC82B0C
:101DD000D0939B01C0939A010E94DB269F938F931F
:101DE0008DE093E09F938F930E94990880919A01D0
:101DF00090919B010F900F900F900F90009709F416
:101E000050C08F3F980709F451C08E3F2FEF9207C3
:101E100009F447C08D3F2FEF920779F484E0809357
:101E20009901E2E0F0E0EE0FFF1FE65CFE4F8081DB
:101E3000918112C0C0E0D0E0CBCF8F3F910521F55A
:101E400087EF92E09F938F930E94990810929901D7
:101E50000F900F908EE191E09F938F9380919B0163
:101E60008F9380919A018F9389EE92E09F938F9345
:101E70000E9499088AE0809398010F900F900F902C
:101E80000F900F900F90F6CE803B2FEB920729F426
:101E900083E080939901E1E0C5CF882781159F4BAE
:101EA000B9F382E080939901E0E0BCCF81E08093B8
:101EB000990183E291E0D0CF0E94DB269F938F931C
:101EC00084EE92E09F938F930E94990880919901EC
:101ED0000F900F900F900F90823081F1833059F165
:101EE0008BE0809398010E94DB269F938F938FED68
:101EF00092E09F938F930E9499080F900F900F90FC
:101F00000F900E9457099C012F3F320709F4B2CE6F
:101F10002115310519F02F3F3105A9F40E944F0D0D
:101F20000E94A31B87ED92E09F938F930E949908D4
:101F30000F900F909FCE88EF0E94FD090E943B19E1
:101F40000E94570DCDCF90919901933009F4D6C0DE
:101F500078F4913079F0923009F08CCEE0919401D0
:101F6000E93008F07CC0F0E0E85EF84F0C940F2FE9
:101F70009430F2CF90919501923099F158F49111EB
:101F80001AC0803E71F0813E81F087FD10C00E9432
:101F90000A0D70CE933069F1943079F11092950169
:101FA00069CE81E08093950165CE82E0FBCF8F778B
:101FB0000E94290D5FCE8A3A89F358F48A3271F370
:101FC000863361F387FD07C00E94810C0E940A0DD1
:101FD000E5CF863BF6CF8F770E94810C0E94290DBA
:101FE000DDCF8D3121F08D39C9F684E0DBCF83E080
:101FF000D9CF853499F685E5E9CF853C79F685E535
:10200000EDCF803ED1F098F48338E9F08438F9F0D0
:1020100087FFBDCF0E944F0D8CEB92E09F938F9373
:102020000E9499080F900F901092980123CE813E44
:1020300041F0803F69F781E001C082E08093940124
:1020400019CE84E0FBCF82E00E940A0D08C08FE722
:10205000FBCF893521F0803F29F0823129F410929D
:10206000940108CE83E0EACF1092940187FD03C06B
:102070000E94330C8CCF0E944F0D82EB92E0CECFAA
:10208000833859F0843869F01092940187FF90CF1B
:102090000E944F0D88EA92E0C1CF82E00E94290D94
:1020A000DECF8FE7FBCF8231D1F28935C1F21092BA
:1020B000940187FD03C00E94330C7ACF0E944F0D1C
:1020C0008BE992E0ABCF843121F0803F41F686E08E
:1020D000B5CF85E0B3CF873711F680E0B5CF843137
:1020E00009F0BDCF87E0AACF803F09F0B8CF88E0E4
:1020F000A5CF873709F0B3CF80E0D0CF909193017F
:10210000992369F0913009F0B5CDEDE7E80FEB3098
:1021100008F041C0F0E0EF5DF84F0C940F2F8E38BF
:1021200058F48338F8F0EDE7E80FEB30D8F4F0E03E
:10213000E45DF84F0C940F2F803FA1F481E0809371
:10214000930198CD82E023CF8FE721CF8BE01FCF83
:1021500086E01DCF80E01BCF81E019CF89E017CF4B
:102160008AE015CF87FF13CF8EE892E057CF82E049
:102170000E94290D109293017DCD8FE7F9CF8BE05E
:10218000F7CF86E0F5CF80E0F3CF81E0F1CF89E0B3
:10219000EFCF8AE0EDCF1092930187FF09CF84E85B
:1021A00092E03CCF8091D1020895CF93DF9300D08D
:1021B0000F92CDB7DEB72091D602243019F523E077
:1021C00029838A839B832093E9008FEF9091E80015
:1021D00095FD07C095ED9A95F1F7000081508111AA
:1021E000F5CF8091E80085FF0DC040E050E063E04E
:1021F00070E0CE0101960E947A158091E8008E77FA
:102200008093E8000F900F900F90DF91CF91089589
:10221000CF93DF9300D00F92CDB7DEB79C018091B2
:10222000D602843031F582E08983205831093B831E
:102230002A8383E08093E9008FEF9091E80095FD79
:1022400007C095ED9A95F1F7000081508111F5CF07
:102250008091E80085FF0DC040E050E063E070E051
:10226000CE0101960E947A158091E8008E778093C6
:10227000E8000F900F900F90DF91CF91089520917B
:10228000D6022430F1F422E02093E9002FEF3091C0
:10229000E80035FD07C035ED3A95F1F70000215013
:1022A0002111F5CF2091E80025FF0BC040E050E060
:1022B00065E070E00E947A158091E8008E77809347
:1022C000E8000895CF93DF93D82FC92F8091D602CD
:1022D000843089F580911401882381F18091150162
:1022E000882361F185E08093E90080E89091E8001F
:1022F00095FD07C09AE29A95F1F700C081508111CF
:10230000F5CF8091E80085FF16C040E050E060E224
:1023100070E08D2F9C2F0E947A158091E8008E77B7
:102320008093E80080E2ED2FFC2FA1EBB2E001905A
:102330000D928A95E1F7DF91CF91089581E0809326
:10234000E90080E89091E80095FD09C0EFE3F1E035
:102350003197F1F700C0000081508111F3CF8091D7
:10236000E80085FFE8CF40E050E068E070E0D1CFC2
:10237000CF93DF9300D000D00F92CDB7DEB720917E
:10238000AF012D83222359F081E08D838D810F9041
:102390000F900F900F900F90DF91CF9108950E94B2
:1023A000E72669837A838B839C83643C794081052B
:1023B000910560F381E08093AF01E6CFEF92FF9249
:1023C0000F931F93CF93DF93D82F0FB607FE49C00B
:1023D0008091D602843079F08091070190E00196D7
:1023E0002091090130E0822393232091080130E0FD
:1023F00082179307B1F50E94B811811110C0209186
:10240000070130E02F5F3F4F8091090190E02823C2
:1024100039238091080190E02817390711F50E94AF
:10242000DB268C018091E900C091EC00C795CC2798
:10243000C7958F70C82B84E08093E90085E0F82E63
:1024400095E0E92E8091EB0085FD08C08091EB00BE
:1024500080FF04C08091EE0087FD43C0CF70C09321
:10246000E9008091070190E0AC014F5F5F4F209140
:10247000090130E0422353232091080130E0421744
:10248000530709F453C0E0910501F0910601E80FEC
:10249000F91FD083809107018F5F909109018923F3
:1024A0008093070143C0E0910501F0910601E80F18
:1024B000F11D90818F5F2091090182238093080193
:1024C0009093F1008091E80085FD0BC08091E800B9
:1024D00080FF07C08091E8008E778093E800E0924B
:1024E000040180910801209107019091E8002817CC
:1024F00079F095FDD8CF9091F3004091F200592FDB
:10250000452B71F19091E80090FF2AC090E01BC02C
:1025100095FFF1CFD093F1009091F3004091F2003C
:10252000592F452B59F4CF70C093E90080E0DF911B
:10253000CF911F910F91FF90EF9008959091E80037
:102540009170992381F33091E80035FD29C03091D5
:10255000E8003E773093E800F09204019111E3CF58
:1025600030E02F5F3F4F4091090150E02423352395
:1025700090E02817390709F071CF80910401882372
:1025800009F46CCF0E94DB269C018017910709F4A7
:1025900059CF80910401815080930401890152CF69
:1025A0001092F100D0CF8091DF02811104C00E940F
:1025B000D2170C942F1808951092DF0208951092EC
:1025C000DF02089542E061EC81E00E94F61442E0EF
:1025D00061EC82E00E94F61442E061EC83E00E942C
:1025E000F61442E261EC84E00E94F61442E261ECEF
:1025F00085E00C94F6148091D802893081F148F47A
:10260000823009F492C0833009F44DC0813041F02A
:1026100008958A3009F479C08B3009F45FC00895B9
:102620008091D702813AF1F58091E800877F80930D
:10263000E8008091DB029091DC02892B61F060E080
:1026400080E090E070E00E94CB158091E8008B77ED
:102650008093E800089560E281EB92E0F3CF8091EF
:10266000D7028132F9F48091DB029091DC028B7FFA
:10267000892BC1F48091E800877F8093E8008091E6
:10268000E80082FF0BC08091F1008093D10280911D
:10269000E8008B778093E8000C942A158091D6028D
:1026A0008111EDCF08958091D702813AD9F78091B9
:1026B000DB029091DC02892BA9F78091E800877FEB
:1026C0008093E8008091E80080FFFCCF80911401A6
:1026D0008093F1008091E8008E77DCCF8091D70263
:1026E000813201F78091DB029091DC02892BD1F6D7
:1026F0008091E800877F8093E8000E942A158091EE
:10270000D902809314010C94A31B8091D7028132CB
:1027100049F68091E800877F8093E8000E942A159F
:102720008091DA028093D20208958091D702813A93
:1027300009F0B8CF8091E800877F8093E80080910E
:10274000E80080FFFCCF8091D202C2CF0895809133
:10275000D1028093B0011092D1020E944F0D0C94CF
:10276000A31B0C94A7130E948A268091D30288236E
:1027700029F00E94972681110C94E01408950E947C
:10278000AB268091B0018093D10208950C94BF13C1
:10279000089584B7877F84BF0FB6F894A895809179
:1027A0006000886180936000109260000FBE80E836
:1027B00090E00FB6F89480936100909361000FBE93
:1027C0008EED91E10E945B268AE091E00E9436192D
:1027D0008AE893E00E9400080E94E50C0E94F51927
:1027E0000E94D2170E942F1878940E94F7198091A6
:1027F000D602843009F044C088E793E00E940008C4
:102800000E94A61386E693E00E9400088091D602FB
:102810008530D9F10E94FB192091E4003091E50048
:102820008091AD019091AE012817390731F1809167
:10283000E4009091E5009093AE018093AD010E9479
:10284000B8118823D1F02091D6022430B1F49091B0
:10285000E9008091EC008795882787959F70892BE8
:102860002093E9009091EB0090FF04C09091EE005E
:1028700097FD2AC08F708093E9000E941C19C6CF73
:102880000E941C190E94C813B2CF0E94B313BECF7E
:10289000E0910501F0910601E90FF11D20819F5F94
:1028A000309109019323909308012093F1009091B6
:1028B000E80095FD09C09091E80090FF05C0909157
:1028C000E8009E779093E80090910801209107011D
:1028D000291721F02091E80025FDDACF9091F3002F
:1028E0002091F200392F232B29F29091E80090FFDC
:1028F000C1CF9091E80095FD06C09091E8009E77C9
:102900009093E800B7CF1092F100F3CFFC01CB0118
:10291000DA012F2F33272330310521F168F42130DC
:10292000310509F443C02230310509F444C080E088
:1029300090E020E030E024C02132310551F1223214
:102940003105A9F76530710590F7FB01EE0FFF1F08
:10295000EB5BFE4F20813181805C9E4FFC018081CA
:1029600090E00EC0CF019927E13069F082309105E7
:1029700069F0E5EEF3E0892BD1F6849190E09F01B8
:102980002D933C930895E5EDF3E0F7CFEFE9F3E005
:10299000F4CF6530710558F6FB01EE0FFF1FE15BC8
:1029A000FE4F2081318189E090E0EACF82E190E022
:1029B00026E734E0E5CF8DE890E029EE33E0E0CF84
:1029C00080E189BD82E189BD09B400FEFDCF80911F
:1029D000D8008F7D8093D8008091E0008260809342
:1029E000E0008091E00081FDFCCF0895982F9730A2
:1029F00028F08F708093E90081E008959093E900BA
:102A0000242F762F50E0981731F07091EC00209130
:102A1000ED005091F00021FD02C09F5FE8CF3091A2
:102A2000EB003E7F3093EB003091ED003D7F309323
:102A3000ED003091EB0031603093EB007093EC00CF
:102A40002093ED005093F0002091EE0027FDE5CF9C
:102A500080E008958091D70287FF13C08091E8003D
:102A600082FF06C08091E8008B778093E80004C065
:102A70008091D6028111F2CF08958091D6028823E9
:102A8000D9F38091E80080FFF8CF8091E8008E773D
:102A9000ECCF2091E4003091E50095E6A90180910A
:102AA000EC008170882331F08091E80080FF06C03F
:102AB00080E008952091E80022FD1BC08091D6029D
:102AC000882391F0853091F08091EB0085FD10C056
:102AD0002091E4003091E5004217530701F3915033
:102AE0009111DCCF84E0089582E0089583E0089599
:102AF00081E00895AF92BF92CF92DF92FF920F9341
:102B00001F93CF93DF936C01EB018A010E9449155B
:102B1000F82E811125C00115110539F0F8018081C9
:102B20009181C81BD90BC80ED91EA12CB12C20979E
:102B3000B9F08091E80085FD24C08091E8008E778F
:102B40008093E8000E941C1901151105A1F0F801FD
:102B5000808191818A0D9B1D9183808385E0F82E71
:102B60008F2DDF91CF911F910F91FF90DF90CF902C
:102B7000BF90AF9008950E9449158823D1F2F82E96
:102B8000EFCFF60181916F018093F1002197FFEF64
:102B9000AF1ABF0ACCCFFC019B018091DD0290915E
:102BA000DE028617970718F0672B61F0C90140E035
:102BB000009771F441110CC08091E80082FF35C08C
:102BC00080E008958091E8008E778093E800EECF52
:102BD0002091D6022223A9F12530A9F12091E80005
:102BE00023FD2DC02091E80022FDE6CF2091E800D2
:102BF00020FFDECF3091F3002091F200009719F012
:102C00002830310558F041E02830310509F040E026
:102C10002091E8002E772093E800CACF419140939D
:102C2000F10001972F5F3F4FE9CF8091D6028823B3
:102C300041F0853041F08091E80083FFBDCF81E015
:102C4000089582E0089583E00895FC019B0180913E
:102C5000DD029091DE028617970718F0672B61F06E
:102C6000C90140E0009771F441110CC08091E80067
:102C700082FF36C080E008958091E8008E778093CF
:102C8000E800EECF2091D6022223B1F12530B1F138
:102C90002091E80023FD2EC02091E80022FDE6CF20
:102CA0002091E80020FFDECF3091F3002091F20068
:102CB000009719F02830310558F041E028303105EF
:102CC00009F040E02091E8002E772093E800CACF79
:102CD00044914093F100319601972F5F3F4FE8CF29
:102CE0008091D602882341F0853041F08091E80040
:102CF00083FFBCCF81E0089582E0089583E00895CA
:102D00001F93CF93DF93CDB7DEB7AA970FB6F89492
:102D1000DEBF0FBECDBF87ED92E0FC010196209192
:102D2000F100208322E08F3D9207B9F70E94FB1249
:102D30008091E80083FF38C08091D7029091D8023B
:102D40009A3090F5E92FF0E0E95CF84F0C940F2FE2
:102D5000803889F0823841F58091DB028F708730AE
:102D600018F58093E9008091EB0085FB882780F9B6
:102D70001092E90006C08091D4029091D302911183
:102D800082609091E800977F9093E8008093F10033
:102D90001092F1008091E8008E7729C081111CC04B
:102DA0008091D902813041F18091E80083FF0AC00F
:102DB0008091E800877F8093E8008091EB0080623B
:102DC0008093EB00AA960FB6F894DEBF0FBECDBF7E
:102DD000DF91CF911F910895823031F78091D90210
:102DE000882389F01092E9008091E800877F809322
:102DF000E8000E942A15D8CF81E0933009F080E0E6
:102E00008093D302EFCF8091DB028F702FEF280FDA
:102E1000263050F68093E9002091EB0020FFE2CFAE
:102E2000933031F48091EB0080628093EB00DACF35
:102E30009091EB0090619093EB0021E030E0A901CC
:102E400002C0440F551F8A95E2F74093EA001092A2
:102E5000EA008091EB008860E8CF8111A5CF109146
:102E6000D9021F778091E3008078812B8093E30063
:102E70008091E800877F8093E8000E942A15809166
:102E8000E80080FFFCCF8091E30080688093E3003E
:102E900083E0111101C082E08093D60285CF805873
:102EA000823008F081CF8091D9029091DA028C3D76
:102EB00053E0950799F583E08A838AE289834FB7C7
:102EC000F894DE01139620E03EE051E2E32FF0E0BB
:102ED00050935700849120FF03C082958F703F5F0D
:102EE0008F708A30C8F0895C90E08D939D932F5F3E
:102EF000243161F74FBF8091E800877F8093E8001D
:102F00006AE270E0CE0101960E94CB158091E80044
:102F10008B778093E80048CF805DE6CF6091DB023D
:102F20007091DC02AE014F5F5F4F0E948614BC01BE
:102F3000892B09F439CF8091E800877F8093E800DE
:102F400089819A810E942516E1CF803809F02CCF23
:102F50008091E800877F8093E8008091D50280937C
:102F6000F10018CF811120CF9091D902923008F052
:102F70001BCF8091E800877F8093E8009093D50273
:102F80000E942A158091D502882331F084E0809335
:102F9000D6020E94E21208CF8091E30087FDF6CFAF
:102FA00081E0F5CF0E9440180E944818E0EEF0E062
:102FB000808181608083E8EDF0E080818F7780837D
:102FC00019BCA7EDB0E08C918E7F8C9380818F7EB1
:102FD00080831092DF0208950F931F93CF93DF93A6
:102FE0000E9440180E944818C8EDD0E088818F7771
:102FF000888388818068888388818F7D888319BCD5
:103000001092D6021092D5021092D3021092D402DE
:1030100000EE10E0F80180818B7F808388818160E1
:10302000888342E060E080E00E94F614E1EEF0E088
:1030300080818E7F8083E2EEF0E0808181608083FA
:10304000808188608083F80180818E7F8083888181
:1030500080618883DF91CF911F910F910895E8EDF2
:10306000F0E080818F7E8083E7EDF0E080818160F9
:10307000808384E082BF81E08093DF020C94EC17B0
:10308000E8EDF0E080818E7F80831092E200089569
:103090001092DA001092E10008951F920F920FB67D
:1030A0000F9211242F933F934F935F936F937F93CE
:1030B0008F939F93AF93BF93EF93FF938091E10022
:1030C00082FF0BC08091E20082FF07C08091E10087
:1030D0008B7F8093E1000E941B198091DA0080FFB2
:1030E00019C08091D80080FF15C08091DA008E7FD2
:1030F0008093DA008091D90080FF8FC080E189BD84
:1031000082E189BD09B400FEFDCF81E08093D60243
:103110000E94D3128091E10080FF19C08091E200EB
:1031200080FF15C08091E2008E7F8093E200809145
:10313000E20080618093E2008091D80080628093F9
:10314000D80019BC85E08093D6020E94B11380910B
:10315000E10084FF29C08091E20084FF25C080E166
:1031600089BD82E189BD09B400FEFDCF8091D80000
:103170008F7D8093D8008091E1008F7E8093E10065
:103180008091E2008F7E8093E2008091E200816076
:103190008093E2008091D502882309F444C084E042
:1031A0008093D6020E94C6138091E10083FF24C061
:1031B0008091E20083FF20C08091E100877F8093AF
:1031C000E10082E08093D6021092D5028091E10066
:1031D0008E7F8093E1008091E2008E7F8093E200F9
:1031E0008091E20080618093E20042E060E080E054
:1031F0000E94F6140E94DF12FF91EF91BF91AF91F0
:103200009F918F917F916F915F914F913F912F91FE
:103210000F900FBE0F901F90189519BC1092D602F8
:103220000E94DC1277CF8091E30087FF02C083E029
:10323000B7CF81E0B5CF0895CF938091D602882390
:1032400099F08091E900C091EC00C795CC27C79513
:103250008F70C82B1092E9008091E80083FD0E94D6
:103260008016CF70C093E900CF9108959093E50246
:103270008093E4020895E091E402F091E502309732
:1032800021F00190F081E02D099480E00895EF9203
:10329000FF920F931F93CF93DF938C01E091E40291
:1032A000F091E5023097A9F10280F381E02D0995B4
:1032B0008091DA0382FF2DC080FF04C08CEC95E082
:1032C0000E940008E801C80180967C0106EC15E028
:1032D0008091DA0380FF0BC088811F928F931F9328
:1032E0000F930E9499080F900F900F900F902196C6
:1032F000CE15DF0569F78091DA0380FF0AC084EC00
:1033000095E0DF91CF911F910F91FF90EF900C947A
:103310000008DF91CF911F910F91FF90EF900895DA
:10332000E091E402F091E502309721F00480F5810C
:10333000E02D09940895CF93DF93EC018091E20290
:103340009091E3028C179D0701F1D093E302C093A3
:10335000E202E091E402F091E5023097B1F00680DC
:10336000F781E02DCE0109958091DA0385708530D3
:1033700061F4DF93CF9386EB95E09F938F930E9448
:1033800099080F900F900F900F90DF91CF910895B3
:10339000CF93DF93EC018091E0029091E1028C17D2
:1033A0009D0701F1D093E102C093E002E091E402B5
:1033B000F091E5023097B1F00084F185E02DCE0167
:1033C00009958091DA038570853061F4DF93CF939E
:1033D00086EA95E09F938F930E9499080F900F9033
:1033E0000F900F90DF91CF9108950C94AA1A0E942C
:1033F000D2260C94E90C9F92AF92BF92CF92DF92AB
:10340000EF92FF920F931F93CF93DF9300D000D0E2
:103410000F92CDB7DEB70E94660D87EEC82E82E010
:10342000D82E10E0812F0E94490DF82EF6019190C0
:103430006F019816A9F18091DA0381FD0E94AB1A01
:103440009F24E12C01E05601F1E0AF1AB108892D6B
:103450008023882301F1E9821A8391E08F2D802354
:10346000811101C090E09B830E94DB268160782F50
:103470009D838C8349815A816B81892F0E94E11A37
:1034800049815A816B817C818D810E947526F5016D
:10349000808180278083E394000FF8E0EF12D7CF7C
:1034A0001F5F103109F0BECF8FEF89838A831B82A3
:1034B0000E94DB268160782F9D838C8349815A810D
:1034C0006B81892F0E94E11A0E9474260E943B2979
:1034D0000E943B199091E602891749F10E943B191D
:1034E0008093E6029091DA039570953061F41F9213
:1034F0008F9387ED95E09F938F930E9499080F908B
:103500000F900F900F908091E6020F900F900F9008
:103510000F900F90DF91CF911F910F91FF90EF903F
:10352000DF90CF90BF90AF909F900C9486260F9025
:103530000F900F900F900F90DF91CF911F910F91EF
:10354000FF90EF90DF90CF90BF90AF909F90089545
:103550000C94570D0895EF92FF920F931F93CF9302
:10356000DF938DEE95E00E940008C0E0D0E089E393
:10357000E82E81E0F82E02EE15E08C2F0E94490D16
:103580000E946026FF92EF921F928F93DF93CF935A
:103590001F930F930E94990821968DB79EB70896A6
:1035A0000FB6F8949EBF0FBE8DBFC031D10529F76D
:1035B000DF91CF911F910F91FF90EF9008950895A3
:1035C0000895CF93DF93CDB7DEB72B970FB6F8945E
:1035D000DEBF0FBECDBF4F83588769877A878B8741
:1035E0008A859B85892B39F0842F85238F3F19F09D
:1035F0008B850E9475261E8285E0FE013796DE01CE
:10360000119601900D928A95E1F749815A816B815B
:103610007C818D819E812B960FB6F894DEBF0FBE04
:10362000CDBFDF91CF910C94AD21CF93C82F8823CC
:1036300009F43FC08CEF8C0F813A58F48C2F0E9414
:10364000812C811136C08C2F0E945625CF910C946D
:10365000352680E28C0F883048F4C77081E001C0C5
:10366000880FCA95EAF70E94FA25F0CF8BE58C0FF8
:10367000833068F481E890E0C53A31F082E890E068
:10368000C63A11F083E890E0CF910C949B19C85A88
:10369000C73178F480E790E0C63141F0EC2FF0E0DC
:1036A000EE0FFF1FE75AFE4F80819181CF910C945E
:1036B000C819CF910895882329F19CEF980F913A6A
:1036C00020F40E94A3250C94352690E2980F9830A0
:1036D00050F4877091E001C0990F8A95EAF7892F1D
:1036E0000E940026F0CF9BE5980F933020F480E0F5
:1036F00090E00C949B19885A873120F480E090E088
:103700000C94C8190895882321F00E94FA250C947E
:1037100035260895882321F00E9400260C94352632
:1037200008950E941C260E94E9250E9435260E94C9
:10373000342A0E94AE2880E090E00E949B1980E02D
:1037400090E00C94C8190E940B260C94911BAF9228
:10375000BF92DF92EF92FF920F931F93CF93DF936D
:10376000CDB7DEB729970FB6F894DEBF0FBECDBF39
:103770005C010E9488268111C8C085E0F501DE0148
:10378000119601900D928A95E1F7F5019081818162
:10379000F280E580E2942FE0E22223813481232B22
:1037A00009F4B3C089238F3F09F4AFC049815A811E
:1037B0006B817C818D810E94B4248C010E94B32492
:1037C0000E94DF22E12FE295EF70F0E0EF5BF84F0F
:1037D0000C940F2FF12FFF70EF2E103118F0E294A0
:1037E00090EFE922FF20C9F0EE2029F08E2D0E94F3
:1037F0000E260E943526802F29960FB6F894DEBF3C
:103800000FBECDBFDF91CF911F910F91FF90EF9031
:10381000DF90BF90AF900C94151B802F0E945B1B14
:10382000EE2009F472C08E2D0E94142629960FB640
:10383000F894DEBF0FBECDBFDF91CF911F910F91E6
:10384000FF90EF90DF90BF90AF900C943526212F22
:103850002F70D22E107F103219F0D29480EFD82220
:10386000002379F0013009F460C0FF2009F46DC035
:10387000EE2059F0F501858180FF9DC28F70858310
:1038800004C0FF2049F1E11012C08D2D29960FB61A
:10389000F894DEBF0FBECDBFDF91CF911F910F9186
:1038A000FF90EF90DF90BF90AF900C94831B31E0BE
:1038B0008D2DE312EBCF29960FB6F894DEBF0FBE25
:1038C000CDBFDF91CF911F910F91FF90EF90DF90CF
:1038D000BF90AF900C941F26E11014C00E942226C6
:1038E0008D2D29960FB6F894DEBF0FBECDBFDF91A8
:1038F000CF911F910F91FF90EF90DF90BF90AF900D
:103900000C948A1B41E0E412E9CF29960FB6F89493
:10391000DEBF0FBECDBFDF91CF911F910F91FF9002
:10392000EF90DF90BF90AF900895FF2051F055E0E9
:103930005E1558F30E94F7258D21882309F4A5CF41
:10394000CFCF64E06E1508F3CBCFEE2049F2802F85
:1039500029960FB6F894DEBF0FBECDBFDF91CF9191
:103960001F910F91FF90EF90DF90BF90AF900C945C
:103970005B1B812F8695869583708823C9F08130E3
:1039800021F6C8019370F11002C080E090E0299602
:103990000FB6F894DEBF0FBECDBFDF91CF911F9160
:1039A0000F91FF90EF90DF90BF90AF900C94C819EB
:1039B000C8019370F11002C080E090E029960FB624
:1039C000F894DEBF0FBECDBFDF91CF911F910F9155
:1039D000FF90EF90DF90BF90AF900C949B19802FD9
:1039E000FF2099F00E94E82729960FB6F894DEBFD1
:1039F0000FBECDBFDF91CF911F910F91FF90EF9040
:103A0000DF90BF90AF900C94AE280E943A28ECCF84
:103A1000812F837081118EC0F11077CF202F2295D6
:103A200026952770220F220F802F8F7090E0A0E044
:103A3000B0E0AC01BD01022E04C0440F551F661F4B
:103A4000771F0A94D2F74E835F836887798760E097
:103A500070E0CB0104FF0FC06FE070E080E090E009
:103A600004C0660F771F881F991F2A95D2F76095AB
:103A7000709580959095169516951370123021F1DA
:103A8000133009F440C02E813F8148855985262B8B
:103A9000372B482B592B2E833F834887598711306A
:103AA000A1F1CA01B90129960FB6F894DEBF0FBE85
:103AB000CDBFDF91CF911F910F91FF90EF90DF90DD
:103AC000BF90AF900C941A232E813F814885598571
:103AD000262B372B482B592B2E833F83488759871A
:103AE000CA01B90129960FB6F894DEBF0FBECDBF4B
:103AF000DF91CF911F910F91FF90EF90DF90BF90DA
:103B0000AF900C944A230E941A236E817F8188858E
:103B1000998529960FB6F894DEBF0FBECDBFDF9111
:103B2000CF911F910F91FF90EF90DF90BF90AF90DA
:103B30000C94EA22FF2009F458C010FFE6CE202F93
:103B4000229526952770220F220F802F8F7090E0EC
:103B5000A0E0B0E0AC01BD01022E04C0440F551F2F
:103B6000661F771F0A94D2F74E835F836887798731
:103B700060E070E0CB0104FF0FC06FE070E080E018
:103B800090E004C0660F771F881F991F2A95D2F70F
:103B900060957095809590951695169513701230D6
:103BA00041F1133009F444C02E813F814885598585
:103BB000262B372B482B592B2E833F834887598739
:103BC0001130C1F1CA01B90129960FB6F894DEBFD0
:103BD0000FBECDBFDF91CF911F910F91FF90EF905E
:103BE000DF90BF90AF900C946324823008F48DCEA8
:103BF000A6CF2E813F8148855985262B372B482B10
:103C0000592B2E833F8348875987CA01B9012996CA
:103C10000FB6F894DEBF0FBECDBFDF91CF911F91DD
:103C20000F91FF90EF90DF90BF90AF900C948B249A
:103C30000E9463246E817F818885998529960FB6BD
:103C4000F894DEBF0FBECDBFDF91CF911F910F91D2
:103C5000FF90EF90DF90BF90AF900C943B24013F1A
:103C600009F46AC040F5003EA0F4003C08F49FC08F
:103C7000A02E812F8F71102F1071FF20B9F10E949B
:103C8000A4238A2D8295807F111100CE802F8F7002
:103C9000FDCD003FA9F1FF2009F4A0C0EE2009F4FA
:103CA0009AC0802F0E94151B033509F48AC007347F
:103CB00009F02BCE86C0023F09F453C0033F59F7E9
:103CC000FF2009F463C0812F8F7129960FB6F894F5
:103CD000DEBF0FBECDBFDF91CF911F910F91FF903F
:103CE000EF90DF90BF90AF900C947F230E94D5237C
:103CF0008A2D8295807F1111F4CD802F8F70F1CDA8
:103D0000FF20B9F034E03E1508F4FFCD812F8F710C
:103D100029960FB6F894DEBF0FBECDBFDF91CF91CD
:103D20001F910F91FF90EF90DF90BF90AF900C9498
:103D30000A2445E0E416E8CF812F8F71FF20A9F017
:103D400029960FB6F894DEBF0FBECDBFDF91CF919D
:103D50001F910F91FF90EF90DF90BF90AF900C9468
:103D6000A423812F8F71FF2059F329960FB6F89461
:103D7000DEBF0FBECDBFDF91CF911F910F91FF909E
:103D8000EF90DF90BF90AF900C94D52329960FB69B
:103D9000F894DEBF0FBECDBFDF91CF911F910F9181
:103DA000FF90EF90DF90BF90AF900C947A23FF20AC
:103DB000A9F0EE2081F0802F0E94151B093309F035
:103DC00073CFFFEF21EE34E0F15020403040E1F7B7
:103DD00000C000009ACD812F8F71B2CFE110B7CD16
:103DE000812F8F71C2CF412F4F70602FC5010E946C
:103DF000EB0829960FB6F894DEBF0FBECDBFDF915A
:103E0000CF911F910F91FF90EF90DF90BF90AF90F7
:103E10000C944722011179CDFF2009F476CD0E9440
:103E2000A31B5FEF60E772E0515060407040E1F724
:103E300000C0000029960FB6F894DEBF0FBECDBFBC
:103E4000DF91CF911F910F91FF90EF90DF90BF9086
:103E5000AF900C943A27412F4F70602FC5012996DF
:103E60000FB6F894DEBF0FBECDBFDF91CF911F918B
:103E70000F91FF90EF90DF90BF90AF900C94592777
:103E8000CF93DF9300D000D00F92CDB7DEB7498338
:103E90005A836B837C838D838C819D81892BC1F0B8
:103EA000852F84238F3FA1F08D810E94B424292F78
:103EB00022952F70903C40F42A3060F4225F2F70DE
:103EC000223030F481E012C02C3061F02F3051F0FC
:103ED00080E00CC0803E10F48F3BF3CF815F8330D5
:103EE00088F7F6CF9F7081E0983090F30F900F9095
:103EF0000F900F900F90DF91CF910895CF93DF93A4
:103F000000D000D00F92CDB7DEB70F900F900F907A
:103F10000F900F90DF91CF910895CF93DF9300D052
:103F200000D000D0CDB7DEB70F900F900F900F905C
:103F30000F900F90DF91CF9108950F931F93CF9320
:103F4000E091F702C6E08091F8028E1304C0CF9191
:103F50001F910F9108950E2F10E0CE9FF0011124B4
:103F6000E750FD4F40815181628173818481958149
:103F70000E948D1FF8013196E770E5CF409129032B
:103F800050912A0360912B0370912C0380912D0393
:103F900090912E030C948D1F1F93CF93DF938091EC
:103FA0002E03803108F055C080912B03882309F43B
:103FB00050C08091F7022091F8026091290330915E
:103FC0002A03C0912C03D0912D03732F7623281739
:103FD00009F43FC090E0209709F445C016E07F3F08
:103FE00009F441C0189FF001199FF00D1124DF0161
:103FF000A750BD4F11964C91119734132EC04C9180
:1040000046132BC012964C91129741111DC0139666
:104010004D915C914C1B5D0B483C5105F0F4809137
:104020002E038F70806180932E03E250FD4F8081BC
:104030008F708061808389E293E00E94A71BDF91EB
:10404000CF911F910C949D1F01968770992728137B
:10405000C9CFDF91CF911F9108950196877099275D
:104060002813BDCFF6CF01968770B1CF8F929F9264
:10407000AF92BF92DF92EF92FF920F931F93CF9375
:10408000DF93CDB7DEB72B970FB6F894DEBF0FBE28
:10409000CDBF8C0185E0F801DE01179601900D92ED
:1040A0008A95E1F7F801F28090812181A380B480A4
:1040B00089E2882E83E0982E3091290340912A03CB
:1040C00060912C0370912D036115710509F439C1BC
:1040D000832F84238F3F09F434C1D0902B03F50143
:1040E000E61BF70BDD2009F4E1C080912E03E83CCC
:1040F000F10508F0B5C0803108F07CC0EF2C241326
:1041000013C0391311C0F1101EC08F7080618093ED
:104110002E030E94BE1FC4010E94A71B80912E0384
:10412000F8018583E12C4FC0AB2809F45FC0822FD2
:1041300089238F3F09F45AC0E091F7028091F80279
:1041400036E0FF20C9F080912E03816080932E031A
:10415000E9CF4E2F50E03E9FF0011124E750FD4F74
:104160006181261306C06081961303C062816111CC
:10417000D9CFFA013196E770E813EBCF4F8158851C
:1041800069857A858B850E94B424292F22952F700A
:10419000903248F49F70992311F08823A1F0805E3B
:1041A000883088F004C0225F2F70223028F0C801C8
:1041B0000E94A71BED2C07C09F70992381F3F80183
:1041C0009581903160F78E2D2B960FB6F894DEBF57
:1041D0000FBECDBFDF91CF911F910F91FF90EF9058
:1041E000DF90BF90AF909F908F900895FF2009F4CB
:1041F00099CFA9CF241306C0391304C0F801FF20BA
:1042000009F46FC04F81588569857A858B850E9436
:10421000401F882309F489C0FF2009F486C08091DB
:104220002E03803270F02091290330912A033A83C3
:1042300029831B82BD82AC828E83CE0101960E94AF
:10424000A71B86E0F801A9E2B3E001900D928A95E0
:10425000E1F70E94CC1F0E94BE1FEE24E394B3CF6F
:10426000803198F44F81588569857A858B850E94C5
:104270007E1F89E293E00E94A71B86E0F401119261
:104280008A95E9F70E94BE1F4DCF2413BBCF391387
:10429000B9CFF110B7CFF8018583C8010E94A71BE1
:1042A00086E0F40111928A95E9F7D7CFE83CF10551
:1042B00008F03FC0FF20C9F1241329C0391327C0DB
:1042C00080912E0380FD1AC08031C0F0F8018583F3
:1042D000807F803F39F08581982F907F905F8F702D
:1042E000892B8583C8010E94A71B86E0F801A9E2FB
:1042F000B3E001900D928A95E1F7ADCF86E0F80129
:10430000A9E2B3E001900D928A95E1F7A6CF4F8123
:10431000588569857A858B850E94401F811191CFD0
:1043200080912E03816080932E03C8010E94A71BF9
:1043300094CF4F81588569857A858B850E947E1F31
:104340009CCFFF2091F34F81588569857A858B85B5
:104350000E94401F882349F374CF1F93CF93DF93AC
:10436000CDB7DEB72C970FB6F894DEBF0FBECDBF2A
:104370004F83588769877A878B879C87CE010796FA
:104380000E943620882309F18A859B85892B61F05C
:1043900058854F81852F84238F3F31F069857A8539
:1043A0008B859C850E948D1F16E08091F70290916D
:1043B000F80289134AC02C960FB6F894DEBF0FBEE0
:1043C000CDBFDF91CF911F91089586E0FE01379612
:1043D000DE01119601900D928A95E1F78F81988503
:1043E0002091F8024091F7026A857B85672BE1F204
:1043F00089238F3FC9F230E0C90101968770992760
:1044000050E08417950771F40E94A31B1092F802E4
:104410001092F70286E0E9E2F3E0DF011D928A954F
:10442000E9F7C2CF96E0929FD001939FB00D11247F
:10443000A750BD4FFE01319601900D929A95E1F77C
:104440008093F8020E949D1FAFCF189FC0011124D6
:1044500087509D4F0E943620882309F4ACCFE0910D
:10446000F7021E9FF0011124E750FD4F408151815A
:1044700062817381848195810E948D1F8091F702F2
:1044800090E00196877099278093F7028ECFEF9284
:10449000FF920F931F93CF93DF938C01892BA1F091
:1044A000F12CE12CE8012196F8018491853709F47B
:1044B0006AC088F4843709F44CC0843008F072C0B4
:1044C0008130E9F0823091F1DF91CF911F910F910E
:1044D000FF90EF900895883709F461C040F4863763
:1044E00009F057C00E94F725F82E8E0138C09CE7CE
:1044F000980F903748F78F770E945B1BF6CFFE012D
:10450000849190E2980F983060F4877091E001C038
:10451000990F8A95EAF7892F0E940E260E94352668
:1045200002C00E94151B0E5F1F4F19C0FE0184912F
:1045300090E2980F983050F4877091E001C0990F85
:104540008A95EAF7892F0E941426E8CF0E945B1B08
:10455000EACF0E5F1F4FFE01C491C1110CC08E2D1A
:10456000882309F49FCFEFE9FFE03197F1F700C00E
:1045700000008150F5CF8FE99FE00197F1F700C06F
:104580000000C150EACF0E5F1F4FFE01C491EC2E18
:10459000E6CF8F2D0E9408260E943526A6CF0E94C6
:1045A0000B26FACF0E94151BA0CF6093AF03709328
:1045B000B0038093B1039093B2030C9485260895C1
:1045C0006093B3037093B4038093B5039093B603E1
:1045D0000C948426CF93DF9300D000D0CDB7DEB704
:1045E00069837A838B839C838091B3039091B40316
:1045F000A091B503B091B60329813A814B815C81CA
:10460000282B392B4A2B5B2B29833A834B835C83E2
:104610002093B3033093B4034093B5035093B60390
:10462000CA01B9010F900F900F900F90DF91CF91B9
:104630000C948426CF93DF9300D000D0CDB7DEB7A3
:1046400069837A838B839C838091B3039091B403B5
:10465000A091B503B091B60329813A814B815C8169
:10466000282339234A235B2329833A834B835C83A2
:104670002093B3033093B4034093B5035093B60330
:10468000CA01B9010F900F900F900F90DF91CF9159
:104690000C948426CF93DF9300D000D0CDB7DEB743
:1046A00069837A838B839C838091B3039091B40355
:1046B000A091B503B091B60329813A814B815C8109
:1046C000282739274A275B2729833A834B835C8332
:1046D0002093B3033093B4034093B5035093B603D0
:1046E000CA01B9010F900F900F900F90DF91CF91F9
:1046F0000C94842660E070E0CB010C94D5220F93DB
:104700001F93CF93DF9300D000D0CDB7DEB741E049
:1047100050E060E070E08A019B0104C0000F111FAF
:10472000221F331F8A95D2F709831A832B833C8378
:10473000C901B8010F900F900F900F90DF91CF91AA
:104740001F910F910C94D5220F931F93CF93DF935A
:1047500000D000D0CDB7DEB741E050E060E070E0BF
:1047600004C0440F551F661F771F8A95D2F78091AA
:10477000AF039091B003A091B103B091B2038A014D
:104780009B01082B192B2A2B3B2B09831A832B8384
:104790003C83C901B8010F900F900F900F90DF91EB
:1047A000CF911F910F910C94D5220F931F93CF930C
:1047B000DF9300D000D0CDB7DEB741E050E060E03D
:1047C00070E004C0440F551F661F771F8A95D2F70B
:1047D00040955095609570958091AF039091B0038E
:1047E000A091B103B091B2038A019B010823192360
:1047F0002A233B2309831A832B833C83C901B801F5
:104800000F900F900F900F90DF91CF911F910F910C
:104810000C94D5220F931F93CF93DF9300D000D039
:10482000CDB7DEB741E050E060E070E004C0440F77
:10483000551F661F771F8A95D2F78091AF0390911D
:10484000B003A091B103B091B2038A019B01082784
:1048500019272A273B2709831A832B833C83C90105
:10486000B8010F900F900F900F90DF91CF911F9193
:104870000F910C94D522CF93DF9300D000D0CDB709
:10488000DEB769837A838B839C838091AF03909199
:10489000B003A091B103B091B20329813A814B8159
:1048A0005C81282B392B4A2B5B2B29833A834B8342
:1048B0005C83CA01B9010F900F900F900F90DF91A8
:1048C000CF910C94D522CF93DF9300D000D0CDB7F9
:1048D000DEB769837A838B839C838091AF03909149
:1048E000B003A091B103B091B20329813A814B8109
:1048F0005C81282339234A235B2329833A834B8312
:104900005C83CA01B9010F900F900F900F90DF9157
:10491000CF910C94D522CF93DF9300D000D0CDB7A8
:10492000DEB769837A838B839C838091AF039091F8
:10493000B003A091B103B091B20329813A814B81B8
:104940005C81282739274A275B2729833A834B83B1
:104950005C83CA01B9010F900F900F900F90DF9107
:10496000CF910C94D52208954F925F926F927F92CF
:104970008F929F92BF92CF92DF92EF92FF920F930E
:104980001F93CF93DF9300D000D00F92CDB7DEB747
:10499000C42E4983D52E5A837C838D838C819D813F
:1049A000892B09F46CC0852F84238F3F09F467C0DD
:1049B000052F10E0E42EF12C662309F454C040903A
:1049C000AF035090B0036090B1037090B203809138
:1049D000B3039091B403A091B503B091B603482AF4
:1049E000592A6A2A7B2A2FE1822E912CD301C201F7
:1049F000082C04C0B695A795979587950A94D2F789
:104A000080FD29C081E0881A910880F7B12C93E0DD
:104A1000000F111F9A95E1F7015D1C4FF801EE0D93
:104A2000FF1DB08269817A818B2D0F900F900F90BE
:104A30000F900F90DF91CF911F910F91FF90EF900A
:104A4000DF90CF90BF909F908F907F906F905F90FE
:104A50004F900C94A208B82CB601882D0E94A20891
:104A6000019781F2D4CF83E0000F111F8A95E1F7FF
:104A7000015D1C4FF801EE0DFF1DB080D3CF80E02B
:104A800090E00F900F900F900F900F90DF91CF91CB
:104A90001F910F91FF90EF90DF90CF90BF909F906C
:104AA0008F907F906F905F904F9008959091140138
:104AB000992361F190911501992341F1982F9695D1
:104AC000969596959F3189F0E0911601F091170126
:104AD000E90FF11D877021E030E001C0220F8A95B7
:104AE000EAF78181822B818308959091DA0390FF08
:104AF00022C01F928F9388E196E09F938F930E942C
:104B000099080F900F900F900F9008952091160123
:104B100030911701F90132969FEF40E051918517CE
:104B200051F09F3F19F4511101C0942F4F5F4E3146
:104B3000A9F79F3F09F40895290F311D97FD3A9574
:104B4000F9018283089590911401992381F1909144
:104B50001501992361F1982F9695969596959F3119
:104B6000A9F0E0911601F0911701E90FF11D87708E
:104B700021E030E0A90102C0440F551F8A95E2F7F9
:104B8000CA01809591818923818308959091DA03E8
:104B900090FF1EC01F928F938AEF95E09F938F9393
:104BA0000E9499080F900F900F900F9008952091F8
:104BB000160130911701F9013296205E3F4F919115
:104BC000891303C0DF0111971C92E217F307B9F7AD
:104BD000089581E090E0E0911601F0911701E80F4F
:104BE000F91F1082019680329105A9F708958091EE
:104BF000D90308959091D903982B9093D9030895E0
:104C0000982F90958091D90389238093D903089593
:104C10008093D90308951092D90308959091D803F1
:104C2000982B9093D8030895982F90958091D8034E
:104C300089238093D80308951092D8030895809310
:104C4000B70308951092B70308952091160130918B
:104C50001701F9013196205E3F4F80E0919191114B
:104C60008F5FE217F307D1F70895E0911601F091F5
:104C700017018091D9038083E0911601F09117010B
:104C800080819091D803892B80839091B7039923D9
:104C900061F0E0911601F09117018081892B8083EA
:104CA0000E94252681111092B703809116019091E0
:104CB00017010C94471990938D0180938C010895EE
:104CC000829594E0899F900111242C7C869586958D
:104CD0008373282B30E0C901880F991F8A7A359594
:104CE00027952575822B08950895CF93DF9300D0E3
:104CF00000D00F92CDB7DEB70F900F900F900F90AE
:104D00000F90DF91CF910895089508950C94A81AFB
:104D100080E0089583B7817F8C6083BF83B7816013
:104D200083BF7894889583B78E7F83BF0895CF9390
:104D30000E94DF1A0E94660D0E94E01AC0E08C2FCC
:104D40000E94490D811105C0CF5FC031C1F7CF91DD
:104D5000089581E0FCCF0E944F0D0C94A31B1F927D
:104D60001FB61F9211248F939F93AF93BF9380918F
:104D7000DB039091DC03A091DD03B091DE0341964B
:104D8000A11DB11D8093DB039093DC03A093DD0391
:104D9000B093DE03BF91AF919F918F911F901FBE83
:104DA0001F90189582E084BD93E095BD9AEF97BD62
:104DB00080936E0008952FB7F8948091DB03909153
:104DC000DC03A091DD03B091DE032FBF0895CF93E4
:104DD000DF9300D000D0CDB7DEB78FB7F894209125
:104DE000DB033091DC034091DD035091DE03298326
:104DF0003A834B835C838FBF69817A818B819C81ED
:104E00000F900F900F900F90DF91CF9108959C011C
:104E10004FB7F8948091DB039091DC03A091DD0300
:104E2000B091DE034FBF821B930B089578941F92BD
:104E30001FB61F9211248F939F93AF93BF938091BE
:104E4000DB039091DC03A091DD03B091DE030196BA
:104E5000A11DB11D8093DB039093DC03A093DD03C0
:104E6000B093DE03BF91AF919F918F911F901FBEB2
:104E70001F9018950E94D217F89487E797E79093B0
:104E800001088093000887E090EBDC018093EA033F
:104E90009093EB03A093EC03B093ED0388E19CE0C7
:104EA0000FB6F894A895809360000FBE90936000B1
:104EB000FFCF08958091E10380FF12C060911B0134
:104EC00085E0689FB0011124759567957595679584
:104ED00060387105E8F561157105E1F1862F0895D7
:104EE00081FF09C060911B0185E0689FB00111241A
:104EF00075956795EDCF82FF07C060911B0185E036
:104F0000689FB0011124E4CF2091E2032223E9F04D
:104F100060911A0180911B0190E0261738F025E07E
:104F2000289FB001299F700D1124D2CF289FA00186
:104F3000299F500D112425E0249FC001259F900D2D
:104F4000112470E00E94FB2EC3CF65E070E0C6CF55
:104F50008FE7089581E008958091E10380FF0CC000
:104F60006091190170E07595679575956795611564
:104F7000710561F1862F089581FF06C060911901C6
:104F800070E075956795F3CF6091190170E082FD2F
:104F900015C02091E2032223B1F090911801609195
:104FA000190170E0291750F4269FA001279F500D8A
:104FB0001124692F70E0CA010E94FB2E6038710530
:104FC000B0F28FE7089561E070E0D4CF81E00895FA
:104FD000E0E1E80F803F08F444C0F0E0EF5AF84FFA
:104FE0000C940F2F0E945A2781958093E503089512
:104FF0000E945A27FACF0E945A2781958093E40392
:1050000008950E945A27FACF0E94AC278093E603A6
:1050100008950E94AC278195F9CF0E94AC27819515
:105020008093E70308950E94AC27FACF8091E303B1
:1050300081608093E30308958091E3038260F9CF58
:105040008091E3038460F5CF8091E3038860F1CF22
:105050008091E3038061EDCF8091E10381608093D3
:10506000E10308958091E1038260F9CF8091E1032B
:105070008460F5CF2091E6039091E7034091E5032A
:105080003091E403803F99F447FD1092E50380914D
:10509000E4039091E503892B9091E603892B90918D
:1050A000E703892B811102C01092E2030895813F2A
:1050B00019F4141654F3EBCF823F29F437FFE7CFEE
:1050C0001092E403E4CF833F19F41316CCF3DFCF3F
:1050D000893F29F41216DCF61092E603D8CF8A3FF6
:1050E00019F427FFD4CFF8CF8B3F29F497FFCFCF08
:1050F0001092E703CCCF8C3F19F41916CCF3C7CF2D
:10510000ECE0E80F843F08F4C2CFF0E0EF59F84F2D
:105110000C940F2F8091E3038E7F8093E303B7CF2E
:105120008091E3038D7FF9CF8091E3038B7FF5CFEF
:105130008091E303877FF1CF8091E3038F7EEDCFF2
:105140008091E1038E7F8093E103A1CF8091E10301
:105150008D7FF9CF8091E1038B7FF5CF8091DA03CA
:1051600083FF7EC08DE596E00E9400088091E303F6
:105170001F928F9388E596E09F938F930E949908E2
:1051800086E596E00E9400088091E403282F082E0F
:10519000000C330B3F938F9383E596E09F938F939F
:1051A0000E94990881E596E00E9400088091E5033D
:1051B000282F082E000C330B3F938F938EE496E03C
:1051C0009F938F930E9499088CE496E00E940008B8
:1051D0008091E603282F082E000C330B3F938F930A
:1051E00089E496E09F938F930E94990887E496E064
:1051F0000E9400088091E703282F082E000C330B33
:105200003F938F9384E496E09F938F930E94990835
:1052100081E496E00E9400088091E2031F928F9340
:105220008EE396E09F938F930E9499088CE396E01B
:105230000E9400088091E1031F928F9389E396E01A
:105240009F938F930E94990886E396E00E9400083E
:105250008DB79EB74C960FB6F8949EBF0FBE8DBF0C
:1052600083EE93E00E9490190E94DB269093E00366
:105270008093DF030895CF93DF9300D000D00F9287
:10528000CDB7DEB78091DF039091E0030E9407273E
:105290009C018091E203882371F040911C0150E051
:1052A0002417350710F50F900F900F900F900F9067
:1052B000DF91CF91089540911D019AE0499FA0018F
:1052C00011242417350778F39091E4039111C1C09C
:1052D0009091E503911119C09091E603911115C0C9
:1052E0009091E70391110FC0DECF9091E4039111EB
:1052F000AEC02091E6039091E7033091E5033111B0
:1053000002C0222379F38F3F19F08F5F8093E2036D
:105310008091E40387FF05C00E945A2781958093FE
:10532000E4038091E503181624F40E945A27809321
:10533000E5038091E50387FF05C00E945A27819508
:105340008093E5038091E403882309F455C0A0917C
:10535000E503AD83AA2309F44FC0282F880F330B30
:10536000440B550B29833A834B835C83CA01B901F3
:105370000E94022E23E333E343E35FE369837A83EE
:105380008B839C8369817A818B819C810E94662EAC
:1053900069837A838B839C8369817A818B819C81E9
:1053A0000E94CA2D6093E4038D81082E000C990B96
:1053B000AA0BBB0B89839A83AB83BC83BC01CD0151
:1053C0000E94022E23E333E343E35FE369837A839E
:1053D0008B839C8369817A818B819C810E94662E5C
:1053E00069837A838B839C8369817A818B819C8199
:1053F0000E94CA2D6093E5038091E603181624F4F9
:105400000E94AC278093E6038091E60387FF05C0E6
:105410000E94AC2781958093E6038091E7031816DC
:1054200024F40E94AC278093E7038091E70387FF71
:1054300005C00E94AC2781958093E7030F900F90E1
:105440000F900F900F90DF91CF910C94AE288F3F6B
:1054500019F08F5F8093E20319160CF059CF0E9468
:105460005A278093E40354CF85E0E3EEF3E0DF01B5
:105470001D928A95E9F71092E2031092E1030895D4
:1054800080E898E00E9400081F9281E08F931F92AD
:1054900085E08F9382E398E09F938F930E94990811
:1054A0000F900F900F900F900F900F9008958430F1
:1054B00009F44DC038F4823031F18330B1F18130DC
:1054C00041F00895853009F454C0863009F463C072
:1054D000089580911D01482F460F5527551F860FAF
:1054E0004F3F51050CF08FEF80931D011F928F935A
:1054F0008BE697E09F938F930E9499080F900F90EF
:105500000F900F90089580911C01482F460F55274A
:10551000551F860F4F3F51050CF08FEF80931C01F4
:105520001F928F9389E597E0E5CF80911B01482F6B
:10553000460F5527551F860F4F3F51050CF08FEF33
:1055400080931B011F928F9386E497E0D3CF8091C5
:105550001A01482F460F5527551F860F4F3F5105FB
:105560000CF08FEF80931A011F928F9381E397E0E5
:10557000C1CF80911901482F460F5527551F860F1F
:105580004F3F51050CF08FEF809319011F928F93BD
:1055900088E197E0AFCF80911801482F460F55273B
:1055A000551F860F4F3F51050CF08FEF8093180168
:1055B0001F928F938DEF96E09DCF843009F441C008
:1055C00038F4823011F1833071F1813041F0089567
:1055D000853009F444C0863009F44FC008958091A5
:1055E0001D01681780F4861B80931D011F928F9305
:1055F0008EEE96E09F938F930E9499080F900F90E4
:105600000F900F90089580E0EFCF80911C016817F4
:1056100040F4861B80931C011F928F938CED96E0C3
:10562000E9CF80E0F7CF80911B01681740F4861B1B
:1056300080931B011F928F9389EC96E0DBCF80E073
:10564000F7CF80911A01681740F4861B80931A01E6
:105650001F928F9384EB96E0CDCF80E0F7CF8091BF
:105660001901681740F4861B809319011F928F93CC
:105670008BE996E0BFCF80E0F7CF809118016817E3
:1056800040F4861B809318011F928F9380E896E068
:10569000B1CF80E0F7CFCF93DF9300D000D0CDB76C
:1056A000DEB789831F928F9385E899E09F938F934C
:1056B0000E94990881E090E0A0E0B0E09C01AD017B
:1056C000098004C0220F331F441F551F0A94D2F7CC
:1056D00029833A834B835C83CA01B9010E94E0228B
:1056E0000F900F900F900F900F900F900F900F90C2
:1056F000DF91CF910C94A31B8A3258F4863098F036
:10570000EAEFE80FE43278F4F0E0E359F84F0C9454
:105710000F2F833470F48A3308F0EDC0853309F419
:10572000E4C08833E9F08CE49AE00E94000880E04D
:105730000895833409F4D9C08834A9F70E94A31BC3
:1057400080E79CE00E9400082FEF83ED90E321505A
:1057500080409040E1F700C000000E943A2704C05A
:1057600081EB99E00E94000881E008958091DA03BE
:10577000807F8093DA038AE899E00E94000881E83C
:105780009CE00E94000881E08093E903EDCF8091C6
:10579000DA0380FF0AC083E69CE00E940008809143
:1057A000DA03807F8093DA03DFCF87E59CE00E94F5
:1057B00000088091DA038160F5CF9091DA03892F98
:1057C0008D7F91FF82608093DA0381FF03C08AE4BA
:1057D0009CE0EDCF8CE39CE0C5CF9091DA03892F5C
:1057E0008B7F92FF84608093DA0382FF03C08DE297
:1057F0009CE0DDCF8DE19CE0B5CF9091DA03892F5D
:10580000877F93FF88608093DA0383FF03C081E181
:105810009CE0CDCF84E09CE0A5CF85EF9BE00E948B
:1058200000088FEC9BE00E94000887E89BE00E9444
:10583000000880E69BE00E9400088BE09BE00E944D
:1058400000088FED9AE08ECF81ED9AE00E9400086B
:105850000E943B191F928F9387EB9AE09F938F933F
:105860000E949908809114011F928F9380EA9AE018
:105870009F938F930E9499088091D2021F928F93D9
:105880008DE89AE09F938F930E949908809115016B
:105890001F928F938AE79AE09F938F930E949908B3
:1058A0000E94E7269F938F937F936F9383E69AE0FE
:1058B0009F938F930E9499088DB79EB746960FB617
:1058C000F8949EBF0FBE8DBF4FCF0E94A31B809147
:1058D000150191E0892780931501882319F089E546
:1058E0009AE040CF8EE49AE03DCF80E00E944B2BBF
:1058F0003BCF8D51FBCF8953F9CF80E008950C94B5
:105900007D2CCF93C82F8091E9038130C1F0823084
:1059100009F44CC081113AC1E0911601F0911701D0
:105920008081823209F034C18C2F0E947D2C81113C
:105930001EC08C2F0E947C2B8170CF910895E09126
:105940001601F09117018081823271F38C2F0E9431
:105950007F2C81111BC0C431D9F060F4CB3071F0C1
:10596000C031D1F08BE799E00E94000813C081E0BC
:1059700090E0E2CFC93261F0C833A1F78AE899E03C
:105980000E94000881E899E00E94000881E0D4CFDD
:105990001092E90380E0D0CF0E94402A8DE799E081
:1059A0000E94000882E08093E903F0CFC93209F435
:1059B00042C048F5C33109F44EC050F4C73009F471
:1059C000CBC0CB30A9F18FE198E00E94000841C024
:1059D000C43189F182EE8C0F8630A8F7CD51C09387
:1059E000E8038091E803882309F4CDC01F928F93C8
:1059F00089E198E09F938F930E9499080F900F90F0
:105A00000F900F9026C0CE3409F4A4C050F4C833D0
:105A100079F06AE0CB34B9F68091E8030E94572A06
:105A2000E0CFC13509F490C061E0C235A9F3CBCF16
:105A30000E94402AD6CF8091E803882319F0109263
:105A4000E803CFCF8EE298E00E94000881E08093C7
:105A5000E90381E072CF88E098E00E94000886EFB9
:105A600097E00E94000880911D011F928F9383EFA1
:105A700097E09F938F930E94990881EF97E00E948F
:105A800000088FED97E00E94000880911C011F9292
:105A90008F938CED97E09F938F930E9499088AEDE6
:105AA00097E00E9400088BEC97E00E94000880912C
:105AB0001B011F928F9388EC97E09F938F930E9416
:105AC000990886EC97E00E94000885EB97E00E9419
:105AD000000880911A011F928F9382EB97E09F93A9
