:100000000C948A080C94EB080C94040C0C94EB08E8
:100010000C94EB080C94EB080C94EB080C94EB0894
:100020000C94EB080C94EB080C9460190C94EB08FE
:100030000C9434280C94EB080C94EB080C94EB080B
:100040000C94EB080C94EB080C94EB080C94EB0864
:100050000C94EB080C949B280C94EB080C94EB0884
:100060000C94EB080C94EB080C94EB080C94EB0844
:100070000C94EB080C94EB080C94EB080C94EB0834
:100080000C94EB080C94EB080C94EB080C94EB0824
:100090000C94EB080C94EB080C94EB080C94EB0814
:1000A0000C94EB080C94EB080C94EB08750501E339
:1000B00001E10128022802E102E374FF01060206C1
:1000C0000119021901280228746400750501E30171
:1000D000E10128022802E102E374FF011A021A0179
:1000E00017021701280228746400750501E101E375
:1000F00002E302E17464011502150108020801051A
:100100000205011202120112021201170217012840
:100110000228746400750501E3010B020B02E3740D
:100120006401E301E1010B020B02E102E3746400EC
:10013000750501E3011A021A02E3746401E3011F69
:10014000021F02E3746401E30128022802E374FF42
:1001500001150215010A020A0128022874FF74FF22
:100160000134023401150215746401E3011E021EFC
:1001700002E3746401E30128022802E374FF01062C
:100180000206010F020F01280228746401E3012115
:10019000022102E3746401E3011F021F02E374649D
:1001A00001E3011E021E02E3746400750501E10112
:1001B000E302E302E17464011B021B011602160153
:1001C00008020801170217012C022C011502150163
:1001D0002C022C011502150104020401170217015B
:1001E000080208012C022C011F021F01270227010F
:1001F000270227012C022C012202220127022701BB
:100200003302330116021601080208011702170112
:100210001B021B010E020E01050205011002100156
:1002200004020401130213012C022C012D022D01E2
:100230001002100112021201070207010802080150
:100240000F020F012C022C011302130106020601FA
:100250001E021E0127022701220222012C022C016C
:100260002D022D010F020F01040204011C021C01CA
:100270001202120118021801170217012C022C0198
:10028000180218011602160136023601070207018C
:10029000080208012C022C012D022D01120212016C
:1002A00013021301170217010C020C0112021201B2
:1002B000110211012C022C010A020A01150215017A
:1002C00013021301E10133023302E10106020601C8
:1002D000040204011302130116021601E1012D02AA
:1002E0002D02E101160216011A021A010C020C017C
:1002F00017021701060206010B020B0128022874DF
:100300006400007B46010203763A687F6577482BDC
:10031000353B6978796439141E3C6A7A1D16041AD3
:100320001F3D6B061B070821203E6C2C1909171571
:10033000223F6D11050B0A1C23406E7E100D182400
:1003400025416F360E0C122726427037380F3313B3
:100350002D43717534322F2E44727C7D28303174D8
:10036000457351504A524D492A5466594F5C5F4C6F
:100370004B4E62635A5D5E60295367585B56576106
:1003800047554842403E3C3A3B456843413F3D2B40
:10039000357E697A790078141E7C6A7B1D16041AF2
:1003A0001F7F6B061B070821204D6C2C19091715A0
:1003B000224A6D11050B0A1C234C6E49100D18249E
:1003C00025516F360E0C1227264F7037380F331316
:1003D0002D52717534502F2E4E72397D2830653173
:1003E0004B735464586776012A773259745C5F66A0
:1003F000020362635A5D5E60295344575B56556140
:10040000474680291E1F20212223242526272D2E02
:100410002A2B141A0815171C180C12132F302878C1
:10042000041607090A0B0D0E0F33343579311D1BE5
:1004300006190511103637387D557A2C393A3B3C70
:100440003D3E3F4041424353475F6061565C5D5EC5
:1004500057595A5B62634648324445677B7F650360
:1004600001025250514F68696A6B6C6D6E6F70710A
:10047000725800494C754A4D734B4E767C777E74AA
:10048000665472253032582000623A2530345820A4
:1004900000652530325820002146554C4C21200063
:1004A0002146462120007725303258200021435331
:1004B000335F4630210A00214353335F52454144A4
:1004C00059210A00214353325F45305F4630210AEB
:1004D00000214353325F4630210A00214353325FEB
:1004E0004530210A00214353325F494E4954210AC5
:1004F00000214353315F45305F25303258210A00D7
:100500000A5B4F56525D20004C257520005325751F
:1005100020000A49443A2530345828257329200000
:100520004D6F7573653A206E6F7420737570706FC0
:10053000727465640A0052257520005725752000E5
:100540005725752000572575200058257520004136
:100550002575200049257520005B4348475D200034
:100560000A5052543A25303258204953523A2530D5
:10057000345820005B5253545D20000A4552523AD1
:1005800025303258204953523A2530345820000A39
:100590004B6579626F6172642073746172742E0AA4
:1005A000000A55534220636F6E6669677572656411
:1005B0002E0A000A0A544D4B3A62366265373038CB
:1005C0002B2F4C5546410A0A0034035A0065006E31
:1005D0000069007400680020006B0065007900620B
:1005E000006F00610072006400200063006F006E05
:1005F0000076006500720074006500720000000E55
:100600000374002E006D002E006B002E000000040D
:1006100003090409028D00050100A032090400004D
:100620000103010100092111010001224000070519
:10063000810308000A0904010001030102000921E5
:1006400011010001224D000705820308000A090478
:1006500002000103000000092111010001223600FF
:100660000705830308000A090403000203000000D1
:100670000921110100012222000705840320000145
:100680000705040320000109040400010300000021
:10069000092111010001223900070585032000010D
:1006A0001201100100000008EDFEEE1B0100010226
:1006B000000105010906A101050719E029E7150058
:1006C000250195087501810205081901290595057F
:1006D000750191029501750391010507190029F72C
:1006E0001500250195F875018102C00631FF0974D6
:1006F000A1010975150026FF0095207508810209E2
:1007000076150026FF00952075089102C0050109A5
:1007100080A10185021601002637001A81002AB740
:1007200000751095018100C0050C0901A101850328
:10073000160100269C021A01002A9C0275109501E0
:100740008100C005010902A1010901A100050919E3
:100750000129051500250195057501810295017591
:100760000381010501093009311581257F95027545
:1007700008810609381581257F95017508810605D0
:100780000C0A38021581257F950175088106C0C0C5
:1007900005010906A101050719E029E71500250152
:1007A00095087501810295017508810105081901F7
:1007B00029059505750191029501750391010507BC
:1007C000190029FF150026FF00950675088100C055
:1007D000636F6E73756D65723A20253034580A0068
:1007E00073797374656D3A20253034580A000A0015
:1007F0002530325820006B6579626F6172643A204F
:10080000004C45443A20253032580A0025583A25F4
:1008100030386225730A000A2020303132333435F3
:1008200036370A0064656C5F6B65795F6269743A9C
:100830002063616E27742064656C3A20253032583D
:100840000A006164645F6B65795F6269743A206372
:10085000616E2774206164643A20253032580A00A2
:10086000290A002575002F002575005D28002564E4
:10087000002000256400200025640020002564007D
:100880007C0025303258006D6F7573656B6579207B
:100890005B62746E7C782079207620685D287265B2
:1008A000702F61636C293A205B006D6B5F77686520
:1008B000656C5F74696D655F746F5F6D6178203D15
:1008C0002025640A006D6B5F776865656C5F6D61FC
:1008D000785F7370656564203D2025640A006D6B48
:1008E0005F74696D655F746F5F6D6178203D202571
:1008F000640A006D6B5F6D61785F7370656564207D
:100900003D2025640A006D6B5F696E7465727661C7
:100910006C203D2025640A006D6B5F64656C617915
:10092000203D2025640A006D6B5F776865656C5F0C
:1009300074696D655F746F5F6D6178203D2025641B
:100940000A006D6B5F776865656C5F6D61785F73DA
:1009500070656564203D2025640A006D6B5F7469D5
:100960006D655F746F5F6D6178203D2025640A00BE
:100970006D6B5F6D61785F7370656564203D2025E8
:10098000640A006D6B5F696E74657276616C203D00
:100990002025640A006D6B5F64656C6179203D20E1
:1009A00025640A000A00257500363A2077686565D7
:1009B0006C5F74696D655F746F5F6D61783A20007C
:1009C0000A00257500353A20776865656C5F6D61B2
:1009D000785F73706565643A20000A0025750034FD
:1009E0003A2074696D655F746F5F6D61783A2000BD
:1009F0000A00257500333A206D61785F7370656574
:100A0000643A20000A00257500323A20696E746548
:100A10007276616C286D73293A20000A00257500F2
:100A2000313A2064656C6179282A31306D73293A36
:100A300020000A092D2056616C756573202D0A006F
:100A40004D3E004D25643E20003F007365742064D8
:100A5000656661756C740A00433E200077686572B4
:100A6000652064656C74613A20637572736F723DC2
:100A700025642C20776865656C3D25640A5365659F
:100A800020687474703A2F2F656E2E77696B6970C9
:100A9000656469612E6F72672F77696B692F4D6F7F
:100AA0007573655F6B6579730A000A092D204D6FB8
:100AB0007573656B6579202D0A4553432F713A098B
:100AC000717569740A313A0964656C6179282A3153
:100AD000306D73290A323A09696E74657276616CF9
:100AE000286D73290A333A096D61785F7370656503
:100AF000640A343A0974696D655F746F5F6D61787B
:100B00000A353A09776865656C5F6D61785F737067
:100B10006565640A363A09776865656C5F74696D66
:100B2000655F746F5F6D61780A0A703A0970726967
:100B30006E742076616C7565730A643A0973657426
:100B40002064656661756C74730A75703A092B319F
:100B50000A646F776E3A092D310A706775703A0929
:100B60002B31300A7067646F776E3A092D31300A85
:100B70000A7370656564203D2064656C7461202A89
:100B8000206D61785F7370656564202A2028726526
:100B900070656174202F2074696D655F746F5F6D7F
:100BA0006178290A003F004D3E2000433E20004C62
:100BB00025640A000A092D20436F6E736F6C65204F
:100BC0002D0A4553432F713A09717569740A6D3ABC
:100BD000096D6F7573656B65790A000A092D204DE3
:100BE00061676963202D0A643A0964656275670A62
:100BF000783A096465627567206D61747269780A74
:100C00006B3A096465627567206B6579626F617222
:100C1000640A6D3A096465627567206D6F75736566
:100C20000A763A0976657273696F6E0A733A0973C8
:100C300074617475730A633A09636F6E736F6C65E0
:100C4000206D6F64650A302D343A096C61796572E4
:100C5000302D34284631302D4634290A50617573C1
:100C60003A09626F6F746C6F616465720A6E3A095B
:100C70004E4B524F0A003F004E4B524F3A206F6688
:100C8000660A004E4B524F3A206F6E0A0074696D2F
:100C900065725F72656164333228293A20253034E9
:100CA0006C580A006B6579626F6172645F6E6B727B
:100CB0006F3A2025580A006B6579626F6172645F34
:100CC00069646C653A2025580A006B6579626F612A
:100CD00072645F70726F746F636F6C3A2025580A8C
:100CE00000686F73745F6B6579626F6172645F6CCB
:100CF00065647328293A2025580A000A092D2053D3
:100D00007461747573202D0A004743433A203130D3
:100D10002E322E30204156522D4C4942433A203239
:100D20002E302E30204156525F415243483A2061C6
:100D30007672350A004F5054494F4E533A204C5565
:100D40004641204D4F5553454B4559204558545227
:100D5000414B455920434F4E534F4C4520434F4D37
:100D60004D414E44204E4B524F204B45594D415022
:100D70005F53454354494F4E20424F4F544C4F41CF
:100D80004445525F53495A450A004255494C443A3A
:100D900020623662653730382B202832313A3037BE
:100DA0003A3038204D6172202039203230323129DA
:100DB0000A005649443A2030784645454428742E66
:100DC0006D2E6B2E29205049443A203078316265CF
:100DD00065285A656E697468206B6579626F617207
:100DE0006420636F6E766572746572292056455271
:100DF0003A203078303030310A00444553433A20AD
:100E0000636F6E76657274205A656E697468206BC4
:100E10006579626F61726420746F205553420A00D5
:100E20000A092D2056657273696F6E202D0A000A1B
:100E30006D6F7573653A206F66660A000A6D6F758F
:100E400073653A206F6E0A000A6B6579626F617292
:100E5000643A206F66660A000A6B6579626F617298
:100E6000643A206F6E0A000A6D61747269783A20E4
:100E70006F66660A000A6D61747269783A206F6E57
:100E80000A000A64656275673A206F6E0A000A6498
:100E9000656275673A206F66660A000A0A626F6FBC
:100EA000746C6F616465722E2E2E2000433E20000C
:100EB0008C0D880DA00DA00DA00DA00DA00DA00DF6
:100EC0008E0D8A0D9C0DA00DA00D880DA20DA00DFC
:100ED000A00D600D8C0DA00DA00D8A0DA00DA00D14
:100EE000A00DA00DA00DA00D9C0D8C0D820DA00DD0
:100EF000860DA00DA00DA00D620D8E0DA00DA00DF4
:100F0000960DA00DA00DA00D640D900DA00D840DEB
:100F1000A00D880DA00DA00D9A0D920DA00D940DA1
:100F20008A0DA00DA00DA00D980DA30DA00DA00D74
:100F3000A00DA00DA00DA00DA00DA30DA00D660D80
:100F4000A00DA00D8E0DA00DA00D900DA00DA00D5B
:100F5000A00DA00DA00DA00DA00DA00DA00D680D61
:100F6000A00DA00DA00D960DA00DA00DA00DA00D23
:100F7000A00DA00DA00DA00DA00DA00D6A0DA00D3F
:100F80006C0D6E0DA00DA00DA00D700D720D740DE9
:100F9000A00D760D780DA00DA00DA00D9E0D7A0D63
:100FA000A00D7E0D7C0D800DA00DA00DA00DA00D3F
:100FB000900DC70DD50DE10DE10DB90DE10DE10D60
:100FC000E10DE10DE10DE10DE10DE10DE10DE10DB1
:100FD000E10DE10DE10DBB0DE10DBD0DE10DE10DEB
:100FE000E10DE10DD90DE10DEE0DD70DE10DE10D96
:100FF000E10DE10DE10DE10DE10DE10DE10DE10D81
:10100000E10DE10DE10DAF0DCD0DBF0DD10DE10DE8
:10101000C10DE10DC50DE10DCF0DC30DD30DC90DF2
:10102000CB0DE10DE10DE10DE10DE10DE10DE10D66
:10103000B30DB50DB70DDB0DDD0DE10DE10DE10DCE
:10104000DF0D0E0F300F3D0F640F720F7D0F970FE6
:10105000AD0FD00FED0F8210A7102911681151119B
:101060007B118B11931197119C11A111DF11E511C7
:10107000E711E911EB11F311F311F311ED11EF1178
:10108000F111CA11CC11CE11D011D211DA11DA112D
:10109000DA11D411D611D811BD17E517CD18E517FF
:1010A000CD1818183918CD188F189B18541D541DB9
:1010B000921D921D1B1E531E431D431D6D1E431D7D
:1010C0008F1F8F1F5220431D6A208C206F2D812D72
:1010D0004D2D4D2D4D2D6A2D4D2D4D2DA72D4D2DC9
:1010E000B72D1F2E4D2D4D2D4D2D4D2DDE2D4D2D62
:1010F0004D2DC72D4D2D972D4D2D4D2D372E372E86
:10110000372E372E372E372E372E372E372E332EBB
:101110004D2D332E11241FBECFEFDAE0DEBFCDBF41
:1011200004B603FE41C08091C2039091C303A09115
:10113000C403B091C5038730904BA740B04BA1F5D5
:101140001092C2031092C3031092C4031092C503FD
:1011500014BE0FB6F894A8958091600088618093C2
:101160006000109260000FBE1092010810920008FB
:1011700089E0E3E0F0E080935700E491E695E370C6
:10118000E15080E090E1E33040F4F0E0EE0FFF1F2B
:10119000ED5AFE4F8081918100C0E0E0F0E8E81B4D
:1011A000F90BF695E795099511E0A0E0B1E0E8EDBF
:1011B000F1E602C005900D92A436B107D9F723E0FD
:1011C000A4E6B1E001C01D92A23CB207E1F70E9483
:1011D000DC140C94EA300C940000FF93EF93E09140
:1011E0006401F0916501309709F00995EF91FF9145
:1011F0000895FC018591803011F0EFDFFBCF089559
:10120000FF27E0E230E247FF0CC0419597FF09C09D
:10121000EDE26095709580959095611D711D811D21
:10122000911D27FF02C0219530E350E2AA27660FE7
:10123000771F881F991FAA1FA41710F0A41B63957E
:101240005A95A9F7AA3008F0A95FA05DAF93F3956E
:10125000611571058105910541F7ED3211F4EF93A8
:10126000F395F21718F43F93F395FBCF8F91B5DF09
:10127000FA95E1F70895E991F9918591803021F08F
:10128000853219F0AADFF9CF089520E0E89455914E
:101290005532C1F3503311F4689455915A3348F4E0
:1012A000505390F3220F022E220F220F200D250FF4
:1012B000F4CF0EF4219589919991533619F3533750
:1012C00029F1533559F1BC0188279927E8945C36F8
:1012D00021F48991999168945591543639F446EFE7
:1012E0007EF077FF0DC08FEF9FEF0AC055374AE0C1
:1012F00039F0583540E121F0523642E009F00895C6
:10130000FF93EF937DDFEF91FF91B7CFFF93EF93C3
:10131000FC0181918030B9F360DFFBCFFF93EF9345
:1013200068DFF1CFDF93CF93CDB7DEB72596A3DF8C
:10133000CF91DF910895282F80917101823091F033
:101340008330C9F0813059F448E0749FF0011124D2
:10135000E60FF11DEE5FFB4FE491E038A9F480E069
:1013600090E0089588E0789FF0011124E60FF11DC8
:10137000EE57FC4FF1CF48E0749FF0011124E60FC7
:10138000F11DEE5FFC4FE8CF8E2F90E034E0959595
:1013900087953A95E1F78770992748E0249F900157
:1013A0001124820F931F44E0880F991F4A95E1F79B
:1013B000EF70E80FF92FF11DEE0FFF1FE050F84915
:1013C000859194910895FC01633031F148F46130C6
:1013D000B9F06230D9F0662369F090E080E00895BA
:1013E000643001F16530C9F782818823B1F38CEA5A
:1013F00090E008958281882381F38BEA91E008953B
:101400008281882351F380E391E0089582818823CB
:1014100021F385E191E0089582818823F1F28AEE3B
:1014200090E0089582818823C1F28BEC90E00895CA
:101430005998519A08955198599A08955898509AE0
:1014400008955098589A08955198599A85E08A9528
:10145000F1F7000089B18695817008955098589AE7
:1014600085E08A95F1F7000089B181700895CF93E6
:10147000DF93EC010E94240A882311F0209721F4C5
:10148000CE01DF91CF91089585E08A95F1F70000B4
:101490002197F0CFCF93DF93C2E3D0E00E94240ADC
:1014A000811102C0209721F4CE01DF91CF910895E0
:1014B00085E08A95F1F700002197F0CF2E982698C5
:1014C0002F9827980E94180A0E94210AE9E6F0E066
:1014D000808188608083E9980895E19AE99A0E9462
:1014E0001B0A0C94210AE9980E94180A0C94210AFC
:1014F0000F931F93CF93DF932FB7F894C0910201FE
:10150000D0910301CE01882781159F4F01F180E022
:101510009FEF8C2B9D2B90930301809302012FBF93
:10152000CE0199278F3F9105A1F5CD2FDD27C03F33
:10153000D10581F0CF3FD10549F18091B203C0348C
:10154000D105B1F480FF12C088E994E009C08FEFA3
:1015500090E0DFCF8091B20380FF08C080EA94E082
:101560009F938F930E9492090F900F90CFEF26C008
:1015700080FF0CC0DF93CF9381E994E09F938F931A
:101580000E9492090F900F900F900F900FEF1FEF96
:1015900027C0CE018F6F019689F08091B20380FF42
:1015A0000CC0DF93CF9389E894E09F938F930E94C0
:1015B00092090F900F900F900F90CD2F0C2F10E0ED
:1015C0008091B20380FF0CC01F92CF9382E894E019
:1015D0009F938F930E9492090F900F900F900F90FE
:1015E000C801DF91CF911F910F910895CF93CAE168
:1015F000C15071F00E94780A8F3F980711F0CF9187
:1016000008958FE99FE00197F1F700C00000F0CF47
:101610008FEF9FEFF4CF10926A0110926901109240
:1016200068011092670180E090E890930101809337
:1016300000018FEF9FEF90930301809302010895C3
:10164000EF92FF920F931F93CF93DF93C82F1092C7
:1016500067018091B20380FF0CC01F92CF9386EA8E
:1016600094E09F938F930E9492090F900F900F9098
:101670000F90E9980E94180A0E94210A8FE891E0D1
:101680000197F1F700C000000E941E0A8FE891E068
:101690000197F1F700C000000E941B0A80E197E269
:1016A0000E94370A892BB9F481E080936701809109
:1016B00067018061809367010E941B0A0E94210AD2
:1016C000E19AE99A8FEF9FEFDF91CF911F910F91F0
:1016D000FF90EF90089510E000E0FF24F394D0E035
:1016E000EE24E39490E59A95F1F7CE01002E02C026
:1016F000959587950A94E2F780FF09C0FE240E9421
:10170000210A0E944A0A892B29F482E0CECF0E9446
:101710001E0AF7CF82E390E00E94370A892B11F46A
:1017200083E0C3CF0F5F1F4F08301105D9F680E566
:101730008A95F1F7FF2041F00E94210A0E944A0A8F
:10174000892B29F484E0B1CF0E941E0AF7CF82E3EF
:1017500090E00E94370A892B11F485E0A6CF90E52E
:101760009A95F1F70E94210A0E944A0A892B11F4E6
:1017700086E09BCF80916801813181F182E390E026
:101780000E94370AC2E3D0E0892B39F487E08DCF7D
:1017900085E08A95F1F7000021970E942E0A8823A0
:1017A00021F02097A9F788E080CFCD2BE1F30E94AC
:1017B0004A0AC2E3D0E0892B39F489E076CF95E07C
:1017C0009A95F1F7000021970E942E0A811104C01A
:1017D0002097A9F78AE069CFCD2BE1F38FEF9FEF38
:1017E00090930301809302010E940B0B0E941B0A3D
:1017F0000E94210AE19AE99ADF91CF911F910F91FE
:10180000FF90EF900C94F60A1F921FB61F921124BE
:101810002F933F934F938F939F9399B191708091A2
:10182000B303209100013091010121153048D9F511
:101830008093660120910001309101013695279532
:101840003093010120930001992349F08091000118
:101850009091010190689093010180930001209183
:10186000000130910101C9019927203A09F4E5C02E
:10187000813A910508F061C08034910509F49FC058
:1018800098F54097D9F12F7D33272115310509F4BB
:1018900096C0809100019091010190936A0180931C
:1018A000690180E80EC020916601821B833010F22E
:1018B000809100019091010190936A0180936901E8
:1018C00080E2809367018091670190E0982F8827DC
:1018D0008F6F909303018093020180E090E89093D2
:1018E0000101809300016BC08038910509F467C045
:1018F0008039910519F08035910559F680910001E4
:101900009091010190936A01809369018091000197
:101910009091010197FF9CC080E1809368018091C4
:1019200000019091010146E0969587954A95E1F76F
:1019300090930101809300012FC0803D9105F1F249
:10194000803E910509F444C0803C910509F0A1CF87
:1019500084E605C095E09A95F1F700008150499919
:1019600002C08111F7CF499B28C0811120C080910E
:1019700000019091010190936A0180936901809127
:10198000000190910101892F992790930101809383
:10199000000182E280936801809100019091010131
:1019A00099278F3F910509F055C080EF8ACF45E018
:1019B0004A95F1F700008150D6CF8823C1F29F915C
:1019C0008F914F913F912F911F901FBE1F9018959F
:1019D000809100019091010190936A0180936901C7
:1019E0008091000190910101892F99279093010125
:1019F0008093000183E2CECF95E09A95F1F7000045
:101A00008150499902C08111F7CF499B1EC08111B5
:101A100016C0809100019091010190936A0180931A
:101A200069018091000190910101892F992790937C
:101A300001018093000181E2ADCF84E6E2CF45E071
:101A40004A95F1F700008150E0CF8111B8CFE1CF86
:101A500081E163CF809103018F3F31F080910201DA
:101A60008F3F11F080E42DCF80910201909103010E
:101A7000982F882790930301809302012091000101
:101A8000309101018091020190910301822B21CFBD
:101A9000CF93C82F8DEE0E94200B8A3F910521F431
:101AA0008C2FCF910C94200BCF910895EDEFE80F80
:101AB000E13808F045C0F0E0E85AF84F0C94D03017
:101AC00087E108958FE108958CE5089580E60895F3
:101AD00082E6089587E2089583E508958FE20895E8
:101AE00089E3089587E308958FE3089587E40895CF
:101AF0008FE4089586E508958EE508958FE70895AB
:101B000080E0089585E608958EE608958FE60895AD
:101B100088E0089580E1089588E1089580E20895BD
:101B200088E2089580E3089588E3089580E50895A4
:101B300087E508958FE5089589E108958DE6089574
:101B40008F7708958FE00895CF93C82FE4EEE80FC4
:101B5000E834B8F5F0E0E752F84F0C94D030C5E522
:101B60008C2FCF910895CAE5FBCFCBE5F9CFCCE51B
:101B7000F7CFCDE5F5CFCEE5F3CFCFE5F1CFC0E69A
:101B8000EFCFC1E6EDCFC2E6EBCFC3E6E9CFCFE6BC
:101B9000E7CFC1E7E5CFC2E7E3CFC4E7E1CFC5E7D1
:101BA000DFCFC7E7DDCFC8E7DBCFCAE7D9CFCCE7C8
:101BB000D7CFCFE7D5CFC0E7D3CFC9E7D1CFCBE7DA
:101BC000CFCF1F92CF9381EF94E09F938F930E948A
:101BD00092090F900F900F900F90C2CFC4E5C0CF25
:101BE0000F931F93CF93DF930E9460288C010E9474
:101BF000780AEC01019631F4C8010E948C28843FD8
:101C00009140A8F3CE01DF91CF911F910F910895DC
:101C10000E945E0A0C946D0A8091B20381608093E9
:101C2000B203E5E7F1E080E1DF011D928A95E9F773
:101C30000895E82FF0E0EB58FE4F208130E081E07E
:101C400090E002C0880F991F6A95E2F72823392394
:101C500081E0232B09F480E00895CF93DF93E82FF0
:101C6000D82FD770E695E695E695CE2FCF706D2FDD
:101C70008C2F0E94190E81110DC0EC2FF0E0EB5853
:101C8000FE4F21E030E001C0220FDA95EAF78081B3
:101C9000822B8083DF91CF910895CF93DF93E82F3C
:101CA000D82FD770E695E695E695CE2FCF706D2F9D
:101CB0008C2F0E94190E882371F0EC2FF0E0EB5866
:101CC000FE4F81E090E001C0880FDA95EAF7809539
:101CD000908189238083DF91CF910895E82FF0E0F0
:101CE000EB58FE4F80810895E5E7F1E080E1DF01E8
:101CF0001D928A95E9F70895982F8091710182309D
:101D000048F092FB882780F990FD826091FD846005
:101D10000C94480D0895CF93DF9380916701882339
:101D200071F18091690190916A01209167019F93FF
:101D30008F931F922F938BE795E09F938F930E9431
:101D400092098091670180750F900F900F900F900E
:101D50000F900F9071F4809170018B3051F484E7F3
:101D600095E09F938F930E949209109270010F90BB
:101D70000F901092670110926A0110926901809190
:101D80006801882309F440C0909168018091740132
:101D90009817D1F18091690190916A0120916801B1
:101DA0009F938F931F922F9380E695E09F938F933D
:101DB0000E949209809174010F900F900F900F90E4
:101DC0000F900F9085FF04C09091680194FD06C0AC
:101DD00084FF12C08091680185FF0EC08091700160
:101DE0008B3051F489E595E09F938F930E9492097F
:101DF000109270010F900F90809168018093740190
:101E000010926A0110926901E0917001EC3008F0C3
:101E100055C0F0E0EF5DF74F0C94D0300E94730A8C
:101E20000E9460289F938F9384E595E09F938F9302
:101E30000E94920910927101109273011092720126
:101E4000109274010E94740E0E94141D0E9460285A
:101E500090936F0180936E0181E0809370012AC09E
:101E600080916E0190916F010E948C28893E934071
:101E700028F182E08093700121C00E940B0B0E9428
:101E80006D0A8FE99FE00197F1F700C000008FEF26
:101E90000E94200B8A3F9105A9F486E0809370018F
:101EA0000E9460289F938F938FE495E09F938F9378
:101EB0000E9492090F900F900F900F9081E0DF9198
:101EC000CF91089583E0EACF0E94730A2E98269A54
:101ED0002F98279A0E94602890936F0180936E013B
:101EE00084E0C8CF80916E0190916F010E948C2890
:101EF000853F914018F385E0BDCF2E9826982F9806
:101F000027980E940B0B0E946D0A0E9460289F93E5
:101F10008F938AE495E09F938F930E9492090E9489
:101F2000602890936F0180936E0186E096CF0E94A7
:101F3000780A019619F20E9460289F938F9385E496
:101F400095E09F938F930E9492090E94602890933E
:101F50006F0180936E0187E080CF80916E01909138
:101F60006F010E948C28853F914018F089E0809392
:101F700070010E94780A019609F4A0CF0E9460289F
:101F80009F938F9380E495E09F938F930E94920993
:101F90000E94602890936F0180936E0188E05DCF6E
:101FA00080916E0190916F010E948C28853F914035
:101FB00018F089E0809370010E94780A019609F474
:101FC0007DCF0E9460289F938F938BE395E09F9332
:101FD0008F930E94920989E040CF80916801CDEFF4
:101FE000DFEF8131C9F082EF0E94200B9C01CFEF1F
:101FF000DFEF2F3F320781F0CEEFDFEF2A3F3105D1
:1020000059F40E94F00DEC01CF3FDC0709F1DC2F01
:10201000CC270E94F00DC82BD0937301C09372019E
:102020000E9460289F938F9386E395E09F938F9300
:102030000E94920980917201909173010F900F900C
:102040000F900F90009739F482E0809371011FC0C8
:10205000D0E0C0E0E1CF8F3F980711F481E0F5CFE9
:102060008E3F2FEF920781F38D3F2FEF920711F4F0
:1020700084E0EBCF8F3F910571F580E295E09F936F
:102080008F930E949209109271010F900F9080918E
:102090007101813059F1823061F1833069F184300E
:1020A00071F185E391E09F938F93809173018F93FA
:1020B000809172018F9382E195E09F938F930E94AC
:1020C00092098AE0809370010F900F900F900F900B
:1020D0000F900F90F3CE803B2FEB920711F483E02B
:1020E000B4CF882781159F4BD1F3AECF89E291E021
:1020F000DACF86E291E0D7CF8CE291E0D4CF8EE1C7
:1021000091E0D1CF0E9460289F938F938DE095E05E
:102110009F938F930E949209809171010F900F906D
:102120000F900F90823081F1833059F18BE08093D2
:1021300070010E9460289F938F9388E095E09F93A1
:102140008F930E9492090F900F900F900F900E9412
:10215000780A9C012F3F320709F4B0CE21153105D2
:1021600019F02F3F3105A9F40E94740E0E94141D2E
:1021700080E095E09F938F930E9492090F900F90BB
:102180009DCE88EF0E94200B0E944F1A0E947C0E69
:10219000CDCF90917101933009F4D8C078F491308B
:1021A00081F0923009F08ACEE0916C01E93008F0BC
:1021B0007EC0F0E0E35DF74F0C94D0309430A1F393
:1021C0007DCE90916D019230A1F158F491111AC019
:1021D000803E71F0813E81F087FD10C00E942D0E7F
:1021E0006DCE933071F1943081F110926D0166CE15
:1021F00081E080936D0162CE82E0FBCF8F770E94F9
:102200004D0E5CCE8A3A89F358F48A3271F38633E4
:1022100061F387FD08C00E94A40D0E942D0EE5CF3A
:10222000863BB9F7E2CF8F770E94A40D0E944D0E36
:10223000DCCF8D3121F08D39C1F684E0DACF83E037
:10224000D8CF853491F685E5E8CF853C71F685E5F4
:10225000EDCF803ED1F098F48338E9F08438F9F07E
:1022600087FFBCCF0E94740E85EE94E09F938F93FE
:102270000E9492090F900F90109270011FCE813E24
:1022800041F0803F69F781E001C082E080936C01FA
:1022900015CE84E0FBCF82E00E942D0E08C08FE7B0
:1022A000FBCF893521F0803F29F0823129F410924B
:1022B0006C0104CE83E0EACF10926C0187FD03C06D
:1022C0000E94560D8BCF0E94740E8BED94E0CECF02
:1022D000833859F0843869F010926C0187FF8FCFF2
:1022E0000E94740E81ED94E0C1CF82E00E944D0EF9
:1022F000DECF8FE7FBCF8231D1F28935C1F2109268
:102300006C0187FD03C00E94560D79CF0E94740EA8
:1023100084EC94E0ABCF843121F0803F41F686E03D
:10232000B5CF85E0B3CF873711F680E0B5CF8431E4
:1023300009F0BDCF87E0AACF803F09F0B8CF88E091
:10234000A5CF873709F0B3CF80E0D0CF90916B0154
:10235000992369F0913009F0B1CDEDE7E80FEB304A
:1023600008F041C0F0E0EA5CF74F0C94D0308E38B2
:1023700058F48338F8F0EDE7E80FEB30D8F4F0E0EC
:10238000EF5BF74F0C94D030803FA1F481E0809355
:102390006B0194CD82E022CF8FE720CF8BE01ECF60
:1023A00086E01CCF80E01ACF81E018CF89E016CFFD
:1023B0008AE014CF87FF12CF87EB94E057CF82E0FB
:1023C0000E944D0E10926B0179CD8FE7F9CF8BE013
:1023D000F7CF86E0F5CF80E0F3CF81E0F1CF89E061
:1023E000EFCF8AE0EDCF10926B0187FF08CF8DEA27
:1023F00094E03CCF8091A9020895CF93DF9300D061
:102400000F92CDB7DEB72091AE02243019F523E04C
:1024100029838A839B832093E9008FEF9091E800C2
:10242000815095FD06C095ED9A95F1F70000811158
:10243000F5CF8091E80085FF0DC050E040E063E0FB
:1024400070E0CE0101960E948E168091E8008E7792
:102450008093E8000F900F900F90DF91CF91089537
:10246000CF93DF9300D00F92CDB7DEB79C01809160
:10247000AE02843031F582E08983205831093B83F4
:102480002A8383E08093E9008FEF9091E8008150E8
:1024900095FD06C095ED9A95F1F700008111F5CFF5
:1024A0008091E80085FF0DC050E040E063E070E0FF
:1024B000CE0101960E948E168091E8008E7780935F
:1024C000E8000F900F900F90DF91CF910895209129
:1024D000AE022430F1F422E02093E9002FEF309196
:1024E000E800215035FD06C035ED3A95F1F70000C2
:1024F0002111F5CF2091E80025FF0BC050E040E00E
:1025000065E070E00E948E168091E8008E778093DF
:10251000E8000895CF93DF93D82FC92F8091AE02A2
:102520008430D1F4809114018823F1F08091150159
:102530008823D1F085E08093E90081E8815021F083
:102540009091E80095FF0BC08091E80050E040E0DA
:1025500060E270E085FD1AC0DF91CF9108959AE2A4
:102560009A95F1F700C0EACF81E08093E90081E815
:10257000815021F09091E80095FF1BC08091E80008
:1025800085FFEACF50E040E068E070E08D2F9C2F9F
:102590000E948E168091E8008E778093E80080E29A
:1025A000ED2FFC2FA9E8B2E001900D928A95E1F79A
:1025B000D3CFEFE3F1E03197F1F700C00000D8CFBF
:1025C000CF93DF9300D000D00F92CDB7DEB720912C
:1025D00087012D8321110CC00E946C28643C794036
:1025E0008105910528F081E080938701B1E0BD83EA
:1025F0008D810F900F900F900F900F90DF91CF91E2
:102600000895FF920F931F93CF93DF93D82F0FB6A8
:1026100007FE48C08091AE02843071F080910701BE
:1026200090E001962091090130E0822393232091CC
:10263000080128171906B1F50E94E01281110FC098
:102640002091070130E02F5F3F4F8091090190E01A
:1026500028233923809108018217130619F50E9457
:1026600060288C01C091E900CF709091EC00892F17
:10267000817090FD80E8C82B84E08093E90085E0BC
:10268000F82E8091EB0085FD0AC09091EB00892F18
:10269000817090FF04C09091EE0097FD43C0CF7011
:1026A000C093E9008091070190E09C012F5F3F4FAC
:1026B0004091090150E0242335234091080142173D
:1026C000130609F47CC02091050130910601820FA8
:1026D000931FFC01D083809107018F5F90910901C6
:1026E0008923809307016BC0E0910501F0910601F9
:1026F000E90FF11D20819F5F309109019323909391
:1027000008012093F1009091E80095FD0BC0909195
:10271000E80090FF07C09091E8009E779093E80052
:10272000F092040190910801209107013091E80096
:10273000291731F135FDD8CF80E026C01092F10085
:102740002EC030E02F5F3F4F4091090150E024231D
:1027500035239217130609F0A2CF80910401882334
:1027600009F49DCF0E9460289C018017910709F40D
:1027700088CF80910401815080930401890181CF29
:1027800035FFDACFD093F1003091F3004091F200A1
:10279000532F452B79F03091E80030FF0BC030917A
:1027A000E80035FDCBCF3091E8003E773093E8006C
:1027B000F0920401882329F2CF70C093E90080E0F1
:1027C000DF91CF911F910F91FF9008958091B702F3
:1027D000811104C00E94E5180C94421908951092CA
:1027E000B70208951092B702089542E061EC81E0CB
:1027F0000E940A1642E061EC82E00E940A1642E062
:1028000061EC83E00E940A1642E261EC84E00E94DF
:102810000A1642E261EC85E00C940A168091B0023F
:10282000893081F148F4823009F492C0833009F490
:102830004DC0813041F008958A3009F479C08B3061
:1028400009F45FC008958091AF02813AF1F580915B
:10285000E800877F8093E8008091B3029091B402F2
:10286000892B61F460E289E892E070E00E94DF1653
:102870008091E8008B778093E800089560E090E015
:1028800080E0F3CF8091AF028132F9F48091B302FE
:102890009091B4028B7F892BC1F48091E800877FEF
:1028A0008093E8008091E80082FF0BC08091F100E6
:1028B0008093A9028091E8008B778093E8000C94C4
:1028C0003E168091AE028111EDCF08958091AF0246
:1028D000813AD9F78091B3029091B402892BA9F77C
:1028E0008091E800877F8093E8008091E80080FF76
:1028F000FCCF809114018093F1008091E8008E77E5
:10290000DCCF8091AF02813201F78091B3029091C8
:10291000B402892BD1F68091E800877F8093E8008C
:102920000E943E168091B102809314010C94141DF4
:102930008091AF02813249F68091E800877F8093D1
:10294000E8000E943E168091B2028093AA02089588
:102950008091AF02813A09F0B8CF8091E800877F7B
:102960008093E8008091E80080FFFCCF8091AA026C
:10297000C2CF08958091A902809388011092A90284
:102980000E94740E0C94141D0C94BA140E940F280B
:102990008091AB02882329F00E941C2881110C949D
:1029A000F41508950E943028809188018093A9022F
:1029B00008950C94D214089584B7877F84BF0FB60E
:1029C000F894A895809160008861809360001092CF
:1029D00060000FBE80E890E00FB6F894809361002D
:1029E000909361000FBE81E093E10E94E0278AE0AE
:1029F00091E00E944A1A83EB95E00E94F9080E9438
:102A0000080E0E940A1B0E94E5180E944219789441
:102A10000E940C1B8091AE02843009F046C081EA0E
:102A200095E00E94F9080E94B9148FE895E00E9491
:102A3000F908C4E08091AE028530E1F10E94101BDC
:102A40002091E4003091E50080918501909186010C
:102A50002817390739F18091E4009091E5009093AF
:102A60008601809385010E94E0128823D9F080912D
:102A7000AE028430B9F49091E9009F702091EC008F
:102A8000822F817020FD80E8892BC093E90090910E
:102A9000EB0090FF04C09091EE0097FD2AC08F706C
:102AA0008093E9000E942F1AC5CF0E942F1A0E941E
:102AB000DB14B0CF0E94C614BDCFE0910501F091A8
:102AC0000601E90FF11D20819F5F309109019323D9
:102AD000909308012093F1009091E80095FD09C0C2
:102AE0009091E80090FF05C09091E8009E77909348
:102AF000E8009091080120910701291721F0209109
:102B0000E80025FDDACF9091F3002091F200392FF3
:102B1000232B29F29091E80090FFC1CF9091E8001B
:102B200095FD06C09091E8009E779093E800B7CF9E
:102B30001092F100F3CFFC01CB01DA012F2F3327E4
:102B400023303105D1F070F42130310509F447C04C
:102B50002230310569F48DE890E023E136E02D93D1
:102B60003C93089521323105E9F02232310539F1E3
:102B700090E080E030E020E0F2CFCF019927E13013
:102B800059F08230910559F0EFE0F6E0892B81F79A
:102B9000849190E09F01E3CFEFEFF5E0F9CFE9EC0E
:102BA000F5E0F6CF6530710518F7880F991FFC0125
:102BB000E75BFE4F2081318189E090E0D0CF653026
:102BC0007105B0F6FB01EE0FFF1FE15CFE4F2081A7
:102BD0003181865C9E4FFC01808190E0C0CF82E114
:102BE00090E020EA36E0BBCF80E189BD82E189BD7B
:102BF00009B400FEFDCF8091D8008F7D8093D8006E
:102C00008091E00082608093E0008091E00081FD8F
:102C1000FCCF0895982F973028F08F708093E900AB
:102C200081E008959093E900242F762F50E09817C3
:102C300031F07091EC002091ED005091F00021FDF9
:102C400002C09F5FE8CF3091EB003E7F3093EB00F6
:102C50003091ED003D7F3093ED003091EB0031601D
:102C60003093EB007093EC002093ED005093F00054
:102C70002091EE0027FDE5CF80E008958091AF021E
:102C800087FF13C08091E80082FF06C08091E800B2
:102C90008B778093E80004C08091AE028111F2CF5F
:102CA00008958091AE028823D9F38091E80080FFD7
:102CB000F8CF8091E8008E77ECCF2091E40030913E
:102CC000E50095E6A9012091EC00822F817020FF9C
:102CD00006C08091E80080FF06C080E00895209142
:102CE000E80022FD1AC08091AE02882389F0853069
:102CF00089F08091EB0085FD0FC02091E4003091B8
:102D0000E50042175307F9F29150E1F684E0089587
:102D100082E0089583E0089581E00895AF92BF9224
:102D2000CF92DF92FF920F931F93CF93DF936C01AB
:102D3000EB018A010E945D16F82E811125C0011554
:102D4000110539F0F80180819181C81BD90BC80E9B
:102D5000D91EB12CA12C2097B9F08091E80085FDF7
:102D600024C08091E8008E778093E8000E942F1A9B
:102D700001151105A1F0F80180819181A80EB91EFD
:102D8000B182A08285E0F82E8F2DDF91CF911F9127
:102D90000F91FF90DF90CF90BF90AF9008950E9469
:102DA0005D168823C1F2F82EEFCFF60181916F01F5
:102DB0008093F1002197FFEFAF1ABF0ACCCFFC013F
:102DC000CB012091B5023091B6022617370790F05B
:102DD000009729F42091E8002E772093E80040E046
:102DE000009751F4411108C08091E80082FF31C082
:102DF00080E00895C901F3CF2091AE022223A9F10A
:102E00002530A9F12091E80023FD2DC02091E80094
:102E100022FDEACF2091E80020FFE2CF3091F300BD
:102E20002091F200009719F02830310558F041E068
:102E30002830310509F040E02091E8002E772093FA
:102E4000E800CECF41914093F10001972F5F3F4FB3
:102E5000E9CF8091AE02882341F0853041F0809126
:102E6000E80083FFC1CF81E0089582E0089583E008
:102E70000895FC01CB012091B5023091B6022617CE
:102E8000370790F0009729F42091E8002E772093DF
:102E9000E80040E0009751F4411108C08091E8003B
:102EA00082FF32C080E00895C901F3CF2091AE02C5
:102EB0002223B1F12530B1F12091E80023FD2EC08D
:102EC0002091E80022FDEACF2091E80020FFE2CF28
:102ED0003091F3002091F200009719F0283031056D
:102EE00058F041E02830310509F040E02091E80039
:102EF0002E772093E800CECF44914093F100319695
:102F000001972F5F3F4FE8CF8091AE02882341F0B9
:102F1000853041F08091E80083FFC0CF81E00895C3
:102F200082E0089583E008951F93CF93DF93CDB798
:102F3000DEB7AA970FB6F894DEBF0FBECDBF8FEAFB
:102F400092E0FC0101962091F100208322E0873B72
:102F50009207B9F70E940E148091E80083FF1DC10B
:102F60008091AF029091B0029A3008F016C1E92F1B
:102F7000F0E0E45BF74F0C94D030803899F0823861
:102F800009F00BC18091B3028F70873008F005C142
:102F90008093E9008091EB0085FB882780F91092EF
:102FA000E90006C08091AC029091AB029111826061
:102FB0009091E800977F9093E8008093F100109241
:102FC000F1008091E8008E77E4C0882309F4D2C034
:102FD000823009F0E2C08091B1028111D5C08091A8
:102FE000B3028F702FEF280F263008F0D6C08093E1
:102FF000E9002091EB0020FFC7C0933031F48091AD
:10300000EB0080628093EB00BFC09091EB00906179
:103010009093EB0021E030E001C0220F8A95EAF79F
:103020002093EA001092EA008091EB008860EACFDA
:103030008111B3C01091B1021F778091E3008078B5
:10304000812B8093E3008091E800877F8093E800E4
:103050000E943E168091E80080FFFCCF8091E30043
:1030600080688093E30082E0111183E08093AE02D8
:1030700094C08058823008F090C08091B102909145
:10308000B2028C3D23E0920799F583E08A838AE2BD
:1030900089834FB7F894DE01139620E03EE051E2B9
:1030A000E32FF0E050935700849120FF03C08295F6
:1030B0008F703F5F8F708A30C8F0895C90E08D938D
:1030C0009D932F5F243161F74FBF8091E800877F88
:1030D0008093E8006AE270E0CE0101960E94DF165C
:1030E0008091E8008B778093E80057C0805DE6CF41
:1030F0006091B3027091B402AE014F5F5F4F0E94C6
:103100009B15BC01892B09F448C08091E800877F9A
:103110008093E80089819A810E943917E1CF803835
:10312000E1F58091E800877F8093E8008091AD020F
:103130008093F10046CF811130C09091B10292305E
:1031400060F58091E800877F8093E8009093AD025E
:103150000E943E168091AD02882311F084E005C0E4
:103160008091E30087FDFACF81E08093AE020E9458
:10317000F51313C08091B102813079F481E093306E
:1031800009F080E08093AB021092E9008091E800A2
:10319000877F8093E8000E943E168091E80083FFBD
:1031A0000AC08091E800877F8093E8008091EB005F
:1031B00080628093EB00AA960FB6F894DEBF0FBE34
:1031C000CDBFDF91CF911F9108950E9453190E94A6
:1031D0005B19E0EEF0E0808181608083E8EDF0E053
:1031E00080818F77808319BCA7EDB0E08C918E7FB2
:1031F0008C9380818F7E80831092B70208950F9305
:103200001F93CF93DF930E9453190E945B19C8ED5F
:10321000D0E088818F7788838881806888838881DF
:103220008F7D888319BC1092AE021092AD0210926D
:10323000AB021092AC0200EE10E0F80180818B7FAF
:10324000808388818160888342E060E080E00E9422
:103250000A16E1EEF0E080818E7F8083E2EEF0E0FE
:10326000808181608083808188608083F801808193
:103270008E7F8083888180618883DF91CF911F91C9
:103280000F910895E8EDF0E080818F7E8083E7ED77
:10329000F0E080818160808384E082BF81E0809360
:1032A000B7020C94FF18E8EDF0E080818E7F8083F8
:1032B0001092E20008951092DA001092E100089551
:1032C0001F920F920FB60F9211242F933F934F939B
:1032D0005F936F937F938F939F93AF93BF93EF937E
:1032E000FF938091E10082FF0BC08091E20082FF9A
:1032F00007C08091E1008B7F8093E1000E942E1A2D
:103300008091DA0080FF19C08091D80080FF15C03D
:103310008091DA008E7F8093DA008091D90080FF5F
:103320008FC080E189BD82E189BD09B400FEFDCF77
:1033300081E08093AE020E94E6138091E10080FF5D
:1033400019C08091E20080FF15C08091E2008E7F5D
:103350008093E2008091E20080618093E20080919E
:10336000D80080628093D80019BC85E08093AE02BB
:103370000E94C4148091E10084FF29C08091E20082
:1033800084FF25C080E189BD82E189BD09B400FECA
:10339000FDCF8091D8008F7D8093D8008091E1008F
:1033A0008F7E8093E1008091E2008F7E8093E20027
:1033B0008091E20081608093E2008091AD028823D9
:1033C00009F444C084E08093AE020E94D914809135
:1033D000E10083FF24C08091E20083FF20C0809140
:1033E000E100877F8093E10082E08093AE0210923B
:1033F000AD028091E1008E7F8093E1008091E20038
:103400008E7F8093E2008091E20080618093E200F1
:1034100042E060E080E00E940A160E94F213FF91F1
:10342000EF91BF91AF919F918F917F916F915F913C
:103430004F913F912F910F900FBE0F901F901895B5
:1034400019BC1092AE020E94EF1377CF8091E30077
:1034500087FD02C081E0B7CF83E0B5CF0895CF9359
:103460008091AE028823A1F0C091E900CF709091C5
:10347000EC00892F817090FD80E8C82B1092E90044
:103480008091E80083FD0E949417CF70C093E900FB
:10349000CF9108959093BD028093BC020895E0916E
:1034A000BC02F091BD02309721F00190F081E02D37
:1034B000099480E00895EF92FF920F931F93CF93AA
:1034C000DF938C01E091BC02F091BD023097B1F125
:1034D0000280F381E02D09958091B20382FF2EC016
:1034E00080FF04C086EF97E00E94F908E8017801A8
:1034F00080E2E80EF11C00EF17E08091B20380FF3C
:103500000BC088811F928F931F930F930E94920983
:103510000F900F900F900F902196CE15DF0569F751
:103520008091B20380FF0AC08EEE97E0DF91CF91C9
:103530001F910F91FF90EF900C94F908DF91CF91BC
:103540001F910F91FF90EF900895E091BC02F091D0
:10355000BD02309721F00480F581E02D0994089593
:10356000CF93DF93EC018091BA029091BB028C174C
:103570009D0701F1D093BB02C093BA02E091BC0257
:10358000F091BD023097B1F00680F781E02DCE01B9
:1035900009958091B2038570853061F4DF93CF93F4
:1035A00080EE97E09F938F930E9492090F900F9067
:1035B0000F900F90DF91CF910895CF93DF93EC019F
:1035C0008091B8029091B9028C179D0701F1D093B8
:1035D000B902C093B802E091BC02F091BD023097ED
:1035E000B1F00084F185E02DCE0109958091B20300
:1035F0008570853061F4DF93CF9380ED97E09F93E2
:103600008F930E9492090F900F900F900F90DF916F
:10361000CF9108950C94BD1B0E9457280C940C0E5A
:103620008F929F92AF92BF92DF92EF92FF920F9391
:103630001F93CF93DF9300D000D00F92CDB7DEB7AA
:103640000E948B0E8FEBA82E82E0B82E10E0812F07
:103650000E946E0EF82EF501D1905F01D81699F1F7
:103660008091B20381FD0E94BE1BDF24E12C01E0AA
:103670004501F1E08F1A91088D2D8023F9F0E98240
:103680001A8391E08F2D802309F490E09B830E94A0
:1036900060288160782F9D838C8349815A816B815A
:1036A0008D810E94F41B49815A816B817C818D81BF
:1036B0000E94FA27F401808180278083E394000F21
:1036C000F8E0EF12D9CF1F5F103109F0C0CF8FEFB4
:1036D00089838A831B820E9460288160782F9D8362
:1036E0008C8349815A816B818D810E94F41B0E94D9
:1036F000F9270E94D62A0E944F1A9091BE0289177C
:1037000049F10E944F1A8093BE029091B2039570C6
:10371000953061F41F928F9381E098E09F938F938F
:103720000E9492090F900F900F900F908091BE020F
:103730000F900F900F900F900F90DF91CF911F91EE
:103740000F91FF90EF90DF90BF90AF909F908F9080
:103750000C940B280F900F900F900F900F90DF910B
:10376000CF911F910F91FF90EF90DF90BF90AF909E
:103770009F908F9008950C947C0E0895EF92FF9285
:103780000F931F93CF93DF9387E198E00E94F9088E
:10379000D0E0C0E085E2E82E81E0F82E0CE018E0F1
:1037A0008C2F0E946E0E0E94E527FF92EF921F92CF
:1037B0008F93DF93CF931F930F930E9492092196CB
:1037C0008DB79EB708960FB6F8949EBF0FBE8DBFFB
:1037D000C031D10529F7DF91CF911F910F91FF9053
:1037E000EF90089508950895CF93DF93CDB7DEB796
:1037F0002B970FB6F894DEBF0FBECDBF4F8358870F
:1038000069877A878B878A859B85892B21F0842F0E
:1038100085238F3FD1F41E8285E0FE013796DE01BD
:10382000119601900D928A95E1F749815A816B8139
:103830007C818D819E812B960FB6F894DEBF0FBEE2
:10384000CDBFDF91CF910C94262369857A858B8536
:103850000E94FA27E0CFCF93C82F882309F49AC09B
:103860008CEF8C0F813A58F48C2F0E943F2E8111DF
:1038700091C08C2F0E94DB26CF910C94BA2780E256
:103880008C0F883048F4C77081E001C0880FCA955A
:10389000EAF70E947F27F0CF8BE58C0F833068F426
:1038A00081E890E0C53A31F083E890E0C63A11F43F
:1038B00082E890E0CF910C94B01A88E58C0F8731A4
:1038C00008F068C082EE90E0C83A09F460C089EE62
:1038D00090E0C93A09F45BC08AEE90E0CA3A09F474
:1038E00056C085EB90E0CB3A09F451C086EB90E0EE
:1038F000CC3A09F44CC083EB90E0CD3A09F447C0D0
:1039000084EB90E0CE3A09F442C087EB90E0CF3AE6
:10391000F1F18CEC90E0C13BD1F18DEC90E0C03B3B
:10392000B1F183E891E0C23B91F18AE891E0C33BB9
:1039300071F182E991E0C43B51F184E991E0C53B2A
:1039400031F181E292E0C63B11F183E292E0C73BA4
:10395000F1F084E292E0C83BD1F085E292E0C93B0D
:10396000B1F086E292E0CA3B91F087E292E0CB3B75
:1039700071F08AE292E0CC3B51F08FE690E0CD3BD3
:1039800031F090E080E0CE3B11F480E790E0CF9101
:103990000C94DD1ACF910895882329F19CEF980F9C
:1039A000913A20F40E9428270C94BA2790E2980FAD
:1039B000983050F4877091E001C0990F8A95EAF72A
:1039C000892F0E948527F0CF9BE5980F933020F434
:1039D00090E080E00C94B01A885A873120F490E08F
:1039E00080E00C94DD1A0895882321F00E947F273F
:1039F0000C94BA270895882321F00E9485270C94FF
:103A0000BA2708950E94A1270E946E270E94BA2714
:103A10000E94BC2B0E94492A90E080E00E94B01ACC
:103A200090E080E00C94DD1A0E9490270C94021D17
:103A3000AF92BF92CF92DF92EF92FF920F931F93BC
:103A4000CF93DF93CDB7DEB729970FB6F894DEBFDB
:103A50000FBECDBF5C010E940D28811114C085E00E
:103A6000F501DE01119601900D928A95E1F7F501BD
:103A700083819481009739F040815181242F25233F
:103A80002F3F09F05FC329960FB6F894DEBF0FBE33
:103A9000CDBFDF91CF911F910F91FF90EF90DF90FD
:103AA000CF90BF90AF900895F12FFF70EF2E107F51
:103AB00019F0E29440EFE422FF20D1F0EE2029F04B
:103AC0008E2D0E9493270E94BA27802F29960FB629
:103AD000F894DEBF0FBECDBFDF91CF911F910F9144
:103AE000FF90EF90DF90CF90BF90AF900C942B1C85
:103AF000802F0E94CC1CEE2031F28E2D0E9499273F
:103B000029960FB6F894DEBF0FBECDBFDF91CF91DF
:103B10001F910F91FF90EF90DF90CF90BF90AF90EB
:103B20000C94BA27212F2F70D22E107F103219F04B
:103B3000D29430EFD322002379F0013009F455C03C
:103B4000FF2009F463C0EE2059F0F501858180FF64
:103B500007C28F70858304C0FF2059F1E11013C0A4
:103B60008D2D29960FB6F894DEBF0FBECDBFDF9125
:103B7000CF911F910F91FF90EF90DF90CF90BF906A
:103B8000AF900C94F41C31E08D2DE312EACF29960E
:103B90000FB6F894DEBF0FBECDBFDF91CF911F915E
:103BA0000F91FF90EF90DF90CF90BF90AF900C946B
:103BB000A427E11015C00E94A7278D2D29960FB6C6
:103BC000F894DEBF0FBECDBFDF91CF911F910F9153
:103BD000FF90EF90DF90CF90BF90AF900C94FB1CC4
:103BE00041E0E41609F44FCFE6CFFF2051F055E055
:103BF0005E1508F448CF0E947C278D2109F4B0CFD0
:103C0000DCCF84E08E1508F43ECFD7CFEE20A9F2AA
:103C1000802F29960FB6F894DEBF0FBECDBFDF917F
:103C2000CF911F910F91FF90EF90DF90CF90BF90B9
:103C3000AF900C94CC1C812F869586958370D9F01B
:103C4000813009F020CFC8019370F11002C090E0DC
:103C500080E029960FB6F894DEBF0FBECDBFDF918E
:103C6000CF911F910F91FF90EF90DF90CF90BF9079
:103C7000AF900C94DD1AC8019370F11002C090E06F
:103C800080E029960FB6F894DEBF0FBECDBFDF915E
:103C9000CF911F910F91FF90EF90DF90CF90BF9049
:103CA000AF900C94B01A802FFF20A1F00E946229DF
:103CB00029960FB6F894DEBF0FBECDBFDF91CF912E
:103CC0001F910F91FF90EF90DF90CF90BF90AF903A
:103CD0000C94492A0E94CA29EBCF812F837009F0E6
:103CE0008CC0F110D0CE202F229526952770220F60
:103CF000220F802F8F7090E0B0E0A0E06C017D017A
:103D0000022E04C0CC0CDD1CEE1CFF1C0A94D2F762
:103D100060E070E0CB0104FF0FC06FE070E080E076
:103D200090E004C0660F771F881F991F2A95D2F76D
:103D30006095709580959095169516951370123034
:103D4000C9F1133009F454C09B01AC012C293D2961
:103D50004E295F292E833F83488759871130A1F070
:103D6000CA01B90129960FB6F894DEBF0FBECDBFC8
:103D7000DF91CF911F910F91FF90EF90DF90CF9047
:103D8000BF90AF900C949F246E817F818885998528
:103D900029960FB6F894DEBF0FBECDBFDF91CF914D
:103DA0001F910F91FF90EF90DF90CF90BF90AF9059
:103DB0000C946F249B01AC012C293D294E295F29CD
:103DC0002E833F8348875987CA01B90129960FB6C8
:103DD000F894DEBF0FBECDBFDF91CF911F910F9141
:103DE000FF90EF90DF90CF90BF90AF900C94CF24D6
:103DF0000E949F24C701B601CBCFFF2009F453C016
:103E000010FF41CE202F229526952770220F220FDA
:103E1000802F8F7090E0B0E0A0E06C017D01022E59
:103E200004C0CC0CDD1CEE1CFF1C0A94D2F760E031
:103E300070E0CB0104FF0FC06FE070E080E090E025
:103E400004C0660F771F881F991F2A95D2F76095C7
:103E50007095809590951695169513701230E1F136
:103E6000133009F457C09B01AC012C293D294E2980
:103E70005F292E833F83488759871130B9F0CA01E3
:103E8000B90129960FB6F894DEBF0FBECDBFDF9102
:103E9000CF911F910F91FF90EF90DF90CF90BF9047
:103EA000AF900C94E82511FFEECDACCF6E817F81F1
:103EB0008885998529960FB6F894DEBF0FBECDBFD1
:103EC000DF91CF911F910F91FF90EF90DF90CF90F6
:103ED000BF90AF900C94C0259B01AC012C293D29CB
:103EE0004E295F292E833F8348875987CA01B9012C
:103EF00029960FB6F894DEBF0FBECDBFDF91CF91EC
:103F00001F910F91FF90EF90DF90CF90BF90AF90F7
:103F10000C9410260E94E825C701B601CBCF013FC3
:103F200009F473C068F5003E98F4003C98F0812FC6
:103F30008F71102F1071FF2009F43EC00E942925B7
:103F4000802F8295807F11110CCE802F8F7009CE2B
:103F5000003FE1F1FF2009F4A0C0EE2009F49AC06F
:103F6000802F0E942B1C093309F08DC0FFEF21EE3A
:103F700034E0F15020403040E1F700C0000083CD34
:103F8000023F09F458C0033F29F7FF2009F469C034
:103F9000812F8F7129960FB6F894DEBF0FBECDBF6B
:103FA000DF91CF911F910F91FF90EF90DF90CF9015
:103FB000BF90AF900C9404250E945A25802F8295C3
:103FC000807F1111FBCD802F8F70F8CDFF20C1F0C5
:103FD00034E03E1508F457CD812F8F7129960FB626
:103FE000F894DEBF0FBECDBFDF91CF911F910F912F
:103FF000FF90EF90DF90CF90BF90AF900C948F2503
:1040000045E04E1508F43FCDE7CF812F8F71FF209B
:10401000B1F029960FB6F894DEBF0FBECDBFDF9189
:10402000CF911F910F91FF90EF90DF90CF90BF90B5
:10403000AF900C942925812F8F71FF2051F3299681
:104040000FB6F894DEBF0FBECDBFDF91CF911F91A9
:104050000F91FF90EF90DF90CF90BF90AF900C94B6
:104060005A2529960FB6F894DEBF0FBECDBFDF915B
:10407000CF911F910F91FF90EF90DF90CF90BF9065
:10408000AF900C94FF24033509F470CF073409F086
:10409000FACC6CCF812F8F71BCCFE110B9CD812FBD
:1040A0008F71CDCF412F4F70602FC5010E94E30962
:1040B00029960FB6F894DEBF0FBECDBFDF91CF912A
:1040C0001F910F91FF90EF90DF90CF90BF90AF9036
:1040D0000C94C0230111D7CCFF2009F4D4CC0E944A
:1040E000141D5FEF80E792E0515080409040E1F76F
:1040F00000C0000029960FB6F894DEBF0FBECDBFFA
:10410000DF91CF911F910F91FF90EF90DF90CF90B3
:10411000BF90AF900C94BF28412F4F70602FC50106
:1041200029960FB6F894DEBF0FBECDBFDF91CF91B9
:104130001F910F91FF90EF90DF90CF90BF90AF90C5
:104140000C94DE28F280E580E2942FE0E22249839D
:104150005A83FB82782F9D838C836F2D8D810E94E3
:1041600039268C010E9438260E946424E12FE295B2
:10417000EF70F0E0EA5AF74F0C94D030CF93DF9312
:1041800000D000D00F92CDB7DEB76B837C838D83D8
:104190008C819D81892B21F0842F85238F3FA1F471
:1041A00080E005C0303E58F481E0303CC8F70F9005
:1041B0000F900F900F900F90DF91CF910895315F86
:1041C00081E03330A0F7ECCF6B817C818D810E9440
:1041D0003926382F292F22952F70903C40F42A3011
:1041E00008F7225F2F7081E0223008F3D9CF2C30FE
:1041F00011F02F30A9F693FB882780F9D8CFCF9301
:10420000DF9300D000D00F92CDB7DEB70F900F90A4
:104210000F900F900F90DF91CF910895CF93DF9380
:1042200000D000D000D0CDB7DEB726960FB6F894F8
:10423000DEBF0FBECDBFDF91CF9108951F93CF9307
:10424000DF93E091CF0216E08091D0028E1304C07C
:10425000DF91CF911F910895CE2FD0E01E9FF001E6
:104260001124EF52FD4F408151816281738184811D
:1042700095810E940E21FE013196E770E5CF4091B5
:104280000103509102036091030370910403809134
:104290000503909106030C940E211F93CF93DF9397
:1042A00080910603807FA9F480910303882389F01D
:1042B0008091CF02C091D0027091010360910203FE
:1042C000A0910403B0910503D62FD72316E0C8139D
:1042D00004C0DF91CF911F91089590E0109711F0E5
:1042E000DF3F19F401968770F2CF189F9001199F54
:1042F000300D1124F901EF52FD4F41816413F2CFCB
:1043000040814713EFCF42814111ECCF438154816B
:104310004A1B5B0B483C510528F7809106038F70C0
:10432000806180930603F901EA52FD4F80818F700E
:104330008061808381E093E00E94181DDF91CF911E
:104340001F910C941E21AF92BF92CF92DF92EF92F9
:10435000FF920F931F93CF93DF93CDB7DEB72B97C9
:104360000FB6F894DEBF0FBECDBF8C0185E0F8011B
:10437000DE01179601900D928A95E1F7F8014081D0
:104380005181F28081E0A82E83E0B82E6091040371
:10439000709105036115710549F090910103209119
:1043A0000203892F82238F3F09F03BC1FF2009F4CC
:1043B00049C14F835887F9866F2D7A858B850E9476
:1043C000BE20882309F43EC1E8C080910603382F3F
:1043D000307F683C710508F07BC03111B6C0EF2C0E
:1043E000251324C0941322C0F11020C08F70806167
:1043F000809306030E943F2181E093E00E94181DF4
:1044000080910603F80185838E2D2B960FB6F894C4
:10441000DEBF0FBECDBFDF91CF911F910F91FF90F7
:10442000EF90DF90CF90BF90AF900895CD2829F006
:10443000842F85238F3F09F085C080E0F82FF1702D
:10444000DF2EE091CF022091D00236E080FD1CC02B
:10445000FF20D1F280910603816080930603E12C56
:10446000D3CF8E2F90E03E9FF0011124EF52FD4FED
:104470006181651306C06081641303C06281F61216
:10448000E7CFFC013196E770E213EBCF6F2D7A8511
:104490008B850E943926292F22952F70903260F04B
:1044A000225F2F70223078F49F7051F0F8019581CF
:1044B000907F31F4D12C0AC09F7011F08823D1F382
:1044C000805E8830B8F3C8010E94181DED2C9CCF87
:1044D000311172C06F2D7A858B850E94FF2081E09B
:1044E00093E00E94181D86E0F50111928A95E9F784
:1044F0000E943F21B4CF86E0F801A1E0B3E0019033
:104500000D928A95E1F780CF4F835887F9866F2DFA
:104510007A858B850E94BE2081113FC08091060361
:10452000816080930603C8010E94181D6DCF6F2D16
:104530007A858B850E94FF2086E0F50111928A958D
:10454000E9F76CC081E08F2579CF251306C094135D
:1045500004C0F801FF2009F455C04F835887F9863D
:104560006F2D7A858B850E94BE20882309F46AC04E
:10457000FF2009F467C080910603803270F020911B
:104580000103309102033A8329831B82DD82CC82AE
:104590008E83CE0101960E94181D86E0F801A1E0ED
:1045A000B3E001900D928A95E1F70E944D210E949F
:1045B0003F21EE24E39428CF2513CFCF9413CDCF02
:1045C000F110CBCFF8018583C8010E94181D86E049
:1045D000F50111928A95E9F717CF251395CF94131A
:1045E00093CF8091060380FD86CF982F907F09F4AA
:1045F00082CFF8018583903F31F0982F907F905FB4
:104600008F70892B8583C8010E94181D86E0F801F0
:10461000A1E0B3E001900D928A95E1F70E943F215D
:10462000F3CEC380D480E0900303F601E61BF70BC2
:10463000BF01E110CACE683C710508F078CFEF2CBD
:10464000F110CBCFC8010E94181DB3CF1F93CF9399
:10465000DF93CDB7DEB72C970FB6F894DEBF0FBE51
:10466000CDBF4F83588769877A878B879C87CE0118
:1046700007960E94A321882369F08A859B85892B50
:1046800039F058854F81852F84238F3F09F071C001
:1046900016E05FC086E0FE013796DE0111960190BC
:1046A0000D928A95E1F78A859B85892B89F38F8105
:1046B000988589238F3F61F32091D00230E0C901B2
:1046C0000196877099274091CF024817190671F417
:1046D0000E94141D1092D0021092CF0286E0E1E0F9
:1046E000F3E0DF011D928A95E9F7D2CF96E0929F21
:1046F000D001939FB00D1124AF52BD4FFE013196F2
:1047000001900D929A95E1F78093D0020E941E21AC
:10471000BFCF819FC00111248F529D4F0E94A321C2
:104720008823E9F0E091CF021E9FF0011124EF529F
:10473000FD4F4081518162817381848195810E9406
:104740000E218091CF0290E0019687709927809387
:10475000CF028091CF029091D0028913DACF2C96AC
:104760000FB6F894DEBF0FBECDBFDF91CF911F9182
:10477000089569857A858B859C850E940E2188CF56
:10478000DF92EF92FF920F931F93CF93DF939C01E1
:10479000892BB9F0F12CE12CDD24D394E901219689
:1047A000F9018491853709F46EC098F4843709F4CF
:1047B0005AC0843008F073C0813011F1823009F49E
:1047C0003CC0DF91CF911F910F91FF90EF90DF9050
:1047D0000895883709F460C058F4863709F458C042
:1047E000873779F78F2D0E948D270E94BA2720C026
:1047F0009CE7980F903728F78F770E94CC1C18C041
:1048000089010E5F1F4FFE01849190E2980F98304E
:1048100060F48770FD2D01C0FF0F8A95EAF78F2F96
:104820000E9493270E94BA2702C00E942B1CE80115
:104830008E2D811137C09E01B1CF89010E5F1F4FB0
:10484000FE01849190E2980F983050F48770FD2D0E
:1048500001C0FF0F8A95EAF78F2F0E949927E2CFB8
:104860000E94CC1CE4CF2E5F3F4FFE01C491C111CA
:1048700002C0E901DDCF8FE99FE00197F1F700C0A9
:104880000000C150F4CF2E5F3F4FFE01E490F1CF06
:104890000E947C27F82ECCCF0E949027A6CF0E94A2
:1048A0002B1CC6CFEFE9FFE03197F1F700C0000005
:1048B0008150BFCF609387037093880380938903EF
:1048C00090938A030C940A28089560938B03709345
:1048D0008C0380938D0390938E030C940928CF93BF
:1048E000DF9300D000D0CDB7DEB769837A838B83A6
:1048F0009C8380918B0390918C03A0918D03B09148
:104900008E0329813A814B815C81282B392B4A2BDC
:104910005B2B29833A834B835C8320938B033093F7
:104920008C0340938D0350938E03CA01B9010F90FD
:104930000F900F900F90DF91CF910C940928CF9397
:10494000DF9300D000D0CDB7DEB769837A838B8345
:104950009C8380918B0390918C03A0918D03B091E7
:104960008E0329813A814B815C81282339234A2394
:104970005B2329833A834B835C8320938B0330939F
:104980008C0340938D0350938E03CA01B9010F909D
:104990000F900F900F90DF91CF910C940928CF9337
:1049A000DF9300D000D0CDB7DEB769837A838B83E5
:1049B0009C8380918B0390918C03A0918D03B09187
:1049C0008E0329813A814B815C81282739274A2728
:1049D0005B2729833A834B835C8320938B0330933B
:1049E0008C0340938D0350938E03CA01B9010F903D
:1049F0000F900F900F90DF91CF910C94092860E0F9
:104A000070E0CB010C945A240F931F93CF93DF9344
:104A100000D000D0CDB7DEB741E050E060E070E0FC
:104A20008A019B0104C0000F111F221F331F8A95AA
:104A3000D2F709831A832B833C83C901B8010F90F5
:104A40000F900F900F90DF91CF911F910F910C94C9
:104A50005A240F931F93CF93DF9300D000D0CDB78C
:104A6000DEB741E050E060E070E004C0440F551F45
:104A7000661F771F8A95D2F78091870390918803EC
:104A8000A0918903B0918A038A019B01082B192BFD
:104A90002A2B3B2B09831A832B833C83C901B80142
:104AA0000F900F900F900F90DF91CF911F910F916A
:104AB0000C945A240F931F93CF93DF9300D000D010
:104AC000CDB7DEB741E050E060E070E004C0440FD5
:104AD000551F661F771F8A95D2F7409550956095B0
:104AE00070958091870390918803A0918903B0917C
:104AF0008A038A019B01082319232A233B23098364
:104B00001A832B833C83C901B8010F900F900F903B
:104B10000F90DF91CF911F910F910C945A240F9316
:104B20001F93CF93DF9300D000D0CDB7DEB741E025
:104B300050E060E070E004C0440F551F661F771F0F
:104B40008A95D2F78091870390918803A091890379
:104B5000B0918A038A019B01082719272A273B273E
:104B600009831A832B833C83C901B8010F900F90EE
:104B70000F900F90DF91CF911F910F910C945A24B9
:104B8000CF93DF9300D000D0CDB7DEB769837A83AF
:104B90008B839C838091870390918803A0918903E4
:104BA000B0918A0329813A814B815C81282B392B72
:104BB0004A2B5B2B29833A834B835C83CA01B9015F
:104BC0000F900F900F900F90DF91CF910C945A247B
:104BD000CF93DF9300D000D0CDB7DEB769837A835F
:104BE0008B839C838091870390918803A091890394
:104BF000B0918A0329813A814B815C812823392332
:104C00004A235B2329833A834B835C83CA01B9011E
:104C10000F900F900F900F90DF91CF910C945A242A
:104C2000CF93DF9300D000D0CDB7DEB769837A830E
:104C30008B839C838091870390918803A091890343
:104C4000B0918A0329813A814B815C8128273927D9
:104C50004A275B2729833A834B835C83CA01B901C6
:104C60000F900F900F900F90DF91CF910C945A24DA
:104C700008954F925F926F927F929F92AF92BF92F0
:104C8000CF92DF92EF92FF920F931F93CF93DF9318
:104C900000D000D00F92CDB7DEB749835A836B8323
:104CA0007C838D838C819D81892B31F0A42E952E60
:104CB000842F85238F3F59F590E080E00F900F906F
:104CC0000F900F900F90DF91CF911F910F91FF9058
:104CD000EF90DF90CF90BF90AF909F907F906F90BC
:104CE0005F904F9008956A2D792D8C2D0E949B091D
:104CF0000197C1F13CC0F80183E0EE0FFF1F8A95D8
:104D0000E1F7E95FFC4FEE0DFF1DB0803BC0052FC2
:104D100010E0E42EF12C8B81882369F34090870307
:104D2000509088036090890370908A0380918B0370
:104D300090918C03A0918D03B0918E03482A592A3B
:104D40006A2A7B2A2FE1C22ED12CBC2CD301C201AE
:104D50000C2C04C0B695A795979587950A94D2F721
:104D600080FDC1CF81E0C81AD10878F7B12CF801D5
:104D700093E0EE0FFF1F9A95E1F7E95FFC4FEE0D10
:104D8000FF1DB08269817A818B2D0F900F900F905B
:104D90000F900F90DF91CF911F910F91FF90EF90A7
:104DA000DF90CF90BF90AF909F907F906F905F907B
:104DB0004F900C949B0990911401992361F190916B
:104DC0001501992341F1982F9695969596959F31C7
:104DD00089F0E0911601F0911701E90FF11D87703C
:104DE00021E030E001C0220F8A95EAF78181822B11
:104DF000818308959091B20390FF22C01F928F93F8
:104E000082E498E09F938F930E9492090F900F90F5
:104E10000F900F9008952091160130911701F9011C
:104E200032969FEF40E05191851751F09F3F19F462
:104E3000511101C0942F4F5F4E31A9F79F3F09F4E4
:104E40000895290F311D97FD3A95F9018283089540
:104E500090911401992381F190911501992361F1A9
:104E6000982F9695969596959F31A9F0E091160109
:104E7000F0911701E90FF11D877021E030E0A901E1
:104E800002C0440F551F8A95E2F7CA0180959181AF
:104E90008923818308959091B20390FF1EC01F92D1
:104EA0008F9384E298E09F938F930E9492090F90D2
:104EB0000F900F900F9008952091160130911701D7
:104EC000F9013296205E3F4F9191891303C0DF01B3
:104ED00011971C92E217F307B9F7089581E090E06B
:104EE000E0911601F0911701E80FF91F1082019669
:104EF00080329105A9F708958091B10308959091AA
:104F0000B103982B9093B1030895982F90958091B9
:104F1000B10389238093B10308958093B103089569
:104F20001092B10308959091B003982B9093B00321
:104F30000895982F90958091B00389238093B003B2
:104F400008951092B003089580938F0308951092EE
:104F50008F0308952091160130911701F9013196C0
:104F6000205E3F4F80E0919191118F5FE217F30730
:104F7000D1F70895E0911601F09117018091B103E6
:104F80008083E0911601F091170180819091B00328
:104F9000892B808390918F03992361F0E091160112
:104FA000F09117018081892B80830E94AA278111AB
:104FB00010928F0380911601909117010C945B1A47
:104FC00090936501809364010895829594E0899F90
:104FD000900111242C7C869586958373282B30E0D4
:104FE000C901880F991F8A7A359527952575822BD7
:104FF00008950895CF93DF9300D000D00F92CDB7DE
:10500000DEB70F900F900F900F900F90DF91CF9120
:105010000895089508950C94BB1B80E0089583B70C
:10502000817F8C6083BF83B7816083BF78948895CC
:1050300083B78E7F83BF0895CF930E94F21B0E9497
:105040008B0E0E94F31BC0E08C2F0E946E0E81110C
:1050500005C0CF5FC031C1F7CF91089581E0FCCF8B
:105060000E94740E0C94141D1F921FB61F921124DF
:105070008F939F93AF93BF938091B3039091B403A9
:10508000A091B503B091B6034196A11DB11D8093C7
:10509000B3039093B403A093B503B093B603BF9149
:1050A000AF919F918F911F901FBE1F90189582E026
:1050B00084BD93E095BD9AEF97BD80936E000895EF
:1050C0002FB7F8948091B3039091B403A091B503E6
:1050D000B091B6032FBF0895CF93DF9300D000D0D7
:1050E000CDB7DEB78FB7F8942091B3033091B403F6
:1050F0004091B5035091B60329833A834B835C8377
:105100008FBF69817A818B819C810F900F900F9066
:105110000F90DF91CF9108959C014FB7F894809143
:10512000B3039091B403A091B503B091B6034FBF00
:10513000821B930B089578941F921FB61F9211241F
:105140008F939F93AF93BF938091B3039091B403D8
:10515000A091B503B091B6030196A11DB11D809336
:10516000B3039093B403A093B503B093B603BF9178
:10517000AF919F918F911F901FBE1F9018950E9415
:10518000E518F89487E797E7909301088093000863
:1051900087E090EBDC018093C2039093C303A0935C
:1051A000C403B093C50388E19CE00FB6F894A895BA
:1051B000809360000FBE90936000FFCF08958091B0
:1051C000B90380FF12C060911B0185E0689FB001A8
:1051D0001124759567957595679560387105A8F5E3
:1051E00061157105A1F1862F089581FF09C06091B5
:1051F0001B0185E0689FB001112475956795EDCF7F
:1052000060911B0182FD0AC08091BA038823D1F00E
:1052100090911A0160911B01891728F085E0689F21
:10522000B0011124DACF869FB001112485E0869F5A
:105230009001879F300D1124692F70E0C9010E94F1
:10524000BC30CBCF65E070E0CECF8FE7089581E032
:1052500008958091B90380FF0CC06091190170E03E
:1052600075956795759567956115710549F1862F57
:10527000089581FF06C06091190170E075956795EA
:10528000F3CF6091190182FD0BC09091BA0399236D
:10529000A1F06091180180911901961738F0682FDC
:1052A00070E06038710500F38FE70895899FC001B1
:1052B000112470E00E94BC30F4CF61E070E0D7CFE1
:1052C00081E00895803F31F40E94DF28819580932A
:1052D000BD030895813F19F40E94DF28F8CF823F73
:1052E00031F40E94DF2881958093BC030895833FA9
:1052F00019F40E94DF28F8CF893F29F40E94292958
:105300008093BE0308958A3F21F40E942929819544
:10531000F7CF8B3F31F40E94292981958093BF03F9
:1053200008958C3F19F40E942929F8CF843F31F465
:105330008091BB0381608093BB030895853F21F476
:105340008091BB038260F7CF863F21F48091BB033D
:105350008460F1CF873F21F48091BB038860EBCF5D
:10536000883F21F48091BB038061E5CF8D3F31F40C
:105370008091B90381608093B90308958E3F21F431
:105380008091B9038260F7CF8F3FB9F78091B9035D
:105390008460F1CF9091BC03803F41F48091BD03C4
:1053A00087FD1092BD03992371F00895813F29F480
:1053B0008091BD031816ACF3F6CF823F81F497FFBE
:1053C000F2CF1092BC038091BD039091BE03892B54
:1053D0009091BF03892B49F71092BA030895833F38
:1053E00019F4191674F3DFCF893F39F48091BE03A5
:1053F0001816CCF61092BE03D6CF8A3F29F48091BE
:10540000BE0387FFD0CFF6CF8B3F39F48091BF0327
:1054100087FFC9CF1092BF03C6CF8C3F29F480917C
:10542000BF031816BCF3BFCF843F31F48091BB0398
:105430008E7F8093BB03B7CF853F21F48091BB0360
:105440008D7FF7CF863F21F48091BB038B7FF1CF17
:10545000873F21F48091BB03877FEBCF883F21F406
:105460008091BB038F7EE5CF8D3F31F48091B903EE
:105470008E7F8093B90397CF8E3F21F48091B9033B
:105480008D7FF7CF8F3F09F08ECF8091B9038B7F4F
:10549000F0CF8091B20383FF7EC087E898E00E943E
:1054A000F9088091BB031F928F9382E898E09F9345
:1054B0008F930E94920980E898E00E94F9088091F9
:1054C000BC03282F082E000C330B3F938F938DE7DE
:1054D00098E09F938F930E9492098BE798E00E9437
:1054E000F9088091BD03282F082E000C330B3F9341
:1054F0008F9388E798E09F938F930E94920986E7A5
:1055000098E00E94F9088091BE03282F082E000C15
:10551000330B3F938F9383E798E09F938F930E9481
:10552000920981E798E00E94F9088091BF03282F33
:10553000082E000C330B3F938F938EE698E09F93D9
:105540008F930E9492098BE698E00E94F90880915F
:10555000BA031F928F9388E698E09F938F930E94DF
:10556000920986E698E00E94F9088091B9031F929B
:105570008F9383E698E09F938F930E94920980E631
:1055800098E00E94F9088DB79EB74C960FB6F89434
:105590009EBF0FBE8DBF8BEB93E00E94A51A0E94A9
:1055A00060289093B8038093B70308951F93CF9317
:1055B000DF9300D000D000D0CDB7DEB78091B70325
:1055C0009091B8030E948C28AC018091BA0320917D
:1055D0001C0130E0811106C020911D019AE0299F35
:1055E000900111244217530788F02091BC03A09129
:1055F000BD03A9831091BE03B091BF03BE832111E7
:105600000FC09A2F912B9B2B09F0B2C026960FB694
:10561000F894DEBF0FBECDBFDF91CF911F910895EB
:105620008F3F19F08F5F8093BA03121624F40E9403
:10563000DF288093BC038091BC0387FF05C00E94D4
:10564000DF2881958093BC032981121624F40E94DF
:10565000DF288093BD038091BD0387FF05C00E94B2
:10566000DF2881958093BD038091BC03882309F4D2
:1056700055C03091BD033D83332309F44FC0282F1B
:10568000880F330B440B550B29833A834B835C8380
:10569000CA01B9010E94C32F23E333E343E35FE36D
:1056A00069837A838B839C8369817A818B819C81D6
:1056B0000E94273069837A838B839C8369817A81F6
:1056C0008B819C810E948B2F6093BC038D81082E5F
:1056D000000C990BAA0BBB0B89839A83AB83BC8309
:1056E000BC01CD010E94C32F23E333E343E35FE317
:1056F00069837A838B839C8369817A818B819C8186
:105700000E94273069837A838B839C8369817A81A5
:105710008B819C810E948B2F6093BD03111624F412
:105720000E9429298093BE038091BE0387FF05C094
:105730000E94292981958093BE039E81191624F425
:105740000E9429298093BF038091BF0387FF05C072
:105750000E94292981958093BF0326960FB6F8945D
:10576000DEBF0FBECDBFDF91CF911F910C94492AB0
:105770008F3F09F057CF68CF85E0EBEBF3E0DF0117
:105780001D928A95E9F71092BA031092B903089511
:105790008AEA9AE00E94F9081F9281E08F931F9293
:1057A00085E08F938CE59AE09F938F930E949209F6
:1057B0000F900F900F900F900F900F9008958430DE
:1057C00009F45DC040F4823061F1833009F440C0D7
:1057D000813041F00895853009F468C0863009F4BD
:1057E0007CC0089580911D01482F460F5527551FF5
:1057F0004F3F510594F4680F60931D0180911D0186
:105800001F928F9385E999E09F938F930E9492094D
:105810000F900F900F900F9008958FEF80931D01C0
:10582000EDCF80911C01482F460F5527551F4F3F44
:10583000510554F4680F60931C0180911C011F9264
:105840008F9383E899E0E0CF8FEF80931C01F5CF31
:1058500080911B01482F460F5527551F4F3F51057B
:1058600054F4680F60931B0180911B011F928F936A
:1058700080E799E0C9CF8FEF80931B01F5CF80912E
:105880001A01482F460F5527551F4F3F510554F415
:10589000680F60931A0180911A011F928F938BE514
:1058A00099E0B2CF8FEF80931A01F5CF8091190163
:1058B000482F460F5527551F4F3F510554F4680F89
:1058C00060931901809119011F928F9382E499E0EE
:1058D0009BCF8FEF80931901F5CF80911801482F4E
:1058E000460F5527551F4F3F510554F4680F6093DD
:1058F0001801809118011F928F9387E299E084CF5D
:105900008FEF80931801F5CF843009F44AC038F442
:10591000823029F18330A1F1813041F00895853042
:1059200009F450C0863009F45EC0089580911D01CD
:10593000681790F4861B80931D0180911D011F92B2
:105940008F9388E199E09F938F930E9492090F9023
:105950000F900F900F90089510921D01EECF80913F
:105960001C01681750F4861B80931C0180911C0158
:105970001F928F9386E099E0E6CF10921C01F6CF3C
:1059800080911B01681750F4861B80931B01809146
:105990001B011F928F9383EF98E0D5CF10921B01CC
:1059A000F6CF80911A01681750F4861B80931A0174
:1059B00080911A011F928F938EED98E0C4CF1092C0
:1059C0001A01F6CF80911901681750F4861B809355
:1059D0001901809119011F928F9385EC98E0B3CF44
:1059E00010921901F6CF80911801681750F4861BA8
:1059F00080931801809118011F928F938AEA98E092
:105A0000A2CF10921801F6CFCF93DF9300D000D031
:105A1000CDB7DEB789831F928F938FEA9BE09F9368
:105A20008F930E94920981E090E0A0E0B0E09C0199
:105A3000AD01098004C0220F331F441F551F0A9473
:105A4000D2F729833A834B835C83CA01B9010E9450
:105A500065240F900F900F900F900F900F900F9064
:105A60000F90DF91CF910C94141DCF938A3258F48C
:105A7000863098F0EAEFE80FE43278F4F0E0EA5983
:105A8000F74F0C94D030833470F48A3308F0F1C0AF
:105A9000853309F4E8C08833E9F086E79CE00E948A
:105AA000F908C0E0DAC0833409F4DDC08834A9F70E
:105AB0000E94141D8BE99EE00E94F9082FEF83EDF0
:105AC00090E3215080409040E1F700C000000E9428
:105AD000BF2815C08BED9BE00E94F90810C0809193
