:100000000C94EB0A0C944C0B0C94760E0C944C0B49
:100010000C944C0B0C944C0B0C944C0B0C944C0B04
:100020000C944C0B0C944C0B0C94D21B0C944C0B5E
:100030000C94A62A0C944C0B0C944C0B0C944C0B6B
:100040000C944C0B0C944C0B0C944C0B0C944C0BD4
:100050000C944C0B0C940D2B0C944C0B0C944C0BE3
:100060000C944C0B0C944C0B0C944C0B0C944C0BB4
:100070000C944C0B0C944C0B0C944C0B0C944C0BA4
:100080000C944C0B0C944C0B0C944C0B0C944C0B94
:100090000C944C0B0C944C0B0C944C0B0C944C0B84
:1000A0000C944C0B0C944C0B0C944C0B750501E30D
:1000B00001E10128022802E102E374FF012C022C75
:1000C00001060206010F020F0108020801040204E2
:1000D0000115021501330233011702170108020846
:1000E000010F020F01110211010802080117021786
:1000F000012C022C0117021701120212011A021A16
:1001000001080208010F020F01370237010502053D
:10011000010F020F010C020C01110211010E020E5F
:100120000108020801110211010F020F010C020C5B
:10013000010A020A010B020B01170217011602162F
:100140000137023701110211010F020F01280228A5
:10015000746400750501E301E10128022802E1024F
:10016000E374FF012C022C01060206010F020F01AD
:1001700008020801040204011502150133023301CB
:1001800017021701080208011502150110021001DB
:100190000C020C0111021101040204010F020F01F3
:1001A000E1012D022D02E1010602060112021201F7
:1001B0000F020F011202120115021501160216019B
:1001C00037023701160216010B020B0128022874B0
:1001D0006400750501E301E10128022802E102E360
:1001E00074FF012C022C01060206010F020F010808
:1001F0000208010402040115021501330233011142
:100200000211010802080112021201090209010883
:1002100002080117021701060206010B020B012852
:100220000228746400750501E301E1012802280237
:10023000E102E374FF012C022C01060206010F0209
:100240000F0108020801040204011502150133021E
:1002500033010602060118021801150215010F02EA
:100260000F012C022C01E10134023402E1010B02E6
:100270000B011702170117021701130213011602CF
:100280001601E10133023302E101380138010602AF
:1002900006011202120115021501120212011102C9
:1002A0001101040204012D022D011602160117028C
:1002B0001701040204011702170116021601370282
:1002C000370112021201110211010F020F010C027B
:1002D0000C011102110108020801E1013802380184
:1002E00038023802E101170217011202120113024B
:1002F00013012E022E011F021F0122022201E10121
:1003000024022402E101160216011202120118024F
:1003100018011502150106020601080208012E0245
:100320002E011F021F01E10124022402E10110023B
:1003300010010C020C01110211010C020C0110023F
:100340001001040204010F020F012E022E011702F8
:100350001701150215011802180108020801E10130
:1003600034023402E101280228746400750501E3B7
:1003700001E10128022802E102E374FF012C022CB2
:1003800001060206010F020F01080208010402041F
:100390000115021501330233010602060118021885
:1003A00001150215010F020F012C022C012D022D47
:1003B00001E1010B020B02E1012C022C01E10134ED
:1003C00002340104020402E10106020601060206EB
:1003D000010802080113021301170217012D022D53
:1003E00001E1010F020F02E10104020401110211F7
:1003F000010A020A0118021801040204010A020A91
:100400000108020801E10133023302E1012C022C50
:10041000010702070108020801E10134023402E188
:10042000012C022C011A021A0117021701170217D8
:100430000115021501370237010C020C01110211DE
:1004400001280228746400750501E301E101280216
:100450002802E102E374FF012C022C0106020601CE
:100460000F020F0108020801040204011502150120
:10047000330233010F020F011602160105020501B6
:100480000F020F010E020E0133023301190219018E
:1004900008020801110211011702170112021201CC
:1004A0001C021C012C022C012D022D010B020B0140
:1004B00028022874640107020701120212010402D3
:1004C0000401160216012C022C011902190108025E
:1004D00008011102110117021701120212011C0278
:1004E0001C012C022C012D022D01180218012C02D6
:1004F0002C0138023801070207010802080119021D
:100500001901380238011602160107020701050217
:1005100005746400750501E101E302E302E174FF83
:1005200001160216011702170128022874640075CB
:100530000501E101E302E302E174FF011502150187
:10054000080208010502050112021201120212013D
:1005500017021701280228746400750501E3010BD6
:10056000020B02E3746401E301E1010B020B02E1FF
:1005700002E3746400750501E3011E021E02E374C8
:100580006401E30128022802E374FF012C022C011C
:10059000060206010F020F0108020801040204010D
:1005A0001502150133023301060206010C020C018B
:1005B0001102110109020901120212012802287414
:1005C0006401E3011A021A02E374FF01E3011F024E
:1005D0001F02E3746401E30128022802E374FF01AF
:1005E0002C022C01060206010F020F01080208016D
:1005F000040204011502150133023301150215012D
:1006000004020401110211010A020A010802080190
:1006100015021501E1012D022D02E101060206017C
:100620000702070128022874FF74FF74FF013402D7
:100630003401150215746401E30121022102E374FF
:100640006401E3011F021F02E3746401E3011E025F
:100650001E02E3746400750501E101E302E302E1B7
:1006600074FF011B021B0116021601080208011784
:100670000217012C022C01150215012C022C011568
:100680000215010402040117021701080208012CD7
:10069000022C011F021F0127022701270227012C1C
:1006A000022C012202220127022701330233011604
:1006B00002160108020801170217011B021B010E96
:1006C000020E0105020501100210010402040113CB
:1006D0000213012C022C012D022D01100210011217
:1006E00002120107020701080208010F020F012C84
:1006F000022C0113021301060206011E021E01272D
:10070000022701220222012C022C012D022D010FB1
:10071000020F01040204011C021C01120212011842
:10072000021801170217012C022C011802180116D9
:100730000216013602360107020701080208012CE1
:10074000022C012D022D01120212011302130117B6
:100750000217010C020C0112021201110211012CEC
:10076000022C010A020A011502150113021301E10C
:100770000133023302E101060206010402040113FF
:1007800002130116021601E1012D022D02E10116EC
:100790000216011A021A010C020C011702170106B7
:1007A0000206010B020B01280228746400007B463C
:1007B000010203763A687F6577482B353B69787983
:1007C0006439141E3C6A7A1D16041A1F3D6B061B01
:1007D000070821203E6C2C19091715223F6D1105C1
:1007E0000B0A1C23406E7E100D182425416F360E17
:1007F0000C122726427037380F33132D437175348E
:10080000322F2E44727C7D28303174457351504A0A
:10081000524D492A5466594F5C5F4C4B4E62635AA5
:100820005D5E60295367585B5657614755484240A3
:100830003E3C3A3B456843413F3D2B357E697A79E2
:100840000078141E7C6A7B1D16041A1F7F6B061B22
:10085000070821204D6C2C19091715224A6D110526
:100860000B0A1C234C6E49100D182425516F360EAF
:100870000C1227264F7037380F33132D52717534F1
:10088000502F2E4E72397D283065314B7354645889
:100890006776012A773259745C5F66020362635A95
:1008A0005D5E60295344575B565561474680291E5B
:1008B0001F20212223242526272D2E2A2B141A0817
:1008C00015171C180C12132F302878041607090A64
:1008D0000B0D0E0F33343579311D1B061905111020
:1008E0003637387D557A2C393A3B3C3D3E3F4041C6
:1008F000424353475F6061565C5D5E57595A5B6285
:10090000634648324445677B7F650301025250517C
:100910004F68696A6B6C6D6E6F7071725800494CEC
:10092000754A4D734B4E767C777E746654722530D3
:1009300032582000623A2530345820006525303284
:100940005820002146554C4C2120002146462120AC
:100950000077253032582000214353335F46302141
:100960000A00214353335F5245414459210A002173
:100970004353325F45305F4630210A0021435332F2
:100980005F4630210A00214353325F4530210A007F
:10099000214353325F494E4954210A0021435331C8
:1009A0005F45305F25303258210A000A5B4F5652AE
:1009B0005D20004C2575200053257520000A494410
:1009C0003A253034582825732920004D6F757365FA
:1009D0003A206E6F7420737570706F727465640A5C
:1009E00000522575200057257520005725752000D9
:1009F0005725752000582575200041257520004990
:100A0000257520005B4348475D20000A5052543A48
:100A100025303258204953523A2530345820005B53
:100A20005253545D20000A4552523A253032582024
:100A30004953523A2530345820000A4B6579626F89
:100A40006172642073746172742E0A000A555342F5
:100A500020636F6E666967757265642E0A000A0A04
:100A6000544D4B3A613235373839342B2F4C55467B
:100A7000410A0A0034035A0065006E0069007400E0
:100A8000680020006B006500790062006F00610063
:100A900072006400200063006F006E007600650045
:100AA000720074006500720000000E0374002E00D6
:100AB0006D002E006B002E000000040309040902E3
:100AC0008D00050100A032090400000103010100AE
:100AD0000921110100012240000705810308000AD5
:100AE0000904010001030102000921110100012292
:100AF0004D000705820308000A09040200010300F3
:100B000000000921110100012236000705830308B6
:100B1000000A09040300020300000009211101007A
:100B20000122220007058403200001070504032099
:100B30000001090404000103000000092111010063
:100B40000122390007058503200001120110010070
:100B5000000008EDFEEE1B01000102000105010985
:100B600006A101050719E029E7150025019508757B
:100B70000181020508190129059505750191029564
:100B800001750391010507190029F7150025019545
:100B9000F875018102C00631FF0974A101097515BC
:100BA0000026FF009520750881020976150026FFB2
:100BB00000952075089102C005010980A1018502F8
:100BC0001601002637001A81002AB700751095011A
:100BD0008100C0050C0901A1018503160100269CB6
:100BE000021A01002A9C02751095018100C00501BE
:100BF0000902A1010901A100050919012905150032
:100C00002501950575018102950175038101050195
:100C1000093009311581257F95027508810609384B
:100C20001581257F950175088106050C0A38021586
:100C300081257F950175088106C0C005010906A1BF
:100C400001050719E029E7150025019508750181BF
:100C50000295017508810105081901290595057599
:100C60000191029501750391010507190029FF15EE
:100C70000026FF00950675088100C0636F6E7375CE
:100C80006D65723A20253034580A007379737465A3
:100C90006D3A20253034580A000A00253032582099
:100CA000006B6579626F6172643A20004C45443A8A
:100CB00020253032580A0025583A253038622573ED
:100CC0000A000A202030313233343536370A0064C6
:100CD000656C5F6B65795F6269743A2063616E274A
:100CE000742064656C3A20253032580A00616464CF
:100CF0005F6B65795F6269743A2063616E27742067
:100D00006164643A20253032580A00290A002575AA
:100D1000002F002575005D28002564002000256453
:100D200000200025640020002564007C002530326E
:100D300058006D6F7573656B6579205B62746E7CAE
:100D4000782079207620685D287265702F61636C49
:100D5000293A205B006D6B5F776865656C5F74692D
:100D60006D655F746F5F6D6178203D2025640A00BA
:100D70006D6B5F776865656C5F6D61785F737065DB
:100D80006564203D2025640A006D6B5F74696D65A4
:100D90005F746F5F6D6178203D2025640A006D6B84
:100DA0005F6D61785F7370656564203D2025640A1E
:100DB000006D6B5F696E74657276616C203D2025F5
:100DC000640A006D6B5F64656C6179203D20256469
:100DD0000A006D6B5F776865656C5F74696D655F50
:100DE000746F5F6D6178203D2025640A006D6B5F34
:100DF000776865656C5F6D61785F737065656420A9
:100E00003D2025640A006D6B5F74696D655F746FCA
:100E10005F6D6178203D2025640A006D6B5F6D6118
:100E2000785F7370656564203D2025640A006D6BF2
:100E30005F696E74657276616C203D2025640A00DE
:100E40006D6B5F64656C6179203D2025640A000A42
:100E500000257500363A20776865656C5F74696DAA
:100E6000655F746F5F6D61783A20000A0025750038
:100E7000353A20776865656C5F6D61785F73706582
:100E800065643A20000A00257500343A2074696DC3
:100E9000655F746F5F6D61783A20000A0025750008
:100EA000333A206D61785F73706565643A20000A9B
:100EB00000257500323A20696E74657276616C287F
:100EC0006D73293A20000A00257500313A206465C7
:100ED0006C6179282A31306D73293A20000A092D76
:100EE0002056616C756573202D0A004D3E004D251E
:100EF000643E20003F007365742064656661756C14
:100F0000740A00433E200077686572652064656C52
:100F100074613A20637572736F723D25642C20777B
:100F20006865656C3D25640A536565206874747056
:100F30003A2F2F656E2E77696B6970656469612E33
:100F40006F72672F77696B692F4D6F7573655F6B74
:100F50006579730A000A092D204D6F7573656B65FD
:100F600079202D0A4553432F713A09717569740A26
:100F7000313A0964656C6179282A31306D73290A28
:100F8000323A09696E74657276616C286D73290A4C
:100F9000333A096D61785F73706565640A343A09A4
:100FA00074696D655F746F5F6D61780A353A0977B2
:100FB0006865656C5F6D61785F73706565640A363E
:100FC0003A09776865656C5F74696D655F746F5F1A
:100FD0006D61780A0A703A097072696E74207661E0
:100FE0006C7565730A643A0973657420646566619B
:100FF000756C74730A75703A092B310A646F776ED9
:101000003A092D310A706775703A092B31300A7030
:1010100067646F776E3A092D31300A0A737065651F
:1010200064203D2064656C7461202A206D61785FC6
:101030007370656564202A2028726570656174206C
:101040002F2074696D655F746F5F6D6178290A0088
:101050003F004D3E2000433E20004C25640A000A1C
:10106000092D20436F6E736F6C65202D0A45534325
:101070002F713A09717569740A6D3A096D6F75734C
:10108000656B65790A000A092D204D616769632047
:101090002D0A643A0964656275670A783A096465DD
:1010A000627567206D61747269780A6B3A096465CC
:1010B000627567206B6579626F6172640A6D3A09C7
:1010C0006465627567206D6F7573650A763A097697
:1010D000657273696F6E0A733A097374617475731C
:1010E0000A633A09636F6E736F6C65206D6F646598
:1010F0000A302D343A096C61796572302D342846F6
:1011000031302D4634290A506175733A09626F6F88
:10111000746C6F616465720A6E3A094E4B524F0AE5
:10112000003F004E4B524F3A206F66660A004E4B0E
:10113000524F3A206F6E0A0074696D65725F726576
:101140006164333228293A202530346C580A006B08
:101150006579626F6172645F6E6B726F3A202558B9
:101160000A006B6579626F6172645F69646C653AED
:101170002025580A006B6579626F6172645F707236
:101180006F746F636F6C3A2025580A00686F737430
:101190005F6B6579626F6172645F6C656473282947
:1011A0003A2025580A000A092D205374617475737A
:1011B000202D0A004743433A2031302E322E302072
:1011C0004156522D4C4942433A20322E302E302087
:1011D0004156525F415243483A20617672350A00C7
:1011E0004F5054494F4E533A204C554641204D4F95
:1011F0005553454B45592045585452414B4559206C
:10120000434F4E534F4C4520434F4D4D414E44208C
:101210004E4B524F204B45594D41505F534543541F
:10122000494F4E20424F4F544C4F414445525F531B
:10123000495A450A004255494C443A2061323537F3
:101240003839342B202831383A34343A3337204D6A
:1012500061722031392032303231290A0056494436
:101260003A2030784645454428742E6D2E6B2E2941
:10127000205049443A20307831626565285A656EBD
:10128000697468206B6579626F61726420636F6E48
:1012900076657274657229205645523A203078304E
:1012A0003030310A00444553433A20636F6E76650F
:1012B0007274205A656E697468206B6579626F611B
:1012C000726420746F205553420A000A092D20567B
:1012D000657273696F6E202D0A000A6D6F757365F4
:1012E0003A206F66660A000A6D6F7573653A206F63
:1012F0006E0A000A6B6579626F6172643A206F66EC
:10130000660A000A6B6579626F6172643A206F6EDB
:101310000A000A6D61747269783A206F66660A0085
:101320000A6D61747269783A206F6E0A000A64650A
:101330006275673A206F6E0A000A64656275673AE3
:10134000206F66660A000A0A626F6F746C6F6164D0
:1013500065722E2E2E2000433E200000500C550CAE
:101360005A0C5F0C640C690C6E0C730C780C7D0CC1
:10137000820CFE0FFA0F121012101210121012101F
:1013800012100010FC0F0E1012101210FA0F141091
:1013900012101210D20FFE0F12101210FC0F1210AA
:1013A000121012101210121012100E10FE0FF40F65
:1013B0001210F80F121012101210D40F0010121089
:1013C00012100810121012101210D60F0210121064
:1013D000F60F1210FA0F121012100C100410121047
:1013E0000610FC0F1210121012100A101510121015
:1013F00012101210121012101210121015101210DA
:10140000D80F121012100010121012100210121029
:1014100012101210121012101210121012101210BC
:10142000DA0F1210121012100810121012101210EF
:101430001210121012101210121012101210DC0FD3
:101440001210DE0FE00F121012101210E20FE40F54
:10145000E60F1210E80FEA0F1210121012101010FF
:10146000EC0F1210F00FEE0FF20F121012101210FC
:101470001210021039104710531053102B10531034
:101480005310531053105310531053105310531044
:1014900053105310531053102D1053102F1053107E
:1014A0005310531053104B10531060104910531029
:1014B0005310531053105310531053105310531014
:1014C000531053105310531021103F10311043107C
:1014D000531033105310371053104110351045106E
:1014E0003B103D1053105310531053105310531012
:1014F00053102510271029104D104F105310531062
:10150000531051108011A211AF11D611E411EF1137
:1015100009121F1242125F12F41219139B13DA13ED
:10152000C313ED13FD13051409140E1413145114F1
:10153000571459145B145D146514651465145F1415
:10154000611463143C143E144014421444144C14AB
:101550004C144C14461448144A142F1A571A3F1BA3
:10156000571A3F1B8A1AAB1A3F1B011B0D1BC61FC4
:10157000C61F042004208D20C520B51FB51FDF2005
:10158000B51F01220122C422B51FDC22FE22E12F59
:10159000F32FBF2FBF2FBF2FDC2FBF2FBF2F19302F
:1015A000BF2F29309130BF2FBF2FBF2FBF2F5030FB
:1015B000BF2FBF2F3930BF2F0930BF2FBF2FA9300A
:1015C000A930A930A930A930A930A930A930A93053
:1015D000A530BF2FA53011241FBECFEFDAE0DEBF4C
:1015E000CDBF04B603FE41C08091C2039091C303F6
:1015F000A091C403B091C5038730904BA740B04B76
:10160000A1F51092C2031092C3031092C40310926A
:10161000C50314BE0FB6F894A89580916000886148
:1016200080936000109260000FBE1092010810922B
:10163000000889E0E3E0F0E080935700E491E6954C
:10164000E370E15080E090E1E33040F4F0E0EE0F31
:10165000FF1FED5AFE4F8081918100C0E0E0F0E86D
:10166000E81BF90BF695E795099511E0A0E0B1E0CC
:10167000ECEBF6E602C005900D92A436B107D9F75F
:1016800023E0A4E6B1E001C01D92A23CB207E1F75D
:101690000E944E170C945C330C940000FF93EF9360
:1016A000E0916401F0916501309709F00995EF919F
:1016B000FF910895FC018591803011F0EFDFFBCFA1
:1016C0000895FF27E0E230E247FF0CC0419597FF05
:1016D00009C0EDE26095709580959095611D711D32
:1016E000811D911D27FF02C0219530E350E2AA27FA
:1016F000660F771F881F991FAA1FA41710F0A41B3D
:1017000063955A95A9F7AA3008F0A95FA05DAF9339
:10171000F395611571058105910541F7ED3211F4DD
:10172000EF93F395F21718F43F93F395FBCF8F9156
:10173000B5DFFA95E1F70895E991F9918591803047
:1017400021F0853219F0AADFF9CF089520E0E8945E
:1017500055915532C1F3503311F4689455915A3371
:1017600048F4505390F3220F022E220F220F200D27
:10177000250FF4CF0EF4219589919991533619F3E1
:10178000533729F1533559F1BC0188279927E8943B
:101790005C3621F48991999168945591543639F4C5
:1017A00046EF7EF077FF0DC08FEF9FEF0AC05537F1
:1017B0004AE039F0583540E121F0523642E009F074
:1017C0000895FF93EF937DDFEF91FF91B7CFFF93E4
:1017D000EF93FC0181918030B9F360DFFBCFFF9381
:1017E000EF9368DFF1CFDF93CF93CDB7DEB72596C8
:1017F000A3DFCF91DF910895282F8091710182306E
:1018000091F08330C9F0813059F448E0749FF001C1
:101810001124E60FF11DE355F74FE491E038A9F4E8
:1018200080E090E0089588E0789FF0011124E60FB1
:10183000F11DE35DF74FF1CF48E0749FF0011124F3
:10184000E60FF11DE355F84FE8CF8E2F90E034E01E
:10185000959587953A95E1F78770992748E0249FF9
:1018600090011124820F931F44E0880F991F4A951D
:10187000E1F7EF70E80FF92FF11DEE0FFF1FE050B9
:10188000F849859194910895DC016B3008F03FC0D0
:10189000E62FF0E0E255F64F12968C910C9442330D
:1018A0008823A9F186E596E00895882381F185E7EC
:1018B00095E00895882359F18AE595E008958823F5
:1018C00031F18FE295E00895882309F184E195E0F4
:1018D00008958823E1F087E494E008958823B9F01F
:1018E0008CE693E00895882391F085E292E00895D4
:1018F000882369F082ED91E00895882341F083E523
:1019000091E00895882319F08CEA90E0089590E022
:1019100080E008955998519A08955198599A0895D8
:101920005898509A08955098589A08955198599AED
:1019300085E08A95F1F7000089B186958170089558
:101940005098589A85E08A95F1F7000089B1817026
:101950000895CF93DF93EC010E94960C882311F039
:10196000209721F4CE01DF91CF91089585E08A95EB
:10197000F1F700002197F0CFCF93DF93C2E3D0E0DF
:101980000E94960C811102C0209721F4CE01DF91B4
:10199000CF91089585E08A95F1F700002197F0CF67
:1019A0002E9826982F9827980E948A0C0E94930CB4
:1019B000E9E6F0E0808188608083E9980895E19A03
:1019C000E99A0E948D0C0C94930CE9980E948A0C61
:1019D0000C94930C0F931F93CF93DF932FB7F8942E
:1019E000C0910201D0910301CE01882781159F4F3C
:1019F00001F180E09FEF8C2B9D2B9093030180934E
:101A000002012FBFCE0199278F3F9105A1F5CD2F60
:101A1000DD27C03FD10581F0CF3FD10549F180914D
:101A2000B203C034D105B1F480FF12C083E499E061
:101A300009C08FEF90E0DFCF8091B20380FF08C034
:101A40008BE499E09F938F930E94F30B0F900F907C
:101A5000CFEF26C080FF0CC0DF93CF938CE399E0DB
:101A60009F938F930E94F30B0F900F900F900F9006
:101A70000FEF1FEF27C0CE018F6F019689F0809185
:101A8000B20380FF0CC0DF93CF9384E399E09F9370
:101A90008F930E94F30B0F900F900F900F90CD2F0C
:101AA0000C2F10E08091B20380FF0CC01F92CF93E7
:101AB0008DE299E09F938F930E94F30B0F900F900C
:101AC0000F900F90C801DF91CF911F910F91089552
:101AD000CF93CAE1C15071F00E94EA0C8F3F980782
:101AE00011F0CF9108958FE99FE00197F1F700C0C1
:101AF0000000F0CF8FEF9FEFF4CF10926A011092A9
:101B00006901109268011092670180E090E890935B
:101B10000101809300018FEF9FEF90930301809369
:101B200002010895EF92FF920F931F93CF93DF93DB
:101B3000C82F109267018091B20380FF0CC01F92E2
:101B4000CF9381E599E09F938F930E94F30B0F90C1
:101B50000F900F900F90E9980E948A0C0E94930CAE
:101B60008FE891E00197F1F700C000000E94900C0F
:101B70008FE891E00197F1F700C000000E948D0C02
:101B800080E197E20E94A90C892BB9F481E080934F
:101B90006701809167018061809367010E948D0CCD
:101BA0000E94930CE19AE99A8FEF9FEFDF91CF911A
:101BB0001F910F91FF90EF90089510E000E0FF2437
:101BC000F394D0E0EE24E39490E59A95F1F7CE01FA
:101BD000002E02C0959587950A94E2F780FF09C010
:101BE000FE240E94930C0E94BC0C892B29F482E0F5
:101BF000CECF0E94900CF7CF82E390E00E94A90C18
:101C0000892B11F483E0C3CF0F5F1F4F08301105FC
:101C1000D9F680E58A95F1F7FF2041F00E94930CF8
:101C20000E94BC0C892B29F484E0B1CF0E94900C57
:101C3000F7CF82E390E00E94A90C892B11F485E094
:101C4000A6CF90E59A95F1F70E94930C0E94BC0CE8
:101C5000892B11F486E09BCF80916801813181F15D
:101C600082E390E00E94A90CC2E3D0E0892B39F412
:101C700087E08DCF85E08A95F1F7000021970E94DB
:101C8000A00C882321F02097A9F788E080CFCD2BE6
:101C9000E1F30E94BC0CC2E3D0E0892B39F489E067
:101CA00076CF95E09A95F1F7000021970E94A00C5D
:101CB000811104C02097A9F78AE069CFCD2BE1F309
:101CC0008FEF9FEF90930301809302010E947D0D9F
:101CD0000E948D0C0E94930CE19AE99ADF91CF91BA
:101CE0001F910F91FF90EF900C94680D1F921FB6FB
:101CF0001F9211242F933F934F938F939F9399B1EA
:101D000091708091B3032091000130910101211560
:101D10003048D9F58093660120910001309101018E
:101D2000369527953093010120930001992349F0BE
:101D3000809100019091010190689093010180933E
:101D400000012091000130910101C9019927203A39
:101D500009F4E5C0813A910508F061C0803491052D
:101D600009F49FC098F54097D9F12F7D33272115AD
:101D7000310509F496C08091000190910101909382
:101D80006A018093690180E80EC020916601821B80
:101D9000833010F2809100019091010190936A01CB
:101DA0008093690180E2809367018091670190E0F0
:101DB000982F88278F6F909303018093020180E012
:101DC00090E890930101809300016BC080389105E9
:101DD00009F467C08039910519F08035910559F6ED
:101DE000809100019091010190936A0180936901B3
:101DF000809100019091010197FF9CC080E1809348
:101E00006801809100019091010146E096958795C7
:101E10004A95E1F790930101809300012FC0803D26
:101E20009105F1F2803E910509F444C0803C910592
:101E300009F0A1CF84E605C095E09A95F1F700007E
:101E40008150499902C08111F7CF499B28C0811167
:101E500020C0809100019091010190936A018093CC
:101E600069018091000190910101892F9927909338
:101E700001018093000182E280936801809100015A
:101E80009091010199278F3F910509F055C080EF8E
:101E90008ACF45E04A95F1F700008150D6CF8823DC
:101EA000C1F29F918F914F913F912F911F901FBE33
:101EB0001F901895809100019091010190936A0103
:101EC000809369018091000190910101892F9927E8
:101ED000909301018093000183E2CECF95E09A9523
:101EE000F1F700008150499902C08111F7CF499B59
:101EF0001EC0811116C08091000190910101909344
:101F00006A01809369018091000190910101892FFC
:101F10009927909301018093000181E2ADCF84E67F
:101F2000E2CF45E04A95F1F700008150E0CF811102
:101F3000B8CFE1CF81E163CF809103018F3F31F0D2
:101F4000809102018F3F11F080E42DCF809102013A
:101F500090910301982F88279093030180930201A9
:101F600020910001309101018091020190910301C3
:101F7000822B21CFCF93C82F8DEE0E94920D8A3FE6
:101F8000910521F48C2FCF910C94920DCF9108954F
:101F9000EDEFE80FE13808F045C0F0E0E754F64F08
:101FA0000C94423387E108958FE108958CE50895FC
:101FB00080E6089582E6089587E2089583E508950E
:101FC0008FE2089589E3089587E308958FE30895E4
:101FD00087E408958FE4089586E508958EE50895D1
:101FE0008FE7089580E0089585E608958EE60895C8
:101FF0008FE6089588E0089580E1089588E10895C6
:1020000080E2089588E2089580E3089588E30895C2
:1020100080E5089587E508958FE5089589E108959D
:102020008DE608958F7708958FE00895CF93C82F98
:10203000E4EEE80FE834B8F5F0E0E65CF54F0C9418
:102040004233C5E58C2FCF910895CAE5FBCFCBE590
:10205000F9CFCCE5F7CFCDE5F5CFCEE5F3CFCFE5A2
:10206000F1CFC0E6EFCFC1E6EDCFC2E6EBCFC3E6DE
:10207000E9CFCFE6E7CFC1E7E5CFC2E7E3CFC4E7DB
:10208000E1CFC5E7DFCFC7E7DDCFC8E7DBCFCAE7E2
:10209000D9CFCCE7D7CFCFE7D5CFC0E7D3CFC9E7EC
:1020A000D1CFCBE7CFCF1F92CF938CE999E09F930D
:1020B0008F930E94F30B0F900F900F900F90C2CF51
:1020C000C4E5C0CF0F931F93CF93DF930E94D22A12
:1020D0008C010E94EA0CEC01019631F4C8010E94C7
:1020E000FE2A843F9140A8F3CE01DF91CF911F914A
:1020F0000F9108950E94D00C0C94DF0C8091B203D4
:1021000081608093B203E5E7F1E080E1DF011D9299
:102110008A95E9F70895E82FF0E0EB58FE4F20810B
:1021200030E081E090E002C0880F991F6A95E2F7E5
:102130002823392381E0232B09F480E00895CF93ED
:10214000DF93E82FD82FD770E695E695E695CE2F4A
:10215000CF706D2F8C2F0E948B1081110DC0EC2F32
:10216000F0E0EB58FE4F21E030E001C0220FDA959D
:10217000EAF78081822B8083DF91CF910895CF93FE
:10218000DF93E82FD82FD770E695E695E695CE2F0A
:10219000CF706D2F8C2F0E948B10882371F0EC2F45
:1021A000F0E0EB58FE4F81E090E001C0880FDA9537
:1021B000EAF78095908189238083DF91CF910895FC
:1021C000E82FF0E0EB58FE4F80810895E5E7F1E05D
:1021D00080E1DF011D928A95E9F70895982F80919B
:1021E0007101823048F092FB882780F990FD82606F
:1021F00091FD84600C94BA0F0895CF93DF93809182
:102200006701882371F18091690190916A012091A1
:1022100067019F938F931F922F9386E29AE09F937B
:102220008F930E94F30B8091670180750F900F9040
:102230000F900F900F900F9071F4809170018B3080
:1022400051F48FE19AE09F938F930E94F30B1092C9
:1022500070010F900F901092670110926A01109216
:10226000690180916801882309F440C09091680158
:10227000809174019817D1F18091690190916A0160
:10228000209168019F938F931F922F938BE09AE088
:102290009F938F930E94F30B809174010F900F9086
:1022A0000F900F900F900F9085FF04C090916801E0
:1022B00094FD06C084FF12C08091680185FF0EC0A6
:1022C000809170018B3051F484E09AE09F938F935A
:1022D0000E94F30B109270010F900F908091680193
:1022E0008093740110926A0110926901E09170016B
:1022F000EC3008F055C0F0E0EE57F54F0C94423347
:102300000E94E50C0E94D22A9F938F938FEF99E051
:102310009F938F930E94F30B10927101109273019F
:1023200010927201109274010E94E6100E94861FA2
:102330000E94D22A90936F0180936E0181E0809376
:1023400070012AC080916E0190916F010E94FE2A57
:10235000893E934028F182E08093700121C00E9461
:102360007D0D0E94DF0C8FE99FE00197F1F700C01F
:1023700000008FEF0E94920D8A3F9105A9F486E03C
:10238000809370010E94D22A9F938F938AEF99E0E5
:102390009F938F930E94F30B0F900F900F900F90CD
:1023A00081E0DF91CF91089583E0EACF0E94E50CB0
:1023B0002E98269A2F98279A0E94D22A90936F01DE
:1023C00080936E0184E0C8CF80916E0190916F017F
:1023D0000E94FE2A853F914018F385E0BDCF2E98DC
:1023E00026982F9827980E947D0D0E94DF0C0E944E
:1023F000D22A9F938F9385EF99E09F938F930E94AA
:10240000F30B0E94D22A90936F0180936E0186E0B5
:1024100096CF0E94EA0C019619F20E94D22A9F934D
:102420008F9380EF99E09F938F930E94F30B0E940C
:10243000D22A90936F0180936E0187E080CF8091C4
:102440006E0190916F010E94FE2A853F914018F025
:1024500089E0809370010E94EA0C019609F4A0CFF4
:102460000E94D22A9F938F938BEE99E09F938F9334
:102470000E94F30B0E94D22A90936F0180936E0109
:1024800088E05DCF80916E0190916F010E94FE2ADD
:10249000853F914018F089E0809370010E94EA0C1A
:1024A000019609F47DCF0E94D22A9F938F9386EEE6
:1024B00099E09F938F930E94F30B89E040CF809126
:1024C0006801CDEFDFEF8131C9F082EF0E94920DFC
:1024D0009C01CFEFDFEF2F3F320781F0CEEFDFEF30
:1024E0002A3F310559F40E946210EC01CF3FDC070E
:1024F00009F1DC2FCC270E946210C82BD093730106
:10250000C09372010E94D22A9F938F9381EE99E02B
:102510009F938F930E94F30B8091720190917301AE
:102520000F900F900F900F90009739F482E08093F6
:1025300071011FC0D0E0C0E0E1CF8F3F980711F4D8
:1025400081E0F5CF8E3F2FEF920781F38D3F2FEF84
:10255000920711F484E0EBCF8F3F910571F58BEC7E
:1025600099E09F938F930E94F30B109271010F904B
:102570000F9080917101813059F1823061F1833087
:1025800069F1843071F185E391E09F938F9380919D
:1025900073018F93809172018F938DEB99E09F93DC
:1025A0008F930E94F30B8AE0809370010F900F903D
:1025B0000F900F900F900F90F3CE803B2FEB920770
:1025C00011F483E0B4CF882781159F4BD1F3AECFB0
:1025D00089E291E0DACF86E291E0D7CF8CE291E018
:1025E000D4CF8EE191E0D1CF0E94D22A9F938F93D6
:1025F00088EB99E09F938F930E94F30B8091710178
:102600000F900F900F900F90823081F1833059F12D
:102610008BE0809370010E94D22A9F938F9383EB6B
:1026200099E09F938F930E94F30B0F900F900F9060
:102630000F900E94EA0C9C012F3F320709F4B0CEA4
:102640002115310519F02F3F3105A9F40E94E6103C
:102650000E94861F8BEA99E09F938F930E94F30B51
:102660000F900F909DCE88EF0E94920D0E94C11C8A
:102670000E94EE10CDCF90917101933009F4D8C033
:1026800078F4913081F0923009F08ACEE0916C01BB
:10269000E93008F07EC0F0E0E257F54F0C94423389
:1026A0009430A1F37DCE90916D019230A1F158F458
:1026B00091111AC0803E71F0813E81F087FD10C0FB
:1026C0000E949F106DCE933071F1943081F1109281
:1026D0006D0166CE81E080936D0162CE82E0FBCF1A
:1026E0008F770E94BF105CCE8A3A89F358F48A3201
:1026F00071F3863361F387FD08C00E9416100E94B3
:102700009F10E5CF863BB9F7E2CF8F770E94161076
:102710000E94BF10DCCF8D3121F08D39C1F684E0ED
:10272000DACF83E0D8CF853491F685E5E8CF853CD4
:1027300071F685E5EDCF803ED1F098F48338E9F06D
:102740008438F9F087FFBCCF0E94E61080E999E059
:102750009F938F930E94F30B0F900F901092700134
:102760001FCE813E41F0803F69F781E001C082E0E9
:1027700080936C0115CE84E0FBCF82E00E949F1015
:1027800008C08FE7FBCF893521F0803F29F08231E7
:1027900029F410926C0104CE83E0EACF10926C0110
:1027A00087FD03C00E94C80F8BCF0E94E61086E809
:1027B00099E0CECF833859F0843869F010926C01DB
:1027C00087FF8FCF0E94E6108CE799E0C1CF82E0AF
:1027D0000E94BF10DECF8FE7FBCF8231D1F2893567
:1027E000C1F210926C0187FD03C00E94C80F79CF1F
:1027F0000E94E6108FE699E0ABCF843121F0803F54
:1028000041F686E0B5CF85E0B3CF873711F680E09B
:10281000B5CF843109F0BDCF87E0AACF803F09F062
:10282000B8CF88E0A5CF873709F0B3CF80E0D0CF0D
:1028300090916B01992369F0913009F0B1CDEDE7EA
:10284000E80FEB3008F041C0F0E0E956F54F0C948A
:1028500042338E3858F48338F8F0EDE7E80FEB3068
:10286000D8F4F0E0EE55F54F0C944233803FA1F4DC
:1028700081E080936B0194CD82E022CF8FE720CF5F
:102880008BE01ECF86E01CCF80E01ACF81E018CF0E
:1028900089E016CF8AE014CF87FF12CF82E699E055
:1028A00057CF82E00E94BF1010926B0179CD8FE765
:1028B000F9CF8BE0F7CF86E0F5CF80E0F3CF81E072
:1028C000F1CF89E0EFCF8AE0EDCF10926B0187FF67
:1028D00008CF88E599E03CCF8091A9020895CF9375
:1028E000DF9300D00F92CDB7DEB72091AE02243037
:1028F00019F523E029838A839B832093E9008FEFD6
:102900009091E800815095FD06C095ED9A95F1F7FC
:1029100000008111F5CF8091E80085FF0DC050E0E7
:1029200040E063E070E0CE0101960E9400198091C2
:10293000E8008E778093E8000F900F900F90DF9162
:10294000CF910895CF93DF9300D00F92CDB7DEB72C
:102950009C018091AE02843031F582E08983205859
:1029600031093B832A8383E08093E9008FEF9091C4
:10297000E800815095FD06C095ED9A95F1F70000AD
:102980008111F5CF8091E80085FF0DC050E040E057
:1029900063E070E0CE0101960E9400198091E8008A
:1029A0008E778093E8000F900F900F90DF91CF917A
:1029B00008952091AE022430F1F422E02093E90042
:1029C0002FEF3091E800215035FD06C035ED3A95E6
:1029D000F1F700002111F5CF2091E80025FF0BC091
:1029E00050E040E065E070E00E9400198091E8004E
:1029F0008E778093E8000895CF93DF93D82FC92F67
:102A00008091AE028430D1F4809114018823F1F0DA
:102A1000809115018823D1F085E08093E90081E859
:102A2000815021F09091E80095FF0BC08091E80063
:102A300050E040E060E270E085FD1AC0DF91CF9188
:102A400008959AE29A95F1F700C0EACF81E0809369
:102A5000E90081E8815021F09091E80095FF1BC0CA
:102A60008091E80085FFEACF50E040E068E070E048
:102A70008D2F9C2F0E9400198091E8008E77809303
:102A8000E80080E2ED2FFC2FA9E8B2E001900D9262
:102A90008A95E1F7D3CFEFE3F1E03197F1F700C08A
:102AA0000000D8CFCF93DF9300D000D00F92CDB7E6
:102AB000DEB7209187012D8321110CC00E94DE2AF0
:102AC000643C79408105910528F081E0809387017D
:102AD000B1E0BD838D810F900F900F900F900F90FC
:102AE000DF91CF910895FF920F931F93CF93DF93C0
:102AF000D82F0FB607FE48C08091AE02843071F027
:102B00008091070190E001962091090130E0822335
:102B100093232091080128171906B1F50E94521538
:102B200081110FC02091070130E02F5F3F4F80914E
:102B3000090190E0282339238091080182171306A8
:102B400019F50E94D22A8C01C091E900CF709091B2
:102B5000EC00892F817090FD80E8C82B84E0809381
:102B6000E90085E0F82E8091EB0085FD0AC0909188
:102B7000EB00892F817090FF04C09091EE0097FDCB
:102B800043C0CF70C093E9008091070190E09C01A1
:102B90002F5F3F4F4091090150E02423352340919E
:102BA00008014217130609F47CC0209105013091F9
:102BB0000601820F931FFC01D083809107018F5F74
:102BC000909109018923809307016BC0E091050171
:102BD000F0910601E90FF11D20819F5F30910901FD
:102BE0009323909308012093F1009091E80095FDC4
:102BF0000BC09091E80090FF07C09091E8009E778D
:102C00009093E800F092040190910801209107014F
:102C10003091E800291731F135FDD8CF80E026C08A
:102C20001092F1002EC030E02F5F3F4F409109011C
:102C300050E0242335239217130609F0A2CF809188
:102C40000401882309F49DCF0E94D22A9C01801799
:102C5000910709F488CF8091040181508093040189
:102C6000890181CF35FFDACFD093F1003091F300A5
:102C70004091F200532F452B79F03091E80030FF5E
:102C80000BC03091E80035FDCBCF3091E8003E77A6
:102C90003093E800F0920401882329F2CF70C093AA
:102CA000E90080E0DF91CF911F910F91FF9008958F
:102CB0008091B702811104C00E94571B0C94B41B71
:102CC00008951092B70208951092B702089542E055
:102CD00061EC81E00E947C1842E061EC82E00E949D
:102CE0007C1842E061EC83E00E947C1842E261ECD7
:102CF00084E00E947C1842E261EC85E00C947C1830
:102D00008091B002893081F148F4823009F492C098
:102D1000833009F44DC0813041F008958A3009F4C0
:102D200079C08B3009F45FC008958091AF02813A79
:102D3000F1F58091E800877F8093E8008091B302ED
:102D40009091B402892B61F460E289E892E070E02E
:102D50000E9451198091E8008B778093E8000895D4
:102D600060E090E080E0F3CF8091AF028132F9F42F
:102D70008091B3029091B4028B7F892BC1F4809132
:102D8000E800877F8093E8008091E80082FF0BC015
:102D90008091F1008093A9028091E8008B77809365
:102DA000E8000C94B0188091AE028111EDCF089527
:102DB0008091AF02813AD9F78091B3029091B40229
:102DC000892BA9F78091E800877F8093E8008091A4
:102DD000E80080FFFCCF809114018093F100809186
:102DE000E8008E77DCCF8091AF02813201F78091CD
:102DF000B3029091B402892BD1F68091E800877FCD
:102E00008093E8000E94B0188091B1028093140171
:102E10000C94861F8091AF02813249F68091E800C0
:102E2000877F8093E8000E94B0188091B20280935F
:102E3000AA0208958091AF02813A09F0B8CF80913B
:102E4000E800877F8093E8008091E80080FFFCCF56
:102E50008091AA02C2CF08958091A902809388012F
:102E60001092A9020E94E6100C94861F0C942C1755
:102E70000E94812A8091AB02882329F00E948E2A29
:102E800081110C94661808950E94A22A80918801ED
:102E90008093A90208950C944417089584B7877FFE
:102EA00084BF0FB6F894A8958091600088618093E4
:102EB0006000109260000FBE80E890E00FB6F894BA
:102EC00080936100909361000FBE83E795E10E94BB
:102ED000522A8AE091E00E94BC1C8EE59AE00E9492
:102EE0005A0B0E947A100E947C1D0E94571B0E9460
:102EF000B41B78940E947E1D8091AE02843009F04C
:102F000046C08CE49AE00E945A0B0E942B178AE379
:102F10009AE00E945A0BC4E08091AE028530E1F144
:102F20000E94821D2091E4003091E500809185018E
:102F3000909186012817390739F18091E40090912A
:102F4000E50090938601809385010E9452158823A5
:102F5000D9F08091AE028430B9F49091E9009F706D
:102F60002091EC00822F817020FD80E8892BC09396
:102F7000E9009091EB0090FF04C09091EE0097FD66
:102F80002AC08F708093E9000E94A11CC5CF0E94C7
:102F9000A11C0E944D17B0CF0E943817BDCFE09101
:102FA0000501F0910601E90FF11D20819F5F30912D
:102FB00009019323909308012093F1009091E80078
:102FC00095FD09C09091E80090FF05C09091E80040
:102FD0009E779093E80090910801209107012917AE
:102FE00021F02091E80025FDDACF9091F3002091A7
:102FF000F200392F232B29F29091E80090FFC1CFE6
:103000009091E80095FD06C09091E8009E7790931E
:10301000E800B7CF1092F100F3CFFC01CB01DA0149
:103020002F2F332723303105D1F070F421303105B3
:1030300009F447C02230310569F48DE890E02EEBA9
:103040003AE02D933C93089521323105E9F0223284
:10305000310539F190E080E030E020E0F2CFCF019F
:103060009927E13059F08230910559F0EAEBFAE006
:10307000892B81F7849190E09F01E3CFEAEAFAE09F
:10308000F9CFE4E7FAE0F6CF6530710518F7880F5D
:10309000991FFC01E75BFE4F2081318189E090E0C0
:1030A000D0CF65307105B0F6FB01EE0FFF1FE15C7C
:1030B000FE4F20813181865C9E4FFC01808190E033
:1030C000C0CF82E190E02BE43BE0BBCF80E189BD43
:1030D00082E189BD09B400FEFDCF8091D8008F7DCB
:1030E0008093D8008091E00082608093E00080911E
:1030F000E00081FDFCCF0895982F973028F08F7065
:103100008093E90081E008959093E900242F762FC1
:1031100050E0981731F07091EC002091ED00509143
:10312000F00021FD02C09F5FE8CF3091EB003E7FB1
:103130003093EB003091ED003D7F3093ED00309106
:10314000EB0031603093EB007093EC002093ED00C6
:103150005093F0002091EE0027FDE5CF80E0089528
:103160008091AF0287FF13C08091E80082FF06C004
:103170008091E8008B778093E80004C08091AE02D4
:103180008111F2CF08958091AE028823D9F3809106
:10319000E80080FFF8CF8091E8008E77ECCF209197
:1031A000E4003091E50095E6A9012091EC00822F22
:1031B000817020FF06C08091E80080FF06C080E09B
:1031C00008952091E80022FD1AC08091AE02882364
:1031D00089F0853089F08091EB0085FD0FC020914A
:1031E000E4003091E50042175307F9F29150E1F6FF
:1031F00084E0089582E0089583E0089581E00895D1
:10320000AF92BF92CF92DF92FF920F931F93CF9313
:10321000DF936C01EB018A010E94CF18F82E811117
:1032200025C00115110539F0F80180819181C81B75
:10323000D90BC80ED91EB12CA12C2097B9F08091C2
:10324000E80085FD24C08091E8008E778093E80037
:103250000E94A11C01151105A1F0F8018081918146
:10326000A80EB91EB182A08285E0F82E8F2DDF91C5
:10327000CF911F910F91FF90DF90CF90BF90AF90B3
:1032800008950E94CF188823C1F2F82EEFCFF601DF
:1032900081916F018093F1002197FFEFAF1ABF0A70
:1032A000CCCFFC01CB012091B5023091B60226179C
:1032B000370790F0009729F42091E8002E772093AB
:1032C000E80040E0009751F4411108C08091E80007
:1032D00082FF31C080E00895C901F3CF2091AE0292
:1032E0002223A9F12530A9F12091E80023FD2DC06A
:1032F0002091E80022FDEACF2091E80020FFE2CFF4
:103300003091F3002091F200009719F02830310538
:1033100058F041E02830310509F040E02091E80004
:103320002E772093E800CECF41914093F100019792
:103330002F5F3F4FE9CF8091AE02882341F0853067
:1033400041F08091E80083FFC1CF81E0089582E0E1
:10335000089583E00895FC01CB012091B5023091DE
:10336000B6022617370790F0009729F42091E8005D
:103370002E772093E80040E0009751F4411108C0F7
:103380008091E80082FF32C080E00895C901F3CF48
:103390002091AE022223B1F12530B1F12091E80055
:1033A00023FD2EC02091E80022FDEACF2091E80005
:1033B00020FFE2CF3091F3002091F200009719F046
:1033C0002830310558F041E02830310509F040E05F
:1033D0002091E8002E772093E800CECF44914093CF
:1033E000F100319601972F5F3F4FE8CF8091AE02F9
:1033F000882341F0853041F08091E80083FFC0CF01
:1034000081E0089582E0089583E008951F93CF93AB
:10341000DF93CDB7DEB7AA970FB6F894DEBF0FBE25
:10342000CDBF8FEA92E0FC0101962091F10020834C
:1034300022E0873B9207B9F70E9480168091E8004E
:1034400083FF1DC18091AF029091B0029A3008F0C5
:1034500016C1E92FF0E0E355F54F0C944233803864
:1034600099F0823809F00BC18091B3028F708730D8
:1034700008F005C18093E9008091EB0085FB882767
:1034800080F91092E90006C08091AC029091AB02E5
:10349000911182609091E800977F9093E80080936B
:1034A000F1001092F1008091E8008E77E4C088234B
:1034B00009F4D2C0823009F0E2C08091B1028111DA
:1034C000D5C08091B3028F702FEF280F263008F0FF
:1034D000D6C08093E9002091EB0020FFC7C0933055
:1034E00031F48091EB0080628093EB00BFC090913B
:1034F000EB0090619093EB0021E030E001C0220FDF
:103500008A95EAF72093EA001092EA008091EB0096
:103510008860EACF8111B3C01091B1021F7780910A
:10352000E3008078812B8093E3008091E800877F1F
:103530008093E8000E94B0188091E80080FFFCCFE3
:103540008091E30080688093E30082E0111183E0C2
:103550008093AE0294C08058823008F090C0809171
:10356000B1029091B2028C3D23E0920799F583E07D
:103570008A838AE289834FB7F894DE01139620E0AC
:103580003EE051E2E32FF0E050935700849120FF9A
:1035900003C082958F703F5F8F708A30C8F0895C5E
:1035A00090E08D939D932F5F243161F74FBF809101
:1035B000E800877F8093E8006AE270E0CE01019620
:1035C0000E9451198091E8008B778093E80057C0E2
:1035D000805DE6CF6091B3027091B402AE014F5F9F
:1035E0005F4F0E940D18BC01892B09F448C08091DF
:1035F000E800877F8093E80089819A810E94AB1957
:10360000E1CF8038E1F58091E800877F8093E80082
:103610008091AD028093F10046CF811130C090912E
:10362000B102923060F58091E800877F8093E800D6
:103630009093AD020E94B0188091AD02882311F0E2
:1036400084E005C08091E30087FDFACF81E080939C
:10365000AE020E94671613C08091B102813079F4E6
:1036600081E0933009F080E08093AB021092E90092
:103670008091E800877F8093E8000E94B0188091D5
:10368000E80083FF0AC08091E800877F8093E8000C
:103690008091EB0080628093EB00AA960FB6F894BD
:1036A000DEBF0FBECDBFDF91CF911F9108950E9465
:1036B000C51B0E94CD1BE0EEF0E08081816080831D
:1036C000E8EDF0E080818F77808319BCA7EDB0E052
:1036D0008C918E7F8C9380818F7E80831092B70235
:1036E00008950F931F93CF93DF930E94C51B0E94F1
:1036F000CD1BC8EDD0E088818F7788838881806872
:10370000888388818F7D888319BC1092AE021092C5
:10371000AD021092AB021092AC0200EE10E0F80184
:1037200080818B7F808388818160888342E060E034
:1037300080E00E947C18E1EEF0E080818E7F808343
:10374000E2EEF0E080818160808380818860808308
:10375000F80180818E7F8083888180618883DF91FA
:10376000CF911F910F910895E8EDF0E080818F7E59
:103770008083E7EDF0E080818160808384E082BF18
:1037800081E08093B7020C94711BE8EDF0E080813A
:103790008E7F80831092E20008951092DA001092DA
:1037A000E10008951F920F920FB60F9211242F93EC
:1037B0003F934F935F936F937F938F939F93AF93B9
:1037C000BF93EF93FF938091E10082FF0BC0809144
:1037D000E20082FF07C08091E1008B7F8093E100CF
:1037E0000E94A01C8091DA0080FF19C08091D8004F
:1037F00080FF15C08091DA008E7F8093DA0080917F
:10380000D90080FF8FC080E189BD82E189BD09B404
:1038100000FEFDCF81E08093AE020E945816809199
:10382000E10080FF19C08091E20080FF15C0809107
:10383000E2008E7F8093E2008091E20080618093BD
:10384000E2008091D80080628093D80019BC85E0A6
:103850008093AE020E9436178091E10084FF29C058
:103860008091E20084FF25C080E189BD82E189BDAD
:1038700009B400FEFDCF8091D8008F7D8093D800E1
:103880008091E1008F7E8093E1008091E2008F7E45
:103890008093E2008091E20081608093E200809159
:1038A000AD02882309F444C084E08093AE020E94F4
:1038B0004B178091E10083FF24C08091E20083FFD9
:1038C00020C08091E100877F8093E10082E08093B7
:1038D000AE021092AD028091E1008E7F8093E100F4
:1038E0008091E2008E7F8093E2008091E20080610F
:1038F0008093E20042E060E080E00E947C180E9439
:103900006416FF91EF91BF91AF919F918F917F913D
:103910006F915F914F913F912F910F900FBE0F903C
:103920001F90189519BC1092AE020E94611677CFB5
:103930008091E30087FD02C081E0B7CF83E0B5CF7F
:103940000895CF938091AE028823A1F0C091E90041
:10395000CF709091EC00892F817090FD80E8C82B8A
:103960001092E9008091E80083FD0E94061ACF7052
:10397000C093E900CF9108959093BD028093BC025B
:103980000895E091BC02F091BD02309721F00190C2
:10399000F081E02D099480E00895EF92FF920F935B
:1039A0001F93CF93DF938C01E091BC02F091BD0295
:1039B0003097B1F10280F381E02D09958091B20337
:1039C00082FF2EC080FF04C081EA9CE00E945A0B57
:1039D000E801780180E2E80EF11C0BE91CE080911F
:1039E000B20380FF0BC088811F928F931F930F93A8
:1039F0000E94F30B0F900F900F900F902196CE1511
:103A0000DF0569F78091B20380FF0AC089E99CE075
:103A1000DF91CF911F910F91FF90EF900C945A0B73
:103A2000DF91CF911F910F91FF90EF900895E0915A
:103A3000BC02F091BD02309721F00480F581E02DA9
:103A400009940895CF93DF93EC018091BA0290918D
:103A5000BB028C179D0701F1D093BB02C093BA0241
:103A6000E091BC02F091BD023097B1F00680F78181
:103A7000E02DCE0109958091B2038570853061F407
:103A8000DF93CF938BE89CE09F938F930E94F30B7F
:103A90000F900F900F900F90DF91CF910895CF93DB
:103AA000DF93EC018091B8029091B9028C179D07C9
:103AB00001F1D093B902C093B802E091BC02F09139
:103AC000BD023097B1F00084F185E02DCE0109955B
:103AD0008091B2038570853061F4DF93CF938BE7DB
:103AE0009CE09F938F930E94F30B0F900F900F9089
:103AF0000F90DF91CF9108950C942F1E0E94C92A38
:103B00000C947E108F929F92AF92BF92DF92EF92B1
:103B1000FF920F931F93CF93DF9300D000D00F92AB
:103B2000CDB7DEB70E94FD108FEBA82E82E0B82E35
:103B300010E0812F0E94E010F82EF501D1905F0176
:103B4000D81699F18091B20381FD0E94301EDF24C6
:103B5000E12C01E04501F1E08F1A91088D2D8023C1
:103B6000F9F0E9821A8391E08F2D802309F490E027
:103B70009B830E94D22A8160782F9D838C83498108
:103B80005A816B818D810E94661E49815A816B81A9
:103B90007C818D810E946C2AF40180818027808342
:103BA000E394000FF8E0EF12D9CF1F5F103109F056
:103BB000C0CF8FEF89838A831B820E94D22A8160C3
:103BC000782F9D838C8349815A816B818D810E94DE
:103BD000661E0E946B2A0E94482D0E94C11C909173
:103BE000BE02891749F10E94C11C8093BE029091C8
:103BF000B2039570953061F41F928F938CEA9CE02C
:103C00009F938F930E94F30B0F900F900F900F9044
:103C10008091BE020F900F900F900F900F90DF9148
:103C2000CF911F910F91FF90EF90DF90BF90AF90D9
:103C30009F908F900C947D2A0F900F900F900F9073
:103C40000F90DF91CF911F910F91FF90EF90DF9038
:103C5000BF90AF909F908F9008950C94EE100895B0
:103C6000EF92FF920F931F93CF93DF9382EC9CE030
:103C70000E945A0BD0E0C0E085E2E82E81E0F82EE9
:103C800007EB1CE08C2F0E94E0100E94572AFF9245
:103C9000EF921F928F93DF93CF931F930F930E9406
:103CA000F30B21968DB79EB708960FB6F8949EBF7A
:103CB0000FBE8DBFC031D10529F7DF91CF911F9184
:103CC0000F91FF90EF90089508950895CF93DF939B
:103CD000CDB7DEB72B970FB6F894DEBF0FBECDBFC2
:103CE0004F83588769877A878B878A859B85892B3D
:103CF00021F0842F85238F3FD1F41E8285E0FE01C1
:103D00003796DE01119601900D928A95E1F749816F
:103D10005A816B817C818D819E812B960FB6F894A0
:103D2000DEBF0FBECDBFDF91CF910C949825698582
:103D30007A858B850E946C2AE0CFCF93C82F882389
:103D400009F49AC08CEF8C0F813A58F48C2F0E94A2
:103D5000B130811191C08C2F0E944D29CF910C94CC
:103D60002C2A80E28C0F883048F4C77081E001C0B3
:103D7000880FCA95EAF70E94F129F0CF8BE58C0FE6
:103D8000833068F481E890E0C53A31F083E890E050
:103D9000C63A11F482E890E0CF910C94221D88E598
:103DA0008C0F873108F068C082EE90E0C83A09F4C1
:103DB00060C089EE90E0C93A09F45BC08AEE90E0F9
:103DC000CA3A09F456C085EB90E0CB3A09F451C0E9
:103DD00086EB90E0CC3A09F44CC083EB90E0CD3A0E
:103DE00009F447C084EB90E0CE3A09F442C087EB77
:103DF00090E0CF3AF1F18CEC90E0C13BD1F18DEC49
:103E000090E0C03BB1F183E891E0C23B91F18AE8D8
:103E100091E0C33B71F182E991E0C43B51F184E947
:103E200091E0C53B31F181E292E0C63B11F183E2C2
:103E300092E0C73BF1F084E292E0C83BD1F085E22A
:103E400092E0C93BB1F086E292E0CA3B91F087E292
:103E500092E0CB3B71F08AE292E0CC3B51F08FE6EE
:103E600090E0CD3B31F090E080E0CE3B11F480E774
:103E700090E0CF910C944F1DCF910895882329F1A4
:103E80009CEF980F913A20F40E949A290C942C2AC6
:103E900090E2980F983050F4877091E001C0990F2C
:103EA0008A95EAF7892F0E94F729F0CF9BE5980FB2
:103EB000933020F490E080E00C94221D885A8731E2
:103EC00020F490E080E00C944F1D0895882321F0A9
:103ED0000E94F1290C942C2A0895882321F00E9435
:103EE000F7290C942C2A08950E94132A0E94E02995
:103EF0000E942C2A0E942E2E0E94BB2C90E080E073
:103F00000E94221D90E080E00C944F1D0E94022A26
:103F10000C94741FAF92BF92CF92DF92EF92FF92F8
:103F20000F931F93CF93DF93CDB7DEB729970FB6CB
:103F3000F894DEBF0FBECDBF5C010E947F2A8111C5
:103F400014C085E0F501DE01119601900D928A956D
:103F5000E1F7F50183819481009739F04081518127
:103F6000242F25232F3F09F05FC329960FB6F8941D
:103F7000DEBF0FBECDBFDF91CF911F910F91FF909C
:103F8000EF90DF90CF90BF90AF900895F12FFF702A
:103F9000EF2E107F19F0E29440EFE422FF20D1F0E1
:103FA000EE2029F08E2D0E94052A0E942C2A802FB7
:103FB00029960FB6F894DEBF0FBECDBFDF91CF912B
:103FC0001F910F91FF90EF90DF90CF90BF90AF9037
:103FD0000C949D1E802F0E943E1FEE2031F28E2DEC
:103FE0000E940B2A29960FB6F894DEBF0FBECDBFF4
:103FF000DF91CF911F910F91FF90EF90DF90CF90C5
:10400000BF90AF900C942C2A212F2F70D22E107FAE
:10401000103219F0D29430EFD322002379F001301E
:1040200009F455C0FF2009F463C0EE2059F0F501F2
:10403000858180FF07C28F70858304C0FF2059F1FE
:10404000E11013C08D2D29960FB6F894DEBF0FBE78
:10405000CDBFDF91CF911F910F91FF90EF90DF9037
:10406000CF90BF90AF900C94661F31E08D2DE3127E
:10407000EACF29960FB6F894DEBF0FBECDBFDF9111
:10408000CF911F910F91FF90EF90DF90CF90BF9055
:10409000AF900C94162AE11015C00E94192A8D2D9C
:1040A00029960FB6F894DEBF0FBECDBFDF91CF913A
:1040B0001F910F91FF90EF90DF90CF90BF90AF9046
:1040C0000C946D1F41E0E41609F44FCFE6CFFF20BA
:1040D00051F055E05E1508F448CF0E94EE298D217D
:1040E00009F4B0CFDCCF84E08E1508F43ECFD7CFF3
:1040F000EE20A9F2802F29960FB6F894DEBF0FBEEE
:10410000CDBFDF91CF911F910F91FF90EF90DF9086
:10411000CF90BF90AF900C943E1F812F86958695CF
:104120008370D9F0813009F020CFC8019370F1106D
:1041300002C090E080E029960FB6F894DEBF0FBE73
:10414000CDBFDF91CF911F910F91FF90EF90DF9046
:10415000CF90BF90AF900C944F1DC8019370F11099
:1041600002C090E080E029960FB6F894DEBF0FBE43
:10417000CDBFDF91CF911F910F91FF90EF90DF9016
:10418000CF90BF90AF900C94221D802FFF20A1F004
:104190000E94D42B29960FB6F894DEBF0FBECDBF78
:1041A000DF91CF911F910F91FF90EF90DF90CF9013
:1041B000BF90AF900C94BB2C0E943C2CEBCF812F76
:1041C000837009F08CC0F110D0CE202F2295269557
:1041D0002770220F220F802F8F7090E0B0E0A0E0B8
:1041E0006C017D01022E04C0CC0CDD1CEE1CFF1CFA
:1041F0000A94D2F760E070E0CB0104FF0FC06FE0DB
:1042000070E080E090E004C0660F771F881F991F60
:104210002A95D2F76095709580959095169516958C
:1042200013701230C9F1133009F454C09B01AC0172
:104230002C293D294E295F292E833F8348875987A2
:104240001130A1F0CA01B90129960FB6F894DEBF6A
:104250000FBECDBFDF91CF911F910F91FF90EF90D7
:10426000DF90CF90BF90AF900C9411276E817F812B
:104270008885998529960FB6F894DEBF0FBECDBF0D
:10428000DF91CF911F910F91FF90EF90DF90CF9032
:10429000BF90AF900C94E1269B01AC012C293D29E5
:1042A0004E295F292E833F8348875987CA01B90168
:1042B00029960FB6F894DEBF0FBECDBFDF91CF9128
:1042C0001F910F91FF90EF90DF90CF90BF90AF9034
:1042D0000C9441270E941127C701B601CBCFFF20C4
:1042E00009F453C010FF41CE202F22952695277048
:1042F000220F220F802F8F7090E0B0E0A0E06C01C1
:104300007D01022E04C0CC0CDD1CEE1CFF1C0A94A7
:10431000D2F760E070E0CB0104FF0FC06FE070E007
:1043200080E090E004C0660F771F881F991F2A95D0
:10433000D2F76095709580959095169516951370A7
:104340001230E1F1133009F457C09B01AC012C2964
:104350003D294E295F292E833F8348875987113095
:10436000B9F0CA01B90129960FB6F894DEBF0FBEA5
:10437000CDBFDF91CF911F910F91FF90EF90DF9014
:10438000CF90BF90AF900C945A2811FFEECDACCFD8
:104390006E817F818885998529960FB6F894DEBF56
:1043A0000FBECDBFDF91CF911F910F91FF90EF9086
:1043B000DF90CF90BF90AF900C9432289B01AC015E
:1043C0002C293D294E295F292E833F834887598711
:1043D000CA01B90129960FB6F894DEBF0FBECDBF52
:1043E000DF91CF911F910F91FF90EF90DF90CF90D1
:1043F000BF90AF900C9482280E945A28C701B60142
:10440000CBCF013F09F473C068F5003E98F4003C3F
:1044100098F0812F8F71102F1071FF2009F43EC08A
:104420000E949B27802F8295807F11110CCE802FB8
:104430008F7009CE003FE1F1FF2009F4A0C0EE200B
:1044400009F49AC0802F0E949D1E093309F08DC087
:10445000FFEF21EE34E0F15020403040E1F700C0A2
:10446000000083CD023F09F458C0033F29F7FF2025
:1044700009F469C0812F8F7129960FB6F894DEBFB9
:104480000FBECDBFDF91CF911F910F91FF90EF90A5
:10449000DF90CF90BF90AF900C9476270E94CC27EE
:1044A000802F8295807F1111FBCD802F8F70F8CDEA
:1044B000FF20C1F034E03E1508F457CD812F8F71F5
:1044C00029960FB6F894DEBF0FBECDBFDF91CF9116
:1044D0001F910F91FF90EF90DF90CF90BF90AF9022
:1044E0000C94012845E04E1508F43FCDE7CF812F0D
:1044F0008F71FF20B1F029960FB6F894DEBF0FBE82
:10450000CDBFDF91CF911F910F91FF90EF90DF9082
:10451000CF90BF90AF900C949B27812F8F71FF207D
:1045200051F329960FB6F894DEBF0FBECDBFDF91D1
:10453000CF911F910F91FF90EF90DF90CF90BF90A0
:10454000AF900C94CC2729960FB6F894DEBF0FBE1F
:10455000CDBFDF91CF911F910F91FF90EF90DF9032
:10456000CF90BF90AF900C947127033509F470CFB2
:10457000073409F0FACC6CCF812F8F71BCCFE110DA
:10458000B9CD812F8F71CDCF412F4F70602FC501D5
:104590000E94440C29960FB6F894DEBF0FBECDBF23
:1045A000DF91CF911F910F91FF90EF90DF90CF900F
:1045B000BF90AF900C9432260111D7CCFF2009F4A4
:1045C000D4CC0E94861F5FEF80E792E0515080407C
:1045D0009040E1F700C0000029960FB6F894DEBFC6
:1045E0000FBECDBFDF91CF911F910F91FF90EF9044
:1045F000DF90CF90BF90AF900C94312B412F4F7034
:10460000602FC50129960FB6F894DEBF0FBECDBF4F
:10461000DF91CF911F910F91FF90EF90DF90CF909E
:10462000BF90AF900C94502BF280E580E2942FE085
:10463000E22249835A83FB82782F9D838C836F2DDE
:104640008D810E94AB288C010E94AA280E94D62648
:10465000E12FE295EF70F0E0E954F54F0C9442330E
:10466000CF93DF9300D000D00F92CDB7DEB76B832E
:104670007C838D838C819D81892B21F0842F8523E0
:104680008F3FA1F480E005C0303E58F481E0303C1B
:10469000C8F70F900F900F900F900F90DF91CF9170
:1046A0000895315F81E03330A0F7ECCF6B817C81DE
:1046B0008D810E94AB28382F292F22952F70903C96
:1046C00040F42A3008F7225F2F7081E0223008F38F
:1046D000D9CF2C3011F02F30A9F693FB882780F921
:1046E000D8CFCF93DF9300D000D00F92CDB7DEB7F5
:1046F0000F900F900F900F900F90DF91CF91089532
:10470000CF93DF9300D000D000D0CDB7DEB7269690
:104710000FB6F894DEBF0FBECDBFDF91CF910895E5
:104720001F93CF93DF93E091CF0216E08091D002E8
:104730008E1304C0DF91CF911F910895CE2FD0E04A
:104740001E9FF0011124EF52FD4F40815181628183
:104750007381848195810E948023FE013196E770E8
:10476000E5CF4091010350910203609103037091E2
:10477000040380910503909106030C9480231F93FA
:10478000CF93DF9380910603807FA9F48091030388
:10479000882389F08091CF02C091D00270910103EB
:1047A00060910203A0910403B0910503D62FD72393
:1047B00016E0C81304C0DF91CF911F91089590E0D7
:1047C000109711F0DF3F19F401968770F2CF189F10
:1047D0009001199F300D1124F901EF52FD4F4181D5
:1047E0006413F2CF40814713EFCF42814111ECCFE8
:1047F000438154814A1B5B0B483C510528F780914B
:1048000006038F70806180930603F901EA52FD4F21
:1048100080818F708061808381E093E00E948A1F95
:10482000DF91CF911F910C949023AF92BF92CF92C2
:10483000DF92EF92FF920F931F93CF93DF93CDB749
:10484000DEB72B970FB6F894DEBF0FBECDBF8C013D
:1048500085E0F801DE01179601900D928A95E1F747
:10486000F80140815181F28081E0A82E83E0B82ECA
:1048700060910403709105036115710549F09091F1
:10488000010320910203892F82238F3F09F03BC14E
:10489000FF2009F449C14F835887F9866F2D7A8527
:1048A0008B850E943023882309F43EC1E8C08091A3
:1048B0000603382F307F683C710508F07BC031114A
:1048C000B6C0EF2C251324C0941322C0F11020C0D1
:1048D0008F708061809306030E94B12381E093E092
:1048E0000E948A1F80910603F80185838E2D2B96E6
:1048F0000FB6F894DEBF0FBECDBFDF91CF911F91F1
:104900000F91FF90EF90DF90CF90BF90AF90089500
:10491000CD2829F0842F85238F3F09F085C080E0C2
:10492000F82FF170DF2EE091CF022091D00236E017
:1049300080FD1CC0FF20D1F280910603816080932E
:104940000603E12CD3CF8E2F90E03E9FF00111247F
:10495000EF52FD4F6181651306C06081641303C08F
:104960006281F612E7CFFC013196E770E213EBCFDC
:104970006F2D7A858B850E94AB28292F22952F7069
:10498000903260F0225F2F70223078F49F7051F0E7
:10499000F8019581907F31F4D12C0AC09F7011F0FD
:1049A0008823D1F3805E8830B8F3C8010E948A1F43
:1049B000ED2C9CCF311172C06F2D7A858B850E94B2
:1049C000712381E093E00E948A1F86E0F501119235
:1049D0008A95E9F70E94B123B4CF86E0F801A1E0FF
:1049E000B3E001900D928A95E1F780CF4F8358870D
:1049F000F9866F2D7A858B850E94302381113FC007
:104A000080910603816080930603C8010E948A1F7B
:104A10006DCF6F2D7A858B850E94712386E0F5011D
:104A200011928A95E9F76CC081E08F2579CF251323
:104A300006C0941304C0F801FF2009F455C04F8349
:104A40005887F9866F2D7A858B850E9430238823BD
:104A500009F46AC0FF2009F467C080910603803220
:104A600070F020910103309102033A8329831B8265
:104A7000DD82CC828E83CE0101960E948A1F86E061
:104A8000F801A1E0B3E001900D928A95E1F70E9450
:104A9000BF230E94B123EE24E39428CF2513CFCF68
:104AA0009413CDCFF110CBCFF8018583C8010E94BC
:104AB0008A1F86E0F50111928A95E9F717CF251331
:104AC00095CF941393CF8091060380FD86CF982FC6
:104AD000907F09F482CFF8018583903F31F0982FC1
:104AE000907F905F8F70892B8583C8010E948A1FF9
:104AF00086E0F801A1E0B3E001900D928A95E1F71C
:104B00000E94B123F3CEC380D480E0900303F6016A
:104B1000E61BF70BBF01E110CACE683C710508F037
:104B200078CFEF2CF110CBCFC8010E948A1FB3CFF2
:104B30001F93CF93DF93CDB7DEB72C970FB6F894C2
:104B4000DEBF0FBECDBF4F83588769877A878B87BB
:104B50009C87CE0107960E941524882369F08A85D8
:104B60009B85892B39F058854F81852F84238F3F72
:104B700009F071C016E05FC086E0FE013796DE01E5
:104B8000119601900D928A95E1F78A859B85892B74
:104B900089F38F81988589238F3F61F32091D0021B
:104BA00030E0C9010196877099274091CF024817DC
:104BB000190671F40E94861F1092D0021092CF0243
:104BC00086E0E1E0F3E0DF011D928A95E9F7D2CFBC
:104BD00096E0929FD001939FB00D1124AF52BD4F2C
:104BE000FE01319601900D929A95E1F78093D002E3
:104BF0000E949023BFCF819FC00111248F529D4FEF
:104C00000E9415248823E9F0E091CF021E9FF00155
:104C10001124EF52FD4F4081518162817381848163
:104C200095810E9480238091CF0290E00196877049
:104C300099278093CF028091CF029091D00289135F
:104C4000DACF2C960FB6F894DEBF0FBECDBFDF9142
:104C5000CF911F91089569857A858B859C850E94E7
:104C6000802388CFDF92EF92FF920F931F93CF9311
:104C7000DF939C01892BB9F0F12CE12CDD24D39436
:104C8000E9012196F9018491853709F46EC098F401
:104C9000843709F45AC0843008F073C0813011F1B0
:104CA000823009F43CC0DF91CF911F910F91FF90AA
:104CB000EF90DF900895883709F460C058F4863784
:104CC00009F458C0873779F78F2D0E94FF290E9479
:104CD0002C2A20C09CE7980F903728F78F770E94E6
:104CE0003E1F18C089010E5F1F4FFE01849190E2A4
:104CF000980F983060F48770FD2D01C0FF0F8A95E2
:104D0000EAF78F2F0E94052A0E942C2A02C00E94D7
:104D10009D1EE8018E2D811137C09E01B1CF890102
:104D20000E5F1F4FFE01849190E2980F983050F46F
:104D30008770FD2D01C0FF0F8A95EAF78F2F0E9423
:104D40000B2AE2CF0E943E1FE4CF2E5F3F4FFE01B1
:104D5000C491C11102C0E901DDCF8FE99FE0019745
:104D6000F1F700C00000C150F4CF2E5F3F4FFE01AD
:104D7000E490F1CF0E94EE29F82ECCCF0E94022AB7
:104D8000A6CF0E949D1EC6CFEFE9FFE03197F1F755
:104D900000C000008150BFCF6093870370938803E9
:104DA0008093890390938A030C947C2A08956093DE
:104DB0008B0370938C0380938D0390938E030C94DC
:104DC0007B2ACF93DF9300D000D0CDB7DEB76983C5
:104DD0007A838B839C8380918B0390918C03A09129
:104DE0008D03B0918E0329813A814B815C81282B00
:104DF000392B4A2B5B2B29833A834B835C8320938B
:104E00008B0330938C0340938D0350938E03CA0120
:104E1000B9010F900F900F900F90DF91CF910C94EC
:104E20007B2ACF93DF9300D000D0CDB7DEB7698364
:104E30007A838B839C8380918B0390918C03A091C8
:104E40008D03B0918E0329813A814B815C812823A7
:104E500039234A235B2329833A834B835C83209342
:104E60008B0330938C0340938D0350938E03CA01C0
:104E7000B9010F900F900F900F90DF91CF910C948C
:104E80007B2ACF93DF9300D000D0CDB7DEB7698304
:104E90007A838B839C8380918B0390918C03A09168
:104EA0008D03B0918E0329813A814B815C81282743
:104EB00039274A275B2729833A834B835C832093D6
:104EC0008B0330938C0340938D0350938E03CA0160
:104ED000B9010F900F900F900F90DF91CF910C942C
:104EE0007B2A60E070E0CB010C94CC260F931F93DB
:104EF000CF93DF9300D000D0CDB7DEB741E050E0D4
:104F000060E070E08A019B0104C0000F111F221FA6
:104F1000331F8A95D2F709831A832B833C83C901F7
:104F2000B8010F900F900F900F90DF91CF911F91CC
:104F30000F910C94CC260F931F93CF93DF9300D047
:104F400000D0CDB7DEB741E050E060E070E004C0D3
:104F5000440F551F661F771F8A95D2F780918703EC
:104F600090918803A0918903B0918A038A019B01E3
:104F7000082B192B2A2B3B2B09831A832B833C8369
:104F8000C901B8010F900F900F900F90DF91CF9152
:104F90001F910F910C94CC260F931F93CF93DF9307
:104FA00000D000D0CDB7DEB741E050E060E070E067
:104FB00004C0440F551F661F771F8A95D2F740958E
:104FC0005095609570958091870390918803A0918A
:104FD0008903B0918A038A019B01082319232A239C
:104FE0003B2309831A832B833C83C901B8010F90AB
:104FF0000F900F900F90DF91CF911F910F910C9414
:10500000CC260F931F93CF93DF9300D000D0CDB762
:10501000DEB741E050E060E070E004C0440F551F8F
:10502000661F771F8A95D2F7809187039091880336
:10503000A0918903B0918A038A019B01082719274F
:105040002A273B2709831A832B833C83C901B80194
:105050000F900F900F900F90DF91CF911F910F91B4
:105060000C94CC26CF93DF9300D000D0CDB7DEB721
:1050700069837A838B839C838091870390918803D3
:10508000A0918903B0918A0329813A814B815C8187
:10509000282B392B4A2B5B2B29833A834B835C8348
:1050A000CA01B9010F900F900F900F90DF91CF912F
:1050B0000C94CC26CF93DF9300D000D0CDB7DEB7D1
:1050C00069837A838B839C83809187039091880383
:1050D000A0918903B0918A0329813A814B815C8137
:1050E000282339234A235B2329833A834B835C8318
:1050F000CA01B9010F900F900F900F90DF91CF91DF
:105100000C94CC26CF93DF9300D000D0CDB7DEB780
:1051100069837A838B839C83809187039091880332
:10512000A0918903B0918A0329813A814B815C81E6
:10513000282739274A275B2729833A834B835C83B7
:10514000CA01B9010F900F900F900F90DF91CF918E
:105150000C94CC2608954F925F926F927F929F920B
:10516000AF92BF92CF92DF92EF92FF920F931F9375
:10517000CF93DF9300D000D00F92CDB7DEB7498335
:105180005A836B837C838D838C819D81892B31F045
:10519000A42E952E842F85238F3F59F590E080E033
:1051A0000F900F900F900F900F90DF91CF911F9164
:1051B0000F91FF90EF90DF90CF90BF90AF909F90B6
:1051C0007F906F905F904F9008956A2D792D8C2D70
:1051D0000E94FC0B0197C1F13CC0F80183E0EE0F87
:1051E000FF1F8A95E1F7E95FFC4FEE0DFF1DB080D0
:1051F0003BC0052F10E0E42EF12C8B81882369F34E
:1052000040908703509088036090890370908A03D0
:1052100080918B0390918C03A0918D03B0918E03AC
:10522000482A592A6A2A7B2A2FE1C22ED12CBC2C6B
:10523000D301C2010C2C04C0B695A795979587950C
:105240000A94D2F780FDC1CF81E0C81AD10878F75F
:10525000B12CF80193E0EE0FFF1F9A95E1F7E95F9B
:10526000FC4FEE0DFF1DB08269817A818B2D0F906E
:105270000F900F900F900F90DF91CF911F910F9192
:10528000FF90EF90DF90CF90BF90AF909F907F9076
:105290006F905F904F900C94FC0B909114019923A8
:1052A00061F190911501992341F1982F969596956A
:1052B00096959F3189F0E0911601F0911701E90F61
:1052C000F11D877021E030E001C0220F8A95EAF7D6
:1052D0008181822B818308959091B20390FF22C037
:1052E0001F928F938DEE9CE09F938F930E94F30B00
:1052F0000F900F900F900F9008952091160130910C
:105300001701F90132969FEF40E05191851751F056
:105310009F3F19F4511101C0942F4F5F4E31A9F7EF
:105320009F3F09F40895290F311D97FD3A95F90122
:105330008283089590911401992381F19091150130
:10534000992361F1982F9695969596959F31A9F09E
:10535000E0911601F0911701E90FF11D877021E02E
:1053600030E0A90102C0440F551F8A95E2F7CA0137
:10537000809591818923818308959091B20390FF54
:105380001EC01F928F938FEC9CE09F938F930E947F
:10539000F30B0F900F900F900F900895209116012E
:1053A00030911701F9013296205E3F4F9191891398
:1053B00003C0DF0111971C92E217F307B9F70895B4
:1053C00081E090E0E0911601F0911701E80FF91FDC
:1053D0001082019680329105A9F708958091B1035A
:1053E00008959091B103982B9093B1030895982F4D
:1053F00090958091B10389238093B10308958093A0
:10540000B10308951092B10308959091B003982BC1
:105410009093B0030895982F90958091B0038923BD
:105420008093B00308951092B003089580938F0382
:10543000089510928F03089520911601309117015D
:10544000F9013196205E3F4F80E0919191118F5F7D
:10545000E217F307D1F70895E0911601F0911701D3
:105460008091B1038083E0911601F0911701808152
:105470009091B003892B808390918F03992361F0E1
:10548000E0911601F09117018081892B80830E94A1
:105490001C2A811110928F0380911601909117019F
:1054A0000C94CD1C909365018093640108958295BE
:1054B00094E0899F900111242C7C869586958373B6
:1054C000282B30E0C901880F991F8A7A35952795D6
:1054D0002575822B08950895CF93DF9300D000D0D7
:1054E0000F92CDB7DEB70F900F900F900F900F90E7
:1054F000DF91CF910895089508950C942D1E80E0BA
:10550000089583B7817F8C6083BF83B7816083BF39
:105510007894889583B78E7F83BF0895CF930E9438
:10552000641E0E94FD100E94651EC0E08C2F0E9428
:10553000E010811105C0CF5FC031C1F7CF91089550
:1055400081E0FCCF0E94E6100C94861F1F921FB6CC
:105550001F9211248F939F93AF93BF938091B303B6
:105560009091B403A091B503B091B6034196A11DEB
:10557000B11D8093B3039093B403A093B503B0938C
:10558000B603BF91AF919F918F911F901FBE1F9047
:10559000189582E084BD93E095BD9AEF97BD809306
:1055A0006E0008952FB7F8948091B3039091B403DF
:1055B000A091B503B091B6032FBF0895CF93DF93A9
:1055C00000D000D0CDB7DEB78FB7F8942091B303E9
:1055D0003091B4034091B5035091B60329833A83C7
:1055E0004B835C838FBF69817A818B819C810F9013
:1055F0000F900F900F90DF91CF9108959C014FB7BE
:10560000F8948091B3039091B403A091B503B09145
:10561000B6034FBF821B930B089578941F921FB659
:105620001F9211248F939F93AF93BF938091B303E5
:105630009091B403A091B503B091B6030196A11D5A
:10564000B11D8093B3039093B403A093B503B093BB
:10565000B603BF91AF919F918F911F901FBE1F9076
:1056600018950E94571BF89487E797E790930108D5
:105670008093000887E090EBDC018093C203909355
:10568000C303A093C403B093C50388E19CE00FB6A5
:10569000F894A895809360000FBE90936000FFCFB0
:1056A00008958091B90380FF12C060911B0185E0CD
:1056B000689FB00111247595679575956795603859
:1056C0007105A8F561157105A1F1862F089581FF77
:1056D00009C060911B0185E0689FB0011124759598
:1056E0006795EDCF60911B0182FD0AC08091BA03DE
:1056F0008823D1F090911A0160911B01891728F03D
:1057000085E0689FB0011124DACF869FB001112493
:1057100085E0869F9001879F300D1124692F70E0EE
:10572000C9010E942E33CBCF65E070E0CECF8FE76A
:10573000089581E008958091B90380FF0CC06091C5
:10574000190170E0759567957595679561157105F7
:1057500049F1862F089581FF06C06091190170E01C
:1057600075956795F3CF6091190182FD0BC09091FB
:10577000BA039923A1F0609118018091190196173D
:1057800038F0682F70E06038710500F38FE70895F6
:10579000899FC001112470E00E942E33F4CF61E094
:1057A00070E0D7CF81E00895803F31F40E94512B03
:1057B00081958093BD030895813F19F40E94512B78
:1057C000F8CF823F31F40E94512B81958093BC0326
:1057D0000895833F19F40E94512BF8CF893F29F493
:1057E0000E949B2B8093BE0308958A3F21F40E9460
:1057F0009B2B8195F7CF8B3F31F40E949B2B81959A
:105800008093BF0308958C3F19F40E949B2BF8CF1F
:10581000843F31F48091BB0381608093BB03089582
:10582000853F21F48091BB038260F7CF863F21F44E
:105830008091BB038460F1CF873F21F48091BB034B
:105840008860EBCF883F21F48091BB038061E5CF76
:105850008D3F31F48091B90381608093B90308953D
:105860008E3F21F48091B9038260F7CF8F3FB9F763
:105870008091B9038460F1CF9091BC03803F41F4E3
:105880008091BD0387FD1092BD03992371F00895A7
:10589000813F29F48091BD031816ACF3F6CF823F07
:1058A00081F497FFF2CF1092BC038091BD039091D9
:1058B000BE03892B9091BF03892B49F71092BA033D
:1058C0000895833F19F4191674F3DFCF893F39F433
:1058D0008091BE031816CCF61092BE03D6CF8A3F35
:1058E00029F48091BE0387FFD0CFF6CF8B3F39F4E8
:1058F0008091BF0387FFC9CF1092BF03C6CF8C3FF3
:1059000029F48091BF031816BCF3BFCF843F31F454
:105910008091BB038E7F8093BB03B7CF853F21F47B
:105920008091BB038D7FF7CF863F21F48091BB032D
:105930008B7FF1CF873F21F48091BB03877FEBCF33
:10594000883F21F48091BB038F7EE5CF8D3F31F4FA
:105950008091B9038E7F8093B90397CF8E3F21F456
:105960008091B9038D7FF7CF8F3F09F08ECF809163
:10597000B9038B7FF0CF8091B20383FF7EC082E3B7
:105980009DE00E945A0B8091BB031F928F938DE282
:105990009DE09F938F930E94F30B8BE29DE00E940A
:1059A0005A0B8091BC03282F082E000C330B3F9319
:1059B0008F9388E29DE09F938F930E94F30B86E282
:1059C0009DE00E945A0B8091BD03282F082E000CE9
:1059D000330B3F938F9383E29DE09F938F930E94BD
:1059E000F30B81E29DE00E945A0B8091BE03282FA9
:1059F000082E000C330B3F938F938EE19DE09F9315
:105A00008F930E94F30B8CE19DE00E945A0B8091D2
:105A1000BF03282F082E000C330B3F938F9389E18F
:105A20009DE09F938F930E94F30B86E19DE00E947F
:105A30005A0B8091BA031F928F9383E19DE09F934D
:105A40008F930E94F30B81E19DE00E945A0B80919D
:105A5000B9031F928F938EE09DE09F938F930E94D6
:105A6000F30B8BE09DE00E945A0B8DB79EB74C96CE
:105A70000FB6F8949EBF0FBE8DBF8BEB93E00E94D4
:105A8000171D0E94D22A9093B8038093B7030895FC
:105A90001F93CF93DF9300D000D000D0CDB7DEB7F7
:105AA0008091B7039091B8030E94FE2AAC018091C7
:105AB000BA0320911C0130E0811106C020911D0124
:105AC0009AE0299F900111244217530788F02091F2
:105AD000BC03A091BD03A9831091BE03B091BF0385
