:100000000C94D5070C9436080C943C0B0C943608D1
:100010000C9436080C9436080C9436080C94360868
:100020000C9436080C9436080C9498180C943608E6
:100030000C946C270C9436080C9436080C943608F3
:100040000C9436080C9436080C9436080C94360838
:100050000C9436080C94D3270C9436080C9436086C
:100060000C9436080C9436080C9436080C94360818
:100070000C9436080C9436080C9436080C94360808
:100080000C9436080C9436080C9436080C943608F8
:100090000C9436080C9436080C9436080C943608E8
:1000A0000C9436080C9436080C943608750501E358
:1000B0000128022802E374FF011502150108020855
:1000C00001050205011202120112021201170217A4
:1000D00001280228746400750501E3010B020B027C
:1000E000E3746401E301E1010B020B02E102E3743A
:1000F0006400750501E3011A021A02E3746401E366
:100100000117021702E3746401E3011F021F02E3F7
:10011000746401E30128022802E374FF011502154B
:10012000010A020A01280228746401E30128022856
:1001300002E374FF01060206010F020F01280228E4
:10014000746401E3012C022C02E3015002500150BF
:1001500002500150025001280228746401E301504A
:10016000025002E3746400750501E30128022802CD
:10017000E374FF010E020E01050205012802287436
:100180006401080208011B021B010C020C0117028A
:100190001701280228746400007B46010203763AA6
:1001A000687F6577482B353B6978796439141E3C44
:1001B0006A7A1D16041A1F3D6B061B070821203E94
:1001C0006C2C19091715223F6D11050B0A1C2340D1
:1001D0006E7E100D182425416F360E0C1227264214
:1001E0007037380F33132D43717534322F2E44720C
:1001F0007C7D28303174457351504A524D492A5400
:1002000066594F5C5F4C4B4E62635A5D5E6029538A
:1002100067585B56576147554842403E3C3A3B451C
:100220006843413F3D2B357E697A790078141E7C06
:100230006A7B1D16041A1F7F6B061B070821204DC1
:100240006C2C19091715224A6D11050B0A1C234C39
:100250006E49100D182425516F360E0C1227264FAB
:100260007037380F33132D52717534502F2E4E7254
:10027000397D283065314B735464586776012A778D
:100280003259745C5F66020362635A5D5E60295393
:1002900044575B565561474680291E1F2021222363
:1002A000242526272D2E2A2B141A0815171C180C66
:1002B00012132F302878041607090A0B0D0E0F337E
:1002C000343579311D1B06190511103637387D5527
:1002D0007A2C393A3B3C3D3E3F4041424353475FD5
:1002E0006061565C5D5E57595A5B626346483244B2
:1002F00045677B7F650301025250514F68696A6B05
:100300006C6D6E6F7071725800494C754A4D734B2D
:100310004E767C777E7466547225303258200062A7
:100320003A253034582000652530325820002146C7
:10033000554C4C21200021464621200077253032A3
:10034000582000214353335F4630210A0021435394
:10035000335F5245414459210A00214353325F45DE
:10036000305F4630210A00214353325F4630210A74
:1003700000214353325F4530210A00214353325F4D
:10038000494E4954210A00214353315F45305F25CE
:10039000303258210A000A5B4F56525D20004C252E
:1003A00075200053257520000A49443A25303458F9
:1003B0002825732920004D6F7573653A206E6F7480
:1003C00020737570706F727465640A005225752011
:1003D00000572575200057257520005725752000EA
:1003E0005825752000412575200049257520005BA2
:1003F0004348475D20000A5052543A253032582075
:100400004953523A2530345820005B5253545D20F2
:10041000000A4552523A25303258204953523A2563
:1004200030345820000A4B6579626F617264207322
:10043000746172742E0A000A55534220636F6E660F
:100440006967757265642E0A000A0A544D4B3A6555
:100450003265323131372B2F4C5546410A0A003470
:10046000035A0065006E0069007400680020006B8C
:10047000006500790062006F006100720064002076
:100480000063006F006E0076006500720074006506
:1004900000720000000E0374002E006D002E006B31
:1004A000002E0000000403090409028D000501006C
:1004B000A03209040000010301010009211101001B
:1004C000012240000705810308000A090401000118
:1004D00003010200092111010001224D00070582DC
:1004E0000308000A090402000103000000092111A9
:1004F0000100012236000705830308000A090403EE
:10050000000203000000092111010001222200075E
:1005100005840320000107050403200001090404E9
:100520000001030000000921110100012239000728
:100530000585032000011201100100000008EDFEF6
:10054000EE1B01000102000105010906A1010507DA
:1005500019E029E7150025019508750181020508B4
:100560001901290595057501910295017503910100
:100570000507190029F71500250195F87501810275
:10058000C00631FF0974A1010975150026FF009509
:1005900020750881020976150026FF009520750850
:1005A0009102C005010980A10185021601002637CC
:1005B000001A81002AB700751095018100C0050C52
:1005C0000901A1018503160100269C021A01002AD7
:1005D0009C02751095018100C005010902A1010965
:1005E00001A10005091901290515002501950575C9
:1005F0000181029501750381010501093009311559
:1006000081257F95027508810609381581257F951A
:100610000175088106050C0A38021581257F9501B0
:1006200075088106C0C005010906A101050719E08A
:1006300029E71500250195087501810295017508C6
:10064000810105081901290595057501910295019A
:10065000750391010507190029FF150026FF009574
:100660000675088100C0636F6E73756D65723A2000
:10067000253034580A0073797374656D3A2025303B
:1006800034580A000A002530325820006B65796220
:100690006F6172643A20004C45443A20253032584C
:1006A0000A0025583A2530386225730A000A2020AE
:1006B00030313233343536370A0064656C5F6B6530
:1006C000795F6269743A2063616E27742064656C97
:1006D0003A20253032580A006164645F6B65795FA7
:1006E0006269743A2063616E2774206164643A2001
:1006F000253032580A00290A002575002F0025757B
:10070000005D280025640020002564002000256489
:100710000020002564007C0025303258006D6F7584
:1007200073656B6579205B62746E7C7820792076C6
:1007300020685D287265702F61636C293A205B0028
:100740006D6B5F776865656C5F74696D655F746F0D
:100750005F6D6178203D2025640A006D6B5F7768CE
:1007600065656C5F6D61785F7370656564203D20C1
:1007700025640A006D6B5F74696D655F746F5F6DF2
:100780006178203D2025640A006D6B5F6D61785FA4
:100790007370656564203D2025640A006D6B5F6998
:1007A0006E74657276616C203D2025640A006D6B65
:1007B0005F64656C6179203D2025640A006D6B5F84
:1007C000776865656C5F74696D655F746F5F6D6197
:1007D00078203D2025640A006D6B5F776865656C45
:1007E0005F6D61785F7370656564203D2025640AE4
:1007F000006D6B5F74696D655F746F5F6D6178200C
:100800003D2025640A006D6B5F6D61785F737065D4
:100810006564203D2025640A006D6B5F696E746518
:100820007276616C203D2025640A006D6B5F646503
:100830006C6179203D2025640A000A002575003688
:100840003A20776865656C5F74696D655F746F5F8A
:100850006D61783A20000A00257500353A207768E6
:1008600065656C5F6D61785F73706565643A2000E3
:100870000A00257500343A2074696D655F746F5FF6
:100880006D61783A20000A00257500333A206D61C9
:10089000785F73706565643A20000A002575003240
:1008A0003A20696E74657276616C286D73293A20FE
:1008B000000A00257500313A2064656C6179282AA8
:1008C00031306D73293A20000A092D2056616C756C
:1008D0006573202D0A004D3E004D25643E20003FEB
:1008E000007365742064656661756C740A00433E2C
:1008F000200077686572652064656C74613A2063D6
:100900007572736F723D25642C20776865656C3D48
:1009100025640A53656520687474703A2F2F656EDC
:100920002E77696B6970656469612E6F72672F77C6
:10093000696B692F4D6F7573655F6B6579730A001D
:100940000A092D204D6F7573656B6579202D0A4559
:1009500053432F713A09717569740A313A09646514
:100960006C6179282A31306D73290A323A09696E2F
:1009700074657276616C286D73290A333A096D616A
:10098000785F73706565640A343A0974696D655FF0
:10099000746F5F6D61780A353A09776865656C5FD9
:1009A0006D61785F73706565640A363A09776865CA
:1009B000656C5F74696D655F746F5F6D61780A0A5D
:1009C000703A097072696E742076616C7565730A8D
:1009D000643A097365742064656661756C74730AA2
:1009E00075703A092B310A646F776E3A092D310A16
:1009F000706775703A092B31300A7067646F776ED3
:100A00003A092D31300A0A7370656564203D20640F
:100A1000656C7461202A206D61785F737065656410
:100A2000202A2028726570656174202F2074696DFA
:100A3000655F746F5F6D6178290A003F004D3E204D
:100A400000433E20004C25640A000A092D20436F14
:100A50006E736F6C65202D0A4553432F713A0971EF
:100A60007569740A6D3A096D6F7573656B65790AFE
:100A7000000A092D204D61676963202D0A643A0937
:100A800064656275670A783A096465627567206D06
:100A900061747269780A6B3A096465627567206BE4
:100AA0006579626F6172640A6D3A0964656275679F
:100AB000206D6F7573650A763A0976657273696F92
:100AC0006E0A733A097374617475730A633A096341
:100AD0006F6E736F6C65206D6F64650A302D343AEC
:100AE000096C61796572302D34284631302D4634D9
:100AF000290A506175733A09626F6F746C6F616493
:100B000065720A6E3A094E4B524F0A003F004E4B37
:100B1000524F3A206F66660A004E4B524F3A206F92
:100B20006E0A0074696D65725F72656164333228A4
:100B3000293A202530346C580A006B6579626F6160
:100B400072645F6E6B726F3A2025580A006B65798C
:100B5000626F6172645F69646C653A2025580A00AF
:100B60006B6579626F6172645F70726F746F636FCF
:100B70006C3A2025580A00686F73745F6B65796260
:100B80006F6172645F6C65647328293A2025580A86
:100B9000000A092D20537461747573202D0A0047D3
:100BA00043433A2031302E322E30204156522D4CC4
:100BB0004942433A20322E302E30204156525F4176
:100BC0005243483A20617672350A004F5054494FDB
:100BD0004E533A204C554641204D4F5553454B45B9
:100BE000592045585452414B455920434F4E534F7D
:100BF0004C4520434F4D4D414E44204E4B524F20CB
:100C00004B45594D41505F53454354494F4E204247
:100C10004F4F544C4F414445525F53495A450A0087
:100C20004255494C443A20653265323131372B20E8
:100C30002831343A30303A3036204D617220203439
:100C40002032303231290A005649443A2030784661
:100C500045454428742E6D2E6B2E29205049443A68
:100C600020307831626565285A656E697468206B3A
:100C70006579626F61726420636F6E766572746508
:100C80007229205645523A203078303030310A00EF
:100C9000444553433A20636F6E76657274205A65FB
:100CA0006E697468206B6579626F61726420746F1D
:100CB000205553420A000A092D2056657273696F48
:100CC0006E202D0A000A6D6F7573653A206F666697
:100CD0000A000A6D6F7573653A206F6E0A000A6B21
:100CE0006579626F6172643A206F66660A000A6B0A
:100CF0006579626F6172643A206F6E0A000A6D61F5
:100D0000747269783A206F66660A000A6D617472BF
:100D100069783A206F6E0A000A64656275673A2046
:100D20006F6E0A000A64656275673A206F66660A2C
:100D3000000A0A626F6F746C6F616465722E2E2EEA
:100D40002000433E2000C40CC00CD80CD80CD80C9A
:100D5000D80CD80CD80CC60CC20CD40CD80CD80C9F
:100D6000C00CDA0CD80CD80C980CC40CD80CD80CCD
:100D7000C20CD80CD80CD80CD80CD80CD80CD40C6D
:100D8000C40CBA0CD80CBE0CD80CD80CD80C9A0CCD
:100D9000C60CD80CD80CCE0CD80CD80CD80C9C0C8B
:100DA000C80CD80CBC0CD80CC00CD80CD80CD20C6D
:100DB000CA0CD80CCC0CC20CD80CD80CD80CD00C4B
:100DC000DB0CD80CD80CD80CD80CD80CD80CD80C00
:100DD000DB0CD80C9E0CD80CD80CC60CD80CD80C3C
:100DE000C80CD80CD80CD80CD80CD80CD80CD80CF3
:100DF000D80CD80CA00CD80CD80CD80CCE0CD80C15
:100E0000D80CD80CD80CD80CD80CD80CD80CD80CC2
:100E1000D80CA20CD80CA40CA60CD80CD80CD80C4E
:100E2000A80CAA0CAC0CD80CAE0CB00CD80CD80C7E
:100E3000D80CD60CB20CD80CB60CB40CB80CD80C20
:100E4000D80CD80CD80CC80CFF0C0D0D190D190DB1
:100E5000F10C190D190D190D190D190D190D190D8B
:100E6000190D190D190D190D190D190DF30C190D79
:100E7000F50C190D190D190D190D110D190D260D62
:100E80000F0D190D190D190D190D190D190D190D3C
:100E9000190D190D190D190D190D190DE70C050D69
:100EA000F70C090D190DF90C190DFD0C190D070D95
:100EB000FB0C0B0D010D030D190D190D190D190D5D
:100EC000190D190D190DEB0CED0CEF0C130D150D83
:100ED000190D190D190D170D460E680E750E9C0E85
:100EE000AA0EB50ECF0EE50E080F250FBA0FDF0FB5
:100EF0006110A0108910B310C310CB10CF10D41004
:100F0000D91017111D111F11211123112B112B1194
:100F10002B11251127112911021104110611081195
:100F20000A111211121112110C110E111011F516D5
:100F30001D1705181D170518501771170518C71725
:100F4000D3178C1C8C1CCA1CCA1C531D8B1D7B1CEC
:100F50007B1CA51D7B1CC71EC71E8A1F7B1CA21FD6
:100F6000C41FA72CB92C852C852C852CA22C852C54
:100F7000852CDF2C852CEF2C572D852C852C852C52
:100F8000852C162D852C852CFF2C852CCF2C852C83
:100F9000852C6F2D6F2D6F2D6F2D6F2D6F2D6F2D5C
:100FA0006F2D6F2D6B2D852C6B2D11241FBECFEF58
:100FB000DAE0DEBFCDBF04B603FE41C08091C203BC
:100FC0009091C303A091C403B091C5038730904BA7
:100FD000A740B04BA1F51092C2031092C303109228
:100FE000C4031092C50314BE0FB6F894A89580915F
:100FF0006000886180936000109260000FBE1092C4
:1010000001081092000889E0E3E0F0E080935700C7
:10101000E491E695E370E15080E090E1E33040F444
:10102000F0E0EE0FFF1FED5AFE4F8081918100C06E
:10103000E0E0F0E8E81BF90BF695E795099511E07B
:10104000A0E0B1E0E8E4F0E602C005900D92A4361D
:10105000B107D9F723E0A4E6B1E001C01D92A23C9C
:10106000B207E1F70E9414140C9422300C94000093
:10107000FF93EF93E0916401F0916501309709F0DF
:101080000995EF91FF910895FC018591803011F051
:10109000EFDFFBCF0895FF27E0E230E247FF0CC00F
:1010A000419597FF09C0EDE2609570958095909508
:1010B000611D711D811D911D27FF02C0219530E327
:1010C00050E2AA27660F771F881F991FAA1FA4172F
:1010D00010F0A41B63955A95A9F7AA3008F0A95FF0
:1010E000A05DAF93F395611571058105910541F7F9
:1010F000ED3211F4EF93F395F21718F43F93F39553
:10110000FBCF8F91B5DFFA95E1F70895E991F99159
:101110008591803021F0853219F0AADFF9CF08954A
:1011200020E0E89455915532C1F3503311F468949E
:1011300055915A3348F4505390F3220F022E220F48
:10114000220F200D250FF4CF0EF42195899199914E
:10115000533619F3533729F1533559F1BC01882718
:101160009927E8945C3621F4899199916894559176
:10117000543639F446EF7EF077FF0DC08FEF9FEFC6
:101180000AC055374AE039F0583540E121F052366F
:1011900042E009F00895FF93EF937DDFEF91FF9117
:1011A000B7CFFF93EF93FC0181918030B9F360DFFB
:1011B000FBCFFF93EF9368DFF1CFDF93CF93CDB7F2
:1011C000DEB72596A3DFCF91DF910895282F809178
:1011D0007101823091F08330C9F0813059F448E0D8
:1011E000749FF0011124E60FF11DE856FD4FE491C4
:1011F000E038A9F480E090E0089588E0789FF0015D
:101200001124E60FF11DE85EFD4FF1CF48E0749F19
:10121000F0011124E60FF11DE856FE4FE8CF8E2FA6
:1012200090E034E0959587953A95E1F78770992796
:1012300048E0249F90011124820F931F44E0880FFF
:10124000991F4A95E1F7EF70E80FF92FF11DEE0FA6
:10125000FF1FE050F849859194910895FC01623098
:1012600099F040F4828161110AC0882329F087E651
:1012700091E00895633071F090E080E00895882354
:10128000D9F382EF90E0089582818823A9F387ED56
:1012900090E008958281882379F38CEA90E00895A4
:1012A0005998519A08955198599A08955898509A72
:1012B00008955098589A08955198599A85E08A95BA
:1012C000F1F7000089B18695817008955098589A79
:1012D00085E08A95F1F7000089B181700895CF9378
:1012E000DF93EC010E945C09882311F0209721F420
:1012F000CE01DF91CF91089585E08A95F1F7000046
:101300002197F0CFCF93DF93C2E3D0E00E945C0936
:10131000811102C0209721F4CE01DF91CF91089571
:1013200085E08A95F1F700002197F0CF2E98269856
:101330002F9827980E9450090E945909E9E6F0E089
:10134000808188608083E9980895E19AE99A0E94F3
:1013500053090C945909E9980E9450090C945909B1
:101360000F931F93CF93DF932FB7F894C09102018F
:10137000D0910301CE01882781159F4F01F180E0B4
:101380009FEF8C2B9D2B90930301809302012FBF25
:10139000CE0199278F3F9105A1F5CD2FDD27C03FC5
:1013A000D10581F0CF3FD10549F18091B203C0341E
:1013B000D105B1F480FF12C08EE293E009C08FEF37
:1013C00090E0DFCF8091B20380FF08C086E393E016
:1013D0009F938F930E94DD080F900F90CFEF26C050
:1013E00080FF0CC0DF93CF9387E293E09F938F93AE
:1013F0000E94DD080F900F900F900F900FEF1FEFDE
:1014000027C0CE018F6F019689F08091B20380FFD3
:101410000CC0DF93CF938FE193E09F938F930E9453
:10142000DD080F900F900F900F90CD2F0C2F10E034
:101430008091B20380FF0CC01F92CF9388E193E0AC
:101440009F938F930E94DD080F900F900F900F9045
:10145000C801DF91CF911F910F910895CF93CAE1F9
:10146000C15071F00E94B0098F3F980711F0CF91E1
:1014700008958FE99FE00197F1F700C00000F0CFD9
:101480008FEF9FEFF4CF10926A01109269011092D2
:1014900068011092670180E090E8909301018093C9
:1014A00000018FEF9FEF9093030180930201089555
:1014B000EF92FF920F931F93CF93DF93C82F109259
:1014C00067018091B20380FF0CC01F92CF938CE321
:1014D00093E09F938F930E94DD080F900F900F90E1
:1014E0000F90E9980E9450090E9459098FE891E0F5
:1014F0000197F1F700C000000E9456098FE891E0C3
:101500000197F1F700C000000E94530980E197E2C3
:101510000E946F09892BB9F481E080936701809163
:1015200067018061809367010E9453090E945909F5
:10153000E19AE99A8FEF9FEFDF91CF911F910F9181
:10154000FF90EF90089510E000E0FF24F394D0E0C6
:10155000EE24E39490E59A95F1F7CE01002E02C0B7
:10156000959587950A94E2F780FF09C0FE240E94B2
:1015700059090E948209892B29F482E0CECF0E946A
:101580005609F7CF82E390E00E946F09892B11F48E
:1015900083E0C3CF0F5F1F4F08301105D9F680E5F8
:1015A0008A95F1F7FF2041F00E9459090E948209B3
:1015B000892B29F484E0B1CF0E945609F7CF82E34A
:1015C00090E00E946F09892B11F485E0A6CF90E589
:1015D0009A95F1F70E9459090E948209892B11F40A
:1015E00086E09BCF80916801813181F182E390E0B8
:1015F0000E946F09C2E3D0E0892B39F487E08DCFD8
:1016000085E08A95F1F7000021970E9466098823FA
:1016100021F02097A9F788E080CFCD2BE1F30E943D
:101620008209C2E3D0E0892B39F489E076CF95E0D6
:101630009A95F1F7000021970E946609811104C074
:101640002097A9F78AE069CFCD2BE1F38FEF9FEFC9
:1016500090930301809302010E94430A0E94530960
:101660000E945909E19AE99ADF91CF911F910F9158
:10167000FF90EF900C942E0A1F921FB61F92112418
:101680002F933F934F938F939F9399B19170809134
:10169000B303209100013091010121153048D9F5A3
:1016A00080936601209100013091010136952795C4
:1016B0003093010120930001992349F080910001AA
:1016C0009091010190689093010180930001209115
:1016D000000130910101C9019927203A09F4E5C0C0
:1016E000813A910508F061C08034910509F49FC0EA
:1016F00098F54097D9F12F7D33272115310509F44D
:1017000096C0809100019091010190936A018093AD
:10171000690180E80EC020916601821B833010F2BF
:10172000809100019091010190936A018093690179
:1017300080E2809367018091670190E0982F88276D
:101740008F6F909303018093020180E090E8909363
:101750000101809300016BC08038910509F467C0D6
:101760008039910519F08035910559F68091000175
:101770009091010190936A01809369018091000129
:101780009091010197FF9CC080E180936801809156
:1017900000019091010146E0969587954A95E1F701
:1017A00090930101809300012FC0803D9105F1F2DB
:1017B000803E910509F444C0803C910509F0A1CF19
:1017C00084E605C095E09A95F1F7000081504999AB
:1017D00002C08111F7CF499B28C0811120C08091A0
:1017E00000019091010190936A01809369018091B9
:1017F000000190910101892F992790930101809315
:10180000000182E2809368018091000190910101C2
:1018100099278F3F910509F055C080EF8ACF45E0A9
:101820004A95F1F700008150D6CF8823C1F29F91ED
:101830008F914F913F912F911F901FBE1F90189530
:10184000809100019091010190936A018093690158
:101850008091000190910101892F992790930101B6
:101860008093000183E2CECF95E09A95F1F70000D6
:101870008150499902C08111F7CF499B1EC0811147
:1018800016C0809100019091010190936A018093AC
:1018900069018091000190910101892F992790930E
:1018A00001018093000181E2ADCF84E6E2CF45E003
:1018B0004A95F1F700008150E0CF8111B8CFE1CF18
:1018C00081E163CF809103018F3F31F0809102016C
:1018D0008F3F11F080E42DCF8091020190910301A0
:1018E000982F882790930301809302012091000193
:1018F000309101018091020190910301822B21CF4F
:10190000CF93C82F8DEE0E94580A8A3F910521F48B
:101910008C2FCF910C94580ACF910895EDEFE80FDA
:10192000E13808F045C0F0E0ED55F94F0C9408306F
:1019300087E108958FE108958CE5089580E6089584
:1019400082E6089587E2089583E508958FE2089579
:1019500089E3089587E308958FE3089587E4089560
:101960008FE4089586E508958EE508958FE708953C
:1019700080E0089585E608958EE608958FE608953F
:1019800088E0089580E1089588E1089580E208954F
:1019900088E2089580E3089588E3089580E5089536
:1019A00087E508958FE5089589E108958DE6089506
:1019B0008F7708958FE00895CF93C82FE4EEE80F56
:1019C000E834B8F5F0E0EC5DF84F0C940830C5E56C
:1019D0008C2FCF910895CAE5FBCFCBE5F9CFCCE5AD
:1019E000F7CFCDE5F5CFCEE5F3CFCFE5F1CFC0E62C
:1019F000EFCFC1E6EDCFC2E6EBCFC3E6E9CFCFE64E
:101A0000E7CFC1E7E5CFC2E7E3CFC4E7E1CFC5E762
:101A1000DFCFC7E7DDCFC8E7DBCFCAE7D9CFCCE759
:101A2000D7CFCFE7D5CFC0E7D3CFC9E7D1CFCBE76B
:101A3000CFCF1F92CF9387E893E09F938F930E941D
:101A4000DD080F900F900F900F90C2CFC4E5C0CF6C
:101A50000F931F93CF93DF930E9498278C010E94CE
:101A6000B009EC01019631F4C8010E94C427843FFB
:101A70009140A8F3CE01DF91CF911F910F9108956E
:101A80000E9496090C94A5098091B203816080930D
:101A9000B203E5E7F1E080E1DF011D928A95E9F705
:101AA0000895E82FF0E0EB58FE4F208130E081E010
:101AB00090E002C0880F991F6A95E2F72823392326
:101AC00081E0232B09F480E00895CF93DF93E82F82
:101AD000D82FD770E695E695E695CE2FCF706D2F6F
:101AE0008C2F0E94510D81110DC0EC2FF0E0EB58AE
:101AF000FE4F21E030E001C0220FDA95EAF7808145
:101B0000822B8083DF91CF910895CF93DF93E82FCD
:101B1000D82FD770E695E695E695CE2FCF706D2F2E
:101B20008C2F0E94510D882371F0EC2FF0E0EB58C0
:101B3000FE4F81E090E001C0880FDA95EAF78095CA
:101B4000908189238083DF91CF910895E82FF0E081
:101B5000EB58FE4F80810895E5E7F1E080E1DF0179
:101B60001D928A95E9F70895982F8091710182302E
:101B700048F092FB882780F990FD826091FD846097
:101B80000C94800C0895CF93DF9380916701882394
:101B900071F18091690190916A01209167019F9391
:101BA0008F931F922F9381E194E09F938F930E94D4
:101BB000DD088091670180750F900F900F900F9056
:101BC0000F900F9071F4809170018B3051F48AE086
:101BD00094E09F938F930E94DD08109270010F9004
:101BE0000F901092670110926A0110926901809122
:101BF0006801882309F440C09091680180917401C4
:101C00009817D1F18091690190916A012091680142
:101C10009F938F931F922F9386EF93E09F938F93C1
:101C20000E94DD08809174010F900F900F900F902B
:101C30000F900F9085FF04C09091680194FD06C03D
:101C400084FF12C08091680185FF0EC080917001F1
:101C50008B3051F48FEE93E09F938F930E94DD08B9
:101C6000109270010F900F90809168018093740121
:101C700010926A0110926901E0917001EC3008F055
:101C800055C0F0E0E459F84F0C9408300E94AB09BD
:101C90000E9498279F938F938AEE93E09F938F9350
:101CA0000E94DD081092710110927301109272016E
:101CB000109274010E94AC0D0E944C1C0E94982747
:101CC00090936F0180936E0181E0809370012AC030
:101CD00080916E0190916F010E94C427893E9340CC
:101CE00028F182E08093700121C00E94430A0E9483
:101CF000A5098FE99FE00197F1F700C000008FEF81
:101D00000E94580A8A3F9105A9F486E080937001E9
:101D10000E9498279F938F9385EE93E09F938F93D4
:101D20000E94DD080F900F900F900F9081E0DF91DF
:101D3000CF91089583E0EACF0E94AB092E98269AAE
:101D40002F98279A0E94982790936F0180936E0195
:101D500084E0C8CF80916E0190916F010E94C427EA
:101D6000853F914018F385E0BDCF2E9826982F9897
:101D700027980E94430A0E94A5090E9498279F93D2
:101D80008F9380EE93E09F938F930E94DD080E94D3
:101D9000982790936F0180936E0186E096CF0E9402
:101DA000B009019619F20E9498279F938F938BEDAB
:101DB00093E09F938F930E94DD080E949827909351
:101DC0006F0180936E0187E080CF80916E019091CA
:101DD0006F010E94C427853F914018F089E08093ED
:101DE00070010E94B009019609F4A0CF0E949827C3
:101DF0009F938F9386ED93E09F938F930E94DD08CE
:101E00000E94982790936F0180936E0188E05DCFC8
:101E100080916E0190916F010E94C427853F91408F
:101E200018F089E0809370010E94B009019609F4CE
:101E30007DCF0E9498279F938F9381ED93E09F938E
:101E40008F930E94DD0889E040CF80916801CDEF3B
:101E5000DFEF8131C9F082EF0E94580A9C01CFEF79
:101E6000DFEF2F3F320781F0CEEFDFEF2A3F310562
:101E700059F40E94280DEC01CF3FDC0709F1DC2F5B
:101E8000CC270E94280DC82BD0937301C0937201F8
:101E90000E9498279F938F938CEC93E09F938F934E
:101EA0000E94DD0880917201909173010F900F9054
:101EB0000F900F90009739F482E0809371011FC05A
:101EC000D0E0C0E0E1CF8F3F980711F481E0F5CF7B
:101ED0008E3F2FEF920781F38D3F2FEF920711F482
:101EE00084E0EBCF8F3F910571F586EB93E09F93F4
:101EF0008F930E94DD08109271010F900F908091D6
:101F00007101813059F1823061F1833069F184309F
:101F100071F185E391E09F938F93809173018F938B
:101F2000809172018F9388EA93E09F938F930E9430
:101F3000DD088AE0809370010F900F900F900F9052
:101F40000F900F90F3CE803B2FEB920711F483E0BC
:101F5000B4CF882781159F4BD1F3AECF89E291E0B2
:101F6000DACF86E291E0D7CF8CE291E0D4CF8EE158
:101F700091E0D1CF0E9498279F938F9383EA93E0BB
:101F80009F938F930E94DD08809171010F900F90B5
:101F90000F900F90823081F1833059F18BE0809364
:101FA00070010E9498279F938F938EE993E09F93EF
:101FB0008F930E94DD080F900F900F900F900E945A
:101FC000B0099C012F3F320709F4B0CE211531052D
:101FD00019F02F3F3105A9F40E94AC0D0E944C1C52
:101FE00086E993E09F938F930E94DD080F900F90F6
:101FF0009DCE88EF0E94580A0E9487190E94B40D56
:10200000CDCF90917101933009F4D8C078F491301C
:1020100081F0923009F08ACEE0916C01E93008F04D
:102020007EC0F0E0E858F84F0C9408309430A1F3EB
:102030007DCE90916D019230A1F158F491111AC0AA
:10204000803E71F0813E81F087FD10C00E94650DD9
:102050006DCE933071F1943081F110926D0166CEA6
:1020600081E080936D0162CE82E0FBCF8F770E948A
:10207000850D5CCE8A3A89F358F48A3271F386333F
:1020800061F387FD08C00E94DC0C0E94650DE5CF5E
:10209000863BB9F7E2CF8F770E94DC0C0E94850D5A
:1020A000DCCF8D3121F08D39C1F684E0DACF83E0C9
:1020B000D8CF853491F685E5E8CF853C71F685E586
:1020C000EDCF803ED1F098F48338E9F08438F9F010
:1020D00087FFBCCF0E94AC0D8BE793E09F938F935B
:1020E0000E94DD080F900F90109270011FCE813E6C
:1020F00041F0803F69F781E001C082E080936C018C
:1021000015CE84E0FBCF82E00E94650D08C08FE70A
:10211000FBCF893521F0803F29F0823129F41092DC
:102120006C0104CE83E0EACF10926C0187FD03C0FE
:102130000E948E0C8BCF0E94AC0D81E793E0CECF36
:10214000833859F0843869F010926C0187FF8FCF83
:102150000E94AC0D87E693E0C1CF82E00E94850D1E
:10216000DECF8FE7FBCF8231D1F28935C1F21092F9
:102170006C0187FD03C00E948E0C79CF0E94AC0DCC
:102180008AE593E0ABCF843121F0803F41F686E0D1
:10219000B5CF85E0B3CF873711F680E0B5CF843176
:1021A00009F0BDCF87E0AACF803F09F0B8CF88E023
:1021B000A5CF873709F0B3CF80E0D0CF90916B01E6
:1021C000992369F0913009F0B1CDEDE7E80FEB30DC
:1021D00008F041C0F0E0EF57F84F0C9408308E380B
:1021E00058F48338F8F0EDE7E80FEB30D8F4F0E07E
:1021F000E457F84F0C940830803FA1F481E08093BD
:102200006B0194CD82E022CF8FE720CF8BE01ECFF1
:1022100086E01CCF80E01ACF81E018CF89E016CF8E
:102220008AE014CF87FF12CF8DE493E057CF82E08E
:102230000E94850D10926B0179CD8FE7F9CF8BE06D
:10224000F7CF86E0F5CF80E0F3CF81E0F1CF89E0F2
:10225000EFCF8AE0EDCF10926B0187FF08CF83E4C8
:1022600093E03CCF8091A9020895CF93DF9300D0F3
:102270000F92CDB7DEB72091AE02243019F523E0DE
:1022800029838A839B832093E9008FEF9091E80054
:10229000815095FD06C095ED9A95F1F700008111EA
:1022A000F5CF8091E80085FF0DC050E040E063E08D
:1022B00070E0CE0101960E94C6158091E8008E77ED
:1022C0008093E8000F900F900F90DF91CF910895C9
:1022D000CF93DF9300D00F92CDB7DEB79C018091F2
:1022E000AE02843031F582E08983205831093B8386
:1022F0002A8383E08093E9008FEF9091E80081507A
:1023000095FD06C095ED9A95F1F700008111F5CF86
:102310008091E80085FF0DC050E040E063E070E090
:10232000CE0101960E94C6158091E8008E778093B9
:10233000E8000F900F900F90DF91CF9108952091BA
:10234000AE022430F1F422E02093E9002FEF309127
:10235000E800215035FD06C035ED3A95F1F7000053
:102360002111F5CF2091E80025FF0BC050E040E09F
:1023700065E070E00E94C6158091E8008E7780933A
:10238000E8000895CF93DF93D82FC92F8091AE0234
:102390008430D1F4809114018823F1F080911501EB
:1023A0008823D1F085E08093E90081E8815021F015
:1023B0009091E80095FF0BC08091E80050E040E06C
:1023C00060E270E085FD1AC0DF91CF9108959AE236
:1023D0009A95F1F700C0EACF81E08093E90081E8A7
:1023E000815021F09091E80095FF1BC08091E8009A
:1023F00085FFEACF50E040E068E070E08D2F9C2F31
:102400000E94C6158091E8008E778093E80080E2F4
:10241000ED2FFC2FA9E8B2E001900D928A95E1F72B
:10242000D3CFEFE3F1E03197F1F700C00000D8CF50
:10243000CF93DF9300D000D00F92CDB7DEB72091BD
:1024400087012D8321110CC00E94A427643C794090
:102450008105910528F081E080938701B1E0BD837B
:102460008D810F900F900F900F900F90DF91CF9173
:102470000895FF920F931F93CF93DF93D82F0FB63A
:1024800007FE48C08091AE02843071F08091070150
:1024900090E001962091090130E08223932320915E
:1024A000080128171906B1F50E94181281110FC0F2
:1024B0002091070130E02F5F3F4F8091090190E0AC
:1024C00028233923809108018217130619F50E94E9
:1024D00098278C01C091E900CF709091EC00892F72
:1024E000817090FD80E8C82B84E08093E90085E04E
:1024F000F82E8091EB0085FD0AC09091EB00892FAA
:10250000817090FF04C09091EE0097FD43C0CF70A2
:10251000C093E9008091070190E09C012F5F3F4F3D
:102520004091090150E024233523409108014217CE
:10253000130609F47CC02091050130910601820F39
:10254000931FFC01D083809107018F5F9091090157
:102550008923809307016BC0E0910501F09106018A
:10256000E90FF11D20819F5F309109019323909322
:1025700008012093F1009091E80095FD0BC0909127
:10258000E80090FF07C09091E8009E779093E800E4
:10259000F092040190910801209107013091E80028
:1025A000291731F135FDD8CF80E026C01092F10017
:1025B0002EC030E02F5F3F4F4091090150E02423AF
:1025C00035239217130609F0A2CF809104018823C6
:1025D00009F49DCF0E9498279C018017910709F468
:1025E00088CF80910401815080930401890181CFBB
:1025F00035FFDACFD093F1003091F3004091F20033
:10260000532F452B79F03091E80030FF0BC030910B
:10261000E80035FDCBCF3091E8003E773093E800FD
:10262000F0920401882329F2CF70C093E90080E082
:10263000DF91CF911F910F91FF9008958091B70284
:10264000811104C00E941D180C947A1808951092EC
:10265000B70208951092B702089542E061EC81E05C
:102660000E94421542E061EC82E00E94421542E085
:1026700061EC83E00E94421542E261EC84E00E943A
:10268000421542E261EC85E00C9442158091B00263
:10269000893081F148F4823009F492C0833009F422
:1026A0004DC0813041F008958A3009F479C08B30F3
:1026B00009F45FC008958091AF02813AF1F58091ED
:1026C000E800877F8093E8008091B3029091B40284
:1026D000892B61F460E289E892E070E00E941716AD
:1026E0008091E8008B778093E800089560E090E0A7
:1026F00080E0F3CF8091AF028132F9F48091B30290
:102700009091B4028B7F892BC1F48091E800877F80
:102710008093E8008091E80082FF0BC08091F10077
:102720008093A9028091E8008B778093E8000C9455
:1027300076158091AE028111EDCF08958091AF02A0
:10274000813AD9F78091B3029091B402892BA9F70D
:102750008091E800877F8093E8008091E80080FF07
:10276000FCCF809114018093F1008091E8008E7776
:10277000DCCF8091AF02813201F78091B30290915A
:10278000B402892BD1F68091E800877F8093E8001E
:102790000E9476158091B102809314010C944C1C18
:1027A0008091AF02813249F68091E800877F809363
:1027B000E8000E9476158091B2028093AA020895E3
:1027C0008091AF02813A09F0B8CF8091E800877F0D
:1027D0008093E8008091E80080FFFCCF8091AA02FE
:1027E000C2CF08958091A902809388011092A90216
:1027F0000E94AC0D0C944C1C0C94F2130E944727C1
:102800008091AB02882329F00E94542781110C94F7
:102810002C1508950E946827809188018093A90251
:1028200008950C940A14089584B7877F84BF0FB667
:10283000F894A89580916000886180936000109260
:1028400060000FBE80E890E00FB6F89480936100BE
:10285000909361000FBE89E392E10E9418278AE0FD
:1028600091E00E94821989E494E00E9444080E9449
:10287000400D0E94421A0E941D180E947A187894F6
:102880000E94441A8091AE02843009F046C087E36A
:1028900094E00E9444080E94F11385E294E00E94B3
:1028A0004408C4E08091AE028530E1F10E94481AEC
:1028B0002091E4003091E50080918501909186019E
:1028C0002817390739F18091E4009091E500909341
:1028D0008601809385010E9418128823D9F0809187
:1028E000AE028430B9F49091E9009F702091EC0021
:1028F000822F817020FD80E8892BC093E9009091A0
:10290000EB0090FF04C09091EE0097FD2AC08F70FD
:102910008093E9000E946719C5CF0E9467190E9441
:102920001314B0CF0E94FE13BDCFE0910501F091CA
:102930000601E90FF11D20819F5F3091090193236A
:10294000909308012093F1009091E80095FD09C053
:102950009091E80090FF05C09091E8009E779093D9
:10296000E8009091080120910701291721F020919A
:10297000E80025FDDACF9091F3002091F200392F85
:10298000232B29F29091E80090FFC1CF9091E800AD
:1029900095FD06C09091E8009E779093E800B7CF30
:1029A0001092F100F3CFFC01CB01DA012F2F332776
:1029B00023303105D1F070F42130310509F447C0DE
:1029C0002230310569F48DE890E029EA34E02D9356
:1029D0003C93089521323105E9F02232310539F175
:1029E00090E080E030E020E0F2CFCF019927E130A5
:1029F00059F08230910559F0E5EAF4E0892B81F72E
:102A0000849190E09F01E3CFE5E9F4E0F9CFEFE5B1
:102A1000F4E0F6CF6530710518F7880F991FFC01B7
:102A2000E75BFE4F2081318189E090E0D0CF6530B7
:102A30007105B0F6FB01EE0FFF1FE15CFE4F208138
:102A40003181865C9E4FFC01808190E0C0CF82E1A5
:102A500090E026E335E0BBCF80E189BD82E189BD0E
:102A600009B400FEFDCF8091D8008F7D8093D800FF
:102A70008091E00082608093E0008091E00081FD21
:102A8000FCCF0895982F973028F08F708093E9003D
:102A900081E008959093E900242F762F50E0981755
:102AA00031F07091EC002091ED005091F00021FD8B
:102AB00002C09F5FE8CF3091EB003E7F3093EB0088
:102AC0003091ED003D7F3093ED003091EB003160AF
:102AD0003093EB007093EC002093ED005093F000E6
:102AE0002091EE0027FDE5CF80E008958091AF02B0
:102AF00087FF13C08091E80082FF06C08091E80044
:102B00008B778093E80004C08091AE028111F2CFF0
:102B100008958091AE028823D9F38091E80080FF68
:102B2000F8CF8091E8008E77ECCF2091E4003091CF
:102B3000E50095E6A9012091EC00822F817020FF2D
:102B400006C08091E80080FF06C080E008952091D3
:102B5000E80022FD1AC08091AE02882389F08530FA
:102B600089F08091EB0085FD0FC02091E400309149
:102B7000E50042175307F9F29150E1F684E0089519
:102B800082E0089583E0089581E00895AF92BF92B6
:102B9000CF92DF92FF920F931F93CF93DF936C013D
:102BA000EB018A010E949515F82E811125C00115AF
:102BB000110539F0F80180819181C81BD90BC80E2D
:102BC000D91EB12CA12C2097B9F08091E80085FD89
:102BD00024C08091E8008E778093E8000E946719F6
:102BE00001151105A1F0F80180819181A80EB91E8F
:102BF000B182A08285E0F82E8F2DDF91CF911F91B9
:102C00000F91FF90DF90CF90BF90AF9008950E94FA
:102C100095158823C1F2F82EEFCFF60181916F014F
:102C20008093F1002197FFEFAF1ABF0ACCCFFC01D0
:102C3000CB012091B5023091B6022617370790F0EC
:102C4000009729F42091E8002E772093E80040E0D7
:102C5000009751F4411108C08091E80082FF31C013
:102C600080E00895C901F3CF2091AE022223A9F19B
:102C70002530A9F12091E80023FD2DC02091E80026
:102C800022FDEACF2091E80020FFE2CF3091F3004F
:102C90002091F200009719F02830310558F041E0FA
:102CA0002830310509F040E02091E8002E7720938C
:102CB000E800CECF41914093F10001972F5F3F4F45
:102CC000E9CF8091AE02882341F0853041F08091B8
:102CD000E80083FFC1CF81E0089582E0089583E09A
:102CE0000895FC01CB012091B5023091B602261760
:102CF000370790F0009729F42091E8002E77209371
:102D0000E80040E0009751F4411108C08091E800CC
:102D100082FF32C080E00895C901F3CF2091AE0256
:102D20002223B1F12530B1F12091E80023FD2EC01E
:102D30002091E80022FDEACF2091E80020FFE2CFB9
:102D40003091F3002091F200009719F028303105FE
:102D500058F041E02830310509F040E02091E800CA
:102D60002E772093E800CECF44914093F100319626
:102D700001972F5F3F4FE8CF8091AE02882341F04B
:102D8000853041F08091E80083FFC0CF81E0089555
:102D900082E0089583E008951F93CF93DF93CDB72A
:102DA000DEB7AA970FB6F894DEBF0FBECDBF8FEA8D
:102DB00092E0FC0101962091F100208322E0873B04
:102DC0009207B9F70E9446138091E80083FF1DC166
:102DD0008091AF029091B0029A3008F016C1E92FAD
:102DE000F0E0E956F84F0C940830803899F08238BA
:102DF00009F00BC18091B3028F70873008F005C1D4
:102E00008093E9008091EB0085FB882780F9109280
:102E1000E90006C08091AC029091AB0291118260F2
:102E20009091E800977F9093E8008093F1001092D2
:102E3000F1008091E8008E77E4C0882309F4D2C0C5
:102E4000823009F0E2C08091B1028111D5C0809139
:102E5000B3028F702FEF280F263008F0D6C0809372
:102E6000E9002091EB0020FFC7C0933031F480913E
:102E7000EB0080628093EB00BFC09091EB0090610B
:102E80009093EB0021E030E001C0220F8A95EAF731
:102E90002093EA001092EA008091EB008860EACF6C
:102EA0008111B3C01091B1021F778091E300807847
:102EB000812B8093E3008091E800877F8093E80076
:102EC0000E9476158091E80080FFFCCF8091E3009E
:102ED00080688093E30082E0111183E08093AE026A
:102EE00094C08058823008F090C08091B1029091D7
:102EF000B2028C3D23E0920799F583E08A838AE24F
:102F000089834FB7F894DE01139620E03EE051E24A
:102F1000E32FF0E050935700849120FF03C0829587
:102F20008F703F5F8F708A30C8F0895C90E08D931E
:102F30009D932F5F243161F74FBF8091E800877F19
:102F40008093E8006AE270E0CE0101960E941716B5
:102F50008091E8008B778093E80057C0805DE6CFD2
:102F60006091B3027091B402AE014F5F5F4F0E9457
:102F7000D314BC01892B09F448C08091E800877FF5
:102F80008093E80089819A810E947116E1CF803890
:102F9000E1F58091E800877F8093E8008091AD02A1
:102FA0008093F10046CF811130C09091B1029230F0
:102FB00060F58091E800877F8093E8009093AD02F0
:102FC0000E9476158091AD02882311F084E005C03F
:102FD0008091E30087FDFACF81E08093AE020E94EA
:102FE0002D1313C08091B102813079F481E09330C8
:102FF00009F080E08093AB021092E9008091E80034
:10300000877F8093E8000E9476158091E80083FF17
:103010000AC08091E800877F8093E8008091EB00F0
:1030200080628093EB00AA960FB6F894DEBF0FBEC5
:10303000CDBFDF91CF911F9108950E948B180E9400
:103040009318E0EEF0E0808181608083E8EDF0E0AD
:1030500080818F77808319BCA7EDB0E08C918E7F43
:103060008C9380818F7E80831092B70208950F9396
:103070001F93CF93DF930E948B180E949318C8ED83
:10308000D0E088818F778883888180688883888171
:103090008F7D888319BC1092AE021092AD021092FF
:1030A000AB021092AC0200EE10E0F80180818B7F41
:1030B000808388818160888342E060E080E00E94B4
:1030C0004215E1EEF0E080818E7F8083E2EEF0E059
:1030D000808181608083808188608083F801808125
:1030E0008E7F8083888180618883DF91CF911F915B
:1030F0000F910895E8EDF0E080818F7E8083E7ED09
:10310000F0E080818160808384E082BF81E08093F1
:10311000B7020C943718E8EDF0E080818E7F808351
:103120001092E20008951092DA001092E1000895E2
:103130001F920F920FB60F9211242F933F934F932C
:103140005F936F937F938F939F93AF93BF93EF930F
:10315000FF938091E10082FF0BC08091E20082FF2B
:1031600007C08091E1008B7F8093E1000E94661987
:103170008091DA0080FF19C08091D80080FF15C0CF
:103180008091DA008E7F8093DA008091D90080FFF1
:103190008FC080E189BD82E189BD09B400FEFDCF09
:1031A00081E08093AE020E941E138091E10080FFB7
:1031B00019C08091E20080FF15C08091E2008E7FEF
:1031C0008093E2008091E20080618093E200809130
:1031D000D80080628093D80019BC85E08093AE024D
:1031E0000E94FC138091E10084FF29C08091E200DD
:1031F00084FF25C080E189BD82E189BD09B400FE5C
:10320000FDCF8091D8008F7D8093D8008091E10020
:103210008F7E8093E1008091E2008F7E8093E200B8
:103220008091E20081608093E2008091AD0288236A
:1032300009F444C084E08093AE020E94111480918E
:10324000E10083FF24C08091E20083FF20C08091D1
:10325000E100877F8093E10082E08093AE021092CC
:10326000AD028091E1008E7F8093E1008091E200C9
:103270008E7F8093E2008091E20080618093E20083
:1032800042E060E080E00E9442150E942A13FF9114
:10329000EF91BF91AF919F918F917F916F915F91CE
:1032A0004F913F912F910F900FBE0F901F90189547
:1032B00019BC1092AE020E94271377CF8091E300D1
:1032C00087FD02C081E0B7CF83E0B5CF0895CF93EB
:1032D0008091AE028823A1F0C091E900CF70909157
:1032E000EC00892F817090FD80E8C82B1092E900D6
:1032F0008091E80083FD0E94CC16CF70C093E90056
:10330000CF9108959093BD028093BC020895E091FF
:10331000BC02F091BD02309721F00190F081E02DC8
:10332000099480E00895EF92FF920F931F93CF933B
:10333000DF938C01E091BC02F091BD023097B1F1B6
:103340000280F381E02D09958091B20382FF2EC0A7
:1033500080FF04C08CE896E00E944408E8017801F0
:1033600080E2E80EF11C06E816E08091B20380FFCF
:103370000BC088811F928F931F930F930E94DD08CB
:103380000F900F900F900F902196CE15DF0569F7E3
:103390008091B20380FF0AC084E896E0DF91CF916C
:1033A0001F910F91FF90EF900C944408DF91CF9103
:1033B0001F910F91FF90EF900895E091BC02F09162
:1033C000BD02309721F00480F581E02D0994089525
:1033D000CF93DF93EC018091BA029091BB028C17DE
:1033E0009D0701F1D093BB02C093BA02E091BC02E9
:1033F000F091BD023097B1F00680F781E02DCE014B
:1034000009958091B2038570853061F4DF93CF9385
:1034100086E796E09F938F930E94DD080F900F90B0
:103420000F900F90DF91CF910895CF93DF93EC0130
:103430008091B8029091B9028C179D0701F1D09349
:10344000B902C093B802E091BC02F091BD0230977E
:10345000B1F00084F185E02DCE0109958091B20391
:103460008570853061F4DF93CF9386E696E09F9375
:103470008F930E94DD080F900F900F900F90DF91B7
:10348000CF9108950C94F51A0E948F270C94440D47
:103490008F929F92AF92BF92DF92EF92FF920F9323
:1034A0001F93CF93DF9300D000D00F92CDB7DEB73C
:1034B0000E94C30D8FEBA82E82E0B82E10E0812F62
:1034C0000E94A60DF82EF501D1905F01D81699F152
:1034D0008091B20381FD0E94F61ADF24E12C01E005
:1034E0004501F1E08F1A91088D2D8023F9F0E982D2
:1034F0001A8391E08F2D802309F490E09B830E9432
:1035000098278160782F9D838C8349815A816B81B4
:103510008D810E942C1B49815A816B817C818D8118
:103520000E943227F401808180278083E394000F7A
:10353000F8E0EF12D9CF1F5F103109F0C0CF8FEF45
:1035400089838A831B820E9498278160782F9D83BC
:103550008C8349815A816B818D810E942C1B0E9432
:1035600031270E940E2A0E9487199091BE02891766
:1035700049F10E9487198093BE029091B203957021
:10358000953061F41F928F9387E996E09F938F9314
:103590000E94DD080F900F900F900F908091BE0257
:1035A0000F900F900F900F900F90DF91CF911F9180
:1035B0000F91FF90EF90DF90BF90AF909F908F9012
:1035C0000C9443270F900F900F900F900F90DF9166
:1035D000CF911F910F91FF90EF90DF90BF90AF9030
:1035E0009F908F9008950C94B40D0895EF92FF92E0
:1035F0000F931F93CF93DF938DEA96E00E944408C8
:10360000D0E0C0E085E2E82E81E0F82E02EA16E084
:103610008C2F0E94A60D0E941D27FF92EF921F92F1
:103620008F93DF93CF931F930F930E94DD08219612
:103630008DB79EB708960FB6F8949EBF0FBE8DBF8C
:10364000C031D10529F7DF91CF911F910F91FF90E4
:10365000EF90089508950895CF93DF93CDB7DEB727
:103660002B970FB6F894DEBF0FBECDBF4F835887A0
:1036700069877A878B878A859B85892B21F0842FA0
:1036800085238F3FD1F41E8285E0FE013796DE014F
:10369000119601900D928A95E1F749815A816B81CB
:1036A0007C818D819E812B960FB6F894DEBF0FBE74
:1036B000CDBFDF91CF910C945E2269857A858B8591
:1036C0000E943227E0CFCF93C82F882309F49AC0F5
:1036D0008CEF8C0F813A58F48C2F0E94772D81113A
:1036E00091C08C2F0E941326CF910C94F22680E279
:1036F0008C0F883048F4C77081E001C0880FCA95EC
:10370000EAF70E94B726F0CF8BE58C0F833068F480
:1037100081E890E0C53A31F083E890E0C63A11F4D0
:1037200082E890E0CF910C94E81988E58C0F8731FE
:1037300008F068C082EE90E0C83A09F460C089EEF3
:1037400090E0C93A09F45BC08AEE90E0CA3A09F405
:1037500056C085EB90E0CB3A09F451C086EB90E07F
:10376000CC3A09F44CC083EB90E0CD3A09F447C061
:1037700084EB90E0CE3A09F442C087EB90E0CF3A78
:10378000F1F18CEC90E0C13BD1F18DEC90E0C03BCD
:10379000B1F183E891E0C23B91F18AE891E0C33B4B
:1037A00071F182E991E0C43B51F184E991E0C53BBC
:1037B00031F181E292E0C63B11F183E292E0C73B36
:1037C000F1F084E292E0C83BD1F085E292E0C93B9F
:1037D000B1F086E292E0CA3B91F087E292E0CB3B07
:1037E00071F08AE292E0CC3B51F08FE690E0CD3B65
:1037F00031F090E080E0CE3B11F480E790E0CF9193
:103800000C94151ACF910895882329F19CEF980FF5
:10381000913A20F40E9460260C94F22690E2980FD0
:10382000983050F4877091E001C0990F8A95EAF7BB
:10383000892F0E94BD26F0CF9BE5980F933020F48E
:1038400090E080E00C94E819885A873120F490E0E9
:1038500080E00C94151A0895882321F00E94B72661
:103860000C94F2260895882321F00E94BD260C9422
:10387000F22608950E94D9260E94A6260E94F226CA
:103880000E94F42A0E94812990E080E00E94E819B9
:1038900090E080E00C94151A0E94C8260C943A1C03
:1038A000AF92BF92CF92DF92EF92FF920F931F934E
:1038B000CF93DF93CDB7DEB729970FB6F894DEBF6D
:1038C0000FBECDBF5C010E944527811114C085E069
:1038D000F501DE01119601900D928A95E1F7F5014F
:1038E00083819481009739F040815181242F2523D1
:1038F0002F3F09F05FC329960FB6F894DEBF0FBEC5
:10390000CDBFDF91CF911F910F91FF90EF90DF908E
:10391000CF90BF90AF900895F12FFF70EF2E107FE2
:1039200019F0E29440EFE422FF20D1F0EE2029F0DC
:103930008E2D0E94CB260E94F226802F29960FB64C
:10394000F894DEBF0FBECDBFDF91CF911F910F91D5
:10395000FF90EF90DF90CF90BF90AF900C94631BDF
:10396000802F0E94041CEE2031F28E2D0E94D12661
:1039700029960FB6F894DEBF0FBECDBFDF91CF9171
:103980001F910F91FF90EF90DF90CF90BF90AF907D
:103990000C94F226212F2F70D22E107F103219F0A6
:1039A000D29430EFD322002379F0013009F455C0CE
:1039B000FF2009F463C0EE2059F0F501858180FFF6
:1039C00007C28F70858304C0FF2059F1E11013C036
:1039D0008D2D29960FB6F894DEBF0FBECDBFDF91B7
:1039E000CF911F910F91FF90EF90DF90CF90BF90FC
:1039F000AF900C942C1C31E08D2DE312EACF299668
:103A00000FB6F894DEBF0FBECDBFDF91CF911F91EF
:103A10000F91FF90EF90DF90CF90BF90AF900C94FC
:103A2000DC26E11015C00E94DF268D2D29960FB6E9
:103A3000F894DEBF0FBECDBFDF91CF911F910F91E4
:103A4000FF90EF90DF90CF90BF90AF900C94331C1D
:103A500041E0E41609F44FCFE6CFFF2051F055E0E6
:103A60005E1508F448CF0E94B4268D2109F4B0CF2A
:103A7000DCCF84E08E1508F43ECFD7CFEE20A9F23C
:103A8000802F29960FB6F894DEBF0FBECDBFDF9111
:103A9000CF911F910F91FF90EF90DF90CF90BF904B
:103AA000AF900C94041C812F869586958370D9F075
:103AB000813009F020CFC8019370F11002C090E06E
:103AC00080E029960FB6F894DEBF0FBECDBFDF9120
:103AD000CF911F910F91FF90EF90DF90CF90BF900B
:103AE000AF900C94151AC8019370F11002C090E0C9
:103AF00080E029960FB6F894DEBF0FBECDBFDF91F0
:103B0000CF911F910F91FF90EF90DF90CF90BF90DA
:103B1000AF900C94E819802FFF20A1F00E949A2802
:103B200029960FB6F894DEBF0FBECDBFDF91CF91BF
:103B30001F910F91FF90EF90DF90CF90BF90AF90CB
:103B40000C9481290E940229EBCF812F837009F008
:103B50008CC0F110D0CE202F229526952770220FF1
:103B6000220F802F8F7090E0B0E0A0E06C017D010B
:103B7000022E04C0CC0CDD1CEE1CFF1C0A94D2F7F4
:103B800060E070E0CB0104FF0FC06FE070E080E008
:103B900090E004C0660F771F881F991F2A95D2F7FF
:103BA00060957095809590951695169513701230C6
:103BB000C9F1133009F454C09B01AC012C293D29F3
:103BC0004E295F292E833F83488759871130A1F002
:103BD000CA01B90129960FB6F894DEBF0FBECDBF5A
:103BE000DF91CF911F910F91FF90EF90DF90CF90D9
:103BF000BF90AF900C94D7236E817F818885998583
:103C000029960FB6F894DEBF0FBECDBFDF91CF91DE
:103C10001F910F91FF90EF90DF90CF90BF90AF90EA
:103C20000C94A7239B01AC012C293D294E295F2927
:103C30002E833F8348875987CA01B90129960FB659
:103C4000F894DEBF0FBECDBFDF91CF911F910F91D2
:103C5000FF90EF90DF90CF90BF90AF900C9407242F
:103C60000E94D723C701B601CBCFFF2009F453C070
:103C700010FF41CE202F229526952770220F220F6C
:103C8000802F8F7090E0B0E0A0E06C017D01022EEB
:103C900004C0CC0CDD1CEE1CFF1C0A94D2F760E0C3
:103CA00070E0CB0104FF0FC06FE070E080E090E0B7
:103CB00004C0660F771F881F991F2A95D2F7609559
:103CC0007095809590951695169513701230E1F1C8
:103CD000133009F457C09B01AC012C293D294E2912
:103CE0005F292E833F83488759871130B9F0CA0175
:103CF000B90129960FB6F894DEBF0FBECDBFDF9194
:103D0000CF911F910F91FF90EF90DF90CF90BF90D8
:103D1000AF900C94202511FFEECDACCF6E817F814A
:103D20008885998529960FB6F894DEBF0FBECDBF62
:103D3000DF91CF911F910F91FF90EF90DF90CF9087
:103D4000BF90AF900C94F8249B01AC012C293D2925
:103D50004E295F292E833F8348875987CA01B901BD
:103D600029960FB6F894DEBF0FBECDBFDF91CF917D
:103D70001F910F91FF90EF90DF90CF90BF90AF9089
:103D80000C9448250E942025C701B601CBCF013FE6
:103D900009F473C068F5003E98F4003C98F0812F58
:103DA0008F71102F1071FF2009F43EC00E94612412
:103DB000802F8295807F11110CCE802F8F7009CEBD
:103DC000003FE1F1FF2009F4A0C0EE2009F49AC001
:103DD000802F0E94631B093309F08DC0FFEF21EE95
:103DE00034E0F15020403040E1F700C0000083CDC6
:103DF000023F09F458C0033F29F7FF2009F469C0C6
:103E0000812F8F7129960FB6F894DEBF0FBECDBFFC
:103E1000DF91CF911F910F91FF90EF90DF90CF90A6
:103E2000BF90AF900C943C240E949224802F8295E6
:103E3000807F1111FBCD802F8F70F8CDFF20C1F056
:103E400034E03E1508F457CD812F8F7129960FB6B7
:103E5000F894DEBF0FBECDBFDF91CF911F910F91C0
:103E6000FF90EF90DF90CF90BF90AF900C94C7245D
:103E700045E04E1508F43FCDE7CF812F8F71FF202D
:103E8000B1F029960FB6F894DEBF0FBECDBFDF911B
:103E9000CF911F910F91FF90EF90DF90CF90BF9047
:103EA000AF900C946124812F8F71FF2051F32996DC
:103EB0000FB6F894DEBF0FBECDBFDF91CF911F913B
:103EC0000F91FF90EF90DF90CF90BF90AF900C9448
:103ED000922429960FB6F894DEBF0FBECDBFDF91B6
:103EE000CF911F910F91FF90EF90DF90CF90BF90F7
:103EF000AF900C943724033509F470CF073409F0E0
:103F0000FACC6CCF812F8F71BCCFE110B9CD812F4E
:103F10008F71CDCF412F4F70602FC5010E942E09A8
:103F200029960FB6F894DEBF0FBECDBFDF91CF91BB
:103F30001F910F91FF90EF90DF90CF90BF90AF90C7
:103F40000C94F8220111D7CCFF2009F4D4CC0E94A4
:103F50004C1C5FEF80E792E0515080409040E1F7C9
:103F600000C0000029960FB6F894DEBF0FBECDBF8B
:103F7000DF91CF911F910F91FF90EF90DF90CF9045
:103F8000BF90AF900C94F727412F4F70602FC50161
:103F900029960FB6F894DEBF0FBECDBFDF91CF914B
:103FA0001F910F91FF90EF90DF90CF90BF90AF9057
:103FB0000C941628F280E580E2942FE0E2224983F7
:103FC0005A83FB82782F9D838C836F2D8D810E9475
:103FD00071258C010E9470250E949C23E12FE2959F
:103FE000EF70F0E0EF55F84F0C940830CF93DF936B
:103FF00000D000D00F92CDB7DEB76B837C838D836A
:104000008C819D81892B21F0842F85238F3FA1F402
:1040100080E005C0303E58F481E0303CC8F70F9096
:104020000F900F900F900F90DF91CF910895315F17
:1040300081E03330A0F7ECCF6B817C818D810E94D1
:104040007125382F292F22952F70903C40F42A306B
:1040500008F7225F2F7081E0223008F3D9CF2C308F
:1040600011F02F30A9F693FB882780F9D8CFCF9392
:10407000DF9300D000D00F92CDB7DEB70F900F9036
:104080000F900F900F90DF91CF910895CF93DF9312
:1040900000D000D000D0CDB7DEB726960FB6F8948A
:1040A000DEBF0FBECDBFDF91CF9108951F93CF9399
:1040B000DF93E091CF0216E08091D0028E1304C00E
:1040C000DF91CF911F910895CE2FD0E01E9FF00178
:1040D0001124EF52FD4F40815181628173818481AF
:1040E00095810E944620FE013196E770E5CF409110
:1040F00001035091020360910303709104038091C6
:104100000503909106030C9446201F93CF93DF93F1
:1041100080910603807FA9F480910303882389F0AE
:104120008091CF02C091D00270910103609102038F
:10413000A0910403B0910503D62FD72316E0C8132E
:1041400004C0DF91CF911F91089590E0109711F076
:10415000DF3F19F401968770F2CF189F9001199FE5
:10416000300D1124F901EF52FD4F41816413F2CF5C
:1041700040814713EFCF42814111ECCF43815481FD
:104180004A1B5B0B483C510528F7809106038F7052
:10419000806180930603F901EA52FD4F80818F70A0
:1041A0008061808381E093E00E94501CDF91CF9179
:1041B0001F910C945620AF92BF92CF92DF92EF9254
:1041C000FF920F931F93CF93DF93CDB7DEB72B975B
:1041D0000FB6F894DEBF0FBECDBF8C0185E0F801AD
:1041E000DE01179601900D928A95E1F7F801408162
:1041F0005181F28081E0A82E83E0B82E6091040303
:10420000709105036115710549F0909101032091AA
:104210000203892F82238F3F09F03BC1FF2009F45D
:1042200049C14F835887F9866F2D7A858B850E9407
:10423000F61F882309F43EC1E8C080910603382F99
:10424000307F683C710508F07BC03111B6C0EF2C9F
:10425000251324C0941322C0F11020C08F708061F8
:10426000809306030E94772081E093E00E94501C17
:1042700080910603F80185838E2D2B960FB6F89456
:10428000DEBF0FBECDBFDF91CF911F910F91FF9089
:10429000EF90DF90CF90BF90AF900895CD2829F098
:1042A000842F85238F3F09F085C080E0F82FF170BF
:1042B000DF2EE091CF022091D00236E080FD1CC0BD
:1042C000FF20D1F280910603816080930603E12CE8
:1042D000D3CF8E2F90E03E9FF0011124EF52FD4F7F
:1042E0006181651306C06081641303C06281F612A8
:1042F000E7CFFC013196E770E213EBCF6F2D7A85A3
:104300008B850E947125292F22952F70903260F0A5
:10431000225F2F70223078F49F7051F0F801958160
:10432000907F31F4D12C0AC09F7011F08823D1F313
:10433000805E8830B8F3C8010E94501CED2C9CCFE1
:10434000311172C06F2D7A858B850E94372081E0F4
:1043500093E00E94501C86E0F50111928A95E9F7DE
:104360000E947720B4CF86E0F801A1E0B3E001908D
:104370000D928A95E1F780CF4F835887F9866F2D8C
:104380007A858B850E94F61F81113FC080910603BC
:10439000816080930603C8010E94501C6DCF6F2D71
:1043A0007A858B850E94372086E0F50111928A95E7
:1043B000E9F76CC081E08F2579CF251306C09413EF
:1043C00004C0F801FF2009F455C04F835887F986CF
:1043D0006F2D7A858B850E94F61F882309F46AC0A9
:1043E000FF2009F467C080910603803270F02091AD
:1043F0000103309102033A8329831B82DD82CC8240
:104400008E83CE0101960E94501C86E0F801A1E047
:10441000B3E001900D928A95E1F70E9485200E94F9
:104420007720EE24E39428CF2513CFCF9413CDCF5C
:10443000F110CBCFF8018583C8010E94501C86E0A3
:10444000F50111928A95E9F717CF251395CF9413AB
:1044500093CF8091060380FD86CF982F907F09F43B
:1044600082CFF8018583903F31F0982F907F905F45
:104470008F70892B8583C8010E94501C86E0F8014B
:10448000A1E0B3E001900D928A95E1F70E947720B8
:10449000F3CEC380D480E0900303F601E61BF70B54
:1044A000BF01E110CACE683C710508F078CFEF2C4F
:1044B000F110CBCFC8010E94501CB3CF1F93CF93F4
:1044C000DF93CDB7DEB72C970FB6F894DEBF0FBEE3
:1044D000CDBF4F83588769877A878B879C87CE01AA
:1044E00007960E94DB20882369F08A859B85892BAB
:1044F00039F058854F81852F84238F3F09F071C093
:1045000016E05FC086E0FE013796DE01119601904D
:104510000D928A95E1F78A859B85892B89F38F8196
:10452000988589238F3F61F32091D00230E0C90143
:104530000196877099274091CF024817190671F4A8
:104540000E944C1C1092D0021092CF0286E0E1E053
:10455000F3E0DF011D928A95E9F7D2CF96E0929FB2
:10456000D001939FB00D1124AF52BD4FFE01319683
:1045700001900D929A95E1F78093D0020E94562007
:10458000BFCF819FC00111248F529D4F0E94DB201D
:104590008823E9F0E091CF021E9FF0011124EF5231
:1045A000FD4F4081518162817381848195810E9498
:1045B00046208091CF0290E00196877099278093E2
:1045C000CF028091CF029091D0028913DACF2C963E
:1045D0000FB6F894DEBF0FBECDBFDF91CF911F9114
:1045E000089569857A858B859C850E94462088CFB1
:1045F000DF92EF92FF920F931F93CF93DF939C0173
:10460000892BB9F0F12CE12CDD24D394E90121961A
:10461000F9018491853709F46EC098F4843709F460
:104620005AC0843008F073C0813011F1823009F42F
:104630003CC0DF91CF911F910F91FF90EF90DF90E1
:104640000895883709F460C058F4863709F458C0D3
:10465000873779F78F2D0E94C5260E94F22620C049
:104660009CE7980F903728F78F770E94041C18C09A
:1046700089010E5F1F4FFE01849190E2980F9830E0
:1046800060F48770FD2D01C0FF0F8A95EAF78F2F28
:104690000E94CB260E94F22602C00E94631BE80102
:1046A0008E2D811137C09E01B1CF89010E5F1F4F42
:1046B000FE01849190E2980F983050F48770FD2DA0
:1046C00001C0FF0F8A95EAF78F2F0E94D126E2CF13
:1046D0000E94041CE4CF2E5F3F4FFE01C491C11124
:1046E00002C0E901DDCF8FE99FE00197F1F700C03B
:1046F0000000C150F4CF2E5F3F4FFE01E490F1CF98
:104700000E94B426F82ECCCF0E94C826A6CF0E94C5
:10471000631BC6CFEFE9FFE03197F1F700C000005F
:104720008150BFCF60938703709388038093890380
:1047300090938A030C944227089560938B0370939F
:104740008C0380938D0390938E030C944127CF9319
:10475000DF9300D000D0CDB7DEB769837A838B8337
:104760009C8380918B0390918C03A0918D03B091D9
:104770008E0329813A814B815C81282B392B4A2B6E
:104780005B2B29833A834B835C8320938B03309389
:104790008C0340938D0350938E03CA01B9010F908F
:1047A0000F900F900F90DF91CF910C944127CF93F2
:1047B000DF9300D000D0CDB7DEB769837A838B83D7
:1047C0009C8380918B0390918C03A0918D03B09179
:1047D0008E0329813A814B815C81282339234A2326
:1047E0005B2329833A834B835C8320938B03309331
:1047F0008C0340938D0350938E03CA01B9010F902F
:104800000F900F900F90DF91CF910C944127CF9391
:10481000DF9300D000D0CDB7DEB769837A838B8376
:104820009C8380918B0390918C03A0918D03B09118
:104830008E0329813A814B815C81282739274A27B9
:104840005B2729833A834B835C8320938B033093CC
:104850008C0340938D0350938E03CA01B9010F90CE
:104860000F900F900F90DF91CF910C94412760E053
:1048700070E0CB010C9492230F931F93CF93DF939F
:1048800000D000D0CDB7DEB741E050E060E070E08E
:104890008A019B0104C0000F111F221F331F8A953C
:1048A000D2F709831A832B833C83C901B8010F9087
:1048B0000F900F900F90DF91CF911F910F910C945B
:1048C00092230F931F93CF93DF9300D000D0CDB7E7
:1048D000DEB741E050E060E070E004C0440F551FD7
:1048E000661F771F8A95D2F780918703909188037E
:1048F000A0918903B0918A038A019B01082B192B8F
:104900002A2B3B2B09831A832B833C83C901B801D3
:104910000F900F900F900F90DF91CF911F910F91FB
:104920000C9492230F931F93CF93DF9300D000D06A
:10493000CDB7DEB741E050E060E070E004C0440F66
:10494000551F661F771F8A95D2F740955095609541
:1049500070958091870390918803A0918903B0910D
:104960008A038A019B01082319232A233B230983F5
:104970001A832B833C83C901B8010F900F900F90CD
:104980000F90DF91CF911F910F910C9492230F9371
:104990001F93CF93DF9300D000D0CDB7DEB741E0B7
:1049A00050E060E070E004C0440F551F661F771FA1
:1049B0008A95D2F78091870390918803A09189030B
:1049C000B0918A038A019B01082719272A273B27D0
:1049D00009831A832B833C83C901B8010F900F9080
:1049E0000F900F90DF91CF911F910F910C94922314
:1049F000CF93DF9300D000D0CDB7DEB769837A8341
:104A00008B839C838091870390918803A091890375
:104A1000B0918A0329813A814B815C81282B392B03
:104A20004A2B5B2B29833A834B835C83CA01B901F0
:104A30000F900F900F900F90DF91CF910C949223D5
:104A4000CF93DF9300D000D0CDB7DEB769837A83F0
:104A50008B839C838091870390918803A091890325
:104A6000B0918A0329813A814B815C8128233923C3
:104A70004A235B2329833A834B835C83CA01B901B0
:104A80000F900F900F900F90DF91CF910C94922385
:104A9000CF93DF9300D000D0CDB7DEB769837A83A0
:104AA0008B839C838091870390918803A0918903D5
:104AB000B0918A0329813A814B815C81282739276B
:104AC0004A275B2729833A834B835C83CA01B90158
:104AD0000F900F900F900F90DF91CF910C94922335
:104AE00008954F925F926F927F929F92AF92BF9282
:104AF000CF92DF92EF92FF920F931F93CF93DF93AA
:104B000000D000D00F92CDB7DEB749835A836B83B4
:104B10007C838D838C819D81892B31F0A42E952EF1
:104B2000842F85238F3F59F590E080E00F900F9000
:104B30000F900F900F90DF91CF911F910F91FF90E9
:104B4000EF90DF90CF90BF90AF909F907F906F904D
:104B50005F904F9008956A2D792D8C2D0E94E60864
:104B60000197C1F13CC0F80183E0EE0FFF1F8A9569
:104B7000E1F7E95FFC4FEE0DFF1DB0803BC0052F54
:104B800010E0E42EF12C8B81882369F34090870399
:104B9000509088036090890370908A0380918B0302
:104BA00090918C03A0918D03B0918E03482A592ACD
:104BB0006A2A7B2A2FE1C22ED12CBC2CD301C20140
:104BC0000C2C04C0B695A795979587950A94D2F7B3
:104BD00080FDC1CF81E0C81AD10878F7B12CF80167
:104BE00093E0EE0FFF1F9A95E1F7E95FFC4FEE0DA2
:104BF000FF1DB08269817A818B2D0F900F900F90ED
:104C00000F900F90DF91CF911F910F91FF90EF9038
:104C1000DF90CF90BF90AF909F907F906F905F900C
:104C20004F900C94E60890911401992361F19091B2
:104C30001501992341F1982F9695969596959F3158
:104C400089F0E0911601F0911701E90FF11D8770CD
:104C500021E030E001C0220F8A95EAF78181822BA2
:104C6000818308959091B20390FF22C01F928F9389
:104C700088ED96E09F938F930E94DD080F900F9030
:104C80000F900F9008952091160130911701F901AE
:104C900032969FEF40E05191851751F09F3F19F4F4
:104CA000511101C0942F4F5F4E31A9F79F3F09F476
:104CB0000895290F311D97FD3A95F90182830895D2
:104CC00090911401992381F190911501992361F13B
:104CD000982F9695969596959F31A9F0E09116019B
:104CE000F0911701E90FF11D877021E030E0A90173
:104CF00002C0440F551F8A95E2F7CA018095918141
:104D00008923818308959091B20390FF1EC01F9262
:104D10008F938AEB96E09F938F930E94DD080F900C
:104D20000F900F900F900895209116013091170168
:104D3000F9013296205E3F4F9191891303C0DF0144
:104D400011971C92E217F307B9F7089581E090E0FC
:104D5000E0911601F0911701E80FF91F10820196FA
:104D600080329105A9F708958091B103089590913B
:104D7000B103982B9093B1030895982F909580914B
:104D8000B10389238093B10308958093B1030895FB
:104D90001092B10308959091B003982B9093B003B3
:104DA0000895982F90958091B00389238093B00344
:104DB00008951092B003089580938F030895109280
:104DC0008F0308952091160130911701F901319652
:104DD000205E3F4F80E0919191118F5FE217F307C2
:104DE000D1F70895E0911601F09117018091B10378
:104DF0008083E0911601F091170180819091B003BA
:104E0000892B808390918F03992361F0E0911601A3
:104E1000F09117018081892B80830E94E226811105
:104E200010928F0380911601909117010C949319A1
:104E300090936501809364010895829594E0899F21
:104E4000900111242C7C869586958373282B30E065
:104E5000C901880F991F8A7A359527952575822B68
:104E600008950895CF93DF9300D000D00F92CDB76F
:104E7000DEB70F900F900F900F900F90DF91CF91B2
:104E80000895089508950C94F31A80E0089583B767
:104E9000817F8C6083BF83B7816083BF789488955E
:104EA00083B78E7F83BF0895CF930E942A1B0E94F1
:104EB000C30D0E942B1BC0E08C2F0E94A60D8111F8
:104EC00005C0CF5FC031C1F7CF91089581E0FCCF1D
:104ED0000E94AC0D0C944C1C1F921FB61F92112403
:104EE0008F939F93AF93BF938091B3039091B4033B
:104EF000A091B503B091B6034196A11DB11D809359
:104F0000B3039093B403A093B503B093B603BF91DA
:104F1000AF919F918F911F901FBE1F90189582E0B7
:104F200084BD93E095BD9AEF97BD80936E00089580
:104F30002FB7F8948091B3039091B403A091B50377
:104F4000B091B6032FBF0895CF93DF9300D000D068
:104F5000CDB7DEB78FB7F8942091B3033091B40387
:104F60004091B5035091B60329833A834B835C8308
:104F70008FBF69817A818B819C810F900F900F90F8
:104F80000F90DF91CF9108959C014FB7F8948091D5
:104F9000B3039091B403A091B503B091B6034FBF92
:104FA000821B930B089578941F921FB61F921124B1
:104FB0008F939F93AF93BF938091B3039091B4036A
:104FC000A091B503B091B6030196A11DB11D8093C8
:104FD000B3039093B403A093B503B093B603BF910A
:104FE000AF919F918F911F901FBE1F9018950E94A7
:104FF0001D18F89487E797E79093010880930008BD
:1050000087E090EBDC018093C2039093C303A093ED
:10501000C403B093C50388E19CE00FB6F894A8954B
:10502000809360000FBE90936000FFCF0895809141
:10503000B90380FF12C060911B0185E0689FB00139
:105040001124759567957595679560387105A8F574
:1050500061157105A1F1862F089581FF09C0609146
:105060001B0185E0689FB001112475956795EDCF10
:1050700060911B0182FD0AC08091BA038823D1F0A0
:1050800090911A0160911B01891728F085E0689FB3
:10509000B0011124DACF869FB001112485E0869FEC
:1050A0009001879F300D1124692F70E0C9010E9483
:1050B000F42FCBCF65E070E0CECF8FE7089581E08D
:1050C00008958091B90380FF0CC06091190170E0D0
:1050D00075956795759567956115710549F1862FE9
:1050E000089581FF06C06091190170E0759567957C
:1050F000F3CF6091190182FD0BC09091BA039923FF
:10510000A1F06091180180911901961738F0682F6D
:1051100070E06038710500F38FE70895899FC00142
:10512000112470E00E94F42FF4CF61E070E0D7CF3B
:1051300081E00895803F31F40E9417288195809383
:10514000BD030895813F19F40E941728F8CF823FCC
:1051500031F40E94172881958093BC030895833F02
:1051600019F40E941728F8CF893F29F40E9461287A
:105170008093BE0308958A3F21F40E94612881959F
:10518000F7CF8B3F31F40E94612881958093BF0354
:1051900008958C3F19F40E946128F8CF843F31F4C0
:1051A0008091BB0381608093BB030895853F21F408
:1051B0008091BB038260F7CF863F21F48091BB03CF
:1051C0008460F1CF873F21F48091BB038860EBCFEF
:1051D000883F21F48091BB038061E5CF8D3F31F49E
:1051E0008091B90381608093B90308958E3F21F4C3
:1051F0008091B9038260F7CF8F3FB9F78091B903EF
:105200008460F1CF9091BC03803F41F48091BD0355
:1052100087FD1092BD03992371F00895813F29F411
:105220008091BD031816ACF3F6CF823F81F497FF4F
:10523000F2CF1092BC038091BD039091BE03892BE5
:105240009091BF03892B49F71092BA030895833FC9
:1052500019F4191674F3DFCF893F39F48091BE0336
:105260001816CCF61092BE03D6CF8A3F29F480914F
:10527000BE0387FFD0CFF6CF8B3F39F48091BF03B9
:1052800087FFC9CF1092BF03C6CF8C3F29F480910E
:10529000BF031816BCF3BFCF843F31F48091BB032A
:1052A0008E7F8093BB03B7CF853F21F48091BB03F2
:1052B0008D7FF7CF863F21F48091BB038B7FF1CFA9
:1052C000873F21F48091BB03877FEBCF883F21F498
:1052D0008091BB038F7EE5CF8D3F31F48091B90380
:1052E0008E7F8093B90397CF8E3F21F48091B903CD
:1052F0008D7FF7CF8F3F09F08ECF8091B9038B7FE1
:10530000F0CF8091B20383FF7EC08DE197E00E94D1
:1053100044088091BB031F928F9388E197E09F938D
:105320008F930E94DD0886E197E00E9444088091F7
:10533000BC03282F082E000C330B3F938F9383E17F
:1053400097E09F938F930E94DD0881E197E00E9490
:1053500044088091BD03282F082E000C330B3F9387
:105360008F938EE097E09F938F930E94DD088CE0EF
:1053700097E00E9444088091BE03282F082E000C5D
:10538000330B3F938F9389E097E09F938F930E9415
:10539000DD0887E097E00E9444088091BF03282F32
:1053A000082E000C330B3F938F9384E097E09F937C
:1053B0008F930E94DD0881E097E00E94440880916D
:1053C000BA031F928F938EEF96E09F938F930E9464
:1053D000DD088CEF96E00E9444088091B9031F928B
:1053E0008F9389EF96E09F938F930E94DD0886EF5D
:1053F00096E00E9444088DB79EB74C960FB6F8947D
:105400009EBF0FBE8DBF8BEB93E00E94DD190E9403
:1054100098279093B8038093B70308951F93CF9371
:10542000DF9300D000D000D0CDB7DEB78091B703B6
:105430009091B8030E94C427AC018091BA032091D7
:105440001C0130E0811106C020911D019AE0299FC6
:10545000900111244217530788F02091BC03A091BA
:10546000BD03A9831091BE03B091BF03BE83211178
:105470000FC09A2F912B9B2B09F0B2C026960FB626
:10548000F894DEBF0FBECDBFDF91CF911F9108957D
:105490008F3F19F08F5F8093BA03121624F40E9495
:1054A00017288093BC038091BC0387FF05C00E942E
:1054B000172881958093BC032981121624F40E9439
:1054C00017288093BD038091BD0387FF05C00E940C
:1054D000172881958093BD038091BC03882309F42C
:1054E00055C03091BD033D83332309F44FC0282FAD
:1054F000880F330B440B550B29833A834B835C8312
:10550000CA01B9010E94FB2E23E333E343E35FE3C7
:1055100069837A838B839C8369817A818B819C8167
:105520000E945F2F69837A838B839C8369817A8150
:105530008B819C810E94C32E6093BC038D81082EB9
:10554000000C990BAA0BBB0B89839A83AB83BC839A
:10555000BC01CD010E94FB2E23E333E343E35FE371
:1055600069837A838B839C8369817A818B819C8117
:105570000E945F2F69837A838B839C8369817A8100
:105580008B819C810E94C32E6093BD03111624F46D
:105590000E9461288093BE038091BE0387FF05C0EF
:1055A0000E94612881958093BE039E81191624F480
:1055B0000E9461288093BF038091BF0387FF05C0CD
:1055C0000E94612881958093BF0326960FB6F894B8
:1055D000DEBF0FBECDBFDF91CF911F910C9481290B
:1055E0008F3F09F057CF68CF85E0EBEBF3E0DF01A9
:1055F0001D928A95E9F71092BA031092B9030895A3
:1056000080E499E00E9444081F9281E08F931F92EA
:1056100085E08F9382EF98E09F938F930E94DD083F
:105620000F900F900F900F900F900F90089584306F
:1056300009F45DC040F4823061F1833009F440C068
:10564000813041F00895853009F468C0863009F44E
:105650007CC0089580911D01482F460F5527551F86
:105660004F3F510594F4680F60931D0180911D0117
:105670001F928F938BE298E09F938F930E94DD0897
:105680000F900F900F900F9008958FEF80931D0152
:10569000EDCF80911C01482F460F5527551F4F3FD6
:1056A000510554F4680F60931C0180911C011F92F6
:1056B0008F9389E198E0E0CF8FEF80931C01F5CFC5
:1056C00080911B01482F460F5527551F4F3F51050D
:1056D00054F4680F60931B0180911B011F928F93FC
:1056E00086E098E0C9CF8FEF80931B01F5CF8091C2
:1056F0001A01482F460F5527551F4F3F510554F4A7
:10570000680F60931A0180911A011F928F9381EFA5
:1057100097E0B2CF8FEF80931A01F5CF80911901F6
:10572000482F460F5527551F4F3F510554F4680F1A
:1057300060931901809119011F928F9388ED97E072
:105740009BCF8FEF80931901F5CF80911801482FDF
:10575000460F5527551F4F3F510554F4680F60936E
:105760001801809118011F928F938DEB97E084CFE1
:105770008FEF80931801F5CF843009F44AC038F4D4
:10578000823029F18330A1F1813041F008958530D4
:1057900009F450C0863009F45EC0089580911D015F
:1057A000681790F4861B80931D0180911D011F9244
:1057B0008F938EEA97E09F938F930E94DD080F905E
:1057C0000F900F900F90089510921D01EECF8091D1
:1057D0001C01681750F4861B80931C0180911C01EA
:1057E0001F928F938CE997E0E6CF10921C01F6CFC1
:1057F00080911B01681750F4861B80931B018091D8
:105800001B011F928F9389E897E0D5CF10921B015F
:10581000F6CF80911A01681750F4861B80931A0105
:1058200080911A011F928F9384E797E0C4CF109262
:105830001A01F6CF80911901681750F4861B8093E6
:105840001901809119011F928F938BE597E0B3CFD7
:1058500010921901F6CF80911801681750F4861B39
:1058600080931801809118011F928F9380E497E034
:10587000A2CF10921801F6CFCF93DF9300D000D0C3
:10588000CDB7DEB789831F928F9385E49AE09F930B
:105890008F930E94DD0881E090E0A0E0B0E09C01E1
:1058A000AD01098004C0220F331F441F551F0A9405
:1058B000D2F729833A834B835C83CA01B9010E94E2
:1058C0009D230F900F900F900F900F900F900F90BF
:1058D0000F90DF91CF910C944C1CCF938A3258F4E7
:1058E000863098F0EAEFE80FE43278F4F0E0EF5415
:1058F000F84F0C940830833470F48A3308F0F1C008
:10590000853309F4E8C08833E9F08CE09BE00E941D
:105910004408C0E0DAC0833409F4DDC08834A9F754
:105920000E944C1C81E39DE00E9444082FEF83ED10
:1059300090E3215080409040E1F700C000000E94B9
:10594000F72715C081E79AE00E94440810C08091B3
:10595000B203807F8093B2038AE49AE00E944408F5
:1059600082E49DE00E94440881E08093C103C1E08D
:10597000ACC08091B20380FF0AC084E29DE00E9427
:1059800044088091B203807F8093B203F0CF88E116
:105990009DE00E9444088091B2038160F5CF909110
:1059A000B203892F8D7F91FF82608093B20381FFC4
:1059B00003C08BE09DE0EDCF8DEF9CE0C5CF9091D3
:1059C000B203892F8B7F92FF84608093B20382FFA2
:1059D00003C08EEE9CE0DDCF8EED9CE0B5CF9091C4
:1059E000B203892F877F93FF88608093B20383FF80
:1059F00003C082ED9CE0CDCF85EC9CE0A5CF86EB8B
:105A00009CE00E94440880E99CE00E94440888E4ED
:105A10009CE00E94440880E29CE00E9444088BECD9
:105A20009BE00E9444088FE99BE08ECF81E99BE0D8
:105A30000E9444080E9487191F928F9387E79BE07A
:105A40009F938F930E94DD08809114011F928F9382
:105A500080E69BE09F938F930E94DD088091AA02CD
:105A60001F928F938DE49BE09F938F930E94DD089C
:105A7000809115011F928F938AE39BE09F938F93F0
:105A80000E94DD080E94A4279F938F937F936F93BA
:105A900083E29BE09F938F930E94DD088DB79EB7B2
:105AA00046960FB6F8949EBF0FBE8DBF60CF0E9482
:105AB0004C1CC091150181E0C827C0931501CC236F
:105AC00039F089E19BE00E9444088C2FCF91089522
:105AD0008EE09BE039CF80E00E943C2C48CF8D5176
