:100000000C9496070C94F7070C94F60A0C94F707D7
:100010000C94F7070C94F7070C94F7070C94F70768
:100020000C94F7070C94F7070C943B180C94F70703
:100030000C9461250C94F7070C94F7070C94F707C0
:100040000C94F7070C94F7070C94F7070C94F70738
:100050000C94F7070C94B4250C94F7070C94F7074D
:100060000C94F7070C94F7070C94F7070C94F70718
:100070000C94F7070C94F7070C94F7070C94F70708
:100080000C94F7070C94F7070C94F7070C94F707F8
:100090000C94F7070C94F7070C94F7070C94F707E8
:1000A0000C94F7070C94F7070C94F707750F01E011
:1000B000012D022D012D022D012D022D012D022DCC
:1000C00002E074FF00750F01E001E1012E022E0134
:1000D0002E022E012E022E012E022E02E102E074CB
:1000E000FF00007B46010203763A687F6577482B64
:1000F000353B6978796439141E3C6A7A1D16041AF6
:100100001F3D6B061B070821203E6C2C1909171593
:10011000223F6D11050B0A1C23406E7E100D182422
:1001200025416F360E0C122726427037380F3313D5
:100130002D43717534322F2E44727C7D28303174FA
:10014000457351504A524D492A5466594F5C5F4C91
:100150004B4E62635A5D5E60295367585B56576128
:1001600047554842403E3C3A3B456843413F3D2B62
:10017000357E697A790078141E7C6A7B1D16041A14
:100180001F7F6B061B070821204D6C2C19091715C2
:10019000224A6D11050B0A1C234C6E49100D1824C0
:1001A00025516F360E0C1227264F7037380F331338
:1001B0002D52717534502F2E4E72397D2830653195
:1001C0004B735464586776012A773259745C5F66C2
:1001D000020362635A5D5E60295344575B56556162
:1001E000474680291E1F20212223242526272D2E25
:1001F0002A2B141A0815171C180C12132F302878E4
:10020000041607090A0B0D0E0F33343579311D1B07
:1002100006190511103637387D557A2C393A3B3C92
:100220003D3E3F4041424353475F6061565C5D5EE7
:1002300057595A5B62634648324445677B7F650382
:1002400001025250514F68696A6B6C6D6E6F70712C
:10025000725800494C754A4D734B4E767C777E74CC
:10026000665472253032582000623A2530345820C6
:1002700000652530325820002146554C4C21200085
:100280002146462120007725303258200021435353
:10029000335F4630210A00214353335F52454144C6
:1002A00059210A00214353325F45305F4630210A0D
:1002B00000214353325F4630210A00214353325F0D
:1002C0004530210A00214353325F494E4954210AE7
:1002D00000214353315F45305F25303258210A00F9
:1002E0000A5B4F56525D20004C2575200053257542
:1002F00020000A49443A2530345828257329200023
:100300004D6F7573653A206E6F7420737570706FE2
:10031000727465640A005225752000572575200007
:100320005725752000572575200058257520004158
:100330002575200049257520005B4348475D200056
:100340000A5052543A25303258204953523A2530F7
:10035000345820005B5253545D20000A4552523AF3
:1003600025303258204953523A2530345820000A5B
:100370004B6579626F6172642073746172742E0AC6
:10038000000A55534220636F6E6669677572656433
:100390002E0A000A0A544D4B3A3562323462333326
:1003A0002B2F4C5546410A0A0034035A0065006E53
:1003B0000069007400680020006B0065007900622D
:1003C000006F00610072006400200063006F006E27
:1003D0000076006500720074006500720000000E77
:1003E0000374002E006D002E006B002E0000000430
:1003F00003090409028D00050100A0320904000070
:10040000010301010009211101000122400007053B
:10041000810308000A090401000103010200092107
:1004200011010001224D000705820308000A09049A
:100430000200010300000009211101000122360021
:100440000705830308000A090403000203000000F3
:100450000921110100012222000705840320000167
:100460000705040320000109040400010300000043
:10047000092111010001223900070585032000012F
:100480001201100100000008EDFEEE1B0100010248
:10049000000105010906A101050719E029E715007A
:1004A00025019508750181020508190129059505A1
:1004B000750191029501750391010507190029F74E
:1004C0001500250195F875018102C00631FF0974F8
:1004D000A1010975150026FF009520750881020904
:1004E00076150026FF00952075089102C0050109C8
:1004F00080A10185021601002637001A81002AB763
:1005000000751095018100C0050C0901A10185034A
:10051000160100269C021A01002A9C027510950102
:100520008100C005010902A1010901A10005091905
:1005300001290515002501950575018102950175B3
:100540000381010501093009311581257F95027567
:1005500008810609381581257F95017508810605F2
:100560000C0A38021581257F950175088106C0C0E7
:1005700005010906A101050719E029E71500250174
:100580009508750181029501750881010508190119
:1005900029059505750191029501750391010507DE
:1005A000190029FF150026FF00950675088100C077
:1005B000636F6E73756D65723A20253034580A008A
:1005C00073797374656D3A20253034580A000A0037
:1005D0002530325820006B6579626F6172643A2071
:1005E000004C45443A20253032580A0025583A2517
:1005F00030386225730A000A202030313233343516
:1006000036370A0064656C5F6B65795F6269743ABE
:100610002063616E27742064656C3A20253032585F
:100620000A006164645F6B65795F6269743A206394
:10063000616E2774206164643A20253032580A00C4
:10064000290A002575002F002575005D2800256406
:10065000002000256400200025640020002564009F
:100660007C0025303258006D6F7573656B6579209D
:100670005B62746E7C782079207620685D287265D4
:10068000702F61636C293A205B006D6B5F77686542
:10069000656C5F74696D655F746F5F6D6178203D37
:1006A0002025640A006D6B5F776865656C5F6D611E
:1006B000785F7370656564203D2025640A006D6B6A
:1006C0005F74696D655F746F5F6D6178203D202593
:1006D000640A006D6B5F6D61785F7370656564209F
:1006E0003D2025640A006D6B5F696E7465727661EA
:1006F0006C203D2025640A006D6B5F64656C617938
:10070000203D2025640A006D6B5F776865656C5F2E
:1007100074696D655F746F5F6D6178203D2025643D
:100720000A006D6B5F776865656C5F6D61785F73FC
:1007300070656564203D2025640A006D6B5F7469F7
:100740006D655F746F5F6D6178203D2025640A00E0
:100750006D6B5F6D61785F7370656564203D20250A
:10076000640A006D6B5F696E74657276616C203D22
:100770002025640A006D6B5F64656C6179203D2003
:1007800025640A000A00257500363A2077686565F9
:100790006C5F74696D655F746F5F6D61783A20009E
:1007A0000A00257500353A20776865656C5F6D61D4
:1007B000785F73706565643A20000A00257500341F
:1007C0003A2074696D655F746F5F6D61783A2000DF
:1007D0000A00257500333A206D61785F7370656596
:1007E000643A20000A00257500323A20696E74656B
:1007F0007276616C286D73293A20000A0025750015
:10080000313A2064656C6179282A31306D73293A58
:1008100020000A092D2056616C756573202D0A0091
:100820004D3E004D25643E20003F007365742064FA
:10083000656661756C740A00433E200077686572D6
:10084000652064656C74613A20637572736F723DE4
:1008500025642C20776865656C3D25640A536565C1
:1008600020687474703A2F2F656E2E77696B6970EB
:10087000656469612E6F72672F77696B692F4D6FA1
:100880007573655F6B6579730A000A092D204D6FDA
:100890007573656B6579202D0A4553432F713A09AD
:1008A000717569740A313A0964656C6179282A3175
:1008B000306D73290A323A09696E74657276616C1B
:1008C000286D73290A333A096D61785F7370656525
:1008D000640A343A0974696D655F746F5F6D61789D
:1008E0000A353A09776865656C5F6D61785F73708A
:1008F0006565640A363A09776865656C5F74696D89
:10090000655F746F5F6D61780A0A703A0970726989
:100910006E742076616C7565730A643A0973657448
:100920002064656661756C74730A75703A092B31C1
:100930000A646F776E3A092D310A706775703A094B
:100940002B31300A7067646F776E3A092D31300AA7
:100950000A7370656564203D2064656C7461202AAB
:10096000206D61785F7370656564202A2028726548
:1009700070656174202F2074696D655F746F5F6DA1
:100980006178290A003F004D3E2000433E20004C84
:1009900025640A000A092D20436F6E736F6C652071
:1009A0002D0A4553432F713A09717569740A6D3ADE
:1009B000096D6F7573656B65790A000A092D204D05
:1009C00061676963202D0A643A0964656275670A84
:1009D000783A096465627567206D61747269780A96
:1009E0006B3A096465627567206B6579626F617245
:1009F000640A6D3A096465627567206D6F75736589
:100A00000A763A0976657273696F6E0A733A0973EA
:100A100074617475730A633A09636F6E736F6C6502
:100A2000206D6F64650A302D343A096C6179657206
:100A3000302D34284631302D4634290A50617573E3
:100A40003A09626F6F746C6F616465720A6E3A097D
:100A50004E4B524F0A003F004E4B524F3A206F66AA
:100A6000660A004E4B524F3A206F6E0A0074696D51
:100A700065725F72656164333228293A202530340B
:100A80006C580A006B6579626F6172645F6E6B729D
:100A90006F3A2025580A006B6579626F6172645F56
:100AA00069646C653A2025580A006B6579626F614C
:100AB00072645F70726F746F636F6C3A2025580AAE
:100AC00000686F73745F6B6579626F6172645F6CED
:100AD00065647328293A2025580A000A092D2053F5
:100AE0007461747573202D0A004743433A203134F2
:100AF0002E312E30204156522D4C4942433A20325D
:100B00002E322E30204156525F415243483A2061E6
:100B10007672350A004F5054494F4E533A204C5587
:100B20004641204D4F5553454B4559204558545249
:100B3000414B455920434F4E534F4C4520434F4D59
:100B40004D414E44204E4B524F204B45594D415044
:100B50005F53454354494F4E20424F4F544C4F41F1
:100B60004445525F53495A450A004255494C443A5C
:100B700020356232346233332B202830353A353811
:100B80003A3538204A756C202039203230323429E9
:100B90000A005649443A2030784645454428742E88
:100BA0006D2E6B2E29205049443A203078316265F1
:100BB00065285A656E697468206B6579626F617229
:100BC0006420636F6E766572746572292056455293
:100BD0003A203078303030310A00444553433A20CF
:100BE000636F6E76657274205A656E697468206BE7
:100BF0006579626F61726420746F205553420A00F8
:100C00000A092D2056657273696F6E202D0A000A3D
:100C10006D6F7573653A206F66660A000A6D6F75B1
:100C200073653A206F6E0A000A6B6579626F6172B4
:100C3000643A206F66660A000A6B6579626F6172BA
:100C4000643A206F6E0A000A6D61747269783A2006
:100C50006F66660A000A6D61747269783A206F6E79
:100C60000A000A64656275673A206F6E0A000A64BA
:100C7000656275673A206F66660A000A0A626F6FDE
:100C8000746C6F616465722E2E2E2000433E20002E
:100C90007E0C7A0C910C910C910C910C910C910C96
:100CA000800C7C0C520C910C910C7A0C500C910C19
:100CB000910C900C7E0C910C910C7C0C910C910C75
:100CC000910C910C910C910C520C7E0C740C910CAB
:100CD000780C910C910C910C540C800C910C910C93
:100CE000880C910C910C910C560C820C910C760C8A
:100CF000910C7A0C910C910C8C0C840C910C860C40
:100D00007C0C910C910C910C8A0C910C910C910C17
:100D1000910C910C910C910C910C910C910C580C24
:100D2000910C910C800C910C910C820C910C910CFB
:100D3000910C910C910C910C910C910C910C5A0C02
:100D4000910C910C910C880C910C910C910C910CC4
:100D5000910C910C910C910C910C910C5C0C910CE0
:100D60005E0C600C910C910C910C620C640C660C86
:100D7000910C680C6A0C910C910C910C8E0C6C0C03
:100D8000910C700C6E0C720C910C910C910C910CDE
:100D9000820CB50CC30CCF0CCF0CA70CCF0CCF0C16
:100DA000CF0CCF0CCF0CCF0CCF0CCF0CCF0CCF0C6B
:100DB000CF0CCF0CCF0CA90CCF0CAB0CCF0CCF0CA5
:100DC000CF0CCF0CC70CCF0C9D0CC50CCF0CCF0C8F
:100DD000CF0CCF0CCF0CCF0CCF0CCF0CCF0CCF0C3B
:100DE000CF0CCF0CCF0CDC0CBB0CAD0CBF0CCF0C64
:100DF000AF0CCF0CB30CCF0CBD0CB10CC10CB70CAD
:100E0000B90CCF0CCF0CCF0CCF0CCF0CCF0CCF0C20
:100E1000A10CA30CA50CC90CCB0CCF0CCF0CCF0C88
:100E2000CD0CFF0D210E2E0E570E650E700E8A0E84
:100E3000A00EC30EE00E680F8D0F0D104C10351074
:100E40005F106F1077107B1080108510C310C910D1
:100E5000CB10CD10CF10D710D710D710D110D31082
:100E6000D510AE10B010B210B410B610BE10BE1037
:100E7000BE10B810BA10BC109416BA16C016BA1626
:100E8000C0161A173C17C0169317A017D51BD51BF1
:100E9000101C101C9D1CD11C6B1C6B1CE91C6B1CBA
:100EA000D41DD41D8C1E6B1CA21EC21E85268B2633
:100EB0008E269426A926AF26B326B726BB269726CC
:100EC0009C26A026A626BF26C526C9261D27232781
:100ED00027272B272F27D426D426D426D4263327DA
:100EE00039273D272D2A3E2A0A2A0A2A0A2A272A92
:100EF0000A2A0A2A642A0A2A742ADC2A0A2A0A2ABC
:100F00000A2A0A2A9B2A0A2A0A2A842A0A2A542AEC
:100F10000A2A0A2AF02AF02AF02AF02AF02AF02ACD
:100F2000F02AF02AF02AEC2A0A2AEC2A11241FBE01
:100F3000CFEFDAE0DEBFCDBF04B603FE41C0809143
:100F4000EC039091ED03A091EE03B091EF03873095
:100F5000904BA740B04BA1F51092EC031092ED031B
:100F60001092EE031092EF0314BE0FB6F894A895FA
:100F700080916000886180936000109260000FBED5
:100F8000109201081092000889E0E3E0F0E08093FD
:100F90005700E491E695E370E15080E090E1E330A2
:100FA00040F4F0E0EE0FFF1FE957FE4F8081918182
:100FB00000C0E0E0F0E8E81BF90BF695E79509952D
:100FC00011E0A0E0B1E0EEE3FBE502C005900D9278
:100FD000AE38B107D9F723E0AEE8B1E001C01D9209
:100FE000AC3EB207E1F70E94B4130C949D2D0C9413
:100FF0000000FF93EF93E0918E01F0918F01309705
:1010000009F00995EF91FF910895FC0185918030D9
:1010100011F0EFDFFBCF0895FF27E0E230E247FF5A
:101020000CC0419597FF09C0EDE2609570958095E1
:101030009095611D711D811D911D27FF02C0219595
:1010400030E350E2AA27660F771F881F991FAA1F57
:10105000A41710F0A41B63955A95A9F7AA3008F0BD
:10106000A95FA05DAF93F3956115710581059105A9
:1010700041F7ED3211F4EF93F395F21718F43F9323
:10108000F395FBCF8F91B5DFFA95E1F70895E991DC
:10109000F9918591803021F0853219F0AADFF9CFDE
:1010A000089520E0E89455915532C1F3503311F47E
:1010B000689455915A3348F4505390F3220F022EFE
:1010C000220F220F200D250FF4CF0EF421958991C8
:1010D0009991533619F3533729F1533559F1BC011E
:1010E00088279927E8945C3621F48991999168942E
:1010F0005591543639F446EF7EF077FF0DC08FEFEF
:101100009FEF0AC055374AE039F0583540E121F0E9
:10111000523642E009F00895FF93EF937DDFEF919F
:10112000FF91B7CFFF93EF93FC0181918030B9F32A
:1011300060DFFBCFFF93EF9368DFF1CFDF93CF93B7
:10114000CDB7DEB72596A3DFCF91DF910895982F15
:1011500080919B01823079F18330B1F1813009F0C7
:101160003CC048E0749FF0011124E60FF11DEE51E0
:10117000FE4FE491E03889F12E2F30E084E0359580
:1011800027958A95E1F72770332748E0949FC0019F
:101190001124820F931F24E0880F991F2A95E1F7ED
:1011A000EF70E80FF92FF11DEE0FFF1FE050F84927
:1011B00085919591089588E0789FF0011124E60FBC
:1011C000F11DEE59FE4FD5CF48E0749FF001112478
:1011D000E60FF11DEE51FF4FCCCF80E090E0089577
:1011E000FC01611529F0613049F080E090E008953C
:1011F00082818115D1F385EC90E00895828181157B
:10120000A1F38CEA90E008955998519A0895519865
:10121000599A08955898509A08955098589A089550
:101220005198599A85E08A95F1F7000088274999E5
:1012300083950895CF93DF93EC010E9410098115E7
:1012400011F0209721F4CE01DF91CF91089585E030
:101250008A95F1F700002197F0CF5098589A85E0D1
:101260008A95F1F7000089B181700895CF93DF93DB
:10127000C2E3D0E00E941009811102C0209721F43E
:10128000CE01DF91CF91089585E08A95F1F70000B6
:101290002197F0CF2E9826982F9827980E9404091E
:1012A0000E940D09E9E6F0E0808188608083E9987A
:1012B0000895E19AE99A0E9407090C940D09E998AA
:1012C0000E9404090C940D090F931F93CF93DF9391
:1012D0002FB7F894C0910201D0910301AE014427C9
:1012E00081E090E041155F4F11F080E090E0919532
:1012F0008195910990958C2B9D2B90930301809360
:1013000002012FBFCE0199278F3F910509F048C0F8
:10131000CD2FDD27C03FD105F1F0CF3FD10599F0AA
:101320008091DC03C034D105B1F180FF0CC0DF93A4
:10133000CF9381E792E09F938F930E949E080F9036
:101340000F900F900F900FEF1FEFC801DF91CF911B
:101350001F910F9108958091DC0380FF08C080E801
:1013600092E09F938F930E949E080F900F90CFEF73
:101370000C2F10E08091DC0380FFE7CF1F92CF930A
:1013800082E692E09F938F930E949E080F900F90A9
:101390000F900F90DACF80FFEACF88E792E0E1CF9D
:1013A000CE018F6F019621F38091DC0380FF0CC08A
:1013B000DF93CF9389E692E09F938F930E949E08DC
:1013C0000F900F900F900F90CD2FD2CF1F93CF93F0
:1013D000DF9319E10E946409EC01CF3FDC0741F47F
:1013E0008FE99FE00197F1F700C000001A9591F78F
:1013F000CE01DF91CF911F91089510929401109228
:101400009301109292011092910180E090E89093E4
:101410000101809300018FEF9FEF90930301809370
:1014200002010895EF92FF920F931F93CF93DF93E2
:10143000C82F109291018091DC0380FF0CC01F9295
:10144000CF9386E892E09F938F930E949E080F901F
:101450000F900F900F90E9980E9404090E940D09C7
:101460008FE891E00197F1F700C000000E940A099F
:101470008FE891E00197F1F700C000000E94070992
:1014800080E197E20E941A09892BB9F481E08093E8
:101490009101809191018061809391010E940709DF
:1014A0000E940D09E19AE99A8FEF9FEFDF91CF91AA
:1014B0001F910F91FF90EF90089500E010E0FF243E
:1014C000F394D0E0EE24E39490E59A95F1F7CE0101
:1014D000002E02C0959587950A94E2F780FF09C017
:1014E000FE240E940D090E943609892B29F482E00E
:1014F000CECF0E940A09F7CF82E390E00E941A093A
:10150000892B11F483E0C3CF0F5F1F4F0830110503
:10151000D9F680E58A95F1F7F11441F00E940D09A2
:101520000E943609892B29F484E0B1CF0E940A0970
:10153000F7CF82E390E00E941A09892B11F485E02D
:10154000A6CF90E59A95F1F70E940D090E94360901
:10155000892B11F486E09BCF80919201813181F13A
:1015600082E390E00E941A09C2E3D0E0892B39F4AB
:1015700087E08DCF85E08A95F1F7000021970E94E2
:101580002D09811521F02097A9F788E080CFCD2B78
:10159000E1F30E943609C2E3D0E0892B39F489E0F7
:1015A00076CF95E09A95F1F7000021970E942D09DA
:1015B000811104C02097A9F78AE069CFCD2BE1F310
:1015C0008FEF9FEF90930301809302010E94FD092A
:1015D0000E9407090E940D09E19AE99ADF91CF91D3
:1015E0001F910F91FF90EF900C94E6091F921FB688
:1015F0001F9211242F933F934F938F939F9399B1F1
:1016000091708091DD03209100013091010121153D
:101610003048C9F58093900120910001309101017B
:10162000369527953093010120930001911549F0DB
:101630008091000190910101906890930101809345
:1016400000012091000130910101C9019927203A40
:1016500009F4E3C0813A910508F05EC08034910539
:1016600049F090F54097C9F12F7D332721153105B9
:1016700009F05CC09F918F914F913F912F911F90E6
:101680001FBE1F90189520919001821B833020F27D
:1016900080910001909101019093940180939301B6
:1016A00080E2809391018091910190E0982F8827AA
:1016B0008F6F909303018093020180E090E89093F4
:1016C000010180930001D6CF8038910599F28039CD
:1016D000910519F08035910549F5809100019091AF
:1016E0000101909394018093930180910001909166
:1016F000010197FF9DC080E18093920180910001DC
:101700009091010146E0969587954A95E1F790936F
:1017100001018093000136C0803D9105F1F2803EC9
:10172000910509F445C0803C9105B9F18091000113
:1017300090910101909394018093930180E8B1CF3F
:1017400095E09A95F1F700008150499902C0811106
:10175000F7CF499B2AC0811122C08091000190914E
:1017600001019093940180939301809100019091E5
:101770000101892F9927909301018093000182E252
:1017800080939201809100019091010199278F3FF0
:10179000910509F04FC080EF84CF84E6D6CF45E0B5
:1017A0004A95F1F700008150D4CF811163CFD5CF96
:1017B0008091000190910101909394018093930195
:1017C0008091000190910101892F99279093010147
:1017D0008093000183E2D4CF95E09A95F1F7000061
:1017E0008150499902C08111F7CF499B1EC08111D8
:1017F00016C0809100019091010190939401809313
:1018000093018091000190910101892F9927909374
:1018100001018093000181E2B3CF84E6E2CF45E08D
:101820004A95F1F700008150E0CF811123CFE1CF3D
:1018300081E162CF809103018F3F31F080910201FD
:101840008F3F11F080E42DCF809102019091030130
:10185000982F882790930301809302012091000123
:10186000309101018091020190910301822B21CFDF
:10187000CF93C82F8DEE0E94120A8A3F910521F462
:101880008C2FCF910C94120ACF910895EDEFE80FB1
:10189000E13808F046C0F0E0E85BF94F0C94832D86
:1018A0008FE0089589E108958FE108958CE508950A
:1018B00080E6089582E6089587E2089583E5089515
:1018C0008FE2089589E3089587E308958FE30895EB
:1018D00087E408958FE4089586E508958EE50895D8
:1018E0008FE7089580E0089585E608958EE60895CF
:1018F0008FE6089588E0089580E1089588E10895CD
:1019000080E2089588E2089580E3089588E30895C9
:1019100080E5089587E508958FE508958DE608959B
:1019200087E10895CF93C82FE4EEE80FE834B8F5C7
:10193000F0E0E753F94F0C94832DC4E58C2FCF9141
:101940000895CAE5FBCFCBE5F9CFCCE5F7CFCDE5E0
:10195000F5CFCEE5F3CFCFE5F1CFC0E6EFCFC1E6CF
:10196000EDCFC2E6EBCFC3E6E9CFCFE6E7CFC1E7E5
:10197000E5CFC2E7E3CFC4E7E1CFC5E7DFCFC7E7F5
:10198000DDCFC8E7DBCFCAE7D9CFCCE7D7CFCFE7EA
:10199000D5CFC0E7D3CFC9E7D1CFCBE7CFCF1F9209
:1019A000CF9381ED92E09F938F930E949E080F90BA
:1019B0000F900F900F90C2CFC5E5C0CF0F931F932C
:1019C000CF93DF930E948D258C010E946409EC0166
:1019D000019631F4C8010E94A525843F9140A8F3E7
:1019E000CE01DF91CF911F910F9108950E944A0976
:1019F0000C9459098091DC0381608093DC03EFE94A
:101A0000F1E080E1DF011D928A95E9F70895E82F62
:101A1000F0E0E156FE4F808190E021E030E002C02E
:101A2000220F331F6A95E2F72823392381E0232B05
:101A300009F480E00895CF93DF93D82FD770C82F93
:101A4000C695C695C695CF706D2F8C2F0E94070D39
:101A500081110DC0EC2FF0E0E156FE4F81E090E0E7
:101A600001C0880FDA95EAF76081682B6083DF9107
:101A7000CF910895CF93DF93D82FD770C82FC695F5
:101A8000C695C695CF706D2F8C2F0E94070D8115BE
:101A900071F0EC2FF0E0E156FE4F61E070E001C024
:101AA000660FDA95EAF76095808168236083DF919D
:101AB000CF910895E82FF0E0E156FE4F8081089520
:101AC000EFE9F1E080E1DF011D928A95E9F70895E1
:101AD000982F80919B01823058F090FB882781F9E4
:101AE00092FB222720F9822B91FD84600C94380C04
:101AF00008950F931F93CF93DF93809191018115E8
:101B000079F18091930190919401209191019F939B
:101B10008F931F922F938BE593E09F938F930E9457
:101B20009E088091910180750F900F900F900F90FB
:101B30000F900F9081110EC080919A018B3051F45B
:101B400084E593E09F938F930E949E0810929A01E0
:101B50000F900F90109291011092940110929301A6
:101B600080919201811509F440C090919201809179
:101B70009E019817D1F18091930190919401209149
:101B800092019F938F931F922F9380E493E09F93F2
:101B90008F930E949E0880919E010F900F900F904E
:101BA0000F900F900F9085FF04C09091920194FDCB
:101BB00006C084FF12C08091920185FF0EC0809103
:101BC0009A018B3051F489E393E09F938F930E94A5
:101BD0009E0810929A010F900F908091920180932D
:101BE0009E011092940110929301E0919A01EC30C1
:101BF00008F055C0F0E0EF5EF84F0C94832D0E9482
:101C00005F090E948D259F938F9384E393E09F93B8
:101C10008F930E949E0810929B0110929D0110923A
:101C20009C0110929E010E94600D0E94911B0E94D7
:101C30008D25909399018093980181E080939A017A
:101C40002AC080919801909199010E94A525893E12
:101C5000934028F182E080939A0121C00E94FD09FF
:101C60000E9459098FE99FE00197F1F700C0000039
:101C70008FEF0E94120A8A3F9105B9F083E08093AA
:101C80009A010E948D259F938F938FE293E09F93FB
:101C90008F930E949E080F900F900F900F9081E0FD
:101CA000DF91CF911F910F91089586E0E8CF0E94B8
:101CB0005F092E98269A2F98279A0E948D25909337
:101CC00099018093980184E0C6CF8091980190910A
:101CD00099010E94A525853F914008F385E0BBCF7F
:101CE0002E9826982F9827980E94FD090E9459093E
:101CF0000E948D259F938F938AE293E09F938F9309
:101D00000E949E080E948D259093990180939801CE
:101D100086E094CF0E946409019609F20E948D2505
:101D20009F938F9385E293E09F938F930E949E08E9
:101D30000E948D25909399018093980187E07ECF32
:101D400080919801909199010E94A525853F91402D
:101D500018F089E080939A010E946409019609F4C1
:101D60009ECF0E948D259F938F9380E293E09F9357
:101D70008F930E949E080E948D25909399018093D5
:101D8000980188E05BCF80919801909199010E9421
:101D9000A525853F914018F089E080939A010E9423
:101DA0006409019609F47BCF0E948D259F938F9340
:101DB0008BE193E09F938F930E949E0889E03ECF32
:101DC00080919201CDEFDFEF8131D1F082EF0E945F
:101DD000120A8C01CFEFDFEF0F3F100789F0CEEF33
:101DE000DFEF0A3F110561F40E94DE0CEC01CF3FEA
:101DF000DC0709F45EC0DC2FCC270E94DE0CC82B68
:101E0000D0939D01C0939C010E948D259F938F9339
:101E100086E193E09F938F930E949E0880919C019E
:101E200090919D010F900F900F900F90009709F4E3
:101E30004DC0E1E08F3F9807B1F08E3F2FEF920742
:101E400009F444C0E4E08D3F2FEF920761F08F3F2B
:101E5000910591F580E093E09F938F930E949E08F7
:101E60000F900F90E0E0E0939B01E1508EE191E054
:101E7000E43038F4F0E0EE0FFF1FE65CFE4F8081A7
:101E800091819F938F9380919D018F9380919C016D
:101E90008F9382EF92E09F938F930E949E088AE037
:101EA00080939A010F900F900F900F900F900F90CA
:101EB000F6CEC0E0D0E0A4CF803B2FEB920721F01C
:101EC000882781159F4B11F4E3E0CDCFE2E0CBCF23
:101ED0000E948D259F938F938DEE92E09F938F9319
:101EE0000E949E0880919B010F900F900F900F9081
:101EF000823081F1833059F18BE080939A010E9406
:101F00008D259F938F9388EE92E09F938F930E94ED
:101F10009E080F900F900F900F900E9464099C01F3
:101F20002F3F320709F4BBCE2115310519F02F3FA1
:101F30003105A9F40E94600D0E94911B80EE92E091
:101F40009F938F930E949E080F900F90A8CE88EFCA
:101F50000E94120A0E9429190E94680DCDCF90910B
:101F60009B01933009F4D6C078F4913079F0923027
:101F700009F095CEE0919601E93008F07CC0F0E0E0
:101F8000E35EF84F0C94832D9430F2CF909197013B
:101F9000923099F158F491111AC0803E71F0813E4F
:101FA00081F087FD10C00E941B0D79CE933069F13E
:101FB000943079F11092970172CE81E0809397016D
:101FC0006ECE82E0FBCF8F770E943A0D68CE8A3AC0
:101FD00089F358F48A3271F3863361F387FD07C0C1
:101FE0000E94920C0E941B0DE5CF863BF6CF8F77A7
:101FF0000E94920C0E943A0DDDCF8D3121F08D3977
:10200000C9F684E0DBCF83E0D9CF853499F685E546
:10201000E9CF853C79F685E5EDCF803ED1F098F4A7
:102020008338E9F08438F9F087FFBDCF0E94600D56
:1020300085EC92E09F938F930E949E080F900F90E3
:1020400010929A012CCE813E41F0803F69F781E0E9
:1020500001C082E08093960122CE84E0FBCF82E033
:102060000E941B0D08C08FE7FBCF893521F0803F10
:1020700029F0823129F41092960111CE83E0EACF43
:102080001092960187FD03C00E94460C8CCF0E94DF
:10209000600D8BEB92E0CECF833859F0843869F035
:1020A0001092960187FF90CF0E94600D81EB92E025
:1020B000C1CF82E00E943A0DDECF8FE7FBCF8231A5
:1020C000D1F28935C1F21092960187FD03C00E94BA
:1020D000460C7ACF0E94600D84EA92E0ABCF843147
:1020E00021F0803F41F686E0B5CF85E0B3CF87375A
:1020F00011F680E0B5CF843109F0BDCF87E0AACFDB
:10210000803F09F0B8CF88E0A5CF873709F0B3CF7B
:1021100080E0D0CF90919501911569F0913009F050
:10212000BECDEDE7E80FEB3008F041C0F0E0EA5D2E
:10213000F84F0C94832D8E3858F48338F8F0EDE77F
:10214000E80FEB30D8F4F0E0EF5CF84F0C94832DFF
:10215000803FA1F481E080939501A1CD82E023CF5F
:102160008FE721CF8BE01FCF86E01DCF80E01BCF14
:1021700081E019CF89E017CF8AE015CF87FF13CF11
:1021800087E992E057CF82E00E943A0D10929501C4
:1021900086CD8FE7F9CF8BE0F7CF86E0F5CF80E0F3
:1021A000F3CF81E0F1CF89E0EFCF8AE0EDCF10925D
:1021B000950187FF09CF8DE892E03CCF8091D30253
:1021C0000895CF93DF9300D00F92CDB7DEB7209163
:1021D000D802243011F523E029838A839B8320933E
:1021E000E9008FEF9091E80095FD06C095ED9A9576
:1021F000F1F700008A95B1F78091E80085FF0DC0E6
:1022000040E050E063E070E0CE0101960E9464156A
:102210008091E8008E778093E8000F900F900F90E8
:10222000DF91CF910895CF93DF9300D00F92CDB778
:10223000DEB79C018091D802843029F582E0898341
:10224000205831093B832A8383E08093E9008FEF94
:102250009091E80095FD06C095ED9A95F1F7000084
:102260008A95B1F78091E80085FF0DC040E050E00D
:1022700063E070E0CE0101960E9464158091E80051
:102280008E778093E8000F900F900F90DF91CF91A1
:1022900008952091D8022430E9F422E02093E90047
:1022A0002FEF3091E80035FD06C035ED3A95F1F796
:1022B00000002A95B1F72091E80025FF0BC040E00F
:1022C00050E065E070E00E9464158091E8008E7730
:1022D0008093E8000895CF93DF93D82FC92F809182
:1022E000D802843081F580911401811579F18091B3
:1022F0001501811559F185E08093E90080E89091FE
:10230000E80095FD06C09AE29A95F1F700C08A951B
:10231000B1F78091E80085FF16C040E050E060E230
:1023200070E08D2F9C2F0E9464158091E8008E77BD
:102330008093E80080E2ED2FFC2FA3EBB2E0019048
:102340000D928A95E1F7DF91CF91089581E0809316
:10235000E90080E89091E80095FD08C0EFE3F1E026
:102360003197F1F700C000008A95A1F78091E8004D
:1023700085FFE9CF40E050E068E070E0D2CFCF9336
:10238000C091B101C11521F0C1E08C2FCF9108950A
:102390000E949925643C794081059105B0F381E064
:1023A0008093B101F1CFCF92DF92EF92FF920F9322
:1023B0001F93CF93DF93D82F0FB607FE49C08091AC
:1023C000D802843071F08091070190E0019620914D
:1023D000090130E082239323209108012817190670
:1023E000B9F50E94BF1181110FC02091070130E0A3
:1023F0002F5F3F4F8091090190E02823392380917E
:1024000008018217130621F50E948D258C01809109
:10241000E900C091EC008F70C795CC27C795C82BF9
:1024200084E08093E90085E0D82E95E0C92E809164
:10243000EB0085FD0AC09091EB00892F817090FF21
:1024400004C09091EE0097FD42C0CF70C093E900A8
:102450008091070190E09C012F5F3F4F409109015F
:1024600050E024233523409108014217130609F454
:1024700059C0E0910501F0910601E80FF91FD083E2
:10248000809107018F5F9091090189238093070153
:1024900049C0E0910501F0910601E90FF11D20818D
:1024A0009F5F309109019323909308012093F100DD
:1024B0009091E80095FD0BC09091E80090FF07C057
:1024C0009091E8009E779093E800C092040190916B
:1024D0000801209107013091E800291721F035FD0E
:1024E000D8CF80E004C035FFFCCFD093F10030910D
:1024F000F3004091F200532F452B79F03091E80022
:1025000030FF0BC03091E80035FD16C03091E80077
:102510003E773093E800D0920401811581F0CF70AE
:10252000C093E90080E0DF91CF911F910F91FF9060
:10253000EF90DF90CF9008951092F100E3CF30E05C
:102540002F5F3F4F4091090150E02423352392171C
:10255000130609F07ACF80910401811509F475CF33
:102560000E948D257C018017910709F460CF80912E
:102570000401815080930401870159CF8091E102C9
:10258000811104C00E94C0170C941D180895109268
:10259000E10208951092E102089542E061EC81E0C9
:1025A0000E94E01442E061EC82E00E94E01442E00C
:1025B00061EC83E00E94E01442E261EC84E00E945E
:1025C000E01442E261EC85E00C94E0148091DA02C0
:1025D000893081F148F4823009F492C0833009F4E3
:1025E0004DC0813041F008958A3009F479C08B30B4
:1025F00009F45FC008958091D902813AF1F5809184
:10260000E800877F8093E8008091DD029091DE02F0
:10261000892B61F060E080E090E070E00E94B615E8
:102620008091E8008B778093E800089560E283EB67
:1026300092E0F3CF8091D9028132F9F48091DD02EA
:102640009091DE028B7F892BC1F48091E800877F17
:102650008093E8008091E80082FF0BC08091F10038
:102660008093D3028091E8008B778093E8000C94EC
:1026700014158091D8028111EDCF08958091D9026F
:10268000813AD9F78091DD029091DE02892BA9F77A
:102690008091E800877F8093E8008091E80080FFC8
:1026A000FCCF809114018093F1008091E8008E7737
:1026B000DCCF8091D902813201F78091DD029091C7
:1026C000DE02892BD1F68091E800877F8093E800B5
:1026D0000E9414158091DB02809314010C94911BCD
:1026E0008091D902813249F68091E800877F8093FA
:1026F000E8000E9414158091DC028093D4020895B2
:102700008091D902813A09F0B8CF8091E800877FA3
:102710008093E8008091E80080FFFCCF8091D40294
:10272000C2CF08958091D3028093B2011092D30258
:102730000E94600D0C94911B0C9492130E943C25F6
:102740008091D502811529F00E94492581110C94B0
:10275000CA1408950E945D258091B2018093D3022E
:1027600008950C94AA13089584B7877F84BF0FB689
:10277000F894A89580916000886180936000109221
:1027800060000FBE80E890E00FB6F894809361007F
:10279000909361000FBE83ED91E10E9411258AE0C4
:1027A00091E00E94241983E993E00E9405080E94A9
:1027B000F60C0E94E3190E94C0170E941D1878941D
:1027C0000E94E5198091D802843009F044C081E864
:1027D00093E00E9405080E9491138FE693E00E9407
:1027E00005088091D8028530D9F10E94E91920911D
:1027F000E4003091E5008091AF019091B00128177D
:10280000390731F18091E4009091E5009093B00197
:102810008093AF010E94BF118115D1F02091D802A1
:102820002430B1F49091E9008091EC009F7087957D
:1028300088278795892B2093E9009091EB0090FFE2
:1028400004C09091EE0097FD2EC08F708093E90038
:102850000E940A19C6CF0E940A190E94B313B2CF70
:102860000E949E13BECF2091E80025FF22C0E09178
:102870000501F0910601E90FF11D20819F5F309164
:1028800009019323909308012093F1009091E800AF
:1028900095FD09C09091E80090FF05C09091E80077
:1028A0009E779093E80090910801209107012913E9
:1028B000DACF9091F3002091F200392F232B29F2E7
:1028C0009091E80090FFC1CF9091E80095FD06C07F
:1028D0009091E8009E779093E800B7CF1092F100B6
:1028E000F3CFCF93DF939C01FB01DA01892F992766
:1028F00083309105D1F078F48130910509F445C019
:10290000029771F48DE890E023EF33E02D933C9330
:10291000DF91CF91089581329105E1F0829731F1F5
:1029200080E090E020E030E0F1CFC901992721302C
:1029300059F08230910559F0EFEEF3E0892B81F7E1
:10294000849190E09F01E2CFEFEDF3E0F9CFE9EA67
:10295000F3E0F6CF6530710518F7EE0FFF1FEF5A61
:10296000FE4F2081318189E090E0D0CF6530710544
:10297000B8F6EB01CC0FDD1FC95BDE4F2881398132
:10298000EE5BFE4F808190E0C1CF82E190E020E8D5
:1029900034E0BCCF80E189BD82E189BD09B400FE8D
:1029A000FDCF8091D8008F7D8093D8008091E0008A
:1029B00082608093E0008091E00081FDFCCF08956B
:1029C000982F973028F08F708093E90081E0089568
:1029D0009093E900242F762F50E0981731F07091F2
:1029E000EC002091ED005091F00021FD02C09F5FAE
:1029F000E8CF3091EB003E7F3093EB003091ED005B
:102A00003D7F3093ED003091EB0031603093EB006F
:102A10007093EC002093ED005093F0002091EE00B5
:102A200027FDE5CF80E008958091D90287FF13C08C
:102A30008091E80082FF06C08091E8008B77809348
:102A4000E80008958091D8028111F2CF0895809115
:102A5000D8028115D9F38091E80080FFF8CF8091EA
:102A6000E8008E77ECCF2091E4003091E50095E608
:102A7000A9012091EC00822F817020FF06C0809177
:102A8000E80080FF06C080E008952091E80022FD64
:102A90001AC08091D802811589F0853089F0809123
:102AA000EB0085FD0FC02091E4003091E500421756
:102AB0005307F9F29A95E1F684E0089582E00895CB
:102AC00083E0089581E00895AF92BF92CF92DF92A4
:102AD000EF92FF920F931F93CF936C018B017A01BA
:102AE0000E943315C82F811125C0E114F10439F07B
:102AF000F70180819181081B190BC80ED91EA12CEA
:102B0000B12C01151105B1F08091E80085FD23C0BD
:102B10008091E8008E778093E8000E940A19E11402
:102B2000F10499F0F701808191818A0D9B1D9183B9
:102B30008083C5E08C2FCF911F910F91FF90EF9074
:102B4000DF90CF90BF90AF9008950E94331581150C
:102B5000D9F2C82FEFCFF60181916F018093F10078
:102B600001501109FFEFAF1ABF0ACBCFFC019B0147
:102B70008091DF029091E0028617970718F0672B8B
:102B800061F0C90140E0009771F441110CC08091DF
:102B9000E80082FF35C080E008958091E8008E77DC
:102BA0008093E800EECF2091D8022115A9F12530BD
:102BB000A9F12091E80023FD2DC02091E80022FD1D
:102BC000E6CF2091E80020FFDECF3091F300209186
:102BD000F200009719F02830310558F041E0283014
:102BE000310509F040E02091E8002E772093E800BD
:102BF000CACF41914093F10001972F5F3F4FE9CF3A
:102C00008091D802811541F0853041F08091E80033
:102C100083FFBDCF81E0089582E0089583E00895A9
:102C2000FC019B018091DF029091E00286179707DB
:102C300018F0672B61F0C90140E0009771F4411171
:102C40000CC08091E80082FF36C080E0089580913A
:102C5000E8008E778093E800EECF2091D80221150E
:102C6000B1F12530B1F12091E80023FD2EC0209173
:102C7000E80022FDE6CF2091E80020FFDECF309172
:102C8000F3002091F200009719F02830310558F038
:102C900041E02830310509F040E02091E8002E772E
:102CA0002093E800CACF44914093F10031960197F8
:102CB0002F5F3F4FE8CF8091D802811541F08530DA
:102CC00041F08091E80083FFBCCF81E0089582E06D
:102CD000089583E008950F931F93CF93DF93CDB7AB
:102CE000DEB7AA970FB6F894DEBF0FBECDBF89ED51
:102CF00092E0FC0101962091F100208322E0813EC8
:102D00009207B9F70E94E6128091E80083FF38C06D
:102D10008091D9029091DA029A3090F5E92FF0E093
:102D2000E45CF84F0C94832D803889F0823841F5AB
:102D30008091DD028F70873018F58093E9008091D3
:102D4000EB0085FB882780F91092E90006C080918E
:102D5000D502880F9091D602892B9091E800977F39
:102D60009093E8008093F1001092F1008091E800C8
:102D70008E772AC081111DC08091DB02813049F11C
:102D80008091E80083FF0AC08091E800877F8093EC
:102D9000E8008091EB0080628093EB00AA960FB66A
:102DA000F894DEBF0FBECDBFDF91CF911F910F9181
:102DB0000895823029F78091DB02811589F0109205
:102DC000E9008091E800877F8093E8000E94141555
:102DD000D7CF81E0933009F080E08093D502EFCF28
:102DE0008091DD028F702FEF280F263048F68093F8
:102DF000E9002091EB0020FFE2CF933031F4809185
:102E0000EB0080628093EB00DACF9091EB00906151
:102E10009093EB0021E030E0A90102C0440F551F60
:102E20008A95E2F74093EA001092EA008091EB0065
:102E30008860E8CF8111A4CF1091DB021F778091C9
:102E4000E3008078812B8093E3008091E800877F06
:102E50008093E8000E9414158091E80080FFFCCF69
:102E60008091E30080688093E30083E0111101C04A
:102E700082E08093D80284CF8058823008F080CFDF
:102E80008091DB029091DC028C3D53E0950799F52F
:102E900083E08A838AE289834FB7F894DE01139630
:102EA00020E03EE051E2E32FF0E0509357008491A0
:102EB00020FF03C082958F703F5F8F708A30C8F00B
:102EC000895C90E08D939D932F5F243161F74FBF14
:102ED0008091E800877F8093E8006AE270E0CE018D
:102EE00001960E94B6158091E8008B778093E800E8
:102EF00047CF805DE6CF6091DD027091DE02AE01CA
:102F00004F5F5F4F0E9471148C01892B09F438CFF9
:102F10008091E800877F8093E800B80189819A81D9
:102F20000E941016E0CF803809F02ACF8091E80087
:102F3000877F8093E8008091D7028093F10016CFBD
:102F400081111ECF9091DB02923008F019CF809151
:102F5000E800877F8093E8009093D7020E941415C1
:102F60008091D702811531F084E08093D8020E94CD
:102F7000CD1206CF8091E30087FDF6CF81E0F5CF3B
:102F80000E942E180E943618E0EEF0E080818160E9
:102F90008083E8EDF0E080818F77808319BCA7ED16
:102FA000B0E08C918E7F8C9380818F7E8083109295
:102FB000E10208950F931F93CF93DF930E942E1881
:102FC0000E943618C8EDD0E088818F778883888189
:102FD0008068888388818F7D888319BC1092D8028D
:102FE0001092D7021092D5021092D60200EE10E095
:102FF000F80180818B7F808388818160888342E0B3
:1030000060E080E00E94E014E1EEF0E080818E7FDD
:103010008083E2EEF0E0808181608083808188603F
:103020008083F80180818E7F80838881806188839E
:10303000DF91CF911F910F910895E8EDF0E080812D
:103040008F7E8083E7EDF0E080818160808384E083
:1030500082BF81E08093E1020C94DA17E8EDF0E0A2
:1030600080818E7F80831092E20008951092DA00B2
:103070001092E10008951F920F920FB60F92112443
:103080002F933F934F935F936F937F938F939F9370
:10309000AF93BF93EF93FF938091E10082FF0BC04A
:1030A0008091E20082FF07C08091E1008B7F8093D6
:1030B000E1000E9409198091DA0080FF19C0809117
:1030C000D80080FF15C08091DA008E7F8093DA00EF
:1030D0008091D90080FF8FC080E189BD82E189BDE8
:1030E00009B400FEFDCF81E08093D8020E94BE1299
:1030F0008091E10080FF19C08091E20080FF15C03F
:103100008091E2008E7F8093E2008091E2008061F6
:103110008093E2008091D80080628093D80019BC2F
:1031200085E08093D8020E949C138091E10084FF87
:1031300029C08091E20084FF25C080E189BD82E141
:1031400089BD09B400FEFDCF8091D8008F7D8093AA
:10315000D8008091E1008F7E8093E1008091E200B1
:103160008F7E8093E2008091E20081608093E20094
:103170008091D702811509F444C084E08093D8027D
:103180000E94B1138091E10083FF24C08091E2008E
:1031900083FF20C08091E100877F8093E10082E07F
:1031A0008093D8021092D7028091E1008E7F8093A5
:1031B000E1008091E2008E7F8093E2008091E20046
:1031C00080618093E20042E060E080E00E94E014D1
:1031D0000E94CA12FF91EF91BF91AF919F918F9181
:1031E0007F916F915F914F913F912F910F900FBE03
:1031F0000F901F90189519BC1092D8020E94C71208
:1032000077CF8091E30087FF02C083E0B7CF81E0F2
:10321000B5CF0895CF938091D802811599F0809110
:10322000E900C091EC008F70C795CC27C795C82BDB
:103230001092E9008091E80083FD0E946B16CF7028
:10324000C093E900CF9108959093E7028093E6023E
:103250000895E091E602F091E702309721F00190A5
:10326000F081E02D099480E00895EF92FF920F9392
:103270001F93CF93DF938C01E091E602F091E70278
:103280003097A9F10280F381E02D09958091DC034C
:1032900082FF2DC080FF04C086ED95E00E940508E6
:1032A000E801C80180967C0100ED15E08091DC0307
:1032B00080FF0BC088811F928F931F930F930E94F2
:1032C0009E080F900F900F900F902196CE15DF055E
:1032D00069F78091DC0380FF0AC08EEC95E0DF91F6
:1032E000CF911F910F91FF90EF900C940508DF9103
:1032F000CF911F910F91FF90EF900895E091E6021A
:10330000F091E702309721F00480F581E02D0994D7
:103310000895CF93DF93EC018091E4029091E50250
:103320008C179D0701F1D093E502C093E402E09170
:10333000E602F091E7023097B1F00680F781E02DC8
:10334000CE0109958091DC038570853061F4DF93AF
:10335000CF9380EC95E09F938F930E949E080F90EF
:103360000F900F900F90DF91CF910895CF93DF933F
:10337000EC018091E2029091E3028C179D0701F12C
:10338000D093E302C093E202E091E602F091E702FB
:103390003097B1F00084F185E02DCE010995809140
:1033A000DC038570853061F4DF93CF9380EB95E08B
:1033B0009F938F930E949E080F900F900F900F90F5
:1033C000DF91CF9108950C94981A0E9484250C9453
:1033D000FA0C9F92AF92BF92CF92DF92EF92FF9240
:1033E0000F931F93CF93DF9300D000D00F92CDB7F0
:1033F000DEB70E94790D89EEC82E82E0D82E10E04B
:10340000812F0E945A0DF82EF60191906F019816A7
:10341000A9F18091DC0381FD0E94991A9F24E12C7F
:1034200001E05601F1E0AF1AB108892D8023811522
:1034300001F1E9821A8391E08F2D8023811101C06F
:1034400090E09B830E948D258160782F9D838C83E3
:1034500049815A816B81892F0E94CF1A49815A81F3
:103460006B817C818D810E942725F50180818027D9
:103470008083E394000FF8E0EF12D7CF1F5F103185
:1034800009F0BECF8FEF89838A831B820E948D252E
:103490008160782F9D838C8349815A816B81892F2C
:1034A0000E94CF1A0E9426250E94CE270E94291929
:1034B0009091E802891749F10E9429198093E80246
:1034C0009091DC039570953061F41F928F9381EE9B
:1034D00095E09F938F930E949E080F900F900F90FE
:1034E0000F908091E8020F900F900F900F900F9027
:1034F000DF91CF911F910F91FF90EF90DF90CF90D0
:10350000BF90AF909F900C9438250F900F900F9024
:103510000F900F90DF91CF911F910F91FF90EF903F
:10352000DF90CF90BF90AF909F9008950C94680D5E
:103530000895EF92FF920F931F93CF93DF9387EF3E
:1035400095E00E940508C0E0D0E089E3E82E81E024
:10355000F82E0CEE15E08C2F0E945A0D0E941625B5
:10356000FF92EF921F928F93DF93CF931F930F934E
:103570000E949E0821968DB79EB708960FB6F894C4
:103580009EBF0FBE8DBFC031D10529F7DF91CF910E
:103590001F910F91FF90EF90089508950895CF9394
:1035A000DF93CDB7DEB72B970FB6F894DEBF0FBE13
:1035B000CDBF4F83588769877A878B878A859B859C
:1035C000892B39F0842F85238F3F19F08B850E943A
:1035D00027251E8285E0FE013796DE0111960190B7
:1035E0000D928A95E1F749815A816B817C818D81A9
:1035F0009E812B960FB6F894DEBF0FBECDBFDF9134
:10360000CF910C943C21CF93C82F811509F43FC072
:103610008CEF8C0F813A58F48C2F0E94F82A81117C
:1036200036C08C2F0E940D24CF910C94EB2480E2A5
:103630008C0F883048F4C77081E001C0880FCA95AC
:10364000EAF70E94B024F0CF8BE58C0F833068F44A
:1036500081E890E0C53A31F082E890E0C63A11F096
:1036600083E890E0CF910C948919C85AC73178F457
:1036700080E790E0C63141F0EC2FF0E0EE0FFF1F45
:10368000E55AFE4F80819181CF910C94B619CF916C
:103690000895811529F19CEF980F913A20F40E942A
:1036A0005A240C94EB2490E2980F983050F48770D1
:1036B00091E001C0990F8A95EAF7892F0E94B624FC
:1036C000F0CF9BE5980F933020F480E090E00C94CD
:1036D0008919885A873120F480E090E00C94B6195B
:1036E0000895811521F00E94B0240C94EB240895D4
:1036F000811521F00E94B6240C94EB2408950E94B9
:10370000D2240E949F240E94EB240E94BE280E9483
:10371000412780E090E00E94891980E090E00C94BD
:10372000B6190E94C1240C947F1BBF92CF92DF92E6
:10373000EF92FF920F931F93CF93DF9300D000D0AF
:103740000F92CDB7DEB76C010E943A258111C3C03C
:1037500085E0F601DE01119601900D928A95E1F760
:10376000F60183819481892B09F4B5C08081918110
:1037700089238F3F09F4AFC0F280E580E2942FE007
:10378000E22249815A816B817C818D810E9469236B
:103790008C010E9468230E946722E12FE295EF705E
:1037A000F0E0EA5BF84F0C94832DF12FFF70EF2EC1
:1037B000103118F0E29490EFE922F114C1F0E11415
:1037C00029F08E2D0E94C4240E94EB24802F0F909C
:1037D0000F900F900F900F90DF91CF911F910F914D
:1037E000FF90EF90DF90CF90BF900C94031B802F41
:1037F0000E94491BE11409F46EC08E2D0E94CA2458
:103800000F900F900F900F900F90DF91CF911F911D
:103810000F91FF90EF90DF90CF90BF900C94EB242E
:10382000212F2F70B22E107F103219F0B29480EF3A
:10383000B822011579F0013009F45CC0F11409F4E3
:1038400069C0E11459F0F601858180FFBCC18F7019
:10385000858304C0F11439F1E11011C08B2D0F9054
:103860000F900F900F900F90DF91CF911F910F91BC
:10387000FF90EF90DF90CF90BF900C94711B81E090
:10388000E812ECCF8B2D0F900F900F900F900F90B0
:10389000DF91CF911F910F91FF90EF90DF90CF902C
:1038A000BF900C94D524E11013C00E94D8248B2D16
:1038B0000F900F900F900F900F90DF91CF911F916D
:1038C0000F91FF90EF90DF90CF90BF900C94781BFA
:1038D00091E0E912EACF0F900F900F900F900F90A8
:1038E000DF91CF911F910F91FF90EF90DF90CF90DC
:1038F000BF900895F11451F0E6E0EE1660F70E94D3
:10390000AD248B21811509F4A9CFD1CFF5E0EF16B5
:1039100010F7CDCFE11459F2802F0F900F900F9038
:103920000F900F90DF91CF911F910F91FF90EF902B
:10393000DF90CF90BF900C94491B812F8695869580
:1039400083708115C1F0813031F6C8019370F11098
:1039500002C080E090E00F900F900F900F900F90BA
:10396000DF91CF911F910F91FF90EF90DF90CF905B
:10397000BF900C94B619C8019370F11002C080E09A
:1039800090E00F900F900F900F900F90DF91CF91DC
:103990001F910F91FF90EF90DF90CF90BF900C940C
:1039A0008919802FF11491F00E947B260F900F90BF
:1039B0000F900F900F90DF91CF911F910F91FF907B
:1039C000EF90DF90CF90BF900C9441270E94CD26BE
:1039D000EDCF812F8370811170C0F1107CCF202F2B
:1039E000229526952770220F220F802F8F7090E04E
:1039F000A0E0B0E06C017D01022E04C0CC0CDD1C07
:103A0000EE1CFF1C0A94D2F760E070E0CB0104FFCB
:103A10000FC06FE070E080E090E004C0660F771F99
:103A2000881F991F2A95D2F760957095809590957B
:103A30001695169513701230C1F0133051F16C29A0
:103A40007D298E299F29113041F10F900F900F9001
:103A50000F900F90DF91CF911F910F91FF90EF90FA
:103A6000DF90CF90BF900C948C226C297D298E29F9
:103A70009F290F900F900F900F900F90DF91CF9193
:103A80001F910F91FF90EF90DF90CF90BF900C941B
:103A9000A6220E948C22C701B6010F900F900F90B2
:103AA0000F900F90DF91CF911F910F91FF90EF90AA
:103AB000DF90CF90BF900C947222F11409F448C0AB
:103AC00010FF09CF202F229526952770220F220F55
:103AD000802F8F7090E0A0E0B0E06C017D01022E9D
:103AE00004C0CC0CDD1CEE1CFF1C0A94D2F760E075
:103AF00070E0CB0104FF0FC06FE070E080E090E069
:103B000004C0660F771F881F991F2A95D2F760950A
:103B10007095809590951695169513701230E1F07A
:103B2000133071F16C297D298E299F29113061F1A3
:103B30000F900F900F900F900F90DF91CF911F91EA
:103B40000F91FF90EF90DF90CF90BF900C944423A3
:103B5000823008F4C0CEB6CF6C297D298E299F29EA
:103B60000F900F900F900F900F90DF91CF911F91BA
:103B70000F91FF90EF90DF90CF90BF900C94562361
:103B80000E944423C701B6010F900F900F900F9031
:103B90000F90DF91CF911F910F91FF90EF90DF90E9
:103BA000CF90BF900C943223013F09F46EC0B0F562
:103BB000003EC8F4003C08F04BC0F11409F4A7C063
:103BC000E11409F4A1C0802F0E94031B093309F0FE
:103BD00094C0FFEF21EE84E0F15020408040E1F7F7
:103BE00000C0000078CE003F41F7F11409F44AC04C
:103BF00095E0E91608F06FCE812F8F710F900F902E
:103C00000F900F900F90DF91CF911F910F91FF9028
:103C1000EF90DF90CF90BF900C941423023F09F4F3
:103C200048C0033F51F6F11409F457C0812F8F713A
:103C30000F900F900F900F900F90DF91CF911F91E9
:103C40000F91FF90EF90DF90CF90BF900C94C52222
:103C5000812F8F71102F1071F11451F00E94D32217
:103C6000802F111519F08295807FF9CD8F70F7CDD7
:103C70000E94F122802F111519F08295807F18CEB5
:103C80008F7016CEE6E0EE16B5CF812F8F71F1144E
:103C9000A1F00F900F900F900F900F90DF91CF91A8
:103CA0001F910F91FF90EF90DF90CF90BF900C94F9
:103CB000D322812F8F71F11461F30F900F900F9029
:103CC0000F900F90DF91CF911F910F91FF90EF9088
:103CD000DF90CF90BF900C94F1220F900F900F9037
:103CE0000F900F90DF91CF911F910F91FF90EF9068
:103CF000DF90CF90BF900C94C022033509F469CFB8
:103D0000073409F0E8CD65CF812F8F71C2CFE11064
:103D100003CE812F8F71D1CF412F4F70602FC601FD
:103D20000E94F0080F900F900F900F900F90DF916E
:103D3000CF911F910F91FF90EF90DF90CF90BF90A8
:103D40000C94CF210111C7CDF11409F4C4CD0E9408
:103D5000911BFFEF20E782E0F15020408040E1F727
:103D600000C000000F900F900F900F900F90DF9108
:103D7000CF911F910F91FF90EF90DF90CF90BF9068
:103D80000C94D825412F4F70602FC6010F900F90D3
:103D90000F900F900F90DF91CF911F910F91FF9097
:103DA000EF90DF90CF90BF900C94F725CF93DF93E7
:103DB00000D000D00F92CDB7DEB749835A836B8312
:103DC0007C838D838C819D81892B21F0852F842399
:103DD0008F3F11F480E012C06B817C818D810E9445
:103DE0006923382F292F22952F70903C78F42A30A0
:103DF000A8F4225F2F7081E0223060F70F900F90BF
:103E00000F900F900F90DF91CF9108952C3011F00B
:103E10002F3001F79F7081E0983008C0803E18F481
:103E200081E0303CEACF315F81E0333038F7D2CFE8
:103E3000CF93DF9300D000D00F92CDB7DEB70F90B5
:103E40000F900F900F900F90DF91CF910895CF9327
:103E5000DF9300D000D000D0CDB7DEB70F900F9029
:103E60000F900F900F900F90DF91CF9108950F93C7
:103E70001F93CF93E091F902C6E08091FA028E136E
:103E800004C0CF911F910F9108950E2F10E0CE9F87
:103E9000F0011124E550FD4F408151816281738111
:103EA000848195810E94271FF8013196E770E5CF44
:103EB00040912B0350912C0360912D0370912E03A0
:103EC00080912F03909130030C94271F0F931F9321
:103ED000CF93809130038031A8F480912D03811518
:103EE00089F0E091F9026091FA0250912B03409120
:103EF0002C0320912E0330912F03742F7523C6E0DD
:103F00006E1304C0CF911F910F9108950E2F10E0F2
:103F10002115310591F17F3F81F1CE9FF0011124F0
:103F2000DF01A550BD4F11968C911197841325C0C8
:103F30008C91851322C012968C91129781111DC00D
:103F400013968D919C91821B930B883C9105A8F44C
:103F5000809130038F70806180933003E050FD4F7B
:103F600080818F70806180838BE293E00E94951B3B
:103F7000CF911F910F910C94371FF8013196E77084
:103F8000BFCF8F929F92AF92BF92DF92EF92FF923C
:103F90000F931F93CF93DF93CDB7DEB72B970FB659
:103FA000F894DEBF0FBECDBF8C0185E0F801DE01C5
:103FB000179601900D928A95E1F7F801F2808BE255
:103FC000882E83E0982E60912E0370912F03611547
:103FD000710509F441C130912B0340912C03842FCA
:103FE00083238F3F09F438C120819181A380B4805D
:103FF000D0902D03F501E61BF70BD11409F4E1C0B5
:1040000080913003E83CF10508F0B5C0803108F03C
:104010007CC0EF2C491313C0321311C0F11028C11A
:104020008F708061809330030E94581FC4010E94EA
:10403000951B80913003F8018583E12C4FC0AB289C
:1040400009F45FC0892F82238F3F09F45AC0E091A1
:10405000F9028091FA0236E0F114C9F08091300340
:10406000816080933003E9CF4E2F50E03E9FF001F6
:104070001124E550FD4F6181961306C0608126131F
:1040800003C062816111D9CFFA013196E770E8135C
:10409000EBCF4F81588569857A858B850E9469238E
:1040A000292F22952F70903248F49F70911511F0AE
:1040B0008115A1F0805E883088F004C0225F2F70E7
:1040C000223028F0C8010E94951BED2C07C09F707C
:1040D000911581F3F8019581903160F78E2D2B9623
:1040E0000FB6F894DEBF0FBECDBFDF91CF911F9109
:1040F0000F91FF90EF90DF90BF90AF909F908F90C7
:104100000895F11409F499CFA9CF491306C03213C9
:1041100004C0F801F11409F46FC04F815885698516
:104120007A858B850E94D61E811509F489C0F11409
:1041300009F486C080913003803270F020912B0307
:1041400030912C033A8329831B82BD82AC828E83FB
:10415000CE0101960E94951B86E0F801ABE2B3E028
:1041600001900D928A95E1F70E94661F0E94581FE8
:10417000EE24E394B3CF803198F44F81588569855C
:104180007A858B850E94181F8BE293E00E94951B15
:1041900086E0F40111928A95E9F70E94581F4DCFED
:1041A0004913BBCF3213B9CFF110B7CFF8018583D4
:1041B000C8010E94951B86E0F40111928A95E9F7E7
:1041C000D7CFE83CF10508F03FC0F114C9F149131D
:1041D00029C0321327C08091300380FD1AC080317E
:1041E000C0F0F8018583807F803F39F08581982F6A
:1041F000907F905F8F70892B8583C8010E94951BEB
:1042000086E0F801ABE2B3E001900D928A95E1F708
:10421000ADCF86E0F801ABE2B3E001900D928A9554
:10422000E1F7A6CF4F81588569857A858B850E94F5
:10423000D61E811191CF809130038160809330032D
:10424000C8010E94951B94CF4F81588569857A8556
:104250008B850E94181F9CCFF11491F34F815885D4
:1042600069857A858B850E94D61E811549F374CFA6
:10427000AB2809F0E7CEF2CE1F93CF93DF93CDB7F3
:10428000DEB72C970FB6F894DEBF0FBECDBF4F83BD
:10429000588769877A878B879C87CE0107960E940B
:1042A000C11F2A853B8558854F818115E9F0232B55
:1042B00051F0852F84238F3F31F069857A858B8576
:1042C0009C850E94271F16E08091F9029091FA02C6
:1042D000891343C02C960FB6F894DEBF0FBECDBF36
:1042E000DF91CF911F91089586E0FE013796DE01A0
:1042F000119601900D928A95E1F7232B21F3542317
:104300005F3F09F3A091FA028A2F90E0019687702F
:1043100099272091F9022817190689F096E09A9FAB
:10432000D0011124A550BD4FFE01319601900D9290
:104330009A95E1F78093FA020E94371FC4CF0E943A
:10434000911B1092FA021092F90286E0EBE2F3E080
:10435000DF011D928A95E9F7B6CF189FC00111249D
:1043600085509D4F0E94C11F811509F4B3CFE09184
:10437000F9021E9FF0011124E550FD4F408151814B
:1043800062817381848195810E94271F8091F90247
:1043900090E00196877099278093F90295CFEF926C
:1043A000FF920F931F93CF93DF938C01892BA1F082
:1043B000F12CE12CE8012196F8018491853709F46C
:1043C0006AC088F4843709F44CC0843008F072C0A5
:1043D0008130E9F0823091F1DF91CF911F910F91FF
:1043E000FF90EF900895883709F461C040F4863754
:1043F00009F057C00E94AD24F82E8E0138C09CE70A
:10440000980F903748F78F770E94491BF6CFFE012F
:10441000849190E2980F983060F4877091E001C029
:10442000990F8A95EAF7892F0E94C4240E94EB24F1
:1044300002C00E94031B0E5F1F4F19C0FE01849132
:1044400090E2980F983050F4877091E001C0990F76
:104450008A95EAF7892F0E94CA24E8CF0E94491B57
:10446000EACF0E5F1F4FFE01C491C1110CC08E2D0B
:10447000811509F49FCFEFE9FFE03197F1F700C014
:1044800000008150F5CF8FE99FE00197F1F700C060
:104490000000C150EACF0E5F1F4FFE01C491EC2E09
:1044A000E6CF8F2D0E94BE240E94EB24A6CF0E944F
:1044B000C124FACF0E94031BA0CF6093B103709375
:1044C000B2038093B3039093B4030C9437250895FB
:1044D0006093B5037093B6038093B7039093B803CA
:1044E0000C9436250F931F930091B5031091B603DA
:1044F0002091B7033091B803602B712B822B932B43
:104500006093B5037093B6038093B7039093B80399
:104510001F910F910C9436250F931F930091B503B3
:104520001091B6032091B7033091B8036023712333
:10453000822393236093B5037093B6038093B703EC
:104540009093B8031F910F910C9436250F931F93EE
:104550000091B5031091B6032091B7033091B803D1
:1045600060277127822793276093B5037093B60362
:104570008093B7039093B8031F910F910C94362545
:1045800060E070E0CB010C945D22282F61E070E0C8
:1045900080E090E004C0660F771F881F991F2A955E
:1045A000D2F70C945D220F931F93282F61E070E0E7
:1045B00080E090E004C0660F771F881F991F2A953E
:1045C000D2F70091B1031091B2032091B30330915F
:1045D000B403602B712B822B932B1F910F910C94A2
:1045E0005D220F931F9341E050E060E070E004C053
:1045F000440F551F661F771F8A95D2F7CB01BA016A
:1046000060957095809590950091B1031091B203DB
:104610002091B3033091B403602371238223932349
:104620001F910F910C945D220F931F93282F61E02F
:1046300070E080E090E004C0660F771F881F991F2C
:104640002A95D2F70091B1031091B2032091B303E0
:104650003091B40360277127822793271F910F9110
:104660000C945D220F931F930091B1031091B2033C
:104670002091B3033091B403602B712B822B932BC9
:104680001F910F910C945D220F931F930091B10322
:104690001091B2032091B3033091B40360237123CE
:1046A000822393231F910F910C945D220F931F93EC
:1046B0000091B1031091B2032091B3033091B40380
:1046C00060277127822793271F910F910C945D22F9
:1046D00008954F925F926F927F929F92AF92BF9296
:1046E000CF92DF92EF92FF920F931F93CF93DF93BE
:1046F00000D000D00F92CDB7DEB749835A836B83C9
:104700007C838D838C819D81892B09F46FC0942ECD
:10471000E52E852F84238F3F09F468C0052F10E014
:10472000C42ED12C611509F455C04090B1035090AE
:10473000B2036090B3037090B4038091B50390917D
:10474000B603A091B703B091B803482A592A6A2A40
:104750007B2A2FE1A22EB12CD301C2010A2C04C066
:10476000B695A795979587950A94D2F780FD29C0AD
:1047700081E0A81AB10880F7F12C93E0000F111F17
:104780009A95E1F70F5C1C4FF801EC0DFD1DF082CE
:1047900069817A818F2D0F900F900F900F900F905D
:1047A000DF91CF911F910F91FF90EF90DF90CF900D
:1047B000BF90AF909F907F906F905F904F900C94C0
:1047C000A708FA2C692D7E2D8A2D0E94A708019733
:1047D00079F2D3CF83E0000F111F8A95E1F70F5CC8
:1047E0001C4FF801EC0DFD1DF080D2CF80E090E071
:1047F0000F900F900F900F900F90DF91CF911F911E
:104800000F91FF90EF90DF90CF90BF90AF909F906F
:104810007F906F905F904F90089590911401911543
:1048200021F090911501911116C02091160130913F
:104830001701F90132969FEF40E05191851751F031
:104840009F3F19F4511101C0942F4F5F4E31A9F7CA
:104850009F3F49F50895982F9695969596959F3187
:1048600089F0E0911601F0911701E90FF11D8770B1
:1048700021E030E001C0220F8A95EAF78181822B86
:10488000818308959091DC0390FFE4CF1F928F9372
:1048900082E296E09F938F930E949E080F900F9064
:1048A0000F900F900895290F311D97FD3A95F9014A
:1048B0008283089590911401911111C020911601E5
:1048C00030911701F9013296205E3F4F9191891383
:1048D00002C0DF011E92E217F307C1F7089590911D
:1048E0001501911559F3982F9695969596959F31A8
:1048F000A9F0E0911601F0911701E90FF11D877001
:1049000021E030E0A90102C0440F551F8A95E2F76B
:10491000CA01809591818923818308959091DC0358
:1049200090FFDCCF1F928F9384E096E09F938F934C
:104930000E949E080F900F900F900F90089581E0B5
:1049400090E0E0911601F0911701E80FF91F108235
:10495000019680329105A9F708958091DB030895AF
:104960009091DB03982B9093DB030895982F9095FB
:104970008091DB0389238093DB0308958093DB031D
:1049800008951092DB0308959091DA03982B909389
:10499000DA030895982F90958091DA038923809304
:1049A000DA0308951092DA0308958093B903089505
:1049B0001092B90308952091160130911701F90161
:1049C0003196205E3F4F80E0919191118F5FE21709
:1049D000F307D1F70895E0911601F0911701809146
:1049E000DB038083E0911601F091170180819091A3
:1049F000DA03892B80839091B903911561F0E091DE
:104A00001601F09117018081892B80830E94DB249D
:104A100081111092B90380911601909117010C94A5
:104A2000351990938F0180938E0108958295982F68
:104A3000990F990F9C7C869586958373982B892F67
:104A4000880F8A7A96959575892B08950895CF9346
:104A5000DF9300D000D00F92CDB7DEB70F900F904C
:104A60000F900F900F90DF91CF91089508950895C2
:104A70000C94961A80E0089583B7817F8C6083BF81
:104A800083B7816083BF7894889583B78E7F83BF17
:104A90000895CF930E94CD1A0E94790D0E94CE1ADC
:104AA000C0E08C2F0E945A0D811105C0CF5FC0312C
:104AB000C1F7CF91089581E0FCCF0E94600D0C9466
:104AC000911B1F921FB61F9211248F939F93AF9338
:104AD000BF938091DD039091DE03A091DF03B0913D
:104AE000E0034196A11DB11D8093DD039093DE0389
:104AF000A093DF03B093E003BF91AF919F918F919B
:104B00001F901FBE1F90189582E084BD93E095BD55
:104B10009AEF97BD80936E0008952FB7F894809117
:104B2000DD039091DE03A091DF03B091E0032FBF7E
:104B300008952FB7F8946091DD037091DE038091A2
:104B4000DF039091E0032FBF08959C014FB7F894C5
:104B50008091DD039091DE03A091DF03B091E0032B
:104B60004FBF821B930B089578941F921FB61F921C
:104B700011248F939F93AF93BF938091DD03909106
:104B8000DE03A091DF03B091E0030196A11DB11DEA
:104B90008093DD039093DE03A093DF03B093E003E3
:104BA000BF91AF919F918F911F901FBE1F9018953D
:104BB0000E94C017F89487E797E7909301088093C5
:104BC000000887E090EBDC018093EC039093ED0309
:104BD000A093EE03B093EF0388E19CE00FB6F89446
:104BE000A895809360000FBE90936000FFCF08955A
:104BF0008091E30380FF12C060911B0185E0689FF4
:104C0000B0011124759567957595679560387105A4
:104C1000A8F561157105A1F1862F089581FF09C0DE
:104C200060911B0185E0689FB0011124759567951F
:104C3000EDCF60911B0182FD0AC08091E4038115D4
:104C4000D1F090911A0160911B01891728F085E03D
:104C5000689FB0011124DACF689FB001112485E06C
:104C6000869FA001879F500D1124692F70E0CA0113
:104C70000E946F2DCBCF65E070E0CECF8FE7089517
:104C800081E008958091E30380FF0CC060911901D9
:104C900070E075956795759567956115710549F192
:104CA000862F089581FF06C06091190170E0759507
:104CB0006795F3CF6091190182FD0BC09091E403D9
:104CC0009115A1F06091180180911901961738F0A3
:104CD000682F70E06038710500F38FE70895899FB1
:104CE000C001112470E00E946F2DF4CF61E070E0EC
:104CF000D7CF81E00895E0E1E80F803F08F444C099
:104D0000F0E0EA5AF84F0C94832D0E94F825819523
:104D10008093E70308950E94F825FACF0E94F825B2
:104D200081958093E60308950E94F825FACF0E94AA
:104D300042268093E80308950E9442268195F9CF88
:104D40000E94422681958093E90308950E9442269D
:104D5000FACF8091E50381608093E5030895809107
:104D6000E5038260F9CF8091E5038460F5CF8091FF
:104D7000E5038860F1CF8091E5038061EDCF8091FC
:104D8000E30381608093E30308958091E3038260ED
:104D9000F9CF8091E3038460F5CF9091E703803FE2
:104DA00099F497FD1092E7038091E6039091E70351
:104DB000892B9091E803892B9091E903892B81112C
:104DC00002C01092E4030895813F19F4191654F3B8
:104DD000EBCF9091E603823F29F497FFE5CF109245
:104DE000E603E2CF833F19F41916CCF3DDCF90919F
:104DF000E803893F29F41916BCF61092E803D4CFD2
:104E00008A3F19F497FFD0CFF8CF9091E9038B3FF9
:104E100029F497FFC9CF1092E903C6CF8C3F19F44C
:104E20001916CCF3C1CFECE0E80F843F08F4BCCFF7
:104E3000F0E0EA59F84F0C94832D8091E5038E7FC2
:104E40008093E503B1CF8091E5038D7FF9CF809109
:104E5000E5038B7FF5CF8091E503877FF1CF8091CC
:104E6000E5038F7EEDCF8091E3038E7F8093E30394
:104E70009BCF8091E3038D7FF9CF8091E3038B7FFC
:104E8000F5CF8091DC0383FF7EC087E696E00E9429
:104E900005088091E5031F928F9382E696E09F9329
:104EA0008F930E949E0880E696E00E9405088091FC
:104EB000E603282F082E000C330B3F938F938DE5CC
:104EC00096E09F938F930E949E088BE596E00E9448
:104ED00005088091E703282F082E000C330B3F9321
:104EE0008F9388E596E09F938F930E949E0886E5B6
:104EF00096E00E9405088091E803282F082E000CF8
:104F0000330B3F938F9383E596E09F938F930E949B
:104F10009E0881E596E00E9405088091E903282F0C
:104F2000082E000C330B3F938F938EE496E09F93F3
:104F30008F930E949E088BE496E00E940508809162
:104F4000E4031F928F9388E496E09F938F930E94CF
:104F50009E0886E496E00E9405088091E3031F9274
:104F60008F9383E496E09F938F930E949E0880E442
:104F700096E00E9405088DB79EB74C960FB6F89440
:104F80009EBF0FBE8DBF85EE93E00E947E190E94EA
:104F90008D259093E2038093E10308954F925F92F1
:104FA0006F927F928F929F92AF92BF92CF92DF9239
:104FB000EF92FF920F931F93CF93DF9300D000D017
:104FC00000D00F92CDB7DEB78091E1039091E2035C
:104FD0000E94A5258D839E838091E40320911C016E
:104FE00030E0811106C020911D014AE0249F90010C
:104FF00011244D815E814217530780F09091E603A2
:105000000091E7031091E8035091E9035F83911148
:105010001CC0202F212B252B2111A5C027960FB6B0
:10502000F894DEBF0FBECDBFDF91CF911F910F91DE
:10503000FF90EF90DF90CF90BF90AF909F908F90B8
:105040007F906F905F904F9008958F3F09F48FC0CD
:105050008F5F8093E403191634F40E94F8258D8342
:105060008093E60303C0911185C01D8210160CF0D9
:1050700066C00E94F8258093E7038D818115D1F1E8
:105080000091E7030115B1F1682F880F770B880BAA
:10509000990B0E94762C23E333E343E35FE36B0138
:1050A0007C01C701B6010E94DA2C4B015C01C501ED
:1050B000B4010E943E2C6093E603602F000F770B33
:1050C000880B990B0E94762C23E333E343E35FE3E1
:1050D0002B013C01C301B2010E94DA2C69837A835F
:1050E0008B839C8369817A818B819C810E943E2C79
:1050F0006093E703111654F50E9442268093E8035B
:105100009F8119164CF50E9442268093E903279649
:105110000FB6F894DEBF0FBECDBFDF91CF911F91C8
:105120000F91FF90EF90DF90CF90BF90AF909F9046
:105130008F907F906F905F904F900C944127011556
:1051400009F49BCF0E94F825819595CF1115C1F2E6
:105150000E9442268195D2CF2F812115C1F20E9453
:1051600042268195D2CF8F3F09F072CF7ECF19169C
:105170000CF473CF0E94F825819571CF85E0E5EEA0
:10518000F3E0DF011D928A95E9F71092E403109293
:10519000E30308958AE898E00E9405081F9281E0E1
:1051A0008F931F9285E08F938CE398E09F938F936A
:1051B0000E949E080F900F900F900F900F900F90ED
:1051C0000895843009F44DC038F4823031F18330D1
:1051D000B1F1813041F00895853009F454C0863032
:1051E00009F463C0089580911D01482F460F55278B
:1051F000551F860F4F3F51050CF08FEF80931D0117
:105200001F928F9385E797E09F938F930E949E084C
:105210000F900F900F900F90089580911C01482FD0
:10522000460F5527551F860F4F3F51050CF08FEF46
:1052300080931C011F928F9383E697E0E5CF8091C6
:105240001B01482F460F5527551F860F4F3F51050D
:105250000CF08FEF80931B011F928F9380E597E0F6
:10526000D3CF80911A01482F460F5527551F860F1F
:105270004F3F51050CF08FEF80931A011F928F93CF
:105280008BE397E0C1CF80911901482F460F552736
:10529000551F860F4F3F51050CF08FEF809319017A
:1052A0001F928F9382E297E0AFCF80911801482F31
:1052B000460F5527551F860F4F3F51050CF08FEFB6
:1052C000809318011F928F9387E097E09DCF8430E1
:1052D00009F441C038F4823011F1833071F181302A
:1052E00041F00895853009F444C0863009F44FC078
:1052F000089580911D01681780F4861B80931D011D
:105300001F928F9388EF96E09F938F930E949E0841
:105310000F900F900F900F90089580E0EFCF809145
:105320001C01681740F4861B80931C011F928F9309
:1053300086EE96E0E9CF80E0F7CF80911B016817F9
:1053400040F4861B80931B011F928F9383ED96E0A0
:10535000DBCF80E0F7CF80911A01681740F4861BFD
:1053600080931A011F928F938EEB96E0CDCF80E051
:10537000F7CF80911901681740F4861B80931901BB
:105380001F928F9385EA96E0BFCF80E0F7CF8091A0
:105390001801681740F4861B809318011F928F93A1
:1053A0008AE896E0B1CF80E0F7CFCF93C82F1F9265
:1053B0008F938FE899E09F938F930E949E0861E0FE
:1053C00070E080E090E004C0660F771F881F991F8F
:1053D000CA95D2F70E9468220F900F900F900F90FD
:1053E000CF910C94911B8A3258F4863098F0EAEFF2
:1053F000E80FE43278F4F0E0EE58F84F0C94832D87
:10540000833470F48A3308F0EDC0853309F4E4C0C6
:105410008833E9F086E59AE00E94050880E0089567
:10542000833409F4D9C08834A9F70E94911B8BE713
:105430009CE00E9405082FEF83ED90E3215080400F
:105440009040E1F700C000000E94D82504C08BEB1B
:1054500099E00E94050881E008958091DC03807F37
:105460008093DC0384E999E00E9405088CE89CE0C5
:105470000E94050881E08093EB03EDCF8091DC036F
:1054800080FF0AC08EE69CE00E9405088091DC0344
:10549000807F8093DC03DFCF82E69CE00E940508DA
:1054A0008091DC038160F5CF9091DC03892F8D7FA3
:1054B00091FF82608093DC0381FF03C085E59CE05F
:1054C000EDCF87E49CE0C5CF9091DC03892F8B7FE3
:1054D00092FF84608093DC0382FF03C088E39CE03A
:1054E000DDCF88E29CE0B5CF9091DC03892F877FE8
:1054F00093FF88608093DC0383FF03C08CE19CE012
:10550000CDCF8FE09CE0A5CF80E09CE00E94050815
:105510008AED9BE00E94050882E99BE00E94050855
:105520008AE69BE00E94050885E19BE00E94050851
:1055300089EE9AE08ECF8BED9AE00E9405080E94DA
:1055400029191F928F9381EC9AE09F938F930E9469
:105550009E08809114011F928F938AEA9AE09F938C
:105560008F930E949E088091D4021F928F9387E9A7
:105570009AE09F938F930E949E08809115011F923D
:105580008F9384E89AE09F938F930E949E080E94D5
:1055900099259F938F937F936F938DE69AE09F93C6
:1055A0008F930E949E088DB79EB746960FB6F894CB
:1055B0009EBF0FBE8DBF4FCF0E94911B80911501E2
:1055C00091E0892780931501811519F083E69AE00F
:1055D00040CF88E59AE03DCF80E00E94D5293BCFBF
:1055E0008D51FBCF8953F9CF80E0089580E0089575
:1055F000CF93C82F8091EB038130B1F0823009F452
:1056000049C0811137C1E0911601F09117018081E5
:10561000823209F031C18C2F0E94F42A81112EC0F0
:105620008C2FCF910C94F329E0911601F091170182
:105630008081823281F38C2F0E94F62A811118C05A
:10564000C431C1F048F4CB3059F0C031C9F085E81D
:1056500099E00E94050810C0C93261F0C833B9F75B
:1056600084E999E00E9405088BE899E00E9405080A
:1056700081E003C01092EB0380E08170CF91089528
:105680000E94CA2887E899E00E94050882E080937A
:10569000EB03EECFC93209F442C048F5C33109F437
:1056A0004EC050F4C73009F4CBC0CB30A9F189E229
:1056B00098E00E94050841C0C43189F182EE8C0F48
:1056C0008630A8F7CD51C093EA038091EA03811593
:1056D00009F4CDC01F928F9383E298E09F938F933C
:1056E0000E949E080F900F900F900F9026C0CE340E
:1056F00009F4A4C050F4C83379F06AE0CB34B9F6A9
:105700008091EA030E94E128E0CFC13509F490C0FE
:1057100061E0C235A9F3CBCF0E94CA28D6CF8091D1
:10572000EA03811519F01092EA03CFCF88E398E0DD
:105730000E94050881E08093EB0381E09FCF82E126
:1057400098E00E94050880E098E00E94050880919A
:105750001D011F928F938DEF97E09F938F930E946F
:105760009E088BEF97E00E94050889EE97E00E9463
:10577000050880911C011F928F9386EE97E09F93FE
:105780008F930E949E0884EE97E00E94050885EDA5
:1057900097E00E94050880911B011F928F9382ED74
:1057A00097E09F938F930E949E0880ED97E00E9460
:1057B00005088FEB97E00E94050880911A011F925F
:1057C0008F938CEB97E09F938F930E949E088AEBB8
:1057D00097E00E94050885EA97E00E9405088091FD
:1057E00019011F928F9382EA97E09F938F930E94F3
:1057F0009E0880EA97E00E94050889E897E00E94E9
:105800000508809118011F928F9386E897E09F9377
:105810008F930E949E0884E897E00E9405088DB748
:105820009EB748960FB6F8949EBF0FBE8DBF4DCF62
:1058300061E08091EA030E94672947CF6AE0F9CFCF
:105840008EE180931D0182E380931C018AE08093A6
:105850001B0184E180931A0188E08093190188E29A
:10586000809318018BE298E00E9405082ECF80E219
:1058700098E01FCF1092EB0380E000CF0E94452CF0
:105880006894B1110C94D42C08950E94B92C88F01E
:105890009F5798F0B92F9927B751B0F0E1F0660FF4
:1058A000771F881F991F1AF0BA95C9F714C0B13035
:1058B00091F00E94D32CB1E008950C94D32C672F63
:1058C000782F8827B85F39F0B93FCCF38695779564
:1058D0006795B395D9F73EF490958095709561954D
:1058E0007F4F8F4F9F4F0895E89409C097FB3EF478
:1058F00090958095709561957F4F8F4F9F4F99231D
:10590000A9F0F92F96E9BB279395F695879577959A
:105910006795B795F111F8CFFAF4BB0F11F460FF5A
:105920001BC06F5F7F4F8F4F9F4F16C0882311F0B2
:1059300096E911C0772321F09EE8872F762F05C0C6
:10594000662371F096E8862F70E060E02AF09A9561
:10595000660F771F881FDAF7880F9695879597F956
:10596000089557FD9058440F551F59F05F3F71F04F
:105970004795880F97FB991F61F09F3F79F08795B6
:105980000895121613061406551FF2CF4695F1DF3F
:1059900008C0161617061806991FF1CF86957105CF
:1059A000610508940895E894BB2766277727CB0103
:1059B00097F908950E94ED2C0C945E2D0E94502DB5
:1059C00038F00E94572D20F0952311F00C94472DAC
:1059D0000C944D2D11240C94D42C0E94B12C70F3F6
:1059E000959FC1F3950F50E0551F629FF001729F84
:1059F000BB27F00DB11D639FAA27F00DB11DAA1F93
:105A0000649F6627B00DA11D661F829F2227B00DDF
:105A1000A11D621F739FB00DA11D621F839FA00D6A
:105A2000611D221F749F3327A00D611D231F849FBA
:105A3000600D211D822F762F6A2F11249F57504011
:105A40009AF0F1F088234AF0EE0FFF1FBB1F661F8C
:105A5000771F881F91505040A9F79E3F510580F055
:105A60000C94472D0C94D42C5F3FE4F3983ED4F370
:105A7000869577956795B795F795E7959F5FC1F7F9
:105A8000FE2B880F911D9695879597F9089597F9A4
:105A90009F6780E870E060E008959FEF80EC0895D4
:105AA00000240A94161617061806090608950024FD
:105AB0000A9412161306140605060895092E039477
:105AC000000C11F4882352F0BB0F40F4BF2B11F4EB
:105AD00060FF04C06F5F7F4F8F4F9F4F089597FB0C
